:100000000C9490000C94B8000C94B8000C94B800B8
:100010000C94B8000C94B8000C94B8000C94DC025A
:100020000C94B8000C94B8000C94B8000C94B80070
:100030000C94B8000C94B8000C94B8000C94B80060
:100040000C9416110C94B8000C94A1040C947B042D
:100050000C94B8000C94B8000C94B8000C94B80040
:100060000C94B8000C94B80008000000BE9224491B
:10007000123EABAAAA2ABECDCCCC4C3E00000080DA
:10008000BEABAAAAAA3E00000000BF000000803F4D
:100090000000000000084178D3BB4387D1133D190D
:1000A0000E3CC3BD4282AD2B3E68EC8276BED98F3A
:1000B000E1A93E4C80EFFFBE01C4FF7F3F0000007E
:1000C000000000000000240027002A0000000000BB
:1000D00023002600290000000008000201000003A0
:1000E00004070000000000000000010204081020C6
:1000F00040800102040810200102040810200000C2
:100100000000250028002B00040404040404040457
:100110000202020202020303030303030200C227D6
:1001200011241FBECFEFD8E0DEBFCDBF13E0A0E0AB
:10013000B1E0EAE8F7E502C005900D92A635B107F7
:10014000D9F725E0A6E5B3E001C01D92AE31B207B4
:10015000E1F710E0C0E9D0E004C02197FE010E9461
:10016000B82BCF38D107C9F70E9460110C94C32B6C
:100170000C940000CF92DF92EF92FF920F931F93A7
:10018000CF93DF936C017A018B01C0E0D0E0CE15F4
:10019000DF0581F0D8016D918D01D601ED91FC91C3
:1001A0000190F081E02DC6010995892B11F021966F
:1001B000EECF7E01C701DF91CF911F910F91FF908C
:1001C000EF90DF90CF900895FC01538D448D252F43
:1001D00030E0842F90E0821B930B541710F0CF96E1
:1001E000089501970895FC01918D828D981761F013
:1001F000828DDF01A80FB11D5D968C91928D9F5F5E
:100200009F73928F90E008958FEF9FEF0895FC0108
:10021000918D828D981731F0828DE80FF11D858DBB
:1002200090E008958FEF9FEF0895FC01918D228D4E
:10023000892F90E0805C9F4F821B91098F739927D3
:1002400008958EEC93E00E94150121E0892B09F4BA
:1002500020E0822F0895FC01848DDF01A80FB11DDD
:10026000A35ABF4F2C91848D90E001968F739927EC
:10027000848FA689B7892C93A089B1898C918370CA
:1002800080648C93938D848D981306C00288F389C3
:10029000E02D80818F7D80830895EF92FF920F93F0
:1002A0001F93CF93DF93EC0181E0888F9B8D8C8D22
:1002B000981305C0E889F989808185FD26C0F62E4E
:1002C0000B8D10E00F5F1F4F0F731127E02E8C8DE9
:1002D000E8120CC00FB607FCFACFE889F9898081D3
:1002E00085FFF5CFCE010E942B01F1CF8B8DFE0152
:1002F000E80FF11DE35AFF4FF0829FB7F8940B8F80
:10030000EA89FB89808180620AC09FB7F894EE89F0
:10031000FF896083E889F9898081837080648083A4
:100320009FBF81E090E0DF91CF911F910F91FF90EF
:10033000EF900895CF93DF93EC01888D8823C9F067
:10034000EA89FB89808185FD05C0A889B9898C91DE
:1003500086FD0FC00FB607FCF5CF808185FFF2CF79
:10036000A889B9898C9185FFEDCFCE010E942B0120
:10037000E7CFDF91CF91089580E090E0892B29F0BD
:100380000E94210181110C9400000895089580E0DD
:1003900090E008950E94BE2BCF93DF93EC0160E0C4
:1003A0008E810E94840C61E08E810E94840C60E04A
:1003B0008E810E94840C8BE891E00197F1F7DF9128
:1003C000CF910895CF93DF93EB010E94712888832A
:1003D000CE01DF91CF910895CF92DF92EF92FF92FD
:1003E0000F931F93CF93DF93EB017B0124E0E20E89
:1003F000F11C8B016C01C61AD70AC601800F911F30
:100400000E947128F80181938F01EE15FF05A9F76D
:10041000CE01DF91CF911F910F91FF90EF90DF9070
:10042000CF9008950F931F93CF93DF938C01EB012F
:100430000E9471288883C80101960E9471288983CF
:10044000CE01DF91CF911F910F910895FF920F93ED
:100450001F93CF93DF93EC01F62E08811981C80119
:100460000E947128F81621F06F2DC8010E9479288A
:10047000CE01DF91CF911F910F91FF9008950F93BF
:100480001F93CF93DF9300D0CDB7DEB78B01FB0175
:1004900060819A838983CE0101960E942602C80159
:1004A0000F900F90DF91CF911F910F910895AF9210
:1004B000BF92CF92DF92EF92FF920F931F93CF9351
:1004C000DF9300D0CDB7DEB78B016B0124E0C20E05
:1004D000D11C7B015C01A61AB70AC5018E0D9F1DB8
:1004E000F70161917F019A838983CE0101960E9471
:1004F0002602EC14FD0489F7C8010F900F90DF91DC
:10050000CF911F910F91FF90EF90DF90CF90BF9010
:10051000AF900895EF92FF920F931F93CF93DF93C5
:1005200000D0CDB7DEB78C017B01FB0160819A83DF
:100530008983CE0101960E942602F70161810F5F37
:100540001F4F1A830983CE0101960E942602C7011C
:100550000F900F90DF91CF911F910F91FF90EF902F
:10056000089590911701891324C0ECE1F1E0E49122
:100570009FEF90931701E130B9F098F0E230C9F4A1
:10058000909170009D7F9093700091E09093B000E7
:100590009091B100987F94609093B1001092B30055
:1005A00008C010926E0005C090916F009D7F9093DF
:1005B0006F0060E00C94840C1F920F920FB60F92A4
:1005C00011242F933F934F935F936F937F938F9358
:1005D0009F93AF93BF93EF93FF938091CA03909142
:1005E000CB03A091CC03B091CD03892B8A2B8B2B0D
:1005F00051F19091C703E091C803F091C903808144
:10060000892780838091CA039091CB03A091CC036A
:10061000B091CD03181619061A061B06C4F4809172
:10062000CA039091CB03A091CC03B091CD03019765
:10063000A109B1098093CA039093CB03A093CC0383
:10064000B093CD0304C0809117010E94B102FF91C5
:10065000EF91BF91AF919F918F917F916F915F913A
:100660004F913F912F910F900FBE0F901F901895B3
:10067000DC01ED91FC910190F081E02D0994611570
:10068000710579F0FB0101900020E9F73197AF0186
:10069000461B570BDC01ED91FC910280F381E02DAC
:1006A000099480E090E008958F929F92AF92BF925C
:1006B000EF92FF920F931F93CF93DF93CDB7DEB7E7
:1006C000A1970FB6F894DEBF0FBECDBF7C01FA0133
:1006D000CB0119A2223008F42AE08E010F5D1F4FD2
:1006E000822E912CA12CB12CBF01A50194010E9456
:1006F000632BF901CA01015011096A3014F4605DDD
:1007000001C0695CD8016C93232B242B252B61F746
:10071000B801C7010E943F03A1960FB6F894DEBF4F
:100720000FBECDBFDF91CF911F910F91FF90EF9042
:10073000BF90AF909F908F9008957F928F929F92DD
:10074000AF92BF92CF92DF92EF92FF920F931F93DF
:10075000CF93DF938C016A017B01722E9A01AB016A
:10076000C701B6010E94152B882319F064E373E0DA
:1007700027C046015701E894B7F82FEF3FEF4FE746
:100780005FE7C501B4010E94152B81110DC02FEF49
:100790003FEF4FE75FE7C501B4010E94F428181648
:1007A0001CF468E373E00CC02FEF3FEF4FE75FE40A
:1007B000C701B6010E94532A181694F46CE373E043
:1007C000C801DF91CF911F910F91FF90EF90DF90C3
:1007D000CF90BF90AF909F908F907F900C943F03ED
:1007E0002FEF3FEF4FE75FECC701B6010E94F428FF
:1007F00087FDE4CF20E030E0A901C701B6010E94E7
:10080000F42887FF0AC06DE2C8010E943803EC019A
:10081000F7FAF094F7F8F09402C0C0E0D0E0B12C01
:1008200060E070E080E09FE3B71440F420E030E047
:1008300040E251E40E94F928B394F6CFA701960153
:100840000E9488286B017C010E9472294B015C0187
:100850002AE0AB01BC01C8010E945403C80FD91F94
:100860007720C1F1C501B4010E94A1299B01AC010F
:10087000C701B6010E9487286B017C016EE2C801A6
:100880000E943803C80FD91F20E030E040E251E455
:10089000C701B6010E94A82A4B015C010E9472297F
:1008A0006B01E12CF12C2AE0B701A601C8010E94DE
:1008B0005403C80FD91FC701B6010E94A1299B018B
:1008C000AC01C501B4010E9487286B017C017A94B8
:1008D0007110DACFCE01DF91CF911F910F91FF9070
:1008E000EF90DF90CF90BF90AF909F908F907F90D0
:1008F00008950C943F031F920F920FB60F9211248C
:100900002F933F934F935F936F937F938F939F9317
:10091000AF93BF93EF93FF938EEC93E00E942B0174
:10092000FF91EF91BF91AF919F918F917F916F91C7
:100930005F914F913F912F910F900FBE0F901F909D
:1009400018951F920F920FB60F9211242F938F9329
:100950009F93EF93FF93E091DE03F091DF0380819B
:10096000E091E403F091E50382FD12C09081809153
:10097000E7038F5F8F732091E803821751F0E091B6
:10098000E703F0E0E253FC4F958F8093E70301C04B
:100990008081FF91EF919F918F912F910F900FBECA
:1009A0000F901F901895CF92DF92EF92FF920F93C6
:1009B0001F93CF93DF936C017C0187E0E80EF11C5D
:1009C000C0E0D0E0062F10E0B8010C2E02C07595F3
:1009D00067950A94E2F76170F70181917F010E94A7
:1009E000840C2196C430D10579F7C601DF91CF91EF
:1009F0001F910F91FF90EF90DF90CF900C94CC015E
:100A0000CF92DF92EF92FF920F931F93CF93DF93DA
:100A1000EC01F62E642F8C810E94840C8D818F3F17
:100A200019F060E00E94840C8F850F2D10E084FF88
:100A300025C06E0187E0C80ED11CE12CF12CB80155
:100A40000E2C02C0759567950A94E2F76170F60165
:100A500081916F010E94840CFFEFEF1AFF0A88E07A
:100A6000E816F10461F7CE01DF91CF911F910F914C
:100A7000FF90EF90DF90CF900C94CC01B80184E010
:100A8000759567958A95E1F7CE010E94D3046F2D85
:100A9000CE01DF91CF911F910F91FF90EF90DF90EA
:100AA000CF900C94D30441E00E94000581E090E0D7
:100AB00008958F929F92AF92BF92CF92DF92EF9262
:100AC000FF92CF93DF93EC01EE8DFF8DC080D1803C
:100AD000E280F380CEA2DFA2E8A6F9A6EC8DFD8D20
:100AE00080819181A281B3818AA79BA7ACA7BDA772
:100AF0008EA89FA8A8ACB9ACA5019401C701B60106
:100B00000E94532A181664F08AA89BA8ACA8BDA816
:100B1000A5019401C701B6010E94F42887FF04C013
:100B20008EA29FA2A8A6B9A6DF91CF91FF90EF90C9
:100B3000DF90CF90BF90AF909F908F9008954F928D
:100B40005F926F927F928F929F92AF92BF92CF925D
:100B5000DF92EF92FF920F931F93CF93DF9300D01A
:100B600000D000D0CDB7DEB79E838D832A013B0134
:100B70004801590120E030E0A901C301B2010E94FF
:100B8000F42887FD89C020E030E0A901C501B40147
:100B90000E94F42887FD80C020E030E0A901C70151
:100BA000B6010E94F42887FD77C081E0ED81FE81C7
:100BB000228D338D2130310509F080E0ED81FE81F9
:100BC00083AF408251826282738284829582A68240
:100BD000B782C086D186E286F38666A577A580A90E
:100BE00091A90E94A12920E030E04AE754E40E9444
:100BF000F92869837A838B839C83ED81FE81448607
:100C00005586668677869B01AC01C501B4010E94BA
:100C1000A82A4B015C01ED81FE81608B718B828B78
:100C2000938B29813A814B815C81C701B6010E9477
:100C3000F9286B017C01ED81FE81648B758B868BBD
:100C4000978B808D918D019739F5A301920160E01A
:100C500070E0CB010E948728ED81FE816487758753
:100C600086879787A501940160E070E0CB010E9420
:100C70008728ED81FE81608B718B828B938BA7011E
:100C8000960160E070E0CB010E948728ED81FE8133
:100C9000648B758B868B978B26960FB6F894DEBF88
:100CA0000FBECDBFDF91CF911F910F91FF90EF90BD
:100CB000DF90CF90BF90AF909F908F907F906F907C
:100CC0005F904F9008952F923F924F925F926F9254
:100CD0007F928F929F92AF92BF92CF92DF92EF92CC
:100CE000FF920F931F93CF93DF93CDB7DEB760973B
:100CF0000FB6F894DEBF0FBECDBFDC01DA96BC9113
:100D0000B983B11102C019822BC1988B8F870E94C1
:100D100050106E837F8388879987EF85F88982A139
:100D200093A1A4A1B5A14E815F8168857985481BF7
:100D3000590B6A0B7B0B86A597A5A0A9B1A94817EB
:100D400059076A077B07F8F2048CF58DE02D808146
:100D50009181A281B3818A839B83AC83BD83AF855C
:100D6000B8899096ED91FC9191972A813B814C81B5
:100D70005D8160817181828193810E9487284B010E
:100D80005C01EF85F88922A533A544A555A56A81A4
:100D90007B818C819D810E9487286B017C01AF85BE
:100DA000B88950962D913D914D915C915397C50115
:100DB000B4010E94A82AEF85F88926A137A140A591
:100DC00051A50E9488282B013C01AF85B8899696D1
:100DD0006D937D938D939C939997DB96BC91BA8785
:100DE000B11118C0EF85F88924853585468557856A
:100DF000C701B6010E94A82A9B01AC01C301B20140
:100E00000E948728AF85B88996966D937D938D93C0
:100E10009C939997EF85F88946A057A060A471A488
:100E200016A907A930AC21AC212F302F432D522D0C
:100E3000C301B2010E94532A18162CF4812F902F5F
:100E4000A32DB22D18C0AF85B889D2968D919D91F2
:100E50000D90BC91A02D8B879C87AD87BE879C0190
:100E6000AD01C301B2010E94F42887FF0AC08B853F
:100E70009C85AD85BE85EF85F88986A397A3A0A73D
:100E8000B1A7FA85FF2379F0AF85B8891C962D911B
:100E90003D914D915C911F97C501B4010E94A82A14
:100EA0004B015C0103C0812C912C5401EF85F88922
:100EB0002489358946895789C701B6010E94A82A25
:100EC0009B01AC01AF85B88996966D917D918D910E
:100ED0009C9199970E948728A50194010E948828D7
:100EE0006B017C019B01AC01612F702F832D922D32
:100EF0000E94F42887FD14C0EF85F88912A903A980
:100F000034A825A8212F302F432D522DB601C7011B
:100F10000E94F42887FD04C01C2D0D2D3E2C2F2C83
:100F2000AF85B8895E96ED91FC915F97812F902FE8
:100F3000A32DB22D80839183A283B3838A819B8169
:100F4000AC81BD81EF85F88982A793A7A4A7B5A737
:100F50008E819F81A885B98582A393A3A4A3B5A3FD
:100F6000898160960FB6F894DEBF0FBECDBFDF91CA
:100F7000CF911F910F91FF90EF90DF90CF90BF9096
:100F8000AF909F908F907F906F905F904F903F9029
:100F90002F90089510926B031092660310925903DC
:100FA0001092580360E08CE00E94840C67E072E0CD
:100FB0008EEC93E00E94790480915603813021F4F5
:100FC0008EE092E00E94480C80915603823021F41A
:100FD0008CE192E00E94480C80915603833021F40A
:100FE0008AE292E00E94480C80915603843021F4FA
:100FF00088E392E00E94480C80915603853021F4EA
:1010000086E492E00E94480C80915603863021F4D9
:1010100081E592E00E94480C60E08DE00C94840C25
:10102000CF92DF92EF92FF920F931F9380910F0167
:1010300090911001A0911101B091120180936B0465
:1010400090936C04A0936D04B0936E04809162033E
:1010500090916303A0916403B0916503809373043E
:1010600090937404A0937504B093760487E794E09A
:101070000E9463060E945010C0905E03D0905F03F0
:10108000E0906003F09061032091300130913101D4
:101090008901330F220B330BAB01BC014C195D09E5
:1010A0006E097F09041715072607370770F4D70163
:1010B000C601800F911FA21FB31F80935E03909300
:1010C0005F03A0936003B09361030E945010C0902F
:1010D0005E03D0905F03E0906003F09061036C19B1
:1010E0007D098E099F090E94A12920916F043091EA
:1010F000700440917104509172040E94532A181692
:1011000014F460E001C061E08BE01F910F91FF904B
:10111000EF90DF90CF900C94840C0F931F938091ED
:10112000130190911401A0911501B09116018093C3
:10113000B3049093B404A093B504B093B604809123
:10114000670390916803A0916903B0916A0380934B
:10115000BB049093BC04A093BD04B093BE048FEB7A
:1011600094E00E9463060E94501000915A0310916F
:101170005B0320915C0330915D03AB01BC01401B1C
:10118000510B620B730B493E53406105710570F0C2
:10119000D901C80188519C4FAF4FBF4F80935A036C
:1011A00090935B03A0935C03B0935D030E94501087
:1011B00000915A0310915B0320915C0330915D0311
:1011C000601B710B820B930B0E94A1292091B70425
:1011D0003091B8044091B9045091BA040E94532A46
:1011E000181614F460E001C061E08AE01F910F91CD
:1011F0000C94840C6DEB73E080E090E00E948A0216
:1012000063E171E088E090E00E94570261E071E0E4
:101210008CE090E00E948A0264E071E080E190E05E
:101220000E948A0264E271E084E190E00E94570229
:1012300068E271E088E190E00E9457026CE271E0A0
:101240008CE190E00E9457026BE071E080E290E058
:101250000E9457026FE071E084E290E00E94570222
:1012600068E171E088E290E00E9457026CE171E071
:101270008CE290E00E94570260E271E080E390E02F
:101280000E94570260E071E084E390E00E943F0218
:1012900067E573E088E390E00E943F0263E071E05D
:1012A0008CE390E00C943F02CF92DF92EF92FF929A
:1012B0000F931F93CF93DF9300D0CDB7DEB780910C
:1012C0008000807E81608093800080918100807E9C
:1012D0008A608093810098E288E10FB6F894A8951F
:1012E000809360000FBE9093600060E082E10E94F6
:1012F000B30C60E085E10E94B30C61E08AE00E94DB
:10130000B30C61E08BE00E94B30C61E080E10E94CD
:10131000B30C61E08FE00E94B30C61E081E10E94B8
:10132000B30C61E08CE00E94B30C62E083E10E94A8
:10133000B30C61E08DE00E94B30C61E08DE00E948F
:10134000840C6DEB73E080E090E00E9412028091CB
:10135000BD039091BE030196C1F400E010E01A8233
:101360001982BE016F5F7F4FC8010E948A020F5F22
:101370001F4F0F3F81E0180791F781E090E09093B5
:10138000BE038093BD030E94FA086DEB73E080E01A
:1013900090E00E94120263E171E088E090E00E9418
:1013A000EC0161E071E08CE090E00E94120264E0E8
:1013B00071E080E190E00E94120264E271E084E159
:1013C00090E00E94EC0168E271E088E190E00E9408
:1013D000EC016CE271E08CE190E00E94EC016BE0CA
:1013E00071E080E290E00E94EC016FE071E084E245
:1013F00090E00E94EC0168E171E088E290E00E94D8
:10140000EC016CE171E08CE290E00E94EC0160E2A2
:1014100071E080E390E00E94EC0160E071E084E321
:1014200090E00E94E20167E573E088E390E00E94AB
:10143000E20163E071E08CE390E00E94E2018091C0
:10144000BD039091BE0301969093BE038093BD03AC
:1014500082E00E94EF0C60E071E084E390E00E9483
:10146000E2018091000181508E3F18F082E8809364
:10147000000160E084E00E94000C60E473E08BEF08
:1014800094E00E94790461E082E00E94000C68E42C
:1014900073E08BEF94E00E9479046FEF70E089E0D5
:1014A0000E94A00F08EC10E08091000190E08017EE
:1014B00091076CF4B80189E00E94A00F6AE070E027
:1014C00080E090E00E94161001501109EDCF68EE07
:1014D00073E080E090E00E9416106091000170E0DF
:1014E00089E00E94A00F0E94F80BE091DE03F091CA
:1014F000DF0382E08083E091DA03F091DB03108266
:10150000E091DC03F091DD0380E180831092E6033B
:10151000E091E203F091E30386E08083E091E00351
:10152000F091E103808180618083E091E003F0919C
:10153000E103808188608083E091E003F091E10322
:10154000808180688083E091E003F091E1038081F5
:101550008F7D80830E94501060935A0370935B03C9
:1015600080935C0390935D0340E050E06AE774E48D
:101570008FEB94E00E94830B8091F904811104C0E9
:101580008FEB94E00E94590581E08093F904C090AC
:101590002C01D0902D01E0902E01F0902F010091B0
:1015A00028011091290120912A0130912B014091AD
:1015B00024015091250160912601709127018FEB44
:1015C00094E00E949F050E94501060935E03709308
:1015D0005F03809360039093610360913001709189
:1015E0003101072E000C880B990B0E94A329AB0137
:1015F000BC0187E794E00E94830B8091B1048111C4
:1016000004C087E794E00E94590581E08093B1040B
:10161000C0902001D0902101E0902201F0902301A0
:1016200000911C0110911D0120911E0130911F019C
:10163000409118015091190160911A0170911B019C
:1016400087E794E00E949F050F900F90DF91CF9164
:101650001F910F91FF90EF90DF90CF90089583300E
:1016600081F028F4813099F08230A1F0089587301C
:10167000A9F08830B9F08430D1F4809180008F7D5A
:1016800003C0809180008F7780938000089584B597
:101690008F7702C084B58F7D84BD08958091B0009E
:1016A0008F7703C08091B0008F7D8093B000089544
:1016B0003FB7F8948091C3039091C403A091C503F0
:1016C000B091C60326B5A89B05C02F3F19F001961F
:1016D000A11DB11D3FBFBA2FA92F982F8827820FB8
:1016E000911DA11DB11DBC01CD0142E0660F771F08
:1016F000881F991F4A95D1F7089540E0682F8BEF16
:1017000094E00C9400058F929F92AF92BF92CF927B
:10171000DF92EF92FF920F931F93CF93DF93EC0131
:101720006A017B0120E030E0A901C701B6010E94F7
:10173000F42818160CF04FC01AAA1BAA1CAA1DAA3E
:10174000CEAADFAAE8AEF9AE8AAD882309F443C079
:101750000E8D1F8DF80180809180A280B380A5013D
:101760009401C701B6010E94F42887FF06C0F80162
:10177000C082D182E282F3820EC020E030E0A90173
:10178000C501B4010E94F42887FF05C0F80110824A
:101790001182128213828EA09FA0A8A4B9A4CEA801
:1017A000DFA8E8ACF9ACA7019601C501B4010E941D
:1017B000532A181664F0CAA8DBA8ECA8FDA8A70154
:1017C0009601C501B4010E94F42887FF04C0CEA28F
:1017D000DFA2E8A6F9A6DF91CF911F910F91FF90AC
:1017E000EF90DF90CF90BF90AF909F908F90089533
:1017F00081E00E947D0B8BE39FE10197F1F7089553
:10180000643008F063E090910E05691710F06FEFF7
:10181000690FE62FF0E0E550FB4F9489890F80684F
:101820000C947D0BCF92DF92EF92FF920F931F9358
:10183000CF93DF936B01770FEE08FF08F7FE1BC015
:10184000EC016DE20E9438038C0144275527BA0150
:101850004C195D096E097F092AE0CE010E945403EC
:10186000800F911FDF91CF911F910F91FF90EF900B
:10187000DF90CF9008952AE0B701A601DF91CF91C4
:101880001F910F91FF90EF90DF90CF900C94540335
:10189000CF93DF93BC018EEC93E00E943F03EC01F9
:1018A00061E373E08EEC93E00E943F038C0F9D1F79
:1018B000DF91CF910895CF93DF93282F30E0F90186
:1018C000EA52FF4F8491F901E651FF4FD491F9019B
:1018D000E85FFE4FC491CC2391F081110E942F0B41
:1018E000EC2FF0E0EE0FFF1FE453FF4FA591B491F2
:1018F000EC91ED2381E090E021F480E002C080E0F3
:1019000090E0DF91CF9108951F93CF93DF93282F1D
:1019100030E0F901EA52FF4F8491F901E651FF4F9F
:10192000D491F901E85FFE4FC491CC23C1F0162F8A
:1019300081110E942F0BEC2FF0E0EE0FFF1FE25001
:10194000FF4FA591B4919FB7F894111104C08C91E9
:10195000D095D82302C0EC91DE2BDC939FBFDF91A2
:10196000CF911F910895CF93DF9390E0FC01E65152
:10197000FF4F2491FC01E85FFE4F8491882361F1C1
:1019800090E0880F991FFC01EE53FF4FC591D49151
:10199000FC01E250FF4FA591B491611109C09FB7BE
:1019A000F8948881209582238883EC912E230BC0A4
:1019B000623061F49FB7F8948881322F3095832389
:1019C0008883EC912E2B2C939FBF06C08FB7F89481
:1019D000E8812E2B28838FBFDF91CF910895CF937D
:1019E000DF93823028F090910A05986090930A0561
:1019F00080930E0510920F0580E48093100580E11E
:101A00008093110580E58093120561E08091FF04C9
:101A10000E94B30C809100058F3F19F061E00E9495
:101A2000B30C61E0809101050E94B30CCBEFD4E0D0
:101A30009E012B5F344080910A0584FD03C084E041
:101A400090E002C088E090E02196281739072CF436
:101A500061E08E810E94B30CEBCF8BE39DE0019798
:101A6000F1F760E08091FF040E94840C60E08091B7
:101A700001050E94840C809100058F3F19F060E001
:101A80000E94840C80910A0584FD20C063E08BEFE6
:101A900094E00E94D304CBE4D6E4CE010197F1F7A1
:101AA00063E08BEF94E00E94D3042197F1F763E0A9
:101AB0008BEF94E00E94D30483E592E00197F1F765
:101AC00062E08BEF94E00E94D30415C080620E9414
:101AD0007D0B8BE496E40197F1F780910A05806213
:101AE0000E947D0B83E592E00197F1F780910A0552
:101AF00080620E947D0B80910A0580620E947D0BAE
:101B000084E080930B058CE00E947D0B0E94F80B13
:101B100082E080930C0586E0DF91CF910C947D0BE1
:101B20008F929F92AF92BF92CF92DF92EF92FF92ED
:101B30001F93CF93DF93EC0180911701803121F047
:101B40008F3F09F0F1C104C0ECE1F1E014916FC0E6
:101B500080E180931701ECE1F1E014911F3F09F45B
:101B6000E3C1113009F440C030F1123009F05FC018
:101B70001092B0001092B1008091B000826080930A
:101B8000B0008091B10081608093B100E8E1F1E0A4
:101B9000E491F0E0EE0FFF1FE250FF4F859194912A
:101BA0009093C9038093C803EAEFF0E0E491E093D7
:101BB000C70312E0B4C114BC15BC84B5826084BDF7
:101BC00085B5816085BDE8E1F1E0E491F0E0EE0FDC
:101BD000FF1FE250FF4F85919491EAEFF0E0E4910E
:101BE000E093140510E09BC11092800010928100D8
:101BF0008091810088608093810080918100816064
:101C000080938100E8E1F1E0E491F0E0EE0FFF1F46
:101C1000E250FF4F85919491EAEFF0E0E491E09378
:101C2000130561E080E10E94B30C11E0A5C017FD2F
:101C30007BC161E080E10E94B30C812F8D7F09F0B0
:101C40009BC06E01E12CF12C60E072E18AE790E02C
:101C5000A70196010E94852B49015A01BA01A901E9
:101C600041505109610971094F3F510561057105E5
:101C700009F008F445C060E472E48FE090E0A70149
:101C800096010E94852BBA01A901415051096109B1
:101C900071091230E9F44F3F51056105710509F0F2
:101CA00008F4DDC060E970ED83E090E0A7019601E3
:101CB0000E94852BBA01A90141505109610971099E
:101CC0004F3F51056105710509F020F583E04DC0D6
:101CD0004F3F510561057105A9F0A0F068E478EE69
:101CE00081E090E0A70196010E94852BBA01A9012D
:101CF0004150510961097109112309F4E1C0D8C0AB
:101D000081E001C082E0111130C095B5987F892B28
:101D100085BD69C068E478EE81E090E0A701960196
:101D20000E94852BBA01A90141505109610971092D
:101D30004F3F51056105710509F008F48EC064E25A
:101D400074EF80E090E0A70196010E94852BBA0114
:101D5000A90141505109610971094F3F51056105C0
:101D6000710511F008F07DC085E09091B100987F79
:101D7000892B8093B10031C06E01E12CF12C60E021
:101D800072E18AE790E0A70196010E94852BBA01D3
:101D9000A90141505109610971094115510581E0BD
:101DA0006807710580F068E478EE81E090E0A701B3
:101DB00096010E94852BBA01A90141505109610980
:101DC000710983E001C081E0113039F49091810004
:101DD000987F892B8093810018C01130B1F01230A8
:101DE00049F11111A1C047BD8FEF9FEFDC01809336
:101DF000190590931A05A0931B05B0931C058091BB
:101E00006E00826080936E008FC050938900409373
:101E100088008FEF9FEFDC018093150590931605E6
:101E2000A0931705B093180580916F00826080938E
:101E30006F007AC04093B3008FEF9FEFDC01809377
:101E4000CA039093CB03A093CC03B093CD038091AE
:101E5000700082608093700067C084E086CF82E06B
:101E600084CF62E17AE780E090E0A70196010E94CA
:101E7000852BBA01A90141505109610971094F3FF0
:101E800051056105710591F088F0D501C4012AE082
:101E9000B595A795979587952A95D1F7AC01BD0182
:101EA000415051096109710987E05FCF86E05DCF3C
:101EB0004F3F51056105710509F098F684E023CF85
:101EC0004F3F51056105710541F138F162E17AE753
:101ED00080E090E0A70196010E94852BBA01A9013C
:101EE00041505109610971094F3F51056105710563
:101EF00091F088F0D501C4013AE0B595A795979582
:101F000087953A95D1F7AC01BD014150510961095E
:101F1000710985E0FACE84E0F8CE83E0F6CE61E088
:101F200080E10E94B30C8DCEDF91CF911F91FF9085
:101F3000EF90DF90CF90BF90AF909F908F900895DB
:101F40001F93CF93DF93182FEB0161E00E94B30C36
:101F5000209711F460E004C0CF3FD10539F461E06F
:101F6000812FDF91CF911F910C94840CE12FF0E031
:101F7000EA52FF4FE491E330F9F048F4E130B9F070
:101F8000E230A1F584B5806284BDC8BD34C0E730BD
:101F9000E9F0E83019F1E43049F580918000806281
:101FA00080938000D0938B00C0938A0024C084B5B6
:101FB000806884BDC7BD1FC0809180008068809309
:101FC0008000D0938900C093880015C08091B00034
:101FD00080688093B000C093B3000DC08091B000C2
:101FE00080628093B000C093B40005C0C038D105B2
:101FF0000CF0B5CFAFCFDF91CF911F9108958E3008
:1020000008F08E508770806480937C0080917A0005
:10201000806480937A0080917A0086FDFCCF809165
:1020200078002091790090E0922B08958F929F92F2
:10203000AF92BF92CF92DF92EF92FF926B017C0141
:102040000E94580B4B015C01C114D104E104F1045E
:10205000F1F00E94580BDC01CB0188199909AA09FB
:10206000BB09883E9340A105B10570F321E0C21A77
:10207000D108E108F10888EE880E83E0981EA11CC3
:10208000B11CC114D104E104F10419F7DDCFFF90B4
:10209000EF90DF90CF90BF90AF909F908F9008957A
:1020A0002FB7F8946091BF037091C0038091C10372
:1020B0009091C2032FBF08954F925F926F927F92CB
:1020C0008F929F92AF92BF92CF92DF92EF92FF9248
:1020D0000F931F93CF93DF93CDB7DEB74C01DC0195
:1020E0005F965C934E935E975D967C936E935C9740
:1020F00091963C932E939097DA961C92FC0112AA2B
:1021000013AA14AA15AA80E090E0AFE7B3E486AB67
:1021100097ABA0AFB1AF84E690E0A0E0B0E086A7B7
:1021200097A7A0ABB1AB118E108E20E030E0A901D3
:10213000C801B7010E94F42887FD56C020E030E0B6
:10214000A901C601B5010E94F42887FD4DC020E019
:1021500030E0A9016B897C898D899E890E94F428D1
:1021600087FD42C081E090E0D4015B969C938E9302
:102170005A97DB968C93DB97F401E082F18202831D
:1021800013831496AD92BD92CD92DC9217978B89F2
:102190009C89AD89BE8980879187A287B387D40146
:1021A0001C96ED92FD920D931C931F972DEC3CEC29
:1021B0004CEC5DE3C601B5010E94A82AF401608BD6
:1021C000718B828B938B2DEC3CEC4CEC5DE36B893B
:1021D0007C898D899E890E94F928D40154966D933B
:1021E0007D938D939C9357970E945010F401C6A441
:1021F000D7A4E0A8F1A8DC01CB018C199D09AE0998
:10220000BF0982A393A3A4A3B5A3DF91CF911F918C
:102210000F91FF90EF90DF90CF90BF90AF909F9085
:102220008F907F906F905F904F9008951F920F92C4
:102230000FB60F9211242F933F938F939F93AF93D9
:10224000BF938091BF039091C003A091C103B0914F
:10225000C20330911D0523E0230F2D3720F4019692
:10226000A11DB11D05C026E8230F0296A11DB11DB9
:1022700020931D058093BF039093C003A093C103D7
:10228000B093C2038091C3039091C403A091C5038E
:10229000B091C6030196A11DB11D8093C303909315
:1022A000C403A093C503B093C603BF91AF919F91A0
:1022B0008F913F912F910F900FBE0F901F90189507
:1022C000CF93DF93CDB7DEB7C054D1090FB6F894E2
:1022D000DEBF0FBECDBF789484B5826084BD84B567
:1022E000816084BD85B5826085BD85B5816085BD11
:1022F00080916E00816080936E00109281008091C9
:102300008100826080938100809181008160809350
:102310008100809180008160809380008091B10075
:1023200084608093B1008091B00081608093B000A0
:1023300080917A00846080937A0080917A00826034
:1023400080937A0080917A00816080937A008091F6
:102350007A00806880937A001092C1000E9454092C
:102360004AE0242E312C55E0852E912C0E945010ED
:1023700028EE33E040E050E00E94632B2AE030E09A
:1023800040E050E00E94632B8091990390919A0362
:10239000A0919B03B0919C03281739074A075B075C
:1023A00069F02093990330939A0340939B035093D1
:1023B0009C03809198038F5F80939803809198038A
:1023C0008A3010F40C94A41E109298038091970305
:1023D0008F5F809397038091820390918303823370
:1023E000910511F40C94701A5CF58F30910509F485
:1023F000E0C59CF48530910509F4CFC42CF4892BF9
:1024000009F4D2C30C94B01C8630910509F41BC5A5
:102410000A9709F44EC50C94B01C8E31910509F44D
:1024200014C72CF4449709F442C60C94B01C8332B0
:10243000910509F47CC7889709F4C4C70C94B01CB3
:102440008134910509F4F0C0B4F48E33910511F490
:102450000C949A1B34F4CC9711F40C94001B0C943C
:10246000B01C8F33910511F40C94591C80349105E4
:10247000D9F00C94B01C8F35910509F488C254F43E
:102480008634910509F450C18035910509F4D4C111
:102490000C94B01C8436910509F4F7C28F3F910566
:1024A00009F450C50C94B01C60E080E00E94000C60
:1024B00080916603823010F0843131F460E571E080
:1024C0008BEF94E00E947904809166038C3031F4A4
:1024D00060E671E08BEF94E00E94790480916603DE
:1024E0008E3031F462E771E08BEF94E00E94790462
:1024F00080916603803131F466E871E08BEF94E0FF
:102500000E94790460E08FE00E94000C8BE00E9442
:102510005B0C019731F466E971E08BEF94E00E9467
:1025200079048BE00E945B0C892B31F464E971E043
:102530008BEF94E00E94790461E080E00E94000C3F
:10254000809166038E3001F568E971E08BEF94E0CD
:102550000E947904609118017091190180911A010B
:1025600090911B019B01AC010E948828AB01BC012A
:1025700020E030E08BEF94E00E949D0364E971E07D
:102580008BEF94E00E947904809166038031A1F57D
:1025900068E971E08BEF94E00E94790440911801A2
:1025A0005091190160911A0170911B0120E030E0F7
:1025B0008BEF94E00E949D0364E971E08BEF94E05F
:1025C0000E9479046DE971E08BEF94E00E94790438
:1025D00040911C0150911D0160911E0170911F01DD
:1025E00022E030E08BEF94E00E949D0364E971E00B
:1025F0008BEF94E00E9479048091720390917303B1
:102600008130910521F486E090E00C944D1C8530DA
:10261000910509F4B8C0039711F00C94AC1C8AE042
:10262000809366030C94AC1C60E080E00E94000C78
:1026300062EA71E08BEF94E00E94790461E080E04F
:102640000E94000C6CEA71E08BEF94E00E94790428
:10265000409120015091210160912201709123014C
:1026600022E030E08BEF94E00E949D036EEA71E07F
:102670008BEF94E00E947904809172039091730330
:102680008130910509F4F0C38530910521F486E489
:1026900090E00C944D1C8230910549F520E030E02B
:1026A00040E251E46091200170912101809122016A
:1026B000909123010E9487286B017C0120E030E08B
:1026C000A9010E94F42887FD09C0C0922001D09280
:1026D0002101E0922201F092230106C11092200113
:1026E000109221011092220110922301FDC0049743
:1026F00011F00C94AC1C20E030E040E251E4609119
:1027000020017091210180912201909123010E946A
:1027100088286B017C0160932001709321018093D4
:10272000220190932301E8C060E080E00E94000C49
:1027300060EB71E08BEF94E00E94790461E080E04F
:102740000E94000C6CEA71E08BEF94E00E94790427
:1027500040911C0150911D0160911E0170911F015B
:1027600022E030E08BEF94E00E949D036EEA71E07E
:102770008BEF94E00E94790480917203909173032F
:102780008130910521F481E490E00C944D1C85305A
:10279000910509F445C18230910549F52DEC3CECD9
:1027A0004CEC5DE360911C0170911D0180911E0154
:1027B00090911F010E9487286B017C0120E030E08E
:1027C000A9010E94F42887FD09C0C0921C01D09283
:1027D0001D01E0921E01F0921F0186C010921C01A3
:1027E00010921D0110921E0110921F017DC00497CE
:1027F00011F00C94AC1C2DEC3CEC4CEC5DE36091C6
:102800001C0170911D0180911E0190911F010E9479
:1028100088288B019C0160931C0170931D0180939B
:102820001E0190931F01C0902001D0902101E090E3
:102830002201F090230168C060E080E00E94000C5B
:102840006AEB71E08BEF94E00E94790461E080E034
:102850000E94000C6CEA71E08BEF94E00E94790416
:10286000409118015091190160911A0170911B015A
:1028700022E030E08BEF94E00E949D036EEA71E06D
:102880008BEF94E00E94790480917203909173031E
:102890008230910509F041C020E030E040E85FE37C
:1028A000609118017091190180911A0190911B019A
:1028B0000E9487286B017C0120E030E0A9010E9482
:1028C000F42887FD09C0C0921801D0921901E09246
:1028D0001A01F0921B0108C0109218011092190100
:1028E00010921A0110921B01C0902001D09021017A
:1028F000E0902201F090230100911C0110911D0134
:1029000020911E0130911F01409118015091190131
:1029100060911A0170911B012BC08430910569F5FB
:1029200020E030E040E85FE3609118017091190108
:1029300080911A0190911B010E948828AB01BC0173
:10294000409318015093190160931A0170931B0171
:10295000C0902001D0902101E0902201F09023014D
:1029600000911C0110911D0120911E0130911F0149
:1029700087E794E00E949F05EFC78130910509F435
:1029800086CE059709F0E8C78FE590E086C760E03E
:1029900080E00E94000C64EC71E08BEF94E00E94F8
:1029A000790461E080E00E94000C6CEA71E08BEF3A
:1029B00094E00E94790440910F01509110016091C0
:1029C00011017091120120E030E08BEF94E00E9441
:1029D0009D036EEA71E08BEF94E00E94790466ED4E
:1029E00071E08BEF94E00E94790440916203509172
:1029F0006303609164037091650320E030E08BEF26
:102A000094E00E949D0368ED71E08BEF94E00E94DA
:102A1000790480917203909173038130910519F4C8
:102A200080E590E03AC78230910579F420E030E00B
:102A300040E85FE360910F017091100180911101F6
:102A4000909112010E94872811C084309105B9F439
:102A500020E030E040E85FE360910F0170911001E9
:102A600080911101909112010E94882860930F01BA
:102A70007093100180931101909312016DC7059717
:102A800009F06AC784E690E008C760E080E00E9431
:102A9000000C6AED71E08BEF94E00E9479044091A4
:102AA000620350916303609164037091650320E0B9
:102AB00030E08BEF94E00E949D036EEA71E08BEFB3
:102AC00094E00E947904809166038823A1F04091EC
:102AD0000F0150911001609111017091120120E0DD
:102AE00030E08BEF94E00E949D036FE871E08BEF84
:102AF00094E00E94790480916603811106C06EED16
:102B000071E08BEF94E00E94790460E08FE00E9416
:102B1000000C8BE00E945B0C019731F466E971E0D8
:102B20008BEF94E00E9479048BE00E945B0C892B70
:102B300031F464E971E08BEF94E00E94790464E978
:102B400071E08BEF94E00E94790461E080E00E94E4
:102B5000000C63EE71E08BEF94E00E9479048091A9
:102B60007203909173038230910511F460E004C008
:102B70008430910529F461E08CE00E94840CECC65D
:102B80008330910549F4809166038F5F823008F4A9
:102B900047CD10926603E0C68130910509F4F4CE6A
:102BA000059709F4CFC1D8C660E080E00E94000C10
:102BB0006BEE71E08BEF94E00E9479044091670323
:102BC000509168036091690370916A0320E030E0DE
:102BD0008BEF94E00E949D036EEA71E08BEF94E02E
:102BE0000E94790480916B038130C1F520E030E0D0
:102BF00040E85EE36091B1037091B2038091B3034A
:102C00009091B4030E94F42887FF14C040910B01F7
:102C100050910C0160910D0170910E0120E030E0A7
:102C20008BEF94E00E949D036EEA71E08BEF94E0DD
:102C30000E94790440911301509114016091150193
:102C40007091160120E030E08BEF94E00E949D032C
:102C50006EEE71E08BEF94E00E94790480916B033B
:102C6000811106C065EF71E08BEF94E00E9479045A
:102C700060E08FE00E94000C8AE00E945B0C0197EC
:102C800031F466E971E08BEF94E00E9479048AE008
:102C90000E945B0C892B31F464E971E08BEF94E0C6
:102CA0000E94790461E080E00E94000C6EEF71E008
:102CB0008BEF94E00E94790480915803909159031E
:102CC00097FD06C064E971E08BEF94E00E947904FF
:102CD00060915803709159038BEF94E00E94120C9D
:102CE00080917203909173038130910539F484E6E9
:102CF00090E090938303809382033AC085309105DE
:102D000029F4309283032092820332C084309105EB
:102D100061F420915803309159032F5F3F4F2530C4
:102D2000310514F40C94A6270EC08230910581F46D
:102D3000809158039091590301978C3F0FEF9007B2
:102D400014F48CEF9FEF909359038093580310C0B5
:102D5000039771F4109273031092720380916B03C6
:102D60008F5F823018F480936B0302C010926B0364
:102D700061E089E00E94000C4091B1035091B203E0
:102D80006091B3037091B40322E030E08BEF94E0E4
:102D90000E949D0365E072E051C060E080E00E9407
:102DA000000C67E072E08BEF94E00E9479044091A0
:102DB000560350E060E070E02AE08BEF94E00E9460
:102DC000540361E080E00E94000C80915603813042
:102DD00031F46EE072E08BEF94E00E947904809110
:102DE0005603823031F46CE172E08BEF94E00E9484
:102DF000790480915603833031F46AE272E08BEFFC
:102E000094E00E94790480915603843031F468E3A1
:102E100072E08BEF94E00E94790480915603853034
:102E200031F466E472E08BEF94E00E9479048091C3
:102E30005603863009F090C561E572E08BEF94E0AF
:102E40000E94790489C560E080E00E94000C6CE576
:102E500072E08BEF94E00E9479048091720390916C
:102E600073038530910519F480E490E016C503974B
:102E700009F072C5E12CF12C6FEFC7010E9479288F
:102E80001FEFE11AF10A2FEFE21621E0F206A1F797
:102E900061E080E00E94000C6FE672E08BEF94E04E
:102EA0000E94790468E873E180E090E00E941610C7
:102EB00053C560E080E00E94000C62E872E08BEF96
:102EC00094E00E94790461E080E00E94000C6CEACA
:102ED00071E08BEF94E00E947904409113015091CE
:102EE0001401609115017091160120E030E08BEF24
:102EF00094E00E949D036EEA71E08BEF94E00E94E3
:102F0000790466ED71E08BEF94E00E9479044091C2
:102F10006703509168036091690370916A0320E030
:102F200030E08BEF94E00E949D0368ED71E08BEF41
:102F300094E00E9479048091720390917303813030
:102F4000910529F4109283031092820305C5823003
:102F5000910579F420E030E040E85FE360911301EF
:102F60007091140180911501909116010E9487289B
:102F700011C084309105B9F420E030E040E85FE30F
:102F800060911301709114018091150190911601C7
:102F90000E94882860931301709314018093150197
:102FA00090931601D9C4059709F0D6C48FE090E03C
:102FB00074C460E080E00E94000C6CE772E08BEF6C
:102FC00094E00E94790461E080E00E94000C6CEAC9
:102FD00071E08BEF94E00E94790440910B015091D5
:102FE0000C0160910D0170910E0120E030E08BEF3B
:102FF00094E00E949D036EEA71E08BEF94E00E94E2
:10300000790466ED71E08BEF94E00E9479044091C1
:103010006703509168036091690370916A0320E02F
:1030200030E08BEF94E00E949D0368ED71E08BEF40
:1030300094E00E947904809172039091730381302F
:10304000910529F4309283032092820385C4823053
:10305000910579F420E030E040E85FE360910B01F6
:1030600070910C0180910D0190910E010E948728B2
:1030700011C084309105B9F420E030E040E85FE30E
:1030800060910B0170910C0180910D0190910E01E6
:103090000E94882860930B0170930C0180930D01AE
:1030A00090930E0159C4059709F424C155C460E0FA
:1030B00080E00E94000C6DE872E08BEF94E00E94CB
:1030C000790460E089E00E94000C80910301803166
:1030D00031F466E972E08BEF94E00E94790480910C
:1030E0000301803231F46CE972E08BEF94E00E94CE
:1030F000790461E080E00E94000C6CEA71E08BEFE3
:1031000094E00E94790460910401709105018BEFB5
:1031100094E00E94120C62EA72E08BEF94E00E944D
:1031200079046091040170910501072E000C880B51
:10313000990B0E94A32920E030E84FEC53E40E9451
:10314000F92860936C0370936D0380936E039093E2
:103150006F0320910301203271F420E030E040E061
:103160005FE30E94A82A60936C0370936D038093C1
:103170006E0390936F0340916C0350916D036091C7
:103180006E0370916F0322E030E08BEF94E00E94B9
:103190009D0365EA72E08BEF94E00E947904209130
:1031A0007203309173032130310519F48FE090E000
:1031B00033C0809103012230310591F43AE0839FBE
:1031C000C001112434E0959587953A95E1F7209157
:1031D000040130910501A901481B590BCA0112C015
:1031E00024303105A1F45AE0859FC001112424E068
:1031F000959587952A95E1F7209104013091050175
:10320000820F931F909305018093040114C0253011
:10321000310539F48EE190E090938303809382032B
:103220000AC02330310539F4803211F480E101C045
:1032300080E2809303018091030181508E3F08F466
:103240008BC380E18093030187C360E080E00E942C
:10325000000C6BEA72E08BEF94E00E94790461E06D
:1032600080E00E94000C6CEA71E08BEF94E00E9419
:10327000790460910101709102018BEF94E00E944A
:10328000120C62EA72E08BEF94E00E947904609184
:10329000010170910201072E000C880B990B0E940E
:1032A000A32920E030E84FEC53E40E94F92820E005
:1032B00030E040E051E40E94A82AAB01BC014093F9
:1032C0006C0350936D0360936E0370936F0322E061
:1032D00030E08BEF94E00E949D0365EA72E08BEF93
:1032E00094E00E947904809172039091730381307D
:1032F000910519F484E190E0D0C28530910509F47C
:1033000090C08230910531F48091010190910201C9
:103310000A9708C0049709F01FC38091010190919A
:1033200002010A96909302018093010115C360E0A7
:1033300080E00E94000C63EB72E08BEF94E00E944F
:10334000790461E080E00E94000C6CEA71E08BEF90
:1033500094E00E94790480915703811106C062ECC9
:1033600072E08BEF94E00E947904809157038130E2
:1033700031F466EC72E08BEF94E00E9479046EEA1F
:1033800071E08BEF94E00E94790480917203909138
:1033900073038130910519F48EE190E07EC285308F
:1033A000910519F488E290E078C28230910519F411
:1033B00010925703D1C2049709F0CEC281E08093E6
:1033C0005703CAC260E080E00E94000C6AEC72E021
:1033D0008BEF94E00E94790461E080E00E94000C91
:1033E0006CEA71E08BEF94E00E9479044091240133
:1033F00050912501609126017091270122E030E073
:103400008BEF94E00E949D036EEA71E08BEF94E0F5
:103410000E94790480917203909173038130910529
:1034200019F483E290E039C28530910509F417C19F
:103430008230910549F520E030E040E85FE360919B
:1034400024017091250180912601909127010E940D
:1034500087286B017C0120E030E0A9010E94F4285C
:1034600087FD09C0C0922401D0922501E092260177
:10347000F092270122C1109224011092250110928E
:1034800026011092270119C1049709F065C220E0B6
:1034900030E040E85FE36091240170912501809164
:1034A0002601909127010E948828AB01BC0140931E
:1034B0002401509325016093260170932701C09049
:1034C0002C01D0902D01E0902E01F0902F01009161
:1034D00028011091290120912A0130912B0121C14D
:1034E00060E080E00E94000C63ED72E08BEF94E0FE
:1034F0000E94790461E080E00E94000C6CEA71E0B7
:103500008BEF94E00E9479044091280150912901A9
:1035100060912A0170912B0122E030E08BEF94E062
:103520000E949D036EEA71E08BEF94E00E947904A3
:1035300080917203909173038130910539F4A8E270
:10354000B0E0B0938303A093820306C28530910557
:1035500039F40CE310E01093830300938203FCC161
:103560008230910549F52DEC3CEC4CEC5DE360912B
:1035700028017091290180912A0190912B010E94CC
:1035800087286B017C0120E030E0A9010E94F4282B
:1035900087FD09C0C0922801D0922901E0922A013A
:1035A000F0922B018AC010922801109229011092EA
:1035B0002A0110922B0181C0049709F0CDC12DEC96
:1035C0003CEC4CEC5DE36091280170912901809105
:1035D0002A0190912B010E9488288B019C01609305
:1035E00028017093290180932A0190932B01C090A8
:1035F0002C01D0902D01E0902E01F0902F0189C078
:1036000060E080E00E94000C6CED72E08BEF94E0D3
:103610000E94790461E080E00E94000C6CEA71E095
:103620008BEF94E00E94790440912C0150912D0180
:1036300060912E0170912F0122E030E08BEF94E039
:103640000E949D036EEA71E08BEF94E00E94790482
:1036500080917203909173038130910519F482E394
:1036600090E01BC18230910589F520E030E040E216
:1036700051E460912C0170912D0180912E01909167
:103680002F010E9487286B017C0120E030E0A90116
:103690000E94F42887FD09C0C0922C01D0922D0110
:1036A000E0922E01F0922F0108C010922C0110928E
:1036B0002D0110922E0110922F01C0902C01D0905C
:1036C0002D01E0902E01F0902F011BC08430910558
:1036D00059F520E030E040E251E460912C01709116
:1036E0002D0180912E0190912F010E9488286B015D
:1036F0007C0160932C0170932D0180932E01909397
:103700002F01009128011091290120912A01309167
:103710002B01409124015091250160912601709167
:1037200027018FEB94E026C9059709F015C18EE3B8
:1037300090E0B3C060E080E00E94000C80916B03D9
:10374000823030F465EE72E08BEF94E00E947904F1
:1037500080916B038C3031F464EF72E08BEF94E076
:103760000E94790480916B038E3031F465E073E040
:103770008BEF94E00E94790480916B03803131F4E7
:1037800066E871E08BEF94E00E94790460E08FE0DE
:103790000E94000C8AE00E945B0C019731F466E9FC
:1037A00071E08BEF94E00E9479048AE00E945B0C48
:1037B000892B31F464E971E08BEF94E00E94790485
:1037C00061E080E00E94000C80916B038E3001F577
:1037D00068E173E08BEF94E00E947904609124012A
:1037E0007091250180912601909127019B01AC01E8
:1037F0000E948828AB01BC0120E030E08BEF94E010
:103800000E949D0364E971E08BEF94E00E947904CB
:1038100080916B038031A1F568E173E08BEF94E058
:103820000E94790440912401509125016091260164
:103830007091270120E030E08BEF94E00E949D031F
:1038400064E971E08BEF94E00E9479046CE173E02D
:103850008BEF94E00E947904409128015091290156
:1038600060912A0170912B0122E030E08BEF94E00F
:103870000E949D0364E971E08BEF94E00E9479045B
:1038800080917203909173038130910509F461CEA8
:103890008530910539F48FE390E090938303809312
:1038A00082035AC0039709F057C08AE080936B03E4
:1038B00053C060E080E00E94000C60E273E08BEF98
:1038C00094E00E94790461E080E00E94000C6CEAC0
:1038D00071E08BEF94E00E9479044091000150E088
:1038E00060E070E02AE08BEF94E00E94540362EA0B
:1038F00072E08BEF94E00E94790420917203309182
:1039000073032130310539F48EE390E09093830303
:10391000809382030DC0809100012230310511F4A3
:10392000815004C02430310519F48F5F8093000169
:1039300080910001811103C081E08093000180919A
:1039400000018F3F19F48EEF809300016091000118
:1039500070E089E00E94A00F10927303109272032E
:1039600020917003309171038091820390918303C1
:103970002817390781F010927303109272030E9486
:10398000F80B0E94FA088091820390918303909330
:103990007103809370038EE00E94FF0F0B976CF011
:1039A0000E9450102091760330917703621B730BB5
:1039B00070937503609374030AC00E945010709353
:1039C00077036093760310927503109274038091CD
:1039D0007403909175030B979CF08EE00E94FF0F8B
:1039E0009093730380937203109275031092740383
:1039F0000E945010645D7E4F70937703609376034E
:103A000080917203909173038B5D9240CB9730F459
:103A100021E030E0309373032093720380917203AE
:103A2000909173038B539240C19730F442E050E081
:103A300050937303409372038091720390917303C8
:103A4000855A9140829730F483E090E0909373031D
:103A5000809372038091720390917303855091401B
:103A60008534910530F4A4E0B0E0B0937303A093E3
:103A7000720380917203909173038D5891094D9751
:103A800020F49092730380927203E0905803F090B8
:103A90005903E114F10421F480E10E94B10224C031
:103AA000BCEFEB16BFEFFB06F9F460E070E081E1DC
:103AB0000E94A00F60E070E08FE00E94A00F609174
:103AC000010170910201072E000C880B990B0E94D6
:103AD000A3292DED3BE74FE850E40E94A82A0E945D
:103AE0007229CB010E94900DC7010396039708F03D
:103AF00052C06FEF70E081E10E94A00F60E070E0C3
:103B00008FE00E94A00F809103018031F9F4809131
:103B1000040190910501E89EB001E99E700DF89EA8
:103B2000700D1124719561957109072E000C880B99
:103B3000990B0E94A3292DED3BE74FE850E40E942A
:103B4000A82A0E947229CB010E94900D8091030146
:103B5000803209F58091040190910501E89EB00141
:103B6000E99E700DF89E700D112471956195710993
:103B7000660F771F072E000C880B990B0E94A32954
:103B80002DED3BE74FE850E40E94A82A0E947229DD
:103B9000CB010E94900D670101E0C01AD10813E02B
:103BA000C116D104E0F56FEF70E081E10E94A00F33
:103BB0006FEF70E08FE00E94A00F809103018031D1
:103BC000E1F48091040190910501E89EB001E99E25
:103BD000700DF89E700D1124072E000C880B990BA8
:103BE0000E94A3292DED3BE74FE850E40E94A82A4C
:103BF0000E947229CB010E94900D809103018032B6
:103C000089F58091040190910501E89EB001E99E3B
:103C1000700DF89E700D1124660F771F12C024E0FE
:103C2000E216F104F9F460E070E081E10E94A00F77
:103C30006FEF70E08FE00E94A00F60910101709122
:103C40000201072E000C880B990B0E94A3292DED71
:103C50003BE74FE850E40E94A82A0E947229CB015A
:103C60000E94900D80916B03813009F059C033E0C0
:103C7000C316D10408F05EC0809104019091050143
:103C8000B1010E944F2BAB01770F660B770B809130
:103C9000780390917903A0917A03B0917B038A0114
:103CA0009B01080F191F2A1F3B1FC901B801009370
:103CB00078031093790320937A0330937B032FE9E1
:103CC00031E040E050E00E94632BCA01B9010E943C
:103CD000A12920E030E04AE754E40E94F9286093EB
:103CE000B1037093B2038093B3039093B403209114
:103CF00003012032F9F420E030E040E05FE30E946D
:103D0000A82A2DED3BE74FE850E40E94F928609384
:103D1000B1037093B2038093B3039093B4030AC0CA
:103D2000811108C0109278031092790310927A03DF
:103D300010927B0383E10E945B0C892B21F4EF2816
:103D400011F00C94AC27A895809197038A3008F461
:103D500074C3809196038F5F8093960310929703AC
:103D60004091B9035091BA036091BB037091BC03B9
:103D70004F5F5F4F6F4F7F4F4093B9035093BA032C
:103D80006093BB037093BC038C3310F010929603C6
:103D900040916703509168036091690370916A03D1
:103DA00022E030E08EEC93E00E949D036FE273E02E
:103DB0008EEC93E00E94790440916203509163037A
:103DC000609164037091650322E030E08EEC93E033
:103DD0000E949D036FE273E08EEC93E00E947904F1
:103DE0004091240150912501609126017091270195
:103DF00022E030E08EEC93E00E949D036FE273E0DE
:103E00008EEC93E00E9479044091280150912901A1
:103E100060912A0170912B0122E030E08EEC93E05A
:103E20000E949D036FE273E08EEC93E00E947904A0
:103E300040912C0150912D0160912E0170912F0124
:103E400022E030E08EEC93E00E949D036FE273E08D
:103E50008EEC93E00E9479042AE046E050E060E0B6
:103E600070E08EEC93E00E94540361E373E08EEC0B
:103E700093E00E943F036091A5037091A603809197
:103E8000A7039091A8030E946B29072E000C880BB2
:103E9000990B0E94A3299B01AC0160E070EC8FE7B5
:103EA00094E40E94F92820E030E040E85FE30E94BB
:103EB00087289B01AC0160E070E081E995E40E94F5
:103EC000F92820E030E543EC57E40E94F9280E94ED
:103ED000602A20E030EE46E755E40E94F9282FE002
:103EE0003FEC4BE55BE30E9488289B01AC0160E05E
:103EF00070E080E89FE30E94F92823E333E948E873
:103F000053E40E9487286B017C01609367037093E0
:103F100068038093690390936A0360919D03709195
:103F20009E0380919F039091A0030E946B29072E0E
:103F3000000C880B990B0E94A3299B01AC0160E047
:103F400070EC8FE794E40E94F92820E030E040E82C
:103F50005FE30E9487289B01AC0160E070E081E98B
:103F600095E40E94F92820E030E543EC57E40E94F4
:103F7000F9280E94602A20E030EE46E755E40E94CE
:103F8000F9282FE03FEC4BE55BE30E9488289B017A
:103F9000AC0160E070E080E89FE30E94F92823E331
:103FA00033E948E853E40E9487282B013C016093E1
:103FB000620370936303809364039093650380911D
:103FC00094039091950301969093950380939403A5
:103FD000059704F120919003309191034091920351
:103FE00050919303C301B2010E94872860938C0310
:103FF00070938D0380938E0390938F034092900370
:1040000050929103609292037092930310929503E1
:104010001092940380910A01813091F520918C03D4
:1040200030918D0340918E0350918F0321962CAFD8
:104030003DAF4EAF5FAF219720E030E0A901219660
:104040006CAD7DAD8EAD9FAD21970E94532A1816A1
:1040500044F4409206015092070160920801709268
:10406000090120E030E0A90121966CAD7DAD8EAD57
:104070009FAD21970E94F42887FF35C010920A0156
:1040800080910A0181112FC080918C0390918D0342
:10409000A0918E03B0918F0321968CAF9DAFAEAFF0
:1040A000BFAF219720E030E0A901BC01CD010E9403
:1040B000F42887FF08C040928803509289036092D9
:1040C0008A0370928B0320E030E0A90121966CAD49
:1040D0007DAD8EAD9FAD21970E94532A18161CF41A
:1040E00081E080930A018091580390915903892BB4
:1040F00029F0109287031092860311C080916B0300
:10410000813069F4809186039091870301969093A2
:10411000870380938603813B944008F023C78091F6
:104120006603813011F0843191F480918403909181
:1041300085030196909385038093840381319E408B
:1041400030F010926603109285031092840320E0F1
:1041500030E045EA53E4C701B6010E94532A18161D
:104160004CF481E080935603909283038092820303
:104170000E94CA0720E030E045EA53E46091620300
:104180007091630380916403909165030E94532AA8
:1041900018164CF482E08093560390928303809229
:1041A00082030E94CA0720E030E040EA51EC6091AF
:1041B0006703709168038091690390916A030E947C
:1041C000F42887FF0DC080916B03882349F083E0BA
:1041D0008093560390928303809282030E94CA07C1
:1041E00020E030E040EA51EC60916203709163039B
:1041F00080916403909165030E94F42887FF0DC0AD
:1042000080916603882349F084E08093560390925E
:104210008303809282030E94CA0780916B038130DE
:1042200009F052C0C0906703D0906803E090690322
:10423000F0906A0320E030E040EA51E46091AD0381
:104240007091AE038091AF039091B0030E948728D4
:10425000A70196010E94532A1816D4F520917E03D7
:1042600030917F034091800350918103C701B601D3
:104270000E94532A181654F4C0927E03D0927F03F2
:10428000E0928003F092810310927D0320917E03DF
:1042900030917F034091800350918103C701B601A3
:1042A0000E94F4281816A4F080917D038F5F8093FC
:1042B0007D03893268F00E94CA0785E08093560327
:1042C000909283038092820380916B038823D1F0C4
:1042D00020E030E040EA51E46091AD037091AE031C
:1042E0008091AF039091B0030E94872820916703CB
:1042F000309168034091690350916A030E94F42849
:1043000087FF12C08091670390916803A0916903B1
:10431000B0916A0380937E0390937F03A093800300
:10432000B093810310927D0380916603813019F070
:10433000843109F052C0C0906203D0906303E090D2
:104340006403F090650320E030E040EA51E46091BE
:104350000F017091100180911101909112010E9442
:104360008728A70196010E94532A1816B4F52091B8
:104370009003309191034091920350919303C701B0
:10438000B6010E94532A181654F4C0929003D0929A
:104390009103E0929203F092930310927C03209198
:1043A0009003309191034091920350919303C70180
:1043B000B6010E94F428181684F080917C038F5F68
:1043C00080937C03893248F00E94CA0786E080937C
:1043D0005603909283038092820380916603882320
:1043E000D1F020E030E040EA51E46091AD037091FB
:1043F000AE038091AF039091B0030E948728209173
:1044000062033091630340916403509165030E94FD
:10441000F42887FF12C08091620390916303A091FA
:104420006403B09165038093900390939103A093EC
:104430009203B093930310927C0382E10E94FF0FDA
:104440007C014090A9035090AA036090AB03709048
:10445000AC0320E030E040E05EE3C301B2010E9423
:10446000A82A9B01AC01C301B2010E9487282B013D
:104470003C01B701FF0C880B990B0E94A3299B01FB
:10448000AC01C301B2010E9488286093A903709314
:10449000AA038093AB039093AC0320E030E040E0AC
:1044A0005EE30E94A82A6093A5037093A6038093FD
:1044B000A7039093A80385E10E94FF0F7C01409021
:1044C000A1035090A2036090A3037090A40320E086
:1044D00030E040E05EE3C301B2010E94A82A9B01E4
:1044E000AC01C301B2010E9487282B013C01B70136
:1044F000FF0C880B990B0E94A3299B01AC01C301FF
:10450000B2010E9488286093A1037093A203809354
:10451000A3039093A40320E030E040E05EE30E9418
:10452000A82A60939D0370939E0380939F039093AA
:10453000A00380916B03813009F0FDC0C090B103EE
:10454000D090B203E090B303F090B40320E030E0E9
:1045500040E85EE3C701B6010E94F428181684F013
:1045600080910B0190910C01A0910D01B0910E0171
:104570008093AD039093AE03A093AF03B093B003C9
:1045800020E030E040E85EE3C701B6010E94532A14
:10459000181684F48091130190911401A0911501D3
:1045A000B09116018093AD039093AE03A093AF0337
:1045B000B093B0036091AD037091AE038091AF03EF
:1045C0009091B0036093B3047093B4048093B504E6
:1045D0009093B60420E030E040E251E40E94872846
:1045E00021966CAF7DAF8EAF9FAF21974090670350
:1045F000509068036090690370906A03A301920170
:104600000E94532A181674F561E08AE00E94840C17
:10461000A0902801B0902901C0902A01D0902B01D0
:10462000E0902401F09025010091260110912701CE
:1046300080912F018F9380912E018F9380912D0176
:104640008F9380912C018F9323EB34E047EB54E060
:104650006BEB74E0CE0101960E945C100F900F90FE
:104660000F900F90A301920121966CAD7DAD8EADA0
:104670009FAD21970E94F42887FF4EC18091F904D5
:10468000811104C08FEB94E00E94590581E0809372
:10469000F9044092BB045092BC046092BD04709235
:1046A000BE048FEB94E00E9463060E9450100091BC
:1046B0005A0310915B0320915C0330915D03AB01C1
:1046C000BC01401B510B620B730B493E534061050B
:1046D000710570F0D901C80188519C4FAF4FBF4F91
:1046E00080935A0390935B03A0935C03B0935D03A4
:1046F0000E94501000915A0310915B0320915C03BB
:1047000030915D03601B710B820B930B0E94A129FA
:104710002091B7043091B8044091B9045091BA0483
:104720000E94532A181614F460E001C061E08AE088
:104730000E94840CF1C0811107C01092F90460E05E
:104740008AE00E94840C61C08A3009F05EC08091CA
:10475000F904811104C08FEB94E00E94590581E0B7
:104760008093F9048091130190911401A091150197
:10477000B09116018093B3049093B404A093B50450
:10478000B093B6048091670390916803A091690388
:10479000B0916A038093BB049093BC04A093BD04C2
:1047A000B093BE0480E090E0A0E8BFE380932401D2
:1047B00090932501A0932601B09327011092280120
:1047C0001092290110922A0110922B0110922C01B3
:1047D00010922D0110922E0110922F01C12CD12C7C
:1047E000760197018601AC01BD018FEB94E00E9438
:1047F0009F058CE080936B038091B9039091BA037D
:104800004E969093B8038093B70380916B038C30DE
:1048100009F082C00E948D088091B7039091B8037F
:10482000A0E0B0E04091B9035091BA036091BB039E
:104830007091BC0384179507A607B70708F023C13A
:1048400040906703509068036090690370906A031A
:1048500020E030E040E251E46091130170911401D6
:1048600080911501909116010E948728A301920161
:104870000E94532A181664F520E030E040E85FE318
:10488000609124017091250180912601909127016A
:104890000E948828AB01BC0140932401509325015C
:1048A0006093260170932701C0902C01D0902D01B8
:1048B000E0902E01F0902F01009128011091290124
:1048C00020912A0130912B018FEB94E00E949F05EB
:1048D00020E030E040E251E4609113017091140156
:1048E00080911501909116010E9487289B01AC01CF
:1048F000C301B2010E94532A18162CF48EE0809353
:104900006B030E94FA088091B9039091BA034E9606
:104910009093B8038093B70380916B038E3009F0B6
:10492000B2C00E948D088091B7039091B803A0E0B7
:10493000B0E04091B9035091BA036091BB0370910C
:10494000BC0384179507A607B70708F09CC04090E2
:104950006703509068036090690370906A03209128
:104960001301309114014091150150911601C301BA
:10497000B2010E94F42887FF2CC02DEC3CEC4CECDB
:104980005DE3609128017091290180912A01909145
:104990002B010E9488288B019C0160932801709351
:1049A000290180932A0190932B01C0902C01D09073
:1049B0002D01E0902E01F0902F01409124015091A3
:1049C000250160912601709127018FEB94E00E94F0
:1049D0009F052091130130911401409115015091D0
:1049E0001601C301B2010E94532A87FD43C01092F1
:1049F000F90460E08AE00E94840C00E010E028ECFA
:104A000032E400932C0110932D0120932E0130935A
:104A10002F0120E030E040EC5FE3609124017091D1
:104A2000250180912601909127010E94A82A609378
:104A3000240170932501809326019093270120E0A3
:104A400030E040EC5FE36091280170912901809192
:104A50002A0190912B010E94A82A6093280170934B
:104A6000290180932A0190932B0180E180936B03AD
:104A70000E94FA088091B9039091BA034E969093E0
:104A8000B8038093B70380916603882309F43DC07F
:104A9000813009F03EC0C0906203D0906303E09083
:104AA0006403F090650320E030E040E251E460915F
:104AB0000F017091100180911101909112010E94DB
:104AC0008728A70196010E94532A181624F461E052
:104AD0008BE00E94840C20E030E040E251E46091E1
:104AE0000F017091100180911101909112010E94AB
:104AF00087289B01AC01C701B6010E94532A1816F2
:104B00000CF0E2C084E18093660360E08BE00E94D9
:104B1000840C80916603843109F075C08091B104E2
:104B2000811104C087E794E00E94590581E08093D9
:104B3000B10480910F0190911001A0911101B091E9
:104B4000120180936B0490936C04A0936D04B09356
:104B50006E048091620390916303A0916403B0910D
:104B600065038093730490937404A0937504B093C9
:104B7000760487E794E00E9463060E94501000913B
:104B80005E0310915F032091600330916103AB01DC
:104B9000BC01401B510B620B730B493E5340610536
:104BA000710570F0D901C80188519C4FAF4FBF4FBC
:104BB00080935E0390935F03A0936003B0936103BF
:104BC0000E94501000915E0310915F0320916003DA
:104BD00030916103601B710B820B930B0E94A12922
:104BE00020916F04309170044091710450917204CF
:104BF0000E94532A181614F460E001C061E08BE0B3
:104C00000E94840CE8C08A3009F05EC08091B10433
:104C1000811104C087E794E00E94590581E08093E8
:104C2000B10480910F0190911001A0911101B091F8
:104C3000120180936B0490936C04A0936D04B09365
:104C40006E048091620390916303A0916403B0911C
:104C500065038093730490937404A0937504B093D8
:104C6000760480E090E0A0E8BFE380931801909381
:104C70001901A0931A01B0931B0110921C0110920C
:104C80001D0110921E0110921F011092200110921E
:104C900021011092220110922301C12CD12C760106
:104CA00097018601AC01BD0187E794E00E949F0552
:104CB0008CE0809366038091B9039091BA034E967D
:104CC0009093B6038093B503809166038C3009F00E
:104CD00082C00E9410088091B5039091B603A0E0B5
:104CE000B0E04091B9035091BA036091BB03709159
:104CF000BC0384179507A607B70708F023C14090A7
:104D0000620350906303609064037090650320E039
:104D100030E040E251E460910F0170911001809108
:104D20001101909112010E948728A30192010E9413
:104D3000532A181664F520E030E040E85FE3609104
:104D400018017091190180911A0190911B010E9424
:104D50008828AB01BC01409318015093190160935E
:104D60001A0170931B01C0902001D0902101E090A6
:104D70002201F090230100911C0110911D0120914E
:104D80001E0130911F0187E794E00E949F0520E0FB
:104D900030E040E251E460910F0170911001809188
:104DA0001101909112010E9487289B01AC01C3015F
:104DB000B2010E94532A18162CF48EE080936603E9
:104DC0000E94FA088091B9039091BA034E9690938D
:104DD000B6038093B503809166038E3009F0B2C0AC
:104DE0000E9410088091B5039091B603A0E0B0E056
:104DF0004091B9035091BA036091BB037091BC0319
:104E000084179507A607B70708F09CC04090620377
:104E100050906303609064037090650320910F01CC
:104E2000309110014091110150911201C301B20162
:104E30000E94F42887FF2CC02DEC3CEC4CEC5DE389
:104E400060911C0170911D0180911E0190911F01C4
:104E50000E9488288B019C0160931C0170931D01A6
:104E600080931E0190931F01C0902001D0902101DA
:104E7000E0902201F0902301409118015091190116
:104E800060911A0170911B0187E794E00E949F05D1
:104E900020910F01309110014091110150911201A8
:104EA000C301B2010E94532A87FD43C01092B1048E
:104EB00060E08BE00E94840C80E18093660300E058
:104EC00010E028EC32E4009320011093210120939C
:104ED00022013093230120E030E040EC5FE3609159
:104EE00018017091190180911A0190911B010E9483
:104EF000A82A609318017093190180931A01909366
:104F00001B0120E030E040EC5FE360911C017091F8
:104F10001D0180911E0190911F010E94A82A60939B
:104F20001C0170931D0180931E0190931F010E942C
:104F3000FA088091B9039091BA034E969093B60304
:104F40008093B5030E94BC010C94B61130935903B1
:104F5000209358030C94B8161092590310925803DA
:104F60000C94A31E10926B03109287031092860379
:104F700080915703813009F0D2C860E08DE00E9433
:104F8000840CCDC8AF92BF92CF92DF92EF92FF9286
:104F90000F931F93EEECF3E01382128288EE93E0FE
:104FA000A0E0B0E084839583A683B78386E391E095
:104FB0009183808385EC90E09587848784EC90E0F2
:104FC0009787868780EC90E0918B808B81EC90E0D6
:104FD000938B828B82EC90E0958B848B86EC90E0B7
:104FE000978B868B118E128E138E148EEBEFF4E05E
:104FF0001382128288E491E09183808388E0848325
:105000008FEF858386E0868382E0878383E08087D5
:1050100084E0818785E0828713861486158616864C
:10502000178681E00E94EF0CA0902801B090290122
:10503000C0902A01D0902B01E0902401F09025012E
:10504000009126011091270180912F018F9380916B
:105050002E018F9380912D018F9380912C018F933E
:1050600023EB34E047EB54E06BEB74E08FEB94E020
:105070000E945C10A0901C01B0901D01C0901E0108
:10508000D0901F01E0901801F090190100911A01D1
:1050900010911B01809123018F93809122018F93A6
:1050A000809121018F93809120018F932BE634E032
:1050B0004FE654E063E774E087E794E00E945C10F9
:1050C0008DB79EB708960FB6F8949EBF0FBE8DBFE2
:1050D0001F910F91FF90EF90DF90CF90BF90AF9016
:1050E0000895F999FECF92BD81BDF89A992780B5B0
:1050F0000895262FF999FECF1FBA92BD81BD20BD1C
:105100000FB6F894FA9AF99A0FBE0196089550587E
:10511000BB27AA270E949F280C94192A0E940B2AB9
:1051200038F00E94122A20F039F49F3F19F426F437
:105130000C94082A0EF4E095E7FB0C94022AE92F60
:105140000E942A2A58F3BA17620773078407950743
:1051500020F079F4A6F50C944C2A0EF4E0950B2E71
:10516000BA2FA02D0B01B90190010C01CA01A001B9
:105170001124FF27591B99F0593F50F4503E68F114
:105180001A16F040A22F232F342F4427585FF3CF55
:10519000469537952795A795F0405395C9F77EF426
:1051A0001F16BA0B620B730B840BBAF09150A1F06F
:1051B000FF0FBB1F661F771F881FC2F70EC0BA0FF5
:1051C000621F731F841F48F4879577956795B7957D
:1051D000F7959E3F08F0B0CF9395880F08F0992778
:1051E000EE0F9795879508950E94DE2908F481E0D7
:1051F00008950E940D290C94192A0E94122A58F031
:105200000E940B2A40F029F45F3F29F00C94022AF7
:1052100051110C944D2A0C94082A0E942A2A68F3F2
:105220009923B1F3552391F3951B550BBB27AA275F
:1052300062177307840738F09F5F5F4F220F331F99
:10524000441FAA1FA9F335D00E2E3AF0E0E832D061
:1052500091505040E695001CCAF72BD0FE2F29D064
:10526000660F771F881FBB1F261737074807AB0736
:10527000B0E809F0BB0B802DBF01FF2793585F4FAB
:105280003AF09E3F510578F00C94022A0C944D2A76
:105290005F3FE4F3983ED4F3869577956795B7958D
:1052A000F7959F5FC9F7880F911D9695879597F998
:1052B0000895E1E0660F771F881FBB1F6217730711
:1052C0008407BA0720F0621B730B840BBA0BEE1F26
:1052D00088F7E09508950E9472296894B1110C94A2
:1052E0004D2A08950E94322A88F09F5798F0B92FCE
:1052F0009927B751B0F0E1F0660F771F881F991F0B
:105300001AF0BA95C9F714C0B13091F00E944C2A36
:10531000B1E008950C944C2A672F782F8827B85F46
:1053200039F0B93FCCF3869577956795B395D9F762
:105330003EF490958095709561957F4F8F4F9F4F6C
:105340000895E89409C097FB3EF490958095709578
:1053500061957F4F8F4F9F4F9923A9F0F92F96E9C1
:10536000BB279395F695879577956795B795F11136
:10537000F8CFFAF4BB0F11F460FF1BC06F5F7F4FD3
:105380008F4F9F4F16C0882311F096E911C07723E5
:1053900021F09EE8872F762F05C0662371F096E8EE
:1053A000862F70E060E02AF09A95660F771F881FBD
:1053B000DAF7880F9695879597F90895990F000861
:1053C000550FAA0BE0E8FEEF16161706E807F907D7
:1053D000C0F012161306E407F50798F0621B730B72
:1053E000840B950B39F40A2661F0232B242B252BF3
:1053F00021F408950A2609F4A140A6958FEF811D96
:10540000811D089597F99F6780E870E060E0089536
:105410009FEF80EC089500240A94161617061806CC
:105420000906089500240A941216130614060506A8
:105430000895092E0394000C11F4882352F0BB0F39
:1054400040F4BF2B11F460FF04C06F5F7F4F8F4F9C
:105450009F4F089557FD9058440F551F59F05F3FD7
:1054600071F04795880F97FB991F61F09F3F79F086
:1054700087950895121613061406551FF2CF469508
:10548000F1DF08C0161617061806991FF1CF86958A
:105490007105610508940895E894BB27662777276E
:1054A000CB0197F908950E94DE2908F48FEF089543
:1054B00016F00C941A2B0C94082A68940C94022A67
:1054C0000E94322AA8F39923C1F3AEF3DF93CF935E
:1054D0001F930F93FF92C92FDD2788232AF021976E
:1054E000660F771F881FDAF720E030E040E85FEBB7
:1054F0009FE3883920F0803E38F021968F770E9414
:105500008828E8E6F0E004C00E948828E5E9F0E099
:105510000E94282B8B01BE01EC01FB2E6F577109F5
:105520007595771F880B990B0E94A32928E132E714
:1055300041E35FE30E94BB2AAF2D9801AE01FF90CB
:105540000F911F91CF91DF910E949F280C94192AEF
:105550000E94BB2A0C94192A0E940B2A38F00E9440
:10556000122A20F0952311F00C94022A0C94082A98
:1055700011240C944D2A0E942A2A70F3959FC1F39E
:10558000950F50E0551F629FF001729FBB27F00DF1
:10559000B11D639FAA27F00DB11DAA1F649F662746
:1055A000B00DA11D661F829F2227B00DA11D621F95
:1055B000739FB00DA11D621F839FA00D611D221F4F
:1055C000749F3327A00D611D231F849F600D211D33
:1055D000822F762F6A2F11249F5750409AF0F1F0B6
:1055E00088234AF0EE0FFF1FBB1F661F771F881F1F
:1055F00091505040A9F79E3F510580F00C94022A2B
:105600000C944D2A5F3FE4F3983ED4F3869577954A
:105610006795B795F795E7959F5FC1F7FE2B880FC4
:10562000911D9695879597F908950E94DE29880B1C
:10563000990B08959F3F31F0915020F4879577950D
:105640006795B795880F911D9695879597F9089559
:10565000DF93CF931F930F93FF92EF92DF927B0123
:105660008C01689406C0DA2EEF010E94BB2AFE016D
:10567000E894A5912591359145915591A6F3EF01B7
:105680000E949F28FE019701A801DA9469F7DF9034
:10569000EF90FF900F911F91CF91DF91089597FBAD
:1056A000072E16F4009407D077FD09D00E94A42B92
:1056B00007FC05D03EF4909581959F4F0895709515
:1056C00061957F4F0895A1E21A2EAA1BBB1BFD0115
:1056D0000DC0AA1FBB1FEE1FFF1FA217B307E407D1
:1056E000F50720F0A21BB30BE40BF50B661F771F29
:1056F000881F991F1A9469F7609570958095909509
:105700009B01AC01BD01CF010895052E97FB1EF44E
:1057100000940E949C2B57FD07D00E94632B07FC2E
:1057200003D04EF40C949C2B5095409530952195C8
:105730003F4F4F4F5F4F08959095809570956195BD
:105740007F4F8F4F9F4F0895AA1BBB1B51E107C08E
:10575000AA1FBB1FA617B70710F0A61BB70B881F01
:10576000991F5A95A9F780959095BC01CD01089590
:10577000EE0FFF1F0590F491E02D099481E090E079
:0A578000F8940C94C32BF894FFCFAB
:10578A0082C40910E803000020410100005C4300C4
:10579A0000874300002043FF00000041CDCC4C3E6F
:1057AA000000C84200000041CDCC4C3E0000C84277
:1057BA00E803000000004D01BA00E4009A01150157
:1057CA00F3000701000000005305BA00C701C60133
:1057DA0054756E696E6720504944323F2121210079
:1057EA00536561726368204B70322E2E2E20202062
:1057FA002000536561726368204B69322E2E2E2079
:10580A00202020202000446F6E65212020202020A7
:10581A002020202020002A004B70323D004B6932A4
:10582A003D004B6432207365747570003C003E0085
:10583A004B6932207365747570004B703220736542
:10584A007475700057656C64696E6754656D702075
:10585A007365747570002800290054323D004F4664
:10586A0046200057656C64696E6700543D0043200A
:10587A0020202020004F4646202020202000537060
:10588A006565643D004D004572726F723A00455875
:10589A005431204F564552484541540045585432D8
:1058AA00204F56455248454154005431204E6F749A
:1058BA00436F6E6E656374005432204E6F74436F8B
:1058CA006E6E6563740054312046656C6C4F666673
:1058DA000054322046656C6C4F66660052657365EB
:1058EA007420454550524F4D3F3F3F212121004FE3
:1058FA004B2C5265626F6F74696E670053746172E4
:10590A00742054656D70207365747570004C6F77E0
:10591A007370656564004134383939004438383267
:10592A0035003E20006D6D2F732000484973706565
:10593A0065640053687574646F776E4174456E646C
:10594A003F004E6F2000596573004B7020736574D9
:10595A007570004B69207365747570004B64207311
:10596A00657475700054756E696E67205049443FBE
:10597A0021212100536561726368204B702E2E2EFF
:10598A002020202000536561726368204B692E2E07
:10599A002E202020202020004B703D004B693D0026
:1059AA00436F6E7472617374207365747570003B13
:1059BA00000D0A006E616E00696E66006F76660001
:1059CA0050455450756C6C005A6E65697061732D40
:0659DA0056312E380000DA
:00000001FF
