:100000000C9490000C94B8000C94B8000C94B800B8
:100010000C94B8000C94B8000C94B8000C94DC025A
:100020000C94B8000C94B8000C94B8000C94B80070
:100030000C94B8000C94B8000C94B8000C94B80060
:100040000C9416110C94B8000C94A1040C947B042D
:100050000C94B8000C94B8000C94B8000C94B80040
:100060000C94B8000C94B80008000000BE9224491B
:10007000123EABAAAA2ABECDCCCC4C3E00000080DA
:10008000BEABAAAAAA3E00000000BF000000803F4D
:100090000000000000084178D3BB4387D1133D190D
:1000A0000E3CC3BD4282AD2B3E68EC8276BED98F3A
:1000B000E1A93E4C80EFFFBE01C4FF7F3F0000007E
:1000C000000000000000240027002A0000000000BB
:1000D00023002600290000000008000201000003A0
:1000E00004070000000000000000010204081020C6
:1000F00040800102040810200102040810200000C2
:100100000000250028002B00040404040404040457
:100110000202020202020303030303030200982700
:1001200011241FBECFEFD8E0DEBFCDBF13E0A0E0AB
:10013000B1E0E6E3F7E502C005900D92AA35B107FC
:10014000D9F725E0AAE5B3E001C01D92A232B207BB
:10015000E1F710E0C0E9D0E004C02197FE010E9461
:100160008E2BCF38D107C9F70E9460110C94992BC0
:100170000C940000CF92DF92EF92FF920F931F93A7
:10018000CF93DF936C017A018B01C0E0D0E0CE15F4
:10019000DF0581F0D8016D918D01D601ED91FC91C3
:1001A0000190F081E02DC6010995892B11F021966F
:1001B000EECF7E01C701DF91CF911F910F91FF908C
:1001C000EF90DF90CF900895FC01538D448D252F43
:1001D00030E0842F90E0821B930B541710F0CF96E1
:1001E000089501970895FC01918D828D981761F013
:1001F000828DDF01A80FB11D5D968C91928D9F5F5E
:100200009F73928F90E008958FEF9FEF0895FC0108
:10021000918D828D981731F0828DE80FF11D858DBB
:1002200090E008958FEF9FEF0895FC01918D228D4E
:10023000892F90E0805C9F4F821B91098F739927D3
:10024000089582ED93E00E94150121E0892B09F4C5
:1002500020E0822F0895FC01848DDF01A80FB11DDD
:10026000A35ABF4F2C91848D90E001968F739927EC
:10027000848FA689B7892C93A089B1898C918370CA
:1002800080648C93938D848D981306C00288F389C3
:10029000E02D80818F7D80830895EF92FF920F93F0
:1002A0001F93CF93DF93EC0181E0888F9B8D8C8D22
:1002B000981305C0E889F989808185FD26C0F62E4E
:1002C0000B8D10E00F5F1F4F0F731127E02E8C8DE9
:1002D000E8120CC00FB607FCFACFE889F9898081D3
:1002E00085FFF5CFCE010E942B01F1CF8B8DFE0152
:1002F000E80FF11DE35AFF4FF0829FB7F8940B8F80
:10030000EA89FB89808180620AC09FB7F894EE89F0
:10031000FF896083E889F9898081837080648083A4
:100320009FBF81E090E0DF91CF911F910F91FF90EF
:10033000EF900895CF93DF93EC01888D8823C9F067
:10034000EA89FB89808185FD05C0A889B9898C91DE
:1003500086FD0FC00FB607FCF5CF808185FFF2CF79
:10036000A889B9898C9185FFEDCFCE010E942B0120
:10037000E7CFDF91CF91089580E090E0892B29F0BD
:100380000E94210181110C9400000895089580E0DD
:1003900090E008950E94942BCF93DF93EC0160E0EE
:1003A0008E810E94840C61E08E810E94840C60E04A
:1003B0008E810E94840C8BE891E00197F1F7DF9128
:1003C000CF910895CF93DF93EB010E944728888354
:1003D000CE01DF91CF910895CF92DF92EF92FF92FD
:1003E0000F931F93CF93DF93EB017B0124E0E20E89
:1003F000F11C8B016C01C61AD70AC601800F911F30
:100400000E944728F80181938F01EE15FF05A9F797
:10041000CE01DF91CF911F910F91FF90EF90DF9070
:10042000CF9008950F931F93CF93DF938C01EB012F
:100430000E9447288883C80101960E944728898323
:10044000CE01DF91CF911F910F910895FF920F93ED
:100450001F93CF93DF93EC01F62E08811981C80119
:100460000E944728F81621F06F2DC8010E944F28DE
:10047000CE01DF91CF911F910F91FF9008950F93BF
:100480001F93CF93DF9300D0CDB7DEB78B01FB0175
:1004900060819A838983CE0101960E942602C80159
:1004A0000F900F90DF91CF911F910F910895AF9210
:1004B000BF92CF92DF92EF92FF920F931F93CF9351
:1004C000DF9300D0CDB7DEB78B016B0124E0C20E05
:1004D000D11C7B015C01A61AB70AC5018E0D9F1DB8
:1004E000F70161917F019A838983CE0101960E9471
:1004F0002602EC14FD0489F7C8010F900F90DF91DC
:10050000CF911F910F91FF90EF90DF90CF90BF9010
:10051000AF900895EF92FF920F931F93CF93DF93C5
:1005200000D0CDB7DEB78C017B01FB0160819A83DF
:100530008983CE0101960E942602F70161810F5F37
:100540001F4F1A830983CE0101960E942602C7011C
:100550000F900F90DF91CF911F910F91FF90EF902F
:10056000089590911B01891324C0ECE1F1E0E4911E
:100570009FEF90931B01E130B9F098F0E230C9F49D
:10058000909170009D7F9093700091E09093B000E7
:100590009091B100987F94609093B1001092B30055
:1005A00008C010926E0005C090916F009D7F9093DF
:1005B0006F0060E00C94840C1F920F920FB60F92A4
:1005C00011242F933F934F935F936F937F938F9358
:1005D0009F93AF93BF93EF93FF938091CE0390913E
:1005E000CF03A091D003B091D103892B8A2B8B2B01
:1005F00051F19091CB03E091CC03F091CD03808138
:10060000892780838091CE039091CF03A091D0035E
:10061000B091D103181619061A061B06C4F480916E
:10062000CE039091CF03A091D003B091D103019755
:10063000A109B1098093CE039093CF03A093D00377
:10064000B093D10304C080911B010E94B102FF91BD
:10065000EF91BF91AF919F918F917F916F915F913A
:100660004F913F912F910F900FBE0F901F901895B3
:10067000DC01ED91FC910190F081E02D0994611570
:10068000710579F0FB0101900020E9F73197AF0186
:10069000461B570BDC01ED91FC910280F381E02DAC
:1006A000099480E090E008958F929F92AF92BF925C
:1006B000EF92FF920F931F93CF93DF93CDB7DEB7E7
:1006C000A1970FB6F894DEBF0FBECDBF7C01FA0133
:1006D000CB0119A2223008F42AE08E010F5D1F4FD2
:1006E000822E912CA12CB12CBF01A50194010E9456
:1006F000392BF901CA01015011096A3014F4605D07
:1007000001C0695CD8016C93232B242B252B61F746
:10071000B801C7010E943F03A1960FB6F894DEBF4F
:100720000FBECDBFDF91CF911F910F91FF90EF9042
:10073000BF90AF909F908F9008957F928F929F92DD
:10074000AF92BF92CF92DF92EF92FF920F931F93DF
:10075000CF93DF938C016A017B01722E9A01AB016A
:10076000C701B6010E94EB2A882319F068E373E001
:1007700027C046015701E894B7F82FEF3FEF4FE746
:100780005FE7C501B4010E94EB2A81110DC02FEF74
:100790003FEF4FE75FE7C501B4010E94CA28181672
:1007A0001CF46CE373E00CC02FEF3FEF4FE75FE406
:1007B000C701B6010E94292A181694F460E473E078
:1007C000C801DF91CF911F910F91FF90EF90DF90C3
:1007D000CF90BF90AF909F908F907F900C943F03ED
:1007E0002FEF3FEF4FE75FECC701B6010E94CA2829
:1007F00087FDE4CF20E030E0A901C701B6010E94E7
:10080000CA2887FF0AC06DE2C8010E943803EC01C4
:10081000F7FAF094F7F8F09402C0C0E0D0E0B12C01
:1008200060E070E080E09FE3B71440F420E030E047
:1008300040E251E40E94CF28B394F6CFA70196017D
:100840000E945E286B017C010E9448294B015C01DB
:100850002AE0AB01BC01C8010E945403C80FD91F94
:100860007720C1F1C501B4010E9477299B01AC0139
:10087000C701B6010E945D286B017C016EE2C801D0
:100880000E943803C80FD91F20E030E040E251E455
:10089000C701B6010E947E2A4B015C010E944829D3
:1008A0006B01E12CF12C2AE0B701A601C8010E94DE
:1008B0005403C80FD91FC701B6010E9477299B01B5
:1008C000AC01C501B4010E945D286B017C017A94E2
:1008D0007110DACFCE01DF91CF911F910F91FF9070
:1008E000EF90DF90CF90BF90AF909F908F907F90D0
:1008F00008950C943F031F920F920FB60F9211248C
:100900002F933F934F935F936F937F938F939F9317
:10091000AF93BF93EF93FF9382ED93E00E942B017F
:10092000FF91EF91BF91AF919F918F917F916F91C7
:100930005F914F913F912F910F900FBE0F901F909D
:1009400018951F920F920FB60F9211242F938F9329
:100950009F93EF93FF93E091E203F091E303808193
:10096000E091E803F091E90382FD12C0908180914B
:10097000EB038F5F8F732091EC03821751F0E091AE
:10098000EB03F0E0EE52FC4F958F8093EB0301C038
:100990008081FF91EF919F918F912F910F900FBECA
:1009A0000F901F901895CF92DF92EF92FF920F93C6
:1009B0001F93CF93DF936C017C0187E0E80EF11C5D
:1009C000C0E0D0E0062F10E0B8010C2E02C07595F3
:1009D00067950A94E2F76170F70181917F010E94A7
:1009E000840C2196C430D10579F7C601DF91CF91EF
:1009F0001F910F91FF90EF90DF90CF900C94CC015E
:100A0000CF92DF92EF92FF920F931F93CF93DF93DA
:100A1000EC01F62E642F8C810E94840C8D818F3F17
:100A200019F060E00E94840C8F850F2D10E084FF88
:100A300025C06E0187E0C80ED11CE12CF12CB80155
:100A40000E2C02C0759567950A94E2F76170F60165
:100A500081916F010E94840CFFEFEF1AFF0A88E07A
:100A6000E816F10461F7CE01DF91CF911F910F914C
:100A7000FF90EF90DF90CF900C94CC01B80184E010
:100A8000759567958A95E1F7CE010E94D3046F2D85
:100A9000CE01DF91CF911F910F91FF90EF90DF90EA
:100AA000CF900C94D30441E00E94000581E090E0D7
:100AB00008958F929F92AF92BF92CF92DF92EF9262
:100AC000FF92CF93DF93EC01EE8DFF8DC080D1803C
:100AD000E280F380CEA2DFA2E8A6F9A6EC8DFD8D20
:100AE00080819181A281B3818AA79BA7ACA7BDA772
:100AF0008EA89FA8A8ACB9ACA5019401C701B60106
:100B00000E94292A181664F08AA89BA8ACA8BDA840
:100B1000A5019401C701B6010E94CA2887FF04C03D
:100B20008EA29FA2A8A6B9A6DF91CF91FF90EF90C9
:100B3000DF90CF90BF90AF909F908F9008954F928D
:100B40005F926F927F928F929F92AF92BF92CF925D
:100B5000DF92EF92FF920F931F93CF93DF9300D01A
:100B600000D000D0CDB7DEB79E838D832A013B0134
:100B70004801590120E030E0A901C301B2010E94FF
:100B8000CA2887FD89C020E030E0A901C501B40171
:100B90000E94CA2887FD80C020E030E0A901C7017B
:100BA000B6010E94CA2887FD77C081E0ED81FE81F1
:100BB000228D338D2130310509F080E0ED81FE81F9
:100BC00083AF408251826282738284829582A68240
:100BD000B782C086D186E286F38666A577A580A90E
:100BE00091A90E94772920E030E04AE754E40E946E
:100BF000CF2869837A838B839C83ED81FE81448631
:100C00005586668677869B01AC01C501B4010E94BA
:100C10007E2A4B015C01ED81FE81608B718B828BA2
:100C2000938B29813A814B815C81C701B6010E9477
:100C3000CF286B017C01ED81FE81648B758B868BE7
:100C4000978B808D918D019739F5A301920160E01A
:100C500070E0CB010E945D28ED81FE81648775877D
:100C600086879787A501940160E070E0CB010E9420
:100C70005D28ED81FE81608B718B828B938BA70148
:100C8000960160E070E0CB010E945D28ED81FE815D
:100C9000648B758B868B978B26960FB6F894DEBF88
:100CA0000FBECDBFDF91CF911F910F91FF90EF90BD
:100CB000DF90CF90BF90AF909F908F907F906F907C
:100CC0005F904F9008952F923F924F925F926F9254
:100CD0007F928F929F92AF92BF92CF92DF92EF92CC
:100CE000FF920F931F93CF93DF93CDB7DEB760973B
:100CF0000FB6F894DEBF0FBECDBFDC01DA96BC9113
:100D0000B983B11102C019822BC1988B8F870E94C1
:100D100050106E837F8388879987EF85F88982A139
:100D200093A1A4A1B5A14E815F8168857985481BF7
:100D3000590B6A0B7B0B86A597A5A0A9B1A94817EB
:100D400059076A077B07F8F2048CF58DE02D808146
:100D50009181A281B3818A839B83AC83BD83AF855C
:100D6000B8899096ED91FC9191972A813B814C81B5
:100D70005D8160817181828193810E945D284B0138
:100D80005C01EF85F88922A533A544A555A56A81A4
:100D90007B818C819D810E945D286B017C01AF85E8
:100DA000B88950962D913D914D915C915397C50115
:100DB000B4010E947E2AEF85F88926A137A140A5BB
:100DC00051A50E945E282B013C01AF85B8899696FB
:100DD0006D937D938D939C939997DB96BC91BA8785
:100DE000B11118C0EF85F88924853585468557856A
:100DF000C701B6010E947E2A9B01AC01C301B2016A
:100E00000E945D28AF85B88996966D937D938D93EA
:100E10009C939997EF85F88946A057A060A471A488
:100E200016A907A930AC21AC212F302F432D522D0C
:100E3000C301B2010E94292A18162CF4812F902F89
:100E4000A32DB22D18C0AF85B889D2968D919D91F2
:100E50000D90BC91A02D8B879C87AD87BE879C0190
:100E6000AD01C301B2010E94CA2887FF0AC08B8569
:100E70009C85AD85BE85EF85F88986A397A3A0A73D
:100E8000B1A7FA85FF2379F0AF85B8891C962D911B
:100E90003D914D915C911F97C501B4010E947E2A3E
:100EA0004B015C0103C0812C912C5401EF85F88922
:100EB0002489358946895789C701B6010E947E2A4F
:100EC0009B01AC01AF85B88996966D917D918D910E
:100ED0009C9199970E945D28A50194010E945E282B
:100EE0006B017C019B01AC01612F702F832D922D32
:100EF0000E94CA2887FD14C0EF85F88912A903A9AA
:100F000034A825A8212F302F432D522DB601C7011B
:100F10000E94CA2887FD04C01C2D0D2D3E2C2F2CAD
:100F2000AF85B8895E96ED91FC915F97812F902FE8
:100F3000A32DB22D80839183A283B3838A819B8169
:100F4000AC81BD81EF85F88982A793A7A4A7B5A737
:100F50008E819F81A885B98582A393A3A4A3B5A3FD
:100F6000898160960FB6F894DEBF0FBECDBFDF91CA
:100F7000CF911F910F91FF90EF90DF90CF90BF9096
:100F8000AF909F908F907F906F905F904F903F9029
:100F90002F90089510926F0310926A0310925D03D0
:100FA00010925C0360E08CE00E94840C6BE072E0C5
:100FB00082ED93E00E94790480915A03813021F4FC
:100FC00082E192E00E94480C80915A03823021F421
:100FD00080E292E00E94480C80915A03833021F411
:100FE0008EE292E00E94480C80915A03843021F4F2
:100FF0008CE392E00E94480C80915A03853021F4E2
:101000008AE492E00E94480C80915A03863021F4D1
:1010100085E592E00E94480C60E08DE00C94840C21
:10102000CF92DF92EF92FF920F931F938091130163
:1010300090911401A0911501B091160180936F0455
:1010400090937004A0937104B0937204809166032E
:1010500090916703A0916803B0916903809377042E
:1010600090937804A0937904B0937A048BE794E08A
:101070000E9463060E945010C0906203D0906303E8
:10108000E0906403F09065032091340130913501C4
:101090008901330F220B330BAB01BC014C195D09E5
:1010A0006E097F09041715072607370770F4D70163
:1010B000C601800F911FA21FB31F809362039093FC
:1010C0006303A0936403B09365030E945010C09023
:1010D0006203D0906303E0906403F09065036C19A1
:1010E0007D098E099F090E94772920917304309110
:1010F000740440917504509176040E94292A1816B0
:1011000014F460E001C061E08BE01F910F91FF904B
:10111000EF90DF90CF900C94840C0F931F938091ED
:10112000170190911801A0911901B0911A018093B3
:10113000B7049093B804A093B904B093BA04809113
:101140006B0390916C03A0916D03B0916E0380933B
:10115000BF049093C004A093C104B093C20483EC75
:1011600094E00E9463060E94501000915E0310916B
:101170005F032091600330916103AB01BC01401B10
:10118000510B620B730B493E53406105710570F0C2
:10119000D901C80188519C4FAF4FBF4F80935E0368
:1011A00090935F03A0936003B09361030E9450107B
:1011B00000915E0310915F03209160033091610301
:1011C000601B710B820B930B0E9477292091BB044B
:1011D0003091BC044091BD045091BE040E94292A64
:1011E000181614F460E001C061E08AE01F910F91CD
:1011F0000C94840C61EC73E080E090E00E948A0221
:1012000067E171E088E090E00E94570261E071E0E0
:101210008CE090E00E948A0263E071E080E190E05F
:101220000E948A0268E271E084E190E00E94570225
:101230006CE271E088E190E00E94570260E371E0A7
:101240008CE190E00E9457026FE071E080E290E054
:101250000E94570263E171E084E290E00E9457022D
:101260006CE171E088E290E00E94570260E271E078
:101270008CE290E00E94570264E271E080E390E02B
:101280000E94570260E071E084E390E00E943F0218
:101290006BE573E088E390E00E943F0269E071E053
:1012A0008CE390E00C943F02CF92DF92EF92FF929A
:1012B0000F931F93CF93DF9300D0CDB7DEB780910C
:1012C0008000807E81608093800080918100807E9C
:1012D0008A608093810098E288E10FB6F894A8951F
:1012E000809360000FBE9093600060E082E10E94F6
:1012F000B30C60E085E10E94B30C61E08AE00E94DB
:10130000B30C61E08BE00E94B30C61E080E10E94CD
:10131000B30C61E08FE00E94B30C61E081E10E94B8
:10132000B30C61E08CE00E94B30C62E083E10E94A8
:10133000B30C61E08DE00E94B30C61E08DE00E948F
:10134000840C61EC73E080E090E00E9412028091D6
:10135000C1039091C2030196C1F400E010E01A822B
:101360001982BE016F5F7F4FC8010E948A020F5F22
:101370001F4F0F3F81E0180791F781E090E09093B5
:10138000C2038093C1030E94FA0861EC73E080E01D
:1013900090E00E94120267E171E088E090E00E9414
:1013A000EC0161E071E08CE090E00E94120263E0E9
:1013B00071E080E190E00E94120268E271E084E155
:1013C00090E00E94EC016CE271E088E190E00E9404
:1013D000EC0160E371E08CE190E00E94EC016FE0D1
:1013E00071E080E290E00E94EC0163E171E084E250
:1013F00090E00E94EC016CE171E088E290E00E94D4
:10140000EC0160E271E08CE290E00E94EC0164E2A9
:1014100071E080E390E00E94EC0160E071E084E321
:1014200090E00E94E2016BE573E088E390E00E94A7
:10143000E20169E071E08CE390E00E94E2018091BA
:10144000C1039091C20301969093C2038093C1039C
:1014500082E00E94EF0C60E071E084E390E00E9483
:10146000E2018091000181508E3F18F082E8809364
:10147000000160E084E00E94000C64E473E08FEF00
:1014800094E00E94790461E082E00E94000C6CE428
:1014900073E08FEF94E00E9479046FEF70E089E0D1
:1014A0000E94A00F08EC10E08091000190E08017EE
:1014B00091076CF4B80189E00E94A00F6AE070E027
:1014C00080E090E00E94161001501109EDCF68EE07
:1014D00073E080E090E00E9416106091000170E0DF
:1014E00089E00E94A00F0E94F80BE091E203F091C6
:1014F000E30382E08083E091DE03F091DF0310825A
:10150000E091E003F091E10380E180831092EA032F
:10151000E091E603F091E70386E08083E091E40345
:10152000F091E503808180618083E091E403F09194
:10153000E503808188608083E091E403F091E50316
:10154000808180688083E091E403F091E5038081ED
:101550008F7D80830E94501060935E0370935F03C1
:10156000809360039093610340E050E06AE774E485
:1015700083EC94E00E94830B8091FD04811104C0F0
:1015800083EC94E00E94590581E08093FD04C090B3
:101590003001D0903101E0903201F09033010091A0
:1015A0002C0110912D0120912E0130912F0140919D
:1015B00028015091290160912A0170912B0183EC3F
:1015C00094E00E949F050E94501060936203709304
:1015D0006303809364039093650360913401709179
:1015E0003501072E000C880B990B0E947929AB015D
:1015F000BC018BE794E00E94830B8091B5048111BC
:1016000004C08BE794E00E94590581E08093B50403
:10161000C0902401D0902501E0902601F090270190
:10162000009120011091210120912201309123018C
:1016300040911C0150911D0160911E0170911F018C
:101640008BE794E00E949F050F900F90DF91CF9160
:101650001F910F91FF90EF90DF90CF90089583300E
:1016600081F028F4813099F08230A1F0089587301C
:10167000A9F08830B9F08430D1F4809180008F7D5A
:1016800003C0809180008F7780938000089584B597
:101690008F7702C084B58F7D84BD08958091B0009E
:1016A0008F7703C08091B0008F7D8093B000089544
:1016B0003FB7F8948091C7039091C803A091C903E4
:1016C000B091CA0326B5A89B05C02F3F19F001961B
:1016D000A11DB11D3FBFBA2FA92F982F8827820FB8
:1016E000911DA11DB11DBC01CD0142E0660F771F08
:1016F000881F991F4A95D1F7089540E0682F8FEF12
:1017000094E00C9400058F929F92AF92BF92CF927B
:10171000DF92EF92FF920F931F93CF93DF93EC0131
:101720006A017B0120E030E0A901C701B6010E94F7
:10173000CA2818160CF04FC01AAA1BAA1CAA1DAA68
:10174000CEAADFAAE8AEF9AE8AAD882309F443C079
:101750000E8D1F8DF80180809180A280B380A5013D
:101760009401C701B6010E94CA2887FF06C0F8018C
:10177000C082D182E282F3820EC020E030E0A90173
:10178000C501B4010E94CA2887FF05C0F801108274
:101790001182128213828EA09FA0A8A4B9A4CEA801
:1017A000DFA8E8ACF9ACA7019601C501B4010E941D
:1017B000292A181664F0CAA8DBA8ECA8FDA8A7017E
:1017C0009601C501B4010E94CA2887FF04C0CEA2B9
:1017D000DFA2E8A6F9A6DF91CF911F910F91FF90AC
:1017E000EF90DF90CF90BF90AF909F908F90089533
:1017F00081E00E947D0B8BE39FE10197F1F7089553
:10180000643008F063E090911205691710F06FEFF3
:10181000690FE62FF0E0E150FB4F9489890F806853
:101820000C947D0BCF92DF92EF92FF920F931F9358
:10183000CF93DF936B01770FEE08FF08F7FE1BC015
:10184000EC016DE20E9438038C0144275527BA0150
:101850004C195D096E097F092AE0CE010E945403EC
:10186000800F911FDF91CF911F910F91FF90EF900B
:10187000DF90CF9008952AE0B701A601DF91CF91C4
:101880001F910F91FF90EF90DF90CF900C94540335
:10189000CF93DF93BC0182ED93E00E943F03EC0104
:1018A00065E373E082ED93E00E943F038C0F9D1F80
:1018B000DF91CF910895CF93DF93282F30E0F90186
:1018C000EA52FF4F8491F901E651FF4FD491F9019B
:1018D000E85FFE4FC491CC2391F081110E942F0B41
:1018E000EC2FF0E0EE0FFF1FE453FF4FA591B491F2
:1018F000EC91ED2381E090E021F480E002C080E0F3
:1019000090E0DF91CF9108951F93CF93DF93282F1D
:1019100030E0F901EA52FF4F8491F901E651FF4F9F
:10192000D491F901E85FFE4FC491CC23C1F0162F8A
:1019300081110E942F0BEC2FF0E0EE0FFF1FE25001
:10194000FF4FA591B4919FB7F894111104C08C91E9
:10195000D095D82302C0EC91DE2BDC939FBFDF91A2
:10196000CF911F910895CF93DF9390E0FC01E65152
:10197000FF4F2491FC01E85FFE4F8491882361F1C1
:1019800090E0880F991FFC01EE53FF4FC591D49151
:10199000FC01E250FF4FA591B491611109C09FB7BE
:1019A000F8948881209582238883EC912E230BC0A4
:1019B000623061F49FB7F8948881322F3095832389
:1019C0008883EC912E2B2C939FBF06C08FB7F89481
:1019D000E8812E2B28838FBFDF91CF910895CF937D
:1019E000DF93823028F090910E05986090930E0559
:1019F000809312051092130580E48093140580E112
:101A00008093150580E58093160561E080910305BC
:101A10000E94B30C809104058F3F19F061E00E9491
:101A2000B30C61E0809105050E94B30CCFEFD4E0C8
:101A30009E012F5F344080910E0584FD03C084E039
:101A400090E002C088E090E02196281739072CF436
:101A500061E08E810E94B30CEBCF8BE39DE0019798
:101A6000F1F760E0809103050E94840C60E08091B2
:101A700005050E94840C809104058F3F19F060E0F9
:101A80000E94840C80910E0584FD20C063E08FEFDE
:101A900094E00E94D304CBE4D6E4CE010197F1F7A1
:101AA00063E08FEF94E00E94D3042197F1F763E0A5
:101AB0008FEF94E00E94D30483E592E00197F1F761
:101AC00062E08FEF94E00E94D30415C080620E9410
:101AD0007D0B8BE496E40197F1F780910E0580620F
:101AE0000E947D0B83E592E00197F1F780910E054E
:101AF00080620E947D0B80910E0580620E947D0BAA
:101B000084E080930F058CE00E947D0B0E94F80B0F
:101B100082E08093100586E0DF91CF910C947D0BDD
:101B20008F929F92AF92BF92CF92DF92EF92FF92ED
:101B30001F93CF93DF93EC0180911B01803121F043
:101B40008F3F09F0F1C104C0ECE1F1E014916FC0E6
:101B500080E180931B01ECE1F1E014911F3F09F457
:101B6000E3C1113009F440C030F1123009F05FC018
:101B70001092B0001092B1008091B000826080930A
:101B8000B0008091B10081608093B100E8E1F1E0A4
:101B9000E491F0E0EE0FFF1FE250FF4F859194912A
:101BA0009093CD038093CC03EAEFF0E0E491E093CF
:101BB000CB0312E0B4C114BC15BC84B5826084BDF3
:101BC00085B5816085BDE8E1F1E0E491F0E0EE0FDC
:101BD000FF1FE250FF4F85919491EAEFF0E0E4910E
:101BE000E093180510E09BC11092800010928100D4
:101BF0008091810088608093810080918100816064
:101C000080938100E8E1F1E0E491F0E0EE0FFF1F46
:101C1000E250FF4F85919491EAEFF0E0E491E09378
:101C2000170561E080E10E94B30C11E0A5C017FD2B
:101C30007BC161E080E10E94B30C812F8D7F09F0B0
:101C40009BC06E01E12CF12C60E072E18AE790E02C
:101C5000A70196010E945B2B49015A01BA01A90113
:101C600041505109610971094F3F510561057105E5
:101C700009F008F445C060E472E48FE090E0A70149
:101C800096010E945B2BBA01A901415051096109DB
:101C900071091230E9F44F3F51056105710509F0F2
:101CA00008F4DDC060E970ED83E090E0A7019601E3
:101CB0000E945B2BBA01A9014150510961097109C8
:101CC0004F3F51056105710509F020F583E04DC0D6
:101CD0004F3F510561057105A9F0A0F068E478EE69
:101CE00081E090E0A70196010E945B2BBA01A90157
:101CF0004150510961097109112309F4E1C0D8C0AB
:101D000081E001C082E0111130C095B5987F892B28
:101D100085BD69C068E478EE81E090E0A701960196
:101D20000E945B2BBA01A901415051096109710957
:101D30004F3F51056105710509F008F48EC064E25A
:101D400074EF80E090E0A70196010E945B2BBA013E
:101D5000A90141505109610971094F3F51056105C0
:101D6000710511F008F07DC085E09091B100987F79
:101D7000892B8093B10031C06E01E12CF12C60E021
:101D800072E18AE790E0A70196010E945B2BBA01FD
:101D9000A90141505109610971094115510581E0BD
:101DA0006807710580F068E478EE81E090E0A701B3
:101DB00096010E945B2BBA01A901415051096109AA
:101DC000710983E001C081E0113039F49091810004
:101DD000987F892B8093810018C01130B1F01230A8
:101DE00049F11111A1C047BD8FEF9FEFDC01809336
:101DF0001D0590931E05A0931F05B09320058091AB
:101E00006E00826080936E008FC050938900409373
:101E100088008FEF9FEFDC018093190590931A05DE
:101E2000A0931B05B0931C0580916F008260809386
:101E30006F007AC04093B3008FEF9FEFDC01809377
:101E4000CE039093CF03A093D003B093D10380919E
:101E5000700082608093700067C084E086CF82E06B
:101E600084CF62E17AE780E090E0A70196010E94CA
:101E70005B2BBA01A90141505109610971094F3F1A
:101E800051056105710591F088F0D501C4012AE082
:101E9000B595A795979587952A95D1F7AC01BD0182
:101EA000415051096109710987E05FCF86E05DCF3C
:101EB0004F3F51056105710509F098F684E023CF85
:101EC0004F3F51056105710541F138F162E17AE753
:101ED00080E090E0A70196010E945B2BBA01A90166
:101EE00041505109610971094F3F51056105710563
:101EF00091F088F0D501C4013AE0B595A795979582
:101F000087953A95D1F7AC01BD014150510961095E
:101F1000710985E0FACE84E0F8CE83E0F6CE61E088
:101F200080E10E94B30C8DCEDF91CF911F91FF9085
:101F3000EF90DF90CF90BF90AF909F908F900895DB
:101F40001F93CF93DF93182FEB0161E00E94B30C36
:101F5000209711F460E004C0CF3FD10539F461E06F
:101F6000812FDF91CF911F910C94840CE12FF0E031
:101F7000EA52FF4FE491E330F9F048F4E130B9F070
:101F8000E230A1F584B5806284BDC8BD34C0E730BD
:101F9000E9F0E83019F1E43049F580918000806281
:101FA00080938000D0938B00C0938A0024C084B5B6
:101FB000806884BDC7BD1FC0809180008068809309
:101FC0008000D0938900C093880015C08091B00034
:101FD00080688093B000C093B3000DC08091B000C2
:101FE00080628093B000C093B40005C0C038D105B2
:101FF0000CF0B5CFAFCFDF91CF911F9108958E3008
:1020000008F08E508770806480937C0080917A0005
:10201000806480937A0080917A0086FDFCCF809165
:1020200078002091790090E0922B08958F929F92F2
:10203000AF92BF92CF92DF92EF92FF926B017C0141
:102040000E94580B4B015C01C114D104E104F1045E
:10205000F1F00E94580BDC01CB0188199909AA09FB
:10206000BB09883E9340A105B10570F321E0C21A77
:10207000D108E108F10888EE880E83E0981EA11CC3
:10208000B11CC114D104E104F10419F7DDCFFF90B4
:10209000EF90DF90CF90BF90AF909F908F9008957A
:1020A0002FB7F8946091C3037091C4038091C50366
:1020B0009091C6032FBF08954F925F926F927F92C7
:1020C0008F929F92AF92BF92CF92DF92EF92FF9248
:1020D0000F931F93CF93DF93CDB7DEB74C01DC0195
:1020E0005F965C934E935E975D967C936E935C9740
:1020F00091963C932E939097DA961C92FC0112AA2B
:1021000013AA14AA15AA80E090E0AFE7B3E486AB67
:1021100097ABA0AFB1AF84E690E0A0E0B0E086A7B7
:1021200097A7A0ABB1AB118E108E20E030E0A901D3
:10213000C801B7010E94CA2887FD56C020E030E0E0
:10214000A901C601B5010E94CA2887FD4DC020E043
:1021500030E0A9016B897C898D899E890E94CA28FB
:1021600087FD42C081E090E0D4015B969C938E9302
:102170005A97DB968C93DB97F401E082F18202831D
:1021800013831496AD92BD92CD92DC9217978B89F2
:102190009C89AD89BE8980879187A287B387D40146
:1021A0001C96ED92FD920D931C931F972DEC3CEC29
:1021B0004CEC5DE3C601B5010E947E2AF401608B00
:1021C000718B828B938B2DEC3CEC4CEC5DE36B893B
:1021D0007C898D899E890E94CF28D40154966D9365
:1021E0007D938D939C9357970E945010F401C6A441
:1021F000D7A4E0A8F1A8DC01CB018C199D09AE0998
:10220000BF0982A393A3A4A3B5A3DF91CF911F918C
:102210000F91FF90EF90DF90CF90BF90AF909F9085
:102220008F907F906F905F904F9008951F920F92C4
:102230000FB60F9211242F933F938F939F93AF93D9
:10224000BF938091C3039091C403A091C503B09143
:10225000C6033091210523E0230F2D3720F401968A
:10226000A11DB11D05C026E8230F0296A11DB11DB9
:10227000209321058093C3039093C403A093C503C7
:10228000B093C6038091C7039091C803A091C9037E
:10229000B091CA030196A11DB11D8093C70390930D
:1022A000C803A093C903B093CA03BF91AF919F9194
:1022B0008F913F912F910F900FBE0F901F90189507
:1022C000CF93DF93CDB7DEB7C054D1090FB6F894E2
:1022D000DEBF0FBECDBF789484B5826084BD84B567
:1022E000816084BD85B5826085BD85B5816085BD11
:1022F00080916E00816080936E00109281008091C9
:102300008100826080938100809181008160809350
:102310008100809180008160809380008091B10075
:1023200084608093B1008091B00081608093B000A0
:1023300080917A00846080937A0080917A00826034
:1023400080937A0080917A00816080937A008091F6
:102350007A00806880937A001092C1000E9454092C
:10236000AAE02A2E312CB5E08B2E912C0E94501021
:1023700028EE33E040E050E00E94392B2AE030E0C4
:1023800040E050E00E94392B80919D0390919E0384
:10239000A0919F03B091A003281739074A075B0754
:1023A00069F020939D0330939E0340939F035093C5
:1023B000A00380919C038F5F80939C0380919C037A
:1023C0008A3010F40C94761E10929C0380919B032B
:1023D0008F5F80939B038091860390918703823364
:1023E000910511F40C947D1A5CF58F30910509F478
:1023F000E0C59CF48530910509F4CFC42CF4892BF9
:1024000009F4D2C30C94BE1C8630910509F41BC597
:102410000A9709F44EC50C94BE1C8E31910509F43F
:1024200018C72CF4449709F442C60C94BE1C83329E
:10243000910509F484C7889709F4D1C70C94BE1C90
:102440008134910509F4F0C0B4F48E33910511F490
:102450000C94A81B34F4CC9711F40C940E1B0C9420
:10246000BE1C8F33910511F40C94671C80349105C8
:10247000D9F00C94BE1C8F35910509F488C254F430
:102480008634910509F450C18035910509F4D4C111
:102490000C94BE1C8436910509F4F7C28F3F910558
:1024A00009F450C50C94BE1C60E080E00E94000C52
:1024B00080916A03823010F0843131F464E571E078
:1024C0008FEF94E00E94790480916A038C3031F49C
:1024D00064E671E08FEF94E00E94790480916A03D2
:1024E0008E3031F466E771E08FEF94E00E9479045A
:1024F00080916A03803131F46AE871E08FEF94E0F3
:102500000E94790460E08FE00E94000C8BE00E9442
:102510005B0C019731F46AE971E08FEF94E00E945F
:1025200079048BE00E945B0C892B31F468E971E03F
:102530008FEF94E00E94790461E080E00E94000C3B
:1025400080916A038E3001F56CE971E08FEF94E0C1
:102550000E94790460911C0170911D0180911E01FF
:1025600090911F019B01AC010E945E28AB01BC0150
:1025700020E030E08FEF94E00E949D0368E971E075
:102580008FEF94E00E94790480916A038031A1F575
:102590006CE971E08FEF94E00E94790440911C0196
:1025A00050911D0160911E0170911F0120E030E0EB
:1025B0008FEF94E00E949D0368E971E08FEF94E053
:1025C0000E94790461EA71E08FEF94E00E9479043F
:1025D00040912001509121016091220170912301CD
:1025E00022E030E08FEF94E00E949D0368E971E003
:1025F0008FEF94E00E9479048091760390917703A5
:102600008130910521F486E090E00C945B1C8530CC
:10261000910509F4B8C0039711F00C94BA1C8AE034
:1026200080936A030C94BA1C60E080E00E94000C66
:1026300066EA71E08FEF94E00E94790461E080E047
:102640000E94000C60EB71E08FEF94E00E9479042F
:10265000409124015091250160912601709127013C
:1026600022E030E08FEF94E00E949D0362EB71E086
:102670008FEF94E00E947904809176039091770324
:102680008130910509F4F0C38530910521F4F6E419
:10269000AF2EB12C92C68230910549F520E030E092
:1026A00040E251E46091240170912501809126015E
:1026B000909127010E945D286B017C0120E030E0B1
:1026C000A9010E94CA2887FD09C0C0922401D092A6
:1026D0002501E0922601F092270106C11092240103
:1026E000109225011092260110922701FDC0049737
:1026F00011F00C94BA1C20E030E040E251E460910B
:1027000024017091250180912601909127010E945A
:102710005E286B017C0160932401709325018093F6
:10272000260190932701E8C060E080E00E94000C41
:1027300064EB71E08FEF94E00E94790461E080E047
:102740000E94000C60EB71E08FEF94E00E9479042E
:10275000409120015091210160912201709123014B
:1027600022E030E08FEF94E00E949D0362EB71E085
:102770008FEF94E00E947904809176039091770323
:102780008130910521F481E490E00C945B1C85304C
:10279000910509F445C18230910549F52DEC3CECD9
:1027A0004CEC5DE360912001709121018091220148
:1027B000909123010E945D286B017C0120E030E0B4
:1027C000A9010E94CA2887FD09C0C0922001D092A9
:1027D0002101E0922201F092230186C01092200193
:1027E0001092210110922201109223017DC00497C2
:1027F00011F00C94BA1C2DEC3CEC4CEC5DE36091B8
:1028000020017091210180912201909123010E9469
:102810005E288B019C0160932001709321018093BD
:10282000220190932301C0902401D0902501E090D3
:102830002601F090270168C060E080E00E94000C53
:102840006EEB71E08FEF94E00E94790461E080E02C
:102850000E94000C60EB71E08FEF94E00E9479041D
:1028600040911C0150911D0160911E0170911F014A
:1028700022E030E08FEF94E00E949D0362EB71E074
:102880008FEF94E00E947904809176039091770312
:102890008230910509F041C020E030E040E85FE37C
:1028A00060911C0170911D0180911E0190911F018A
:1028B0000E945D286B017C0120E030E0A9010E94AC
:1028C000CA2887FD09C0C0921C01D0921D01E09268
:1028D0001E01F0921F0108C010921C0110921D01F0
:1028E00010921E0110921F01C0902401D09025016A
:1028F000E0902601F0902701009120011091210124
:10290000209122013091230140911C0150911D0121
:1029100060911E0170911F012BC08430910569F5F3
:1029200020E030E040E85FE360911C0170911D0100
:1029300080911E0190911F010E945E28AB01BC0195
:1029400040931C0150931D0160931E0170931F0161
:10295000C0902401D0902501E0902601F09027013D
:102960000091200110912101209122013091230139
:102970008BE794E00E949F05FDC78130910509F423
:1029800086CE059709F0F6C78FE590E094C760E022
:1029900080E00E94000C68EC71E08FEF94E00E94F0
:1029A000790461E080E00E94000C60EB71E08FEF41
:1029B00094E00E94790440911301509114016091B8
:1029C00015017091160120E030E08FEF94E00E9435
:1029D0009D0362EB71E08FEF94E00E9479046AED51
:1029E00071E08FEF94E00E9479044091660350916A
:1029F0006703609168037091690320E030E08FEF16
:102A000094E00E949D036CED71E08FEF94E00E94D2
:102A1000790480917603909177038130910519F4C0
:102A200080E590E048C78230910579F420E030E0FD
:102A300040E85FE3609113017091140180911501EA
:102A4000909116010E945D2811C084309105B9F45F
:102A500020E030E040E85FE36091130170911401E1
:102A600080911501909116010E945E2860931301D8
:102A70007093140180931501909316017BC70597FD
:102A800009F078C784E690E016C760E080E00E9415
:102A9000000C6EED71E08FEF94E00E94790440919C
:102AA000660350916703609168037091690320E0A9
:102AB00030E08FEF94E00E949D0362EB71E08FEFB6
:102AC00094E00E94790480916A038823A1F04091E8
:102AD000130150911401609115017091160120E0CD
:102AE00030E08FEF94E00E949D0363E971E08FEF87
:102AF00094E00E94790480916A03811106C062EE1D
:102B000071E08FEF94E00E94790460E08FE00E9412
:102B1000000C8BE00E945B0C019731F46AE971E0D4
:102B20008FEF94E00E9479048BE00E945B0C892B6C
:102B300031F468E971E08FEF94E00E94790468E96C
:102B400071E08FEF94E00E94790461E080E00E94E0
:102B5000000C67EE71E08FEF94E00E9479048091A1
:102B60007603909177038230910511F460E004C000
:102B70008430910529F461E08CE00E94840CFAC64F
:102B80008330910549F480916A038F5F823008F4A5
:102B900047CD10926A03EEC68130910509F4F4CE58
:102BA000059709F4CFC1E6C660E080E00E94000C02
:102BB0006FEE71E08FEF94E00E94790440916B0317
:102BC00050916C0360916D0370916E0320E030E0D2
:102BD0008FEF94E00E949D0362EB71E08FEF94E031
:102BE0000E94790480916F038130C1F520E030E0CC
:102BF00040E85EE36091B5037091B6038091B7033E
:102C00009091B8030E94CA2887FF14C040910F0119
:102C100050911001609111017091120120E030E09B
:102C20008FEF94E00E949D0362EB71E08FEF94E0E0
:102C30000E94790440911701509118016091190187
:102C400070911A0120E030E08FEF94E00E949D0324
:102C500062EF71E08FEF94E00E94790480916F033E
:102C6000811106C069EF71E08FEF94E00E94790452
:102C700060E08FE00E94000C8AE00E945B0C0197EC
:102C800031F46AE971E08FEF94E00E9479048AE000
:102C90000E945B0C892B31F468E971E08FEF94E0BE
:102CA0000E94790461E080E00E94000C62E072E022
:102CB0008FEF94E00E94790480915C0390915D0312
:102CC00097FD06C068E971E08FEF94E00E947904F7
:102CD00060915C0370915D038FEF94E00E94120C91
:102CE00080917603909177038130910539F484E6E1
:102CF00090E090938703809386033AC085309105D6
:102D000029F4309287032092860332C084309105E3
:102D100061F420915C0330915D032F5F3F4F2530BC
:102D2000310514F40C947C270EC08230910581F497
:102D300080915C0390915D0301978C3F2FEF920788
:102D400014F48CEF9FEF90935D0380935C0310C0AD
:102D5000039771F4109277031092760380916F03BA
:102D60008F5F823018F480936F0302C010926F035C
:102D700061E089E00E94000C4091B5035091B603D8
:102D80006091B7037091B80322E030E08FEF94E0D8
:102D90000E949D0369E072E051C060E080E00E9403
:102DA000000C6BE072E08FEF94E00E947904409198
:102DB0005A0350E060E070E02AE08FEF94E00E9458
:102DC000540361E080E00E94000C80915A0381303E
:102DD00031F462E172E08FEF94E00E947904809117
:102DE0005A03823031F460E272E08FEF94E00E9487
:102DF000790480915A03833031F46EE272E08FEFF0
:102E000094E00E94790480915A03843031F46CE399
:102E100072E08FEF94E00E94790480915A0385302C
:102E200031F46AE472E08FEF94E00E9479048091BB
:102E30005A03863009F09EC565E572E08FEF94E095
:102E40000E94790497C560E080E00E94000C60E673
:102E500072E08FEF94E00E94790480917603909164
:102E600077038530910519F480E490E024C5039739
:102E700009F080C5E12CF12C6FEFC7010E944F28AB
:102E80003FEFE31AF30A4FEFE41641E0F406A1F72F
:102E900061E080E00E94000C63E772E08FEF94E055
:102EA0000E94790468E873E180E090E00E941610C7
:102EB00061C560E080E00E94000C66E872E08FEF80
:102EC00094E00E94790461E080E00E94000C60EBD5
:102ED00071E08FEF94E00E947904409117015091C6
:102EE00018016091190170911A0120E030E08FEF14
:102EF00094E00E949D0362EB71E08FEF94E00E94EA
:102F000079046AED71E08FEF94E00E9479044091BA
:102F10006B0350916C0360916D0370916E0320E020
:102F200030E08FEF94E00E949D036CED71E08FEF35
:102F300094E00E9479048091760390917703813028
:102F4000910529F4109287031092860313C58230ED
:102F5000910579F420E030E040E85FE360911701EB
:102F6000709118018091190190911A010E945D28B9
:102F700011C084309105B9F420E030E040E85FE30F
:102F800060911701709118018091190190911A01B7
:102F90000E945E28609317017093180180931901B5
:102FA00090931A01E7C4059709F0E4C48FE090E01C
:102FB00082C460E080E00E94000C60E872E08FEF65
:102FC00094E00E94790461E080E00E94000C60EBD4
:102FD00071E08FEF94E00E94790440910F015091CD
:102FE0001001609111017091120120E030E08FEF2B
:102FF00094E00E949D0362EB71E08FEF94E00E94E9
:1030000079046AED71E08FEF94E00E9479044091B9
:103010006B0350916C0360916D0370916E0320E01F
:1030200030E08FEF94E00E949D036CED71E08FEF34
:1030300094E00E9479048091760390917703813027
:10304000910529F4309287032092860393C482303D
:10305000910579F420E030E040E85FE360910F01F2
:103060007091100180911101909112010E945D28D0
:1030700011C084309105B9F420E030E040E85FE30E
:1030800060910F01709110018091110190911201D6
:103090000E945E2860930F017093100180931101CC
:1030A0009093120167C4059709F42CC163C460E0D2
:1030B00080E00E94000C61E972E08FEF94E00E94D2
:1030C000790460E089E00E94000C80910901803160
:1030D00031F46AE972E08FEF94E00E947904809104
:1030E0000901803231F460EA72E08FEF94E00E94CF
:1030F000790461E080E00E94000C60EB71E08FEFEA
:1031000094E00E94790460910301709104018FEFB3
:1031100094E00E94120C66EA72E08FEF94E00E9445
:1031200079046091030170910401072E000C880B53
:10313000990B0E9479292091050130910601409157
:103140000701509108010E94CF286093700370938B
:1031500071038093720390937303209109012032CD
:1031600071F420E030E040E05FE30E947E2A60934B
:103170007003709371038093720390937303409173
:10318000700350917103609172037091730322E098
:1031900030E08FEF94E00E949D0369EA72E08FEFC8
:1031A00094E00E94790420917603309177032130D6
:1031B000310519F48FE090E033C08091090122308D
:1031C000310591F452E3859FC0011124E4E0959507
:1031D0008795EA95E1F72091030130910401D90127
:1031E000A81BB90BCD0112C024303105A1F4B2E304
:1031F0008B9FC001112474E0959587957A95E1F72E
:103200002091030130910401820F931F90930401D8
:103210008093030114C02530310539F48EE190E02C
:1032200090938703809386030AC02330310539F4D5
:10323000803211F480E101C080E280930901809125
:10324000090181508E3F08F495C380E18093090104
:1032500091C360E080E00E94000C6FEA72E08FEFA3
:1032600094E00E94790461E080E00E94000C60EB31
:1032700071E08FEF94E00E947904609101017091F8
:1032800002018FEF94E00E94120C66EA72E08FEF69
:1032900094E00E9479046091010170910201072E6F
:1032A000000C880B990B0E9479292091050130911F
:1032B000060140910701509108010E94CF2820E0AB
:1032C00030E040E051E40E947E2AAB01BC01409313
:1032D000700350937103609372037093730322E041
:1032E00030E08FEF94E00E949D0369EA72E08FEF77
:1032F00094E00E9479048091760390917703813065
:10330000910519F484E190E0D6C28530910509F465
:1033100095C08230910531F48091010190910201B4
:10332000C29708C0049709F025C3809101019091CC
:103330000201C29690930201809301011BC360E0D9
:1033400080E00E94000C67EB72E08FEF94E00E9437
:10335000790461E080E00E94000C60EB71E08FEF87
:1033600094E00E94790480915B03811106C066ECB1
:1033700072E08FEF94E00E94790480915B038130CA
:1033800031F46AEC72E08FEF94E00E94790462EB12
:1033900071E08FEF94E00E94790480917603909120
:1033A00077038130910519F48EE190E084C2853075
:1033B000910541F468E2A62EB12CB0928703A09249
:1033C0008603D8C28230910519F410925B03D2C2F1
:1033D000049709F0CFC281E080935B03CBC260E029
:1033E00080E00E94000C6EEC72E08FEF94E00E948F
:1033F000790461E080E00E94000C60EB71E08FEFE7
:1034000094E00E9479044091280150912901609133
:103410002A0170912B0122E030E08FEF94E00E94AE
:103420009D0362EB71E08FEF94E00E94790480913C
:103430007603909177038130910519F483E290E04F
:103440003AC28530910509F418C18230910549F5D9
:1034500020E030E040E85FE36091280170912901AD
:1034600080912A0190912B010E945D286B017C01C3
:1034700020E030E0A9010E94CA2887FD09C0C0925F
:103480002801D0922901E0922A01F0922B0123C158
:10349000109228011092290110922A0110922B01FA
:1034A0001AC1049709F066C220E030E040E85FE30B
:1034B000609128017091290180912A0190912B013E
:1034C0000E945E28AB01BC01409328015093290162
:1034D00060932A0170932B01C0903001D09031018C
:1034E000E0903201F090330100912C0110912D01F8
:1034F00020912E0130912F0122C160E080E00E94D6
:10350000000C67ED72E08FEF94E00E94790461E0B7
:1035100080E00E94000C60EB71E08FEF94E00E946D
:10352000790440912C0150912D0160912E017091F0
:103530002F0122E030E08FEF94E00E949D0362EBC8
:1035400071E08FEF94E00E9479048091760390916E
:1035500077038130910541F458E2C52ED12CD092E9
:103560008703C092860306C28530910539F42CE3A7
:1035700030E03093870320938603FCC182309105AD
:1035800049F52DEC3CEC4CEC5DE360912C01709125
:103590002D0180912E0190912F010E945D286B01D9
:1035A0007C0120E030E0A9010E94CA2887FD09C003
:1035B000C0922C01D0922D01E0922E01F0922F01A9
:1035C0008AC010922C0110922D0110922E0110929F
:1035D0002F0181C0049709F0CDC12DEC3CEC4CECDF
:1035E0005DE360912C0170912D0180912E019091ED
:1035F0002F010E945E288B019C0160932C01709327
:103600002D0180932E0190932F01C0903001D09016
:103610003101E0903201F090330189C060E080E038
:103620000E94000C60EE72E08FEF94E00E9479043B
:1036300061E080E00E94000C60EB71E08FEF94E0AD
:103640000E94790440913001509131016091320122
:103650007091330122E030E08FEF94E00E949D03EF
:1036600062EB71E08FEF94E00E9479048091760321
:10367000909177038130910519F482E390E01BC1AA
:103680008230910589F520E030E040E251E460911C
:1036900030017091310180913201909133010E948B
:1036A0005D286B017C0120E030E0A9010E94CA285E
:1036B00087FD09C0C0923001D0923101E092320101
:1036C000F092330108C01092300110923101109233
:1036D000320110923301C0903001D0903101E0905E
:1036E0003201F09033011BC08430910559F520E080
:1036F00030E040E251E460913001709131018091FD
:103700003201909133010E945E286B017C0160932D
:103710003001709331018093320190933301009115
:103720002C0110912D0120912E0130912F014091FB
:1037300028015091290160912A0170912B0183EC9D
:1037400094E018C9059709F015C18EE390E0B3C065
:1037500060E080E00E94000C80916F03823030F4C2
:1037600069EE72E08FEF94E00E94790480916F031C
:103770008C3031F468EF72E08FEF94E00E947904AE
:1037800080916F038E3031F469E073E08FEF94E045
:103790000E94790480916F03803131F46AE871E00E
:1037A0008FEF94E00E94790460E08FE00E94000CAB
:1037B0008AE00E945B0C019731F46AE971E08FEFB7
:1037C00094E00E9479048AE00E945B0C892B31F41A
:1037D00068E971E08FEF94E00E94790461E080E095
:1037E0000E94000C80916F038E3001F56CE173E054
:1037F0008FEF94E00E947904609128017091290173
:1038000080912A0190912B019B01AC010E945E28BE
:10381000AB01BC0120E030E08FEF94E00E949D03FB
:1038200068E971E08FEF94E00E94790480916F0362
:103830008031A1F56CE173E08FEF94E00E94790490
:10384000409128015091290160912A0170912B012A
:1038500020E030E08FEF94E00E949D0368E971E082
:103860008FEF94E00E94790460E273E08FEF94E0C0
:103870000E94790440912C0150912D0160912E01FC
:1038800070912F0122E030E08FEF94E00E949D03C1
:1038900068E971E08FEF94E00E94790480917603EB
:1038A000909177038130910509F461CE85309105BF
:1038B00039F48FE390E090938703809386035AC096
:1038C000039709F057C08AE080936F0353C060E00C
:1038D00080E00E94000C64E273E08FEF94E00E94AD
:1038E000790461E080E00E94000C60EB71E08FEFF2
:1038F00094E00E9479044091000150E060E070E0A3
:103900002AE08FEF94E00E94540366EA72E08FEFA2
:1039100094E00E947904209176033091770321305E
:10392000310539F48EE390E090938703809386030A
:103930000DC0809100012230310511F4815004C086
:103940002430310519F48F5F8093000180910001CC
:10395000811103C081E080930001809100018F3FBD
:1039600019F48EEF809300016091000170E089E00E
:103970000E94A00F10927703109276032091740397
:10398000309175038091860390918703281739073A
:1039900081F010927703109276030E94F80B0E9438
:1039A000FA08809186039091870390937503809322
:1039B00074038EE00E94FF0F0B976CF00E94501072
:1039C00020917A0330917B03621B730B7093790310
:1039D000609378030AC00E94501070937B03609339
:1039E0007A03109279031092780380917803909172
:1039F00079030B979CF08EE00E94FF0F9093770362
:103A00008093760310927903109278030E945010ED
:103A1000645D7E4F70937B0360937A03809176039D
:103A2000909177038B5D9240CB9730F441E050E06A
:103A300050937703409376038091760390917703B8
:103A40008B539240C19730F482E090E090937703DB
:103A5000809376038091760390917703855A914005
:103A6000829730F4A3E0B0E0B0937703A09376039D
:103A7000809176039091770385509140853491052C
:103A800038F444E0A42EB12CB0927703A0927603D0
:103A900080917603909177038D5891094D9720F48A
:103AA0009092770380927603E0905C03F0905D0340
:103AB000E114F10421F480E10E94B10215C02CEF61
:103AC000E2162FEFF20681F460E070E081E10E94DF
:103AD000A00F60E070E08FE00E94A00F80910101D4
:103AE000909102010E94900DC70103960397A0F5E3
:103AF0006FEF70E081E10E94A00F60E070E08FE066
:103B00000E94A00F80910901803181F4209103016E
:103B100030910401E29EC001E39E900DF29E900D53
:103B200011249195819591090E94900D8091090130
:103B3000803291F42091030130910401E29EC00192
:103B4000E39E900DF29E900D11249195819591091F
:103B5000880F991F0E94900D670131E0C31AD108A8
:103B600043E0C416D10470F56FEF70E081E10E946C
:103B7000A00F6FEF70E08FE00E94A00F809109010D
:103B8000803171F48091030190910401DC01EA9E7F
:103B9000C001EB9E900DFA9E900D11240E94900D95
:103BA00080910901803211F52091030130910401C7
:103BB000E29EC001E39E900DF29E900D1124880FAD
:103BC000991F12C0B4E0EB16F10481F460E070E0DC
:103BD00081E10E94A00F6FEF70E08FE00E94A00FC4
:103BE00080910101909102010E94900D10910901B4
:103BF00028EC129FB0011124072E000C880B990BA2
:103C00000E94792920E038E34BE053E40E947E2AA9
:103C100029E23CE548E653E40E94CF282B013C0111
:103C2000609305017093060180930701909308014A
:103C300080916F03813009F045C033E0C316D10491
:103C400008F04AC08091030190910401B1010E94E3
:103C5000252BAB01770F660B770B80917C0390913E
:103C60007D03A0917E03B0917F035A016B01A80EE2
:103C7000B91ECA1EDB1EC601B501A0927C03B0921C
:103C80007D03C0927E03D0927F030E947729A30117
:103C900092010E94CF2820E030E04AE754E40E94DD
:103CA000CF28103231F420E030E040E05FE30E94A2
:103CB0007E2A6093B5037093B6038093B703909305
:103CC000B8030AC0811108C010927C0310927D03D2
:103CD00010927E0310927F0383E10E945B0C892B7C
:103CE00021F4EF2811F00C948227A89580919B0372
:103CF0008A3008F474C380919A038F5F80939A038B
:103D000010929B034091BD035091BE036091BF038D
:103D10007091C0034F5F5F4F6F4F7F4F4093BD0364
:103D20005093BE036093BF037093C0038C3310F0B5
:103D300010929A0340916B0350916C0360916D0354
:103D400070916E0322E030E082ED93E00E949D03CB
:103D500063E373E082ED93E00E947904409166038F
:103D600050916703609168037091690322E030E02D
:103D700082ED93E00E949D0363E373E082ED93E0A4
:103D80000E947904409128015091290160912A01F3
:103D900070912B0122E030E082ED93E00E949D03C0
:103DA00063E373E082ED93E00E94790440912C017B
:103DB00050912D0160912E0170912F0122E030E091
:103DC00082ED93E00E949D0363E373E082ED93E054
:103DD0000E9479044091300150913101609132018B
:103DE0007091330122E030E082ED93E00E949D0368
:103DF00063E373E082ED93E00E9479042AE046E0F9
:103E000050E060E070E082ED93E00E94540365E3CF
:103E100073E082ED93E00E943F036091A9037091EB
:103E2000AA038091AB039091AC030E944129072E15
:103E3000000C880B990B0E9479299B01AC0160E072
:103E400070EC8FE794E40E94CF2820E030E040E857
:103E50005FE30E945D289B01AC0160E070E081E9B6
:103E600095E40E94CF2820E030E543EC57E40E941F
:103E7000CF280E94362A20E030EE46E755E40E9423
:103E8000CF282FE03FEC4BE55BE30E945E289B01CF
:103E9000AC0160E070E080E89FE30E94CF2823E35C
:103EA00033E948E853E40E945D286B017C0160938C
:103EB0006B0370936C0380936D0390936E0360911A
:103EC000A1037091A2038091A3039091A4030E9487
:103ED0004129072E000C880B990B0E9479299B0120
:103EE000AC0160E070EC8FE794E40E94CF2820E002
:103EF00030E040E85FE30E945D289B01AC0160E098
:103F000070E081E995E40E94CF2820E030E543ECA1
:103F100057E40E94CF280E94362A20E030EE46E780
:103F200055E40E94CF282FE03FEC4BE55BE30E9475
:103F30005E289B01AC0160E070E080E89FE30E9496
:103F4000CF2823E333E948E853E40E945D282B019E
:103F50003C016093660370936703809368039093BA
:103F60006903809198039091990301969093990326
:103F700080939803059704F1209194033091950361
:103F80004091960350919703C301B2010E945D28AE
:103F900060939003709391038093920390939303A3
:103FA0004092940350929503609296037092970307
:103FB000109299031092980380910E01813091F52F
:103FC000209190033091910340919203509193037B
:103FD00021962CAF3DAF4EAF5FAF219720E030E090
:103FE000A90121966CAD7DAD8EAD9FAD21970E944C
:103FF000292A181644F440920A0150920B0160924B
:104000000C0170920D0120E030E0A90121966CAD09
:104010007DAD8EAD9FAD21970E94CA2887FF35C028
:1040200010920E0180910E0181112FC0809190039A
:1040300090919103A0919203B091930321968CAF3C
:104040009DAFAEAFBFAF219720E030E0A901BC012A
:10405000CD010E94CA2887FF08C040928C0350926D
:104060008D0360928E0370928F0320E030E0A901EF
:1040700021966CAD7DAD8EAD9FAD21970E94292A12
:1040800018161CF481E080930E0180915C039091DE
:104090005D03892B29F010928B0310928A0311C0C3
:1040A00080916F03813069F480918A0390918B0332
:1040B000019690938B0380938A03813B944008F090
:1040C00027C780916A03813011F0843191F4809187
:1040D00088039091890301969093890380938803C4
:1040E00081319E4030F010926A0310928903109241
:1040F000880320E030E045EA53E4C701B6010E949E
:10410000292A18164CF481E080935A039092870371
:10411000809286030E94CA0720E030E045EA53E41B
:1041200060916603709167038091680390916903C1
:104130000E94292A18164CF482E080935A03909228
:104140008703809286030E94CA0720E030E040EA9D
:1041500051EC60916B0370916C0380916D039091B1
:104160006E030E94CA2887FF0DC080916F038823C9
:1041700049F083E080935A039092870380928603EC
:104180000E94CA0720E030E040EA51EC60916603EB
:104190007091670380916803909169030E94CA2817
:1041A00087FF0DC080916A03882349F084E08093E3
:1041B0005A0390928703809286030E94CA078091D7
:1041C0006F03813009F052C0C0906B03D0906C0334
:1041D000E0906D03F0906E0320E030E040EA51E49F
:1041E0006091B1037091B2038091B3039091B403D5
:1041F0000E945D28A70196010E94292A1816D4F56D
:104200002091820330918303409184035091850370
:10421000C701B6010E94292A181654F4C0928203DD
:10422000D0928303E0928403F0928503109281037D
:104230002091820330918303409184035091850340
:10424000C701B6010E94CA281816A4F08091810304
:104250008F5F80938103893268F00E94CA0785E0EE
:1042600080935A03909287038092860380916F0314
:104270008823D1F020E030E040EA51E46091B103BE
:104280007091B2038091B3039091B4030E945D28B2
:1042900020916B0330916C0340916D0350916E033C
:1042A0000E94CA2887FF12C080916B0390916C0313
:1042B000A0916D03B0916E0380938203909383036A
:1042C000A0938403B09385031092810380916A03C5
:1042D000813019F0843109F052C0C0906603D0904B
:1042E0006703E0906803F090690320E030E040EA63
:1042F00051E4609113017091140180911501909126
:1043000016010E945D28A70196010E94292A18160D
:10431000B4F5209194033091950340919603509108
:104320009703C701B6010E94292A181654F4C092B7
:104330009403D0929503E0929603F0929703109223
:1043400080032091940330919503409196035091FE
:104350009703C701B6010E94CA28181684F08091FD
:1043600080038F5F80938003893248F00E94CA07E0
:1043700086E080935A03909287038092860380910F
:104380006A038823D1F020E030E040EA51E46091F4
:10439000B1037091B2038091B3039091B4030E9472
:1043A0005D28209166033091670340916803509126
:1043B00069030E94CA2887FF12C08091660390910A
:1043C0006703A0916803B09169038093940390936D
:1043D0009503A0939603B09397031092800382E114
:1043E0000E94FF0F7C014090AD035090AE0360909F
:1043F000AF037090B00320E030E040E05EE3C30123
:10440000B2010E947E2A9B01AC01C301B2010E944D
:104410005D282B013C01B701FF0C880B990B0E9412
:1044200079299B01AC01C301B2010E945E2860930F
:10443000AD037093AE038093AF039093B00320E07D
:1044400030E040E05EE30E947E2A6093A90370930F
:10445000AA038093AB039093AC0385E10E94FF0F06
:104460007C014090A5035090A6036090A703709034
:10447000A80320E030E040E05EE3C301B2010E9407
:104480007E2A9B01AC01C301B2010E945D282B0171
:104490003C01B701FF0C880B990B0E9479299B0105
:1044A000AC01C301B2010E945E286093A503709322
:1044B000A6038093A7039093A80320E030E040E098
:1044C0005EE30E947E2A6093A1037093A20380930F
:1044D000A3039093A40380916F03813009F0FDC082
:1044E000C090B503D090B603E090B703F090B80346
:1044F00020E030E040E85EE3C701B6010E94CA2830
:10450000181684F080910F0190911001A091110173
:10451000B09112018093B1039093B203A093B303BF
:10452000B093B40320E030E040E85EE3C701B60199
:104530000E94292A181684F480911701909118017D
:10454000A0911901B0911A018093B1039093B20325
:10455000A093B303B093B4036091B1037091B2031D
:104560008091B3039091B4036093B7047093B8043F
:104570008093B9049093BA0420E030E040E251E423
:104580000E945D2821966CAF7DAF8EAF9FAF2197C3
:1045900040906B0350906C0360906D0370906E03BD
:1045A000A30192010E94292A181674F561E08AE09D
:1045B0000E94840CA0902C01B0902D01C0902E017F
:1045C000D0902F01E0902801F090290100912A015C
:1045D00010912B01809133018F93809132018F9341
:1045E000809131018F93809130018F9327EB34E0DC
:1045F0004BEB54E06FEB74E0CE0101960E945C102F
:104600000F900F900F900F90A301920121966CAD27
:104610007DAD8EAD9FAD21970E94CA2887FF4EC108
:104620008091FD04811104C083EC94E00E9459053F
:1046300081E08093FD044092BF045092C0046092D8
:10464000C1047092C20483EC94E00E9463060E944D
:10465000501000915E0310915F0320916003309130
:104660006103AB01BC01401B510B620B730B493E54
:1046700053406105710570F0D901C80188519C4F04
:10468000AF4FBF4F80935E0390935F03A09360038F
:10469000B09361030E94501000915E0310915F037C
:1046A0002091600330916103601B710B820B930BAF
:1046B0000E9477292091BB043091BC044091BD0435
:1046C0005091BE040E94292A181614F460E001C01B
:1046D00061E08AE00E94840CF1C0811107C0109251
:1046E000FD0460E08AE00E94840C61C08A3009F019
:1046F0005EC08091FD04811104C083EC94E00E94AF
:10470000590581E08093FD04809117019091180173
:10471000A0911901B0911A018093B7049093B80445
:10472000A093B904B093BA0480916B0390916C0389
:10473000A0916D03B0916E038093BF049093C00469
:10474000A093C104B093C20480E090E0A0E8BFE36E
:104750008093280190932901A0932A01B0932B0103
:1047600010922C0110922D0110922E0110922F0107
:1047700010923001109231011092320110923301E7
:10478000C12CD12C760197018601AC01BD0183ECCF
:1047900094E00E949F058CE080936F038091BD039D
:1047A0009091BE034E969093BC038093BB0380917F
:1047B0006F038C3009F082C00E948D088091BB038A
:1047C0009091BC03A0E0B0E04091BD035091BE03C6
:1047D0006091BF037091C00384179507A607B707C0
:1047E00008F025C140906B0350906C0360906D03FE
:1047F00070906E0320E030E040E251E460911701D8
:10480000709118018091190190911A010E945D2800
:10481000A30192010E94292A181664F520E030E0D5
:1048200040E85FE3609128017091290180912A019D
:1048300090912B010E945E28AB01BC01409328019E
:104840005093290160932A0170932B01C09030018D
:10485000D0903101E0903201F090330100912C01B1
:1048600010912D0120912E0130912F0183EC94E0C5
:104870000E949F0520E030E040E251E46091170182
:10488000709118018091190190911A010E945D2880
:104890009B01AC01C301B2010E94292A18162CF415
:1048A0008EE080936F030E94FA088091BD0390917F
:1048B000BE034E969093BC038093BB0380916F031D
:1048C0008E3009F0B4C00E948D088091BB03909196
:1048D000BC03A0E0B0E04091BD035091BE036091E5
:1048E000BF037091C00384179507A607B70708F0A8
:1048F0009EC040906B0350906C0360906D0370906D
:104900006E032091170130911801409119015091C7
:104910001A01C301B2010E94CA2887FF2CC02DECE6
:104920003CEC4CEC5DE360912C0170912D01809189
:104930002E0190912F010E945E288B019C016093B3
:104940002C0170932D0180932E0190932F01C09024
:104950003001D0903101E0903201F090330140916C
:1049600028015091290160912A0170912B0183EC5B
:1049700094E00E949F052091170130911801409109
:10498000190150911A01C301B2010E94292A87FD21
:1049900045C01092FD0460E08AE00E94840CA12CC6
:1049A000B12C98ECC92E92E4D92EA0923001B0928D
:1049B0003101C0923201D092330120E030E040EC6E
:1049C0005FE3609128017091290180912A01909103
:1049D0002B010E947E2A6093280170932901809305
:1049E0002A0190932B0120E030E040EC5FE36091DE
:1049F0002C0170912D0180912E0190912F010E9428
:104A00007E2A60932C0170932D0180932E01909348
:104A10002F0180E180936F030E94FA088091BD030B
:104A20009091BE034E969093BC038093BB038091FC
:104A30006A03882309F43DC0813009F03EC0C0906C
:104A40006603D0906703E0906803F090690320E06C
:104A500030E040E251E460911301709114018091C3
:104A60001501909116010E945D28A70196010E94F0
:104A7000292A181624F461E08BE00E94840C20E0BF
:104A800030E040E251E46091130170911401809193
:104A90001501909116010E945D289B01AC01C70190
:104AA000B6010E94292A18160CF0E2C084E1809316
:104AB0006A0360E08BE00E94840C80916A03843179
:104AC00009F075C08091B504811104C08BE794E0B2
:104AD0000E94590581E08093B50480911301909163
:104AE0001401A0911501B091160180936F04909369
:104AF0007004A0937104B093720480916603909146
:104B00006703A0916803B091690380937704909341
:104B10007804A0937904B0937A048BE794E00E9420
:104B200063060E945010009162031091630320916C
:104B3000640330916503AB01BC01401B510B620B58
:104B4000730B493E53406105710570F0D901C801EE
:104B500088519C4FAF4FBF4F809362039093630384
:104B6000A0936403B09365030E9450100091620308
:104B7000109163032091640330916503601B710BF6
:104B8000820B930B0E947729209173043091740457
:104B900040917504509176040E94292A181614F445
:104BA00060E001C061E08BE00E94840CE8C08A30C4
:104BB00009F05EC08091B504811104C08BE794E0D8
:104BC0000E94590581E08093B50480911301909172
:104BD0001401A0911501B091160180936F04909378
:104BE0007004A0937104B093720480916603909155
:104BF0006703A0916803B091690380937704909351
:104C00007804A0937904B0937A0480E090E0A0E85F
:104C1000BFE380931C0190931D01A0931E01B093EC
:104C20001F01109220011092210110922201109276
:104C30002301109224011092250110922601109256
:104C40002701C12CD12C760197018601AC01BD0151
:104C50008BE794E00E949F058CE080936A0380912B
:104C6000BD039091BE034E969093BA038093B9030F
:104C700080916A038C3009F082C00E9410088091F4
:104C8000B9039091BA03A0E0B0E04091BD03509108
:104C9000BE036091BF037091C00384179507A607F8
:104CA000B70708F025C140906603509067036090F5
:104CB00068037090690320E030E040E251E46091C5
:104CC00013017091140180911501909116010E94B9
:104CD0005D28A30192010E94292A181664F520E09C
:104CE00030E040E85FE360911C0170911D0180910C
:104CF0001E0190911F010E945E28AB01BC014093F0
:104D00001C0150931D0160931E0170931F01C09000
:104D10002401D0902501E0902601F0902701009118
:104D200020011091210120912201309123018BE774
:104D300094E00E949F0520E030E040E251E4609161
:104D400013017091140180911501909116010E9438
:104D50005D289B01AC01C301B2010E94292A1816EB
:104D60002CF48EE080936A030E94FA088091BD03C0
:104D70009091BE034E969093BA038093B9038091AD
:104D80006A038E3009F0B4C00E9410088091B90304
:104D90009091BA03A0E0B0E04091BD035091BE03F2
:104DA0006091BF037091C00384179507A607B707EA
:104DB00008F09EC0409066035090670360906803BF
:104DC00070906903209113013091140140911501F5
:104DD00050911601C301B2010E94CA2887FF2CC05E
:104DE0002DEC3CEC4CEC5DE36091200170912101D5
:104DF00080912201909123010E945E288B019C01E9
:104E000060932001709321018093220190932301EC
:104E1000C0902401D0902501E0902601F090270158
:104E200040911C0150911D0160911E0170911F0164
:104E30008BE794E00E949F052091130130911401AB
:104E40004091150150911601C301B2010E94292A17
:104E500087FD45C01092B50460E08BE00E94840C91
:104E600080E180936A03A12CB12C88ECC82E82E4E7
:104E7000D82EA0922401B0922501C0922601D09292
:104E8000270120E030E040EC5FE360911C0170916D
:104E90001D0180911E0190911F010E947E2A609346
:104EA0001C0170931D0180931E0190931F0120E04F
:104EB00030E040EC5FE3609120017091210180912E
:104EC0002201909123010E947E2A60932001709319
:104ED000210180932201909323010E94FA0880917E
:104EE000BD039091BE034E969093BA038093B9038D
:104EF0000E94BC010C94B61130935D0320935C03B7
:104F00000C94B81610925D0310925C030C94751EFD
:104F100010926F0310928B0310928A0380915B03AF
:104F2000813009F0CEC860E08DE00E94840CC9C8D1
:104F3000AF92BF92CF92DF92EF92FF920F931F93A7
:104F4000E2EDF3E01382128288EE93E0A0E0B0E09D
:104F500084839583A683B7838AE391E091838083DA
:104F600085EC90E09587848784EC90E0978786872E
:104F700080EC90E0918B808B81EC90E0938B828B26
:104F800082EC90E0958B848B86EC90E0978B868BFF
:104F9000118E128E138E148EEFEFF4E013821282B4
:104FA0008CE491E09183808388E084838FEF858314
:104FB00086E0868382E0878383E0808784E0818740
:104FC00085E082871386148615861686178681E00B
:104FD0000E94EF0CA0902C01B0902D01C0902E01EA
:104FE000D0902F01E0902801F090290100912A0132
:104FF00010912B01809133018F93809132018F9317
:10500000809131018F93809130018F9327EB34E0B1
:105010004BEB54E06FEB74E083EC94E00E945C1087
:10502000A0902001B0902101C0902201D0902301D6
:10503000E0901C01F0901D0100911E0110911F01D4
:10504000809127018F93809126018F938091250174
:105050008F93809124018F932FE634E043E754E04F
:1050600067E774E08BE794E00E945C108DB79EB711
:1050700008960FB6F8949EBF0FBE8DBF1F910F917B
:10508000FF90EF90DF90CF90BF90AF900895F99987
:10509000FECF92BD81BDF89A992780B50895262F3D
:1050A000F999FECF1FBA92BD81BD20BD0FB6F8940D
:1050B000FA9AF99A0FBE019608955058BB27AA276D
:1050C0000E9475280C94EF290E94E12938F00E9473
:1050D000E82920F039F49F3F19F426F40C94DE29D6
:1050E0000EF4E095E7FB0C94D829E92F0E94002AE2
:1050F00058F3BA17620773078407950720F079F40D
:10510000A6F50C94222A0EF4E0950B2EBA2FA02DB2
:105110000B01B90190010C01CA01A0011124FF2764
:10512000591B99F0593F50F4503E68F11A16F0405F
:10513000A22F232F342F4427585FF3CF469537955E
:105140002795A795F0405395C9F77EF41F16BA0B23
:10515000620B730B840BBAF09150A1F0FF0FBB1FD1
:10516000661F771F881FC2F70EC0BA0F621F731F1A
:10517000841F48F4879577956795B795F7959E3F77
:1051800008F0B0CF9395880F08F09927EE0F979508
:10519000879508950E94B42908F481E008950E943B
:1051A000E3280C94EF290E94E82958F00E94E12995
:1051B00040F029F45F3F29F00C94D82951110C9448
:1051C000232A0C94DE290E94002A68F39923B1F364
:1051D000552391F3951B550BBB27AA27621773071D
:1051E000840738F09F5F5F4F220F331F441FAA1FB1
:1051F000A9F335D00E2E3AF0E0E832D0915050406D
:10520000E695001CCAF72BD0FE2F29D0660F771F1A
:10521000881FBB1F261737074807AB07B0E809F000
:10522000BB0B802DBF01FF2793585F4F3AF09E3F85
:10523000510578F00C94D8290C94232A5F3FE4F3AD
:10524000983ED4F3869577956795B795F7959F5FC8
:10525000C9F7880F911D9695879597F90895E1E014
:10526000660F771F881FBB1F621773078407BA0773
:1052700020F0621B730B840BBA0BEE1F88F7E095CE
:1052800008950E9448296894B1110C94232A089526
:105290000E94082A88F09F5798F0B92F9927B75194
:1052A000B0F0E1F0660F771F881F991F1AF0BA95CA
:1052B000C9F714C0B13091F00E94222AB1E00895DC
:1052C0000C94222A672F782F8827B85F39F0B93FCE
:1052D000CCF3869577956795B395D9F73EF490957D
:1052E0008095709561957F4F8F4F9F4F0895E894FB
:1052F00009C097FB3EF490958095709561957F4F1E
:105300008F4F9F4F9923A9F0F92F96E9BB279395CB
:10531000F695879577956795B795F111F8CFFAF4DB
:10532000BB0F11F460FF1BC06F5F7F4F8F4F9F4F0C
:1053300016C0882311F096E911C0772321F09EE86A
:10534000872F762F05C0662371F096E8862F70E0D0
:1053500060E02AF09A95660F771F881FDAF7880FAA
:105360009695879597F90895990F0008550FAA0B00
:10537000E0E8FEEF16161706E807F907C0F0121668
:105380001306E407F50798F0621B730B840B950B6B
:1053900039F40A2661F0232B242B252B21F40895C0
:1053A0000A2609F4A140A6958FEF811D811D08955D
:1053B00097F99F6780E870E060E008959FEF80ECC8
:1053C000089500240A94161617061806090608956B
:1053D00000240A9412161306140605060895092ED1
:1053E0000394000C11F4882352F0BB0F40F4BF2B40
:1053F00011F460FF04C06F5F7F4F8F4F9F4F089580
:1054000057FD9058440F551F59F05F3F71F0479575
:10541000880F97FB991F61F09F3F79F0879508955A
:10542000121613061406551FF2CF4695F1DF08C079
:10543000161617061806991FF1CF86957105610596
:1054400008940895E894BB2766277727CB0197F93E
:1054500008950E94B42908F48FEF089516F00C9473
:10546000F02A0C94DE2968940C94D8290E94082A0A
:10547000A8F39923C1F3AEF3DF93CF931F930F9358
:10548000FF92C92FDD2788232AF02197660F771F07
:10549000881FDAF720E030E040E85FEB9FE38839CF
:1054A00020F0803E38F021968F770E945E28E8E653
:1054B000F0E004C00E945E28E5E9F0E00E94FE2AC8
:1054C0008B01BE01EC01FB2E6F5771097595771F9B
:1054D000880B990B0E94792928E132E741E35FE3C9
:1054E0000E94912AAF2D9801AE01FF900F911F915C
:1054F000CF91DF910E9475280C94EF290E94912A88
:105500000C94EF290E94E12938F00E94E82920F04C
:10551000952311F00C94D8290C94DE2911240C94B5
:10552000232A0E94002A70F3959FC1F3950F50E043
:10553000551F629FF001729FBB27F00DB11D639F45
:10554000AA27F00DB11DAA1F649F6627B00DA11DEB
:10555000661F829F2227B00DA11D621F739FB00D91
:10556000A11D621F839FA00D611D221F749F332701
:10557000A00D611D231F849F600D211D822F762F9A
:105580006A2F11249F5750409AF0F1F088234AF077
:10559000EE0FFF1FBB1F661F771F881F91505040E3
:1055A000A9F79E3F510580F00C94D8290C94232A2A
:1055B0005F3FE4F3983ED4F3869577956795B7956A
:1055C000F795E7959F5FC1F7FE2B880F911D969584
:1055D000879597F908950E94B429880B990B08952F
:1055E0009F3F31F0915020F4879577956795B79557
:1055F000880F911D9695879597F90895DF93CF931E
:105600001F930F93FF92EF92DF927B018C016894BE
:1056100006C0DA2EEF010E94912AFE01E894A591BE
:105620002591359145915591A6F3EF010E9475287A
:10563000FE019701A801DA9469F7DF90EF90FF90DF
:105640000F911F91CF91DF91089597FB072E16F4CC
:10565000009407D077FD09D00E947A2B07FC05D073
:105660003EF4909581959F4F0895709561957F4F79
:105670000895A1E21A2EAA1BBB1BFD010DC0AA1F93
:10568000BB1FEE1FFF1FA217B307E407F50720F0AB
:10569000A21BB30BE40BF50B661F771F881F991F26
:1056A0001A9469F760957095809590959B01AC016F
:1056B000BD01CF010895052E97FB1EF400940E94B2
:1056C000722B57FD07D00E94392B07FC03D04EF4F4
:1056D0000C94722B50954095309521953F4F4F4F2C
:1056E0005F4F089590958095709561957F4F8F4F8E
:1056F0009F4F0895AA1BBB1B51E107C0AA1FBB1FE8
:10570000A617B70710F0A61BB70B881F991F5A954D
:10571000A9F780959095BC01CD010895EE0FFF1F6C
:105720000590F491E02D099481E090E0F8940C94B8
:06573000992BF894FFCF55
:1057360082C409E8030080CF431000002041010025
:10574600005C430000874300002043FF0000004147
:10575600CDCC4C3E0000C84200000041CDCC4C3EB2
:105766000000C842E803000000004D01BA00E40052
:105776009A011501F3000701000000005305BA0065
:10578600C701C60154756E696E6720504944323FA1
:1057960021212100536561726368204B70322E2EE1
:1057A6002E2020202000536561726368204B6932E9
:1057B6002E2E2E20202020202000446F6E652120D2
:1057C600202020202020202020002A004B70323D5F
:1057D600004B69323D004B6432207365747570006E
:1057E6003C003E004B6932207365747570004B7047
:1057F600322073657475700057656C64696E675402
:10580600656D702073657475700028002900543228
:105816003D004F4646200057656C64696E6700542C
:105826003D00432020202020004F464620202020F7
:10583600200053706565643D004D004572726F72BD
:105846003A0045585431204F564552484541540078
:1058560045585432204F564552484541540054311C
:10586600204E6F74436F6E6E656374005432204E23
:105876006F74436F6E6E6563740054312046656CB9
:105886006C4F66660054322046656C6C4F66660047
:10589600526573657420454550524F4D3F3F3F2139
:1058A6002121004F4B2C5265626F6F74696E670041
:1058B60053746172742054656D70207365747570CD
:1058C600004C6F7773706565640041343839390070
:1058D6004438383235003E20006D6D2F7320004865
:1058E6004973706565640053687574646F776E41BB
:1058F60074456E643F004E6F2000596573004B700F
:10590600207365747570004B69207365747570003B
:105916004B642073657475700054756E696E6720EC
:105926005049443F21212100536561726368204B31
:10593600702E2E2E20202020005365617263682071
:105946004B692E2E2E202020202020004B703D005B
:105956004B693D00436F6E74726173742073657496
:105966007570003B000D0A006E616E00696E660080
:105976006F76660050455450756C6C005A6E6569BA
:0A5986007061732D56312E380000B9
:00000001FF
