:100000000C9490000C94B8000C94B8000C94B800B8
:100010000C94B8000C94B8000C94B8000C94DC025A
:100020000C94B8000C94B8000C94B8000C94B80070
:100030000C94B8000C94B8000C94B8000C94B80060
:100040000C947A130C94B8000C941B070C94F506CE
:100050000C94B8000C94B8000C94B8000C94B80040
:100060000C94B8000C94B80008000000BE9224491B
:10007000123EABAAAA2ABECDCCCC4C3E00000080DA
:10008000BEABAAAAAA3E00000000BF000000803F4D
:100090000000000000084178D3BB4387D1133D190D
:1000A0000E3CC3BD4282AD2B3E68EC8276BED98F3A
:1000B000E1A93E4C80EFFFBE01C4FF7F3F0000007E
:1000C00000000200000000240027002A00000000B9
:1000D00000250028002B0000000000230026002936
:1000E00000040404040404040402020202020203E1
:1000F00003030303030102040810204080010204EB
:10010000081020010204081020000000080002016D
:1001100000000304070000000000000000009F2A08
:1001200011241FBECFEFD8E0DEBFCDBF13E0A0E0AB
:10013000B1E0EAE1FDE502C005900D92A438B107F7
:10014000D9F725E0A4E8B3E001C01D92AA35B207B3
:10015000E1F710E0C0E9D0E004C02197FE010E9461
:10016000712ECF38D107C9F70E94C4130C948B2E7F
:100170000C940000CF92DF92EF92FF920F931F93A7
:10018000CF93DF936C017A018B01C0E0D0E0CE15F4
:10019000DF0581F0D8016D918D01D601ED91FC91C3
:1001A0000190F081E02DC6010995892B11F021966F
:1001B000EECF7E01C701DF91CF911F910F91FF908C
:1001C000EF90DF90CF900895FC01538D448D252F43
:1001D00030E0842F90E0821B930B541710F0CF96E1
:1001E000089501970895FC01918D828D981761F013
:1001F000828DDF01A80FB11D5D968C91928D9F5F5E
:100200009F73928F90E008958FEF9FEF0895FC0108
:10021000918D828D981731F0828DE80FF11D858DBB
:1002200090E008958FEF9FEF0895FC01918D228D4E
:10023000892F90E0805C9F4F821B91098F739927D3
:10024000089584E194E00E94150121E0892B09F4CE
:1002500020E0822F0895FC01848DDF01A80FB11DDD
:10026000A35ABF4F2C91848D90E001968F739927EC
:10027000848FA689B7892C93A089B1898C918370CA
:1002800080648C93938D848D981306C00288F389C3
:10029000E02D80818F7D80830895EF92FF920F93F0
:1002A0001F93CF93DF93EC0181E0888F9B8D8C8D22
:1002B000981305C0E889F989808185FD26C0F62E4E
:1002C0000B8D10E00F5F1F4F0F731127E02E8C8DE9
:1002D000E8120CC00FB607FCFACFE889F9898081D3
:1002E00085FFF5CFCE010E942B01F1CF8B8DFE0152
:1002F000E80FF11DE35AFF4FF0829FB7F8940B8F80
:10030000EA89FB89808180620AC09FB7F894EE89F0
:10031000FF896083E889F9898081837080648083A4
:100320009FBF81E090E0DF91CF911F910F91FF90EF
:10033000EF900895CF93DF93EC01888D8823C9F067
:10034000EA89FB89808185FD05C0A889B9898C91DE
:1003500086FD0FC00FB607FCF5CF808185FFF2CF79
:10036000A889B9898C9185FFEDCFCE010E942B0120
:10037000E7CFDF91CF91089580E090E0892B29F0BD
:100380000E94210181110C9400000895089580E0DD
:1003900090E008950E94862ECF93DF93EC0160E0F9
:1003A0008E810E94F81061E08E810E94F81060E05A
:1003B0008E810E94F8108BE891E00197F1F7DF91B0
:1003C000CF910895CF93DF93EB010E944E2B88834A
:1003D000CE01DF91CF910895CF92DF92EF92FF92FD
:1003E0000F931F93CF93DF93EB017B0124E0E20E89
:1003F000F11C8B016C01C61AD70AC601800F911F30
:100400000E944E2BF80181938F01EE15FF05A9F78D
:10041000CE01DF91CF911F910F91FF90EF90DF9070
:10042000CF9008950F931F93CF93DF938C01EB012F
:100430000E944E2B8883C80101960E944E2B89830F
:10044000CE01DF91CF911F910F910895FF920F93ED
:100450001F93CF93DF93EC01F62E08811981C80119
:100460000E944E2BF81621F06F2DC8010E94562BCA
:10047000CE01DF91CF911F910F91FF9008950F93BF
:100480001F93CF93DF9300D0CDB7DEB78B01FB0175
:1004900060819A838983CE0101960E942602C80159
:1004A0000F900F90DF91CF911F910F910895AF9210
:1004B000BF92CF92DF92EF92FF920F931F93CF9351
:1004C000DF9300D0CDB7DEB78B016B0124E0C20E05
:1004D000D11C7B015C01A61AB70AC5018E0D9F1DB8
:1004E000F70161917F019A838983CE0101960E9471
:1004F0002602EC14FD0489F7C8010F900F90DF91DC
:10050000CF911F910F91FF90EF90DF90CF90BF9010
:10051000AF900895EF92FF920F931F93CF93DF93C5
:1005200000D0CDB7DEB78C017B01FB0160819A83DF
:100530008983CE0101960E942602F70161810F5F37
:100540001F4F1A830983CE0101960E942602C7011C
:100550000F900F90DF91CF911F910F91FF90EF902F
:10056000089590911F01891324C0E2ECF0E0E4911A
:100570009FEF90931F01E130B9F098F0E230C9F499
:10058000909170009D7F9093700091E09093B000E7
:100590009091B100987F94609093B1001092B30055
:1005A00008C010926E0005C090916F009D7F9093DF
:1005B0006F0060E00C94F8101F920F920FB60F922C
:1005C00011242F933F934F935F936F937F938F9358
:1005D0009F93AF93BF93EF93FF9380910804909103
:1005E0000904A0910A04B0910B04892B8A2B8B2B50
:1005F00051F190910704E0910504F0910604808187
:10060000892780838091080490910904A0910A04AD
:10061000B0910B04181619061A061B06C4F4809133
:10062000080490910904A0910A04B0910B04019769
:10063000A109B1098093080490930904A0930A04C6
:10064000B0930B0404C080911F010E94B102FF917E
:10065000EF91BF91AF919F918F917F916F915F913A
:100660004F913F912F910F900FBE0F901F901895B3
:100670004F925F926F927F928F929F92AF92BF92B2
:10068000CF92DF92EF92FF920F931F93CF93DF935E
:1006900000D000D01F92CDB7DEB78B0129013A01FF
:1006A00090911F01891721F09F3F09F045C205C0B5
:1006B000E2ECF0E024912D837CC080931F01E2ECFA
:1006C000F0E094919D839F3F09F436C2913009F484
:1006D00049C058F1923009F06CC01092B0001092ED
:1006E000B1009091B00092609093B0009091B100F1
:1006F00091609093B100282F30E0F901EF51FF4F46
:10070000E491F0E0EE0FFF1FE353FF4F459154914A
:100710005093060440930504F901EB50FF4FE49118
:10072000E093070492E09D8303C214BC15BC94B50A
:10073000926094BD95B5916095BD282F30E0F90188
:10074000EF51FF4FE491F0E0EE0FFF1FE353FF4F37
:1007500045915491F901EB50FF4FE491E093FC0374
:100760001D82E6C11092800010928100909181005C
:1007700098609093810090918100916090938100A6
:10078000282F30E0F901EF51FF4FE491F0E0EE0F38
:10079000FF1FE353FF4F45915491F901EB50FF4F79
:1007A000E491E093FB0361E00E94271121E02D8397
:1007B00089C02D8127FDC0C161E00E9427118D8174
:1007C0008D7F09F07FC04801A12CB12C60E072E15F
:1007D0008AE790E0A50194010E94472E29833A837D
:1007E0004B835C8369017A0181E0C81AD108E10872
:1007F000F1089FEFC916D104E104F10409F008F4EF
:100800004EC060E472E48FE090E0A50194010E9484
:10081000472E69017A0181E0C81AD108E108F10880
:100820009D81923009F52FEFC216D104E104F10445
:1008300009F008F444C160E970ED83E090E0A5019F
:1008400094010E94472E69017A0181E0C81AD108FB
:10085000E108F1089FEFC916D104E104F10411F099
:1008600008F0BAC083E027C02FEFC216D104E1041C
:10087000F104B9F0B0F068E478EE81E090E0A50111
:1008800094010E94472E69017A0181E0C81AD108BB
:10089000E108F1089D81992309F413C1DCC081E0CE
:1008A00001C082E09D81911106C095B5987F892B8A
:1008B00085BD44C085E09091B100987F892B8093DD
:1008C000B1003CC04801A12CB12C60E072E18AE784
:1008D00090E0A50194010E94472E69017A0181E010
:1008E000C81AD108E108F108C114D10491E0E90661
:1008F000F10488F068E478EE81E090E0A5019401CD
:100900000E94472E69017A0181E0C81AD108E108E6
:10091000F10883E001C081E09D81913079F49091EC
:100920008100987F892B80938100411451046104D8
:10093000710449F42FEF3FEFA9012CC04114510479
:100940006104710471F0D801AA0FBB1FA3019201C9
:100950000E94662E28EE33E040E050E00E94252EF3
:1009600003C02FEF3FEFA9018D81813099F08230D4
:1009700019F18111E1C0C7BC209301043093020436
:10098000409303045093040480916E00826080932E
:100990006E00D2C0D0928900C09288002093FD03DF
:1009A0003093FE034093FF035093000480916F0047
:1009B000826080936F00C0C0C092B300209308048F
:1009C0003093090440930A0450930B048091700003
:1009D000826080937000B0C068E478EE81E090E0BF
:1009E000A50194010E94472E69017A0191E0C91A7C
:1009F000D108E108F1082FEFC216D104E104F10497
:100A000041F138F164E274EF80E090E0A5019401D7
:100A10000E94472E69017A0181E0C81AD108E108D5
:100A2000F1089FEFC916D104E104F10409F008F4BC
:100A300041CF62E17AE780E090E0A50194010E9455
:100A4000472E69017A0181E0C81AD108E108F1084E
:100A500019C084E030CF2FEFC216D104E104F104B5
:100A600009F008F463C062E17AE780E090E0A50154
:100A700094010E94472E69017A0191E0C91AD108B8
:100A8000E108F1088FEFC816D104E104F104A9F0E0
:100A9000A0F089819A81AB81BC812AE0B595A795A8
:100AA000979587952A95D1F76C017D0121E0C21AAF
:100AB000D108E108F10887E0FECE86E0FCCE82E0B6
:100AC000FACE8FEFC816D104E104F10469F160F1A8
:100AD00062E17AE780E090E0A50194010E94472E50
:100AE00069017A0191E0C91AD108E108F1082FEFF4
:100AF000C216D104E104F104A9F0A0F089819A8121
:100B0000AB81BC813AE0B595A795979587953A95C5
:100B1000D1F76C017D0121E0C21AD108E108F1088A
:100B200085E0C3CE84E0C1CE83E0BFCE84E0BACE00
:100B300061E00E94271147CE0F900F900F900F9009
:100B40000F90DF91CF911F910F91FF90EF90DF9069
:100B5000CF90BF90AF909F908F907F906F905F905D
:100B60004F900895DC01ED91FC910190F081E02D12
:100B700009946115710579F0FB0101900020E9F7F6
:100B80003197AF01461B570BDC01ED91FC910280C0
:100B9000F381E02D099480E090E008958F929F9278
:100BA000AF92BF92EF92FF920F931F93CF93DF9379
:100BB000CDB7DEB7A1970FB6F894DEBF0FBECDBF9D
:100BC0007C01FA01CB0119A2223008F42AE08E013F
:100BD0000F5D1F4F822E912CA12CB12CBF01A501BE
:100BE00094010E94252EF901CA01015011096A30B1
:100BF00014F4605D01C0695CD8016C93232B242B35
:100C0000252B61F7B801C7010E94B905A1960FB65F
:100C1000F894DEBF0FBECDBFDF91CF911F910F9132
:100C2000FF90EF90BF90AF909F908F9008957F922C
:100C30008F929F92AF92BF92CF92DF92EF92FF92EC
:100C40000F931F93CF93DF938C016A017B01722E68
:100C50009A01AB01C701B6010E94EB2D882319F060
:100C60006FE073E027C046015701E894B7F82FEF13
:100C70003FEF4FE75FE7C501B4010E94EB2D811103
:100C80000DC02FEF3FEF4FE75FE7C501B4010E94B2
:100C9000D12B18161CF463E173E00CC02FEF3FEF6B
:100CA0004FE75FE4C701B6010E94292D181694F49E
:100CB00067E173E0C801DF91CF911F910F91FF9021
:100CC000EF90DF90CF90BF90AF909F908F907F90EC
:100CD0000C94B9052FEF3FEF4FE75FECC701B6016A
:100CE0000E94D12B87FDE4CF20E030E0A901C701AD
:100CF000B6010E94D12B87FF0AC06DE2C8010E9495
:100D0000B205EC01F7FAF094F7F8F09402C0C0E0F5
:100D1000D0E0B12C60E070E080E09FE3B71440F4D5
:100D200020E030E040E251E40E94D62BB394F6CFAD
:100D3000A70196010E94652B6B017C010E94482C43
:100D40004B015C012AE0AB01BC01C8010E94CE0549
:100D5000C80FD91F7720C1F1C501B4010E94772CBB
:100D60009B01AC01C701B6010E94642B6B017C01A1
:100D70006EE2C8010E94B205C80FD91F20E030E022
:100D800040E251E4C701B6010E947E2D4B015C0197
:100D90000E94482C6B01E12CF12C2AE0B701A6013E
:100DA000C8010E94CE05C80FD91FC701B6010E9415
:100DB000772C9B01AC01C501B4010E94642B6B012F
:100DC0007C017A947110DACFCE01DF91CF911F911F
:100DD0000F91FF90EF90DF90CF90BF90AF909F90DA
:100DE0008F907F9008950C94B9051F920F920FB6C3
:100DF0000F9211242F933F934F935F936F937F93A1
:100E00008F939F93AF93BF93EF93FF9384E194E00D
:100E10000E942B01FF91EF91BF91AF919F918F9114
:100E20007F916F915F914F913F912F910F900FBEE6
:100E30000F901F9018951F920F920FB60F921124CA
:100E40002F938F939F93EF93FF93E0912404F0915E
:100E500025048081E0912A04F0912B0482FD12C0C8
:100E6000908180912D048F5F8F7320912E048217C3
:100E700051F0E0912D04F0E0EC5EFB4F958F8093F4
:100E80002D0401C08081FF91EF919F918F912F914F
:100E90000F900FBE0F901F901895CF92DF92EF9298
:100EA000FF920F931F93CF93DF936C017C0187E038
:100EB000E80EF11CC0E0D0E0062F10E0B8010C2EC7
:100EC00002C0759567950A94E2F76170F701819108
:100ED0007F010E94F8102196C430D10579F7C60130
:100EE000DF91CF911F910F91FF90EF90DF90CF9006
:100EF0000C94CC01CF92DF92EF92FF920F931F934D
:100F0000CF93DF93EC01F62E642F8C810E94F810B2
:100F10008D818F3F19F060E00E94F8108F850F2DB2
:100F200010E084FF25C06E0187E0C80ED11CE12CC3
:100F3000F12CB8010E2C02C0759567950A94E2F762
:100F40006170F60181916F010E94F810FFEFEF1AB6
:100F5000FF0A88E0E816F10461F7CE01DF91CF9136
:100F60001F910F91FF90EF90DF90CF900C94CC01E8
:100F7000B80184E0759567958A95E1F7CE010E94E6
:100F80004D076F2DCE01DF91CF911F910F91FF90F3
:100F9000EF90DF90CF900C944D0741E00E947A07CC
:100FA00081E090E008958F929F92AF92BF92CF928E
:100FB000DF92EF92FF92CF93DF93EC01EE8DFF8DE6
:100FC000C080D180E280F380CEA2DFA2E8A6F9A69D
:100FD000EC8DFD8D80819181A281B3818AA79BA731
:100FE000ACA7BDA78EA89FA8A8ACB9ACA5019401D9
:100FF000C701B6010E94292D181664F08AA89BA883
:10100000ACA8BDA8A5019401C701B6010E94D12BCF
:1010100087FF04C08EA29FA2A8A6B9A6DF91CF9198
:10102000FF90EF90DF90CF90BF90AF909F908F9008
:1010300008954F925F926F927F928F929F92AF929C
:10104000BF92CF92DF92EF92FF920F931F93CF93B5
:10105000DF9300D000D000D0CDB7DEB79E838D8364
:101060002A013B014801590120E030E0A901C301F8
:10107000B2010E94D12B87FD89C020E030E0A90198
:10108000C501B4010E94D12B87FD80C020E030E073
:10109000A901C701B6010E94D12B87FD77C081E06D
:1010A000ED81FE81228D338D2130310509F080E004
:1010B000ED81FE8183AF408251826282738284829D
:1010C0009582A682B782C086D186E286F38666A51F
:1010D00077A580A991A90E94772C20E030E04AE70B
:1010E00054E40E94D62B69837A838B839C83ED81A1
:1010F000FE8144865586668677869B01AC01C501D4
:10110000B4010E947E2D4B015C01ED81FE81608B5C
:10111000718B828B938B29813A814B815C81C701D2
:10112000B6010E94D62B6B017C01ED81FE81648BA0
:10113000758B868B978B808D918D019739F5A301E7
:10114000920160E070E0CB010E94642BED81FE8192
:101150006487758786879787A501940160E070E0B2
:10116000CB010E94642BED81FE81608B718B828BA1
:10117000938BA701960160E070E0CB010E94642B85
:10118000ED81FE81648B758B868B978B26960FB6CF
:10119000F894DEBF0FBECDBFDF91CF911F910F91AD
:1011A000FF90EF90DF90CF90BF90AF909F908F9087
:1011B0007F906F905F904F9008952F923F924F9243
:1011C0005F926F927F928F929F92AF92BF92CF92D7
:1011D000DF92EF92FF920F931F93CF93DF93CDB7E0
:1011E000DEB760970FB6F894DEBF0FBECDBFDC014F
:1011F000DA96BC91B983B11102C019822BC1988BC8
:101200008F870E94B4126E837F8388879987EF85CA
:10121000F88982A193A1A4A1B5A14E815F816885BF
:101220007985481B590B6A0B7B0B86A597A5A0A94E
:10123000B1A9481759076A077B07F8F2048CF58DA6
:10124000E02D80819181A281B3818A839B83AC83CD
:10125000BD83AF85B8899096ED91FC9191972A81D5
:101260003B814C815D8160817181828193810E948B
:10127000642B4B015C01EF85F88922A533A544A5B9
:1012800055A56A817B818C819D810E94642B6B01B5
:101290007C01AF85B88950962D913D914D915C911F
:1012A0005397C501B4010E947E2DEF85F88926A1D0
:1012B00037A140A551A50E94652B2B013C01AF85AC
:1012C000B88996966D937D938D939C939997DB96B1
:1012D000BC91BA87B11118C0EF85F889248535858E
:1012E00046855785C701B6010E947E2D9B01AC0142
:1012F000C301B2010E94642BAF85B88996966D93A5
:101300007D938D939C939997EF85F88946A057A07C
:1013100060A471A416A907A930AC21AC212F302FED
:10132000432D522DC301B2010E94292D18162CF411
:10133000812F902FA32DB22D18C0AF85B889D296DA
:101340008D919D910D90BC91A02D8B879C87AD8731
:10135000BE879C01AD01C301B2010E94D12B87FF62
:101360000AC08B859C85AD85BE85EF85F88986A3EF
:1013700097A3A0A7B1A7FA85FF2379F0AF85B88915
:101380001C962D913D914D915C911F97C501B40123
:101390000E947E2D4B015C0103C0812C912C5401D5
:1013A000EF85F8892489358946895789C701B601AF
:1013B0000E947E2D9B01AC01AF85B88996966D91F8
:1013C0007D918D919C9199970E94642BA501940128
:1013D0000E94652B6B017C019B01AC01612F702F7A
:1013E000832D922D0E94D12B87FD14C0EF85F889A3
:1013F00012A903A934A825A8212F302F432D522D3F
:10140000B601C7010E94D12B87FD04C01C2D0D2DF4
:101410003E2C2F2CAF85B8895E96ED91FC915F979D
:10142000812F902FA32DB22D80839183A283B3832C
:101430008A819B81AC81BD81EF85F88982A793A7C2
:10144000A4A7B5A78E819F81A885B98582A393A300
:10145000A4A3B5A3898160960FB6F894DEBF0FBE32
:10146000CDBFDF91CF911F910F91FF90EF90DF9053
:10147000CF90BF90AF909F908F907F906F905F9034
:101480004F903F902F9008951092970310929503DC
:10149000109299031092980360E08CE00E94F8107B
:1014A0006EE971E084E194E00E94F3068091940378
:1014B000813021F485EA91E00E94BC108091940370
:1014C000823021F483EB91E00E94BC108091940360
:1014D000833021F481EC91E00E94BC108091940350
:1014E000843021F48FEC91E00E94BC108091940331
:1014F000853021F48DED91E00E94BC108091940321
:10150000863021F488EE91E00E94BC1060E08DE00E
:101510000C94F810CF92DF92EF92FF920F931F93EB
:101520008091140190911501A0911601B0911701BD
:101530008093B1049093B204A093B304B093B40425
:1015400080919A0390919B03A0919C03B0919D037D
:101550008093B9049093BA04A093BB04B093BC04E5
:101560008DEB94E00E94DD080E94B412C0908803C5
:10157000D0908903E0908A03F0908B03209138018A
:10158000309139018901330F220B330BAB01BC01C0
:101590004C195D096E097F090417150726073707DF
:1015A00070F4D701C601800F911FA21FB31F809353
:1015B000880390938903A0938A03B0938B030E94BE
:1015C000B412C0908803D0908903E0908A03F09011
:1015D0008B036C197D098E099F090E94772C20913D
:1015E000B5043091B6044091B7045091B8040E94FC
:1015F000292D181614F460E001C061E08BE01F9102
:101600000F91FF90EF90DF90CF900C94F8100F9314
:101610001F938091010190910201A0910301B0916B
:1016200004018093F9049093FA04A093FB04B0930F
:10163000FC0480919E0390919F03A091A003B09120
:10164000A1038093010590930205A0930305B09335
:10165000040585E095E00E94DD080E94B412009127
:101660008403109185032091860330918703AB0199
:10167000BC01401B510B620B730B493E534061058B
:10168000710570F0D901C80188519C4FAF4FBF4F11
:101690008093840390938503A0938603B09387037C
:1016A0000E94B41200918403109185032091860357
:1016B00030918703601B710B820B930B0E94772C78
:1016C0002091FD043091FE044091FF0450910005EB
:1016D0000E94292D181614F460E001C061E08AE030
:1016E0001F910F910C94F81060E080E00E9474103C
:1016F0006BE173E081E495E00E94F30640919E0364
:1017000050919F036091A0037091A10320E030E00D
:1017100081E495E00E94170663E972E081E495E0B8
:101720000E94F306809197038130C1F520E030E0FC
:1017300040E85EE360918E0370918F038091900387
:10174000909191030E94D12B87FF14C04091050115
:1017500050910601609107017091080120E030E08E
:1017600081E495E00E94170663E972E081E495E068
:101770000E94F30640910101509102016091030122
:101780007091040120E030E081E495E00E941706AA
:101790006EE173E081E495E00E94F3068091970387
:1017A000811106C06FE871E081E495E00E94F306C4
:1017B00060E08FE00E9474108AE00E94CF100197D1
:1017C00031F464E971E081E495E00E94F3068AE077
:1017D0000E94CF10892B31F468E272E081E495E039
:1017E0000E94F30661E080E00E94741065E273E0FD
:1017F00081E495E00E94F30680919803909199030B
:1018000097FD06C068E272E081E495E00E94F3066D
:10181000609198037091990381E495E00E9486108D
:1018200080918C0390918D038130910519F484E6A9
:1018300090E005C08530910539F48AE090E09093FE
:1018400093038093920330C08430910551F420912A
:101850009803309199032F5F3F4F25303105E4F114
:101860000EC08230910581F4809198039091990384
:1018700001978C3F2FEF920714F48CEF9FEF90931A
:1018800099038093980310C0039771F410928D030D
:1018900010928C03809197038F5F823018F48093AD
:1018A000970302C01092970361E08AE00E947410CF
:1018B00040918E0350918F0360919003709191033A
:1018C00022E030E081E495E00E9417066CE273E0CC
:1018D00081E495E00C94F3063093990320939803E8
:1018E000E3CF60E080E00E94741080919503823025
:1018F00010F0843131F46FE273E081E495E00E94EE
:10190000F306809195038C3031F46FE373E081E44A
:1019100095E00E94F306809195038E3031F461E5E5
:1019200073E081E495E00E94F30680919503803195
:1019300031F463EE72E081E495E00E94F30660E02A
:101940008FE00E9474108BE00E94CF10019731F459
:1019500064E971E081E495E00E94F3068BE00E9467
:10196000CF10892B31F468E272E081E495E00E94A7
:10197000F30661E080E00E947410809195038E3040
:1019800001F565E673E081E495E00E94F30660915D
:1019900020017091210180912201909123019B01EE
:1019A000AC010E94652BAB01BC0120E030E081E47A
:1019B00095E00E94170668E272E081E495E00E94DB
:1019C000F306809195038031A1F565E673E081E42B
:1019D00095E00E94F3064091200150912101609111
:1019E00022017091230120E030E081E495E00E9423
:1019F000170668E272E081E495E00E94F3066AE669
:101A000073E081E495E00E94F30640912401509137
:101A10002501609126017091270122E030E081E4E8
:101A200095E00E94170668E272E081E495E00E946A
:101A3000F30680918C0390918D038130910519F408
:101A400086E090E005C08530910539F481E490E0AE
:101A500090939303809392030895039739F410921F
:101A60008D0310928C038AE080939503089569EFAB
:101A700073E080E090E00E948A0261E071E088E01B
:101A800090E00E9457026BE071E08CE090E00E94D1
:101A90008A026DE071E080E190E00E948A026CE2CF
:101AA00071E084E190E00E94570260E371E088E118
:101AB00090E00E94570264E371E08CE190E00E94A4
:101AC000570265E071E080E290E00E94570264E115
:101AD00071E084E290E00E94570260E271E088E2E7
:101AE00090E00E94570264E271E08CE290E00E9474
:101AF000570268E271E080E390E00E94570269E0DB
:101B000071E084E390E00E943F0266E973E088E3BD
:101B100090E00E943F0263E171E08CE390E00E945C
:101B20003F026AE071E080E490E00E943F0268E1D9
:101B300071E084E490E00C948A02CF92DF92EF92FD
:101B4000FF920F931F93CF93DF9300D0CDB7DEB7F3
:101B500060E082E10E94271160E085E10E94271188
:101B600061E08AE00E94271161E08BE00E9427116A
:101B700061E080E10E94271161E08FE00E9427115F
:101B800061E081E10E94271161E087E00E94271156
:101B900061E08CE00E94271162E083E10E9427113E
:101BA00061E08DE00E94271160E080E10E94F81062
:101BB00060E087E00E94F81061E087E00E94F81082
:101BC00061E08DE00E94F81069EF73E080E090E042
:101BD0000E9412028091F9039091FA030196C1F4D8
:101BE00000E010E01A821982BE016F5F7F4FC801CA
:101BF0000E948A020F5F1F4F0F3F81E0180791F785
:101C000081E090E09093FA038093F9030E94370DEE
:101C100069EF73E080E090E00E94120261E071E001
:101C200088E090E00E94EC016BE071E08CE090E0D5
:101C30000E9412026DE071E080E190E00E941202C9
:101C40006CE271E084E190E00E94EC0160E371E0FD
:101C500088E190E00E94EC0164E371E08CE190E0A7
:101C60000E94EC0165E071E080E290E00E94EC01EE
:101C700064E171E084E290E00E94EC0160E271E0D6
:101C800088E290E00E94EC0164E271E08CE290E076
:101C90000E94EC0168E271E080E390E00E94EC01B8
:101CA00069E071E084E390E00E94E20166E973E09C
:101CB00088E390E00E94E20163E171E08CE390E050
:101CC0000E94E2016AE071E080E490E00E94E2019B
:101CD00068E171E084E490E00E9412028091F903CF
:101CE0009091FA0301969093FA038093F90382E0AE
:101CF0000E94631169E071E084E390E00E94E201D8
:101D00008091090181508E3F18F082E8809309018B
:101D100060E084E00E9474106FE673E081E495E077
:101D20000E94F30661E082E00E94741067E773E0AE
:101D300081E495E00E94F3066FEF70E089E00E9475
:101D4000041208EC10E08091090190E080179107DF
:101D50006CF4B80189E00E9404126AE070E080E04F
:101D600090E00E947A1201501109EDCF68EE73E005
:101D700080E090E00E947A126091090170E089E0B1
:101D80000E9404120E946C10E0912404F09125043A
:101D900082E08083E0912004F09121041082E091A0
:101DA0002204F091230480E1808310922C04E091BE
:101DB0002804F091290486E08083E0912604F091C4
:101DC0002704808180618083E0912604F0912704BC
:101DD000808188608083E0912604F09127048081CF
:101DE00080688083E0912604F091270480818F7DB4
:101DF0008083809118019091190184569109893C42
:101E0000910530F084E690E09093190180931801D9
:101E10000E94B412609384037093850380938603B9
:101E20009093870340E050E06AE774E485E095E032
:101E30000E94F70F80913F05811104C085E095E075
:101E40000E94D30781E080933F05C0903401D09079
:101E50003501E0903601F09037010091300110918A
:101E60003101209132013091330140912C01509188
:101E70002D0160912E0170912F0185E095E00E9467
:101E800019080E94B41260938803709389038093A9
:101E90008A0390938B036091380170913901072E6A
:101EA000000C880B990B0E94792CAB01BC018DEBC7
:101EB00094E00E94F70F8091F704811104C08DEB2C
:101EC00094E00E94D30781E08093F704C09028013A
:101ED000D0902901E0902A01F0902B01009124017B
:101EE0001091250120912601309127014091200178
:101EF0005091210160912201709123018DEB94E0BA
:101F00000E94190880918000807E8160809380000B
:101F100080918100807E8A608093810099E288E1CF
:101F20000FB6F894A895809360000FBE9093600060
:101F30000F900F90DF91CF911F910F91FF90EF9035
:101F4000DF90CF900895833081F028F4813099F0AC
:101F50008230A1F008958730A9F08830B9F084303C
:101F6000D1F4809180008F7D03C0809180008F77B5
:101F700080938000089584B58F7702C084B58F7DEB
:101F800084BD08958091B0008F7703C08091B00028
:101F90008F7D8093B00008953FB7F894809110042E
:101FA00090911104A0911204B091130426B5A89B3E
:101FB00005C02F3F19F00196A11DB11D3FBFBA2FDB
:101FC000A92F982F8827820F911DA11DB11DBC013B
:101FD000CD0142E0660F771F881F991F4A95D1F700
:101FE000089540E0682F81E495E00C947A078F9281
:101FF0009F92AF92BF92CF92DF92EF92FF920F9398
:102000001F93CF93DF93EC016A017B0120E030E066
:10201000A901C701B6010E94D12B18160CF04FC0C0
:102020001AAA1BAA1CAA1DAACEAADFAAE8AEF9AE5C
:102030008AAD882309F443C00E8D1F8DF80180807E
:102040009180A280B380A5019401C701B6010E94CE
:10205000D12B87FF06C0F801C082D182E282F382D1
:102060000EC020E030E0A901C501B4010E94D12BCF
:1020700087FF05C0F80110821182128213828EA0A0
:102080009FA0A8A4B9A4CEA8DFA8E8ACF9ACA7018A
:102090009601C501B4010E94292D181664F0CAA842
:1020A000DBA8ECA8FDA8A7019601C501B4010E9418
:1020B000D12B87FF04C0CEA2DFA2E8A6F9A6DF914C
:1020C000CF911F910F91FF90EF90DF90CF90BF9035
:1020D000AF909F908F90089581E00E94F10F8BE365
:1020E0009FE10197F1F70895643008F063E0909163
:1020F0005405691710F06FEF690FE62FF0E0EF5B02
:10210000FA4F9489890F80680C94F10FCF92DF9277
:10211000EF92FF920F931F93CF93DF936B01770F93
:10212000EE08FF08F7FE1BC0EC016DE20E94B2054D
:102130008C0144275527BA014C195D096E097F09A6
:102140002AE0CE010E94CE05800F911FDF91CF9132
:102150001F910F91FF90EF90DF90CF9008952AE0AC
:10216000B701A601DF91CF911F910F91FF90EF90E2
:10217000DF90CF900C94CE05CF93DF93BC0184E128
:1021800094E00E94B905EC016CE073E084E194E016
:102190000E94B9058C0F9D1FDF91CF910895CF93B9
:1021A000DF93282F30E0F901E75FFE4F8491F901BA
:1021B000EB50FF4FD491F901EF51FF4FC491CC2365
:1021C00091F081110E94A30FEC2FF0E0EE0FFF1FA2
:1021D000E952FF4FA591B491EC91ED2381E090E09D
:1021E00021F480E002C080E090E0DF91CF9108957B
:1021F0001F93CF93DF93282F30E0F901E75FFE4F65
:102200008491F901EB50FF4FD491F901EF51FF4F49
:10221000C491CC23C1F0162F81110E94A30FEC2F83
:10222000F0E0EE0FFF1FE353FF4FA591B4919FB76E
:10223000F894111104C08C91D095D82302C0EC9170
:10224000DE2BDC939FBFDF91CF911F910895CF9339
:10225000DF9390E0FC01EB50FF4F2491FC01EF5124
:10226000FF4F8491882361F190E0880F991FFC0152
:10227000ED53FF4FC591D491FC01E353FF4FA5915E
:10228000B491611109C09FB7F89488812095822389
:102290008883EC912E230BC0623061F49FB7F894D1
:1022A0008881322F309583238883EC912E2B2C93B9
:1022B0009FBF06C08FB7F894E8812E2B28838FBF6D
:1022C000DF91CF910895CF93DF93823028F09091E2
:1022D00050059860909350058093540510925505D1
:1022E00080E48093560580E18093570580E58093D4
:1022F000580561E0809145050E94271180914605AF
:102300008F3F19F061E00E94271161E0809147053D
:102310000E942711C1E4D5E09E01215435408091EF
:10232000500584FD03C084E090E002C088E090E0A6
:102330002196281739072CF461E08E810E9427111D
:10234000EBCF8BE39DE00197F1F760E080914505CD
:102350000E94F81060E0809147050E94F81080917B
:1023600046058F3F19F060E00E94F81080915005FB
:1023700084FD20C063E081E495E00E944D07CBE43A
:10238000D6E4CE010197F1F763E081E495E00E9485
:102390004D072197F1F763E081E495E00E944D0736
:1023A00083E592E00197F1F762E081E495E00E9415
:1023B0004D0715C080620E94F10F8BE496E40197EF
:1023C000F1F78091500580620E94F10F83E592E061
:1023D0000197F1F78091500580620E94F10F809182
:1023E000500580620E94F10F84E0809351058CE0DB
:1023F0000E94F10F0E946C1082E08093520586E0EB
:10240000DF91CF910C94F10F1F93CF93DF93182F8F
:10241000EB0161E00E942711209711F460E004C0F5
:10242000CF3FD10539F461E0812FDF91CF911F912A
:102430000C94F810E12FF0E0E75FFE4FE491E330F9
:10244000F9F048F4E130B9F0E230A1F584B58062EA
:1024500084BDC8BD34C0E730E9F0E83019F1E4309C
:1024600049F580918000806280938000D0938B003A
:10247000C0938A0024C084B5806884BDC7BD1FC0D6
:1024800080918000806880938000D0938900C09301
:10249000880015C08091B00080688093B000C09320
:1024A000B3000DC08091B00080628093B000C093F3
:1024B000B40005C0C038D1050CF0B5CFAFCFDF9167
:1024C000CF911F9108958E3008F08E5087708064F0
:1024D00080937C0080917A00806480937A00809160
:1024E0007A0086FDFCCF809178002091790090E001
:1024F000922B08958F929F92AF92BF92CF92DF92CC
:10250000EF92FF926B017C010E94CC0F4B015C01AA
:10251000C114D104E104F104F1F00E94CC0FDC01FC
:10252000CB0188199909AA09BB09883E9340A105E6
:10253000B10570F321E0C21AD108E108F10888EE74
:10254000880E83E0981EA11CB11CC114D104E104C3
:10255000F10419F7DDCFFF90EF90DF90CF90BF909F
:10256000AF909F908F9008952FB7F89460910C04CE
:1025700070910D0480910E0490910F042FBF089567
:102580004F925F926F927F928F929F92AF92BF9283
:10259000CF92DF92EF92FF920F931F93CF93DF932F
:1025A000CDB7DEB74C01DC015F965C934E935E972E
:1025B0005D967C936E935C9791963C932E93909747
:1025C000DA961C92FC0112AA13AA14AA15AA80E09A
:1025D00090E0AFE7B3E486AB97ABA0AFB1AF84E6D2
:1025E00090E0A0E0B0E086A797A7A0ABB1AB118EBA
:1025F000108E20E030E0A901C801B7010E94D12B64
:1026000087FD56C020E030E0A901C601B5010E9457
:10261000D12B87FD4DC020E030E0A9016B897C897A
:102620008D899E890E94D12B87FD42C081E090E078
:10263000D4015B969C938E935A97DB968C93DB9791
:10264000F401E082F182028313831496AD92BD926D
:10265000CD92DC9217978B899C89AD89BE89808742
:102660009187A287B387D4011C96ED92FD920D93BA
:102670001C931F972DEC3CEC4CEC5DE3C601B501BF
:102680000E947E2DF401608B718B828B938B2DECDD
:102690003CEC4CEC5DE36B897C898D899E890E94C2
:1026A000D62BD40154966D937D938D939C9357971D
:1026B0000E94B412F401C6A4D7A4E0A8F1A8DC01DA
:1026C000CB018C199D09AE09BF0982A393A3A4A3D2
:1026D000B5A3DF91CF911F910F91FF90EF90DF9005
:1026E000CF90BF90AF909F908F907F906F905F90B2
:1026F0004F9008951F920F920FB60F9211242F93AF
:102700003F938F939F93AF93BF9380910C049091CD
:102710000D04A0910E04B0910F043091590523E0EF
:10272000230F2D3720F40196A11DB11D05C026E809
:10273000230F0296A11DB11D2093590580930C040F
:1027400090930D04A0930E04B0930F048091100495
:1027500090911104A0911204B09113040196A11D4F
:10276000B11D8093100490931104A0931204B093B0
:102770001304BF91AF919F918F913F912F910F9033
:102780000FBE0F901F901895CF93DF93CDB7DEB794
:10279000C054D1090FB6F894DEBF0FBECDBF7894F8
:1027A00084B5826084BD84B5816084BD85B5826056
:1027B00085BD85B5816085BD80916E008160809307
:1027C0006E00109281008091810082608093810070
:1027D0008091810081608093810080918000816080
:1027E000809380008091B10084608093B1008091DB
:1027F000B00081608093B00080917A008460809303
:102800007A0080917A00826080937A0080917A00C9
:10281000816080937A0080917A00806880937A004A
:102820001092C1000E949D0D50E5252E312C82E1B1
:102830000E9463128C01C090A603D090A703E09081
:10284000A803F090A90320E030E04EE753E4C7016D
:10285000B6010E94D62B9B01AC01C701B6010E94B4
:10286000642B6B017C01B801110F880B990B0E943E
:10287000792C9B01AC01C701B6010E94652B6093C6
:10288000A6037093A7038093A8039093A90320E065
:1028900030E04EE753E40E94D62B6093E803709338
:1028A000E9038093EA039093EB0385E10E946312AE
:1028B0008C01C090A203D090A303E090A403F090F9
:1028C000A50320E030E04EE753E4C701B6010E94C3
:1028D000D62B9B01AC01C701B6010E94642B6B0192
:1028E0007C01B801110F880B990B0E94792C9B0178
:1028F000AC01C701B6010E94652B6093A2037093DF
:10290000A3038093A4039093A50320E030E04EE757
:1029100053E40E94D62B6093E4037093E503809305
:10292000E6039093E70380919703813009F0FDC09F
:10293000C0908E03D0908F03E0909003F0909103AD
:1029400020E030E040E85EE3C701B6010E94D12BF1
:10295000181684F08091050190910601A09107015D
:10296000B09108018093D0039093D103A093D20338
:10297000B093D30320E030E040E85EE3C701B60146
:102980000E94292D181684F4809101019091020172
:10299000A0910301B09104018093D0039093D103DF
:1029A000A093D203B093D3036091D0037091D1036D
:1029B0008091D2039091D3036093F9047093FA0449
:1029C0008093FB049093FC0420E030E040E251E46B
:1029D0000E94642B21966CAF7DAF8EAF9FAF219785
:1029E00040909E0350909F036090A0037090A103BD
:1029F000A30192010E94292D181674F561E08AE066
:102A00000E94F810A0903001B0903101C0903201C6
:102A1000D0903301E0902C01F0902D0100912E0117
:102A200010912F01809137018F93809136018F9300
:102A3000809135018F93809134018F9329EF34E099
:102A40004DEF54E061E075E0CE0101960E94C012A6
:102A50000F900F900F900F90A301920121966CADF3
:102A60007DAD8EAD9FAD21970E94D12B87FF4EC1CA
:102A700080913F05811104C085E095E00E94D30755
:102A800081E080933F0540920105509202056092DB
:102A900003057092040585E095E00E94DD080E9420
:102AA000B412009184031091850320918603309124
:102AB0008703AB01BC01401B510B620B730B493EFA
:102AC00053406105710570F0D901C80188519C4FD0
:102AD000AF4FBF4F8093840390938503A0938603E9
:102AE000B09387030E94B412009184031091850370
:102AF0002091860330918703601B710B820B930B2F
:102B00000E94772C2091FD043091FE044091FF0437
:102B1000509100050E94292D181614F460E001C0A0
:102B200061E08AE00E94F810F1C0811107C01092A4
:102B30003F0560E08AE00E94F81061C08A3009F029
:102B40005EC080913F05811104C085E095E00E9440
:102B5000D30781E080933F058091010190910201AC
:102B6000A0910301B09104018093F9049093FA04B9
:102B7000A093FB04B093FC0480919E0390919F036B
:102B8000A091A003B091A103809301059093020549
:102B9000A0930305B093040580E090E0A0E8BFE3B4
:102BA00080932C0190932D01A0932E01B0932F01BF
:102BB00010923001109231011092320110923301C3
:102BC00010923401109235011092360110923701A3
:102BD000C12CD12C760197018601AC01BD0185E0A5
:102BE00095E00E9419088CE0809397038091EE0392
:102BF0009091EF034E969093AD038093AC03809138
:102C000097038C3009F082C00E94070B8091AC03BF
:102C10009091AD03A0E0B0E04091EE035091EF033E
:102C20006091F0037091F10384179507A607B70729
:102C300008F023C180909E0390909F03A090A00372
:102C4000B090A10320E030E040E251E46091010146
:102C50007091020180910301909104010E94642B04
:102C6000A50194010E94292D181664F520E030E09A
:102C700040E85FE360912C0170912D0180912E015D
:102C800090912F010E94652BAB01BC0140932C0158
:102C900050932D0160932E0170932F01C090340149
:102CA000D0903501E0903601F0903701009130016D
:102CB00010913101209132013091330185E095E08E
:102CC0000E94190820E030E040E251E460910101E7
:102CD0007091020180910301909104010E94642B84
:102CE0009B01AC01C501B4010E94292D18162CF4DA
:102CF0008EE0809397030E94370D8091EE039091B0
:102D0000EF034E969093AD038093AC0380919703AD
:102D10008E3009F0B2C00E94070B8091AC039091F5
:102D2000AD03A0E0B0E04091EE035091EF0360915D
:102D3000F0037091F10384179507A607B70708F011
:102D40009CC080909E0390909F03A090A003B090A1
:102D5000A1032091010130910201409103015091A2
:102D60000401C501B4010E94D12B87FF2CC02DECBA
:102D70003CEC4CEC5DE3609130017091310180914D
:102D80003201909133010E94652B8B019C0160936D
:102D90003001709331018093320190933301C090E0
:102DA0003401D0903501E0903601F0903701409128
:102DB0002C0150912D0160912E0170912F0185E021
:102DC00095E00E9419082091010130910201409183
:102DD000030150910401C501B4010E94292D87FD12
:102DE00043C010923F0560E08AE00E94F81080E046
:102DF00090E0A8ECB2E48093340190933501A09365
:102E00003601B093370120E030E040EC5FE36091A1
:102E10002C0170912D0180912E0190912F010E9423
:102E20007E2D60932C0170932D0180932E01909341
:102E30002F0120E030E040EC5FE3609130017091C1
:102E4000310180913201909133010E947E2D609377
:102E5000300170933101809332019093330180E10E
:102E6000809397030E94370D8091EE039091EF03BA
:102E70004E969093AD038093AC0380919503882385
:102E800009F43DC0813009F03EC0C0909A03D09053
:102E90009B03E0909C03F0909D0320E030E040E233
:102EA00051E4609114017091150180911601909187
:102EB00017010E94642BA70196010E94292D181664
:102EC00024F461E08BE00E94F81020E030E040E262
:102ED00051E4609114017091150180911601909157
:102EE00017010E94642B9B01AC01C701B6010E942F
:102EF000292D18160CF0E2C084E18093950360E060
:102F00008BE00E94F81080919503843109F075C020
:102F10008091F704811104C08DEB94E00E94D307E7
:102F200081E08093F7048091140190911501A091A4
:102F30001601B09117018093B1049093B204A0934D
:102F4000B304B093B40480919A0390919B03A09131
:102F50009C03B0919D038093B9049093BA04A0930D
:102F6000BB04B093BC048DEB94E00E94DD080E948A
:102F7000B412009188031091890320918A03309143
:102F80008B03AB01BC01401B510B620B730B493E21
:102F900053406105710570F0D901C80188519C4FFB
:102FA000AF4FBF4F8093880390938903A0938A0308
:102FB000B0938B030E94B41200918803109189038F
:102FC00020918A0330918B03601B710B820B930B52
:102FD0000E94772C2091B5043091B6044091B7043B
:102FE0005091B8040E94292D181614F460E001C015
:102FF00061E08BE00E94F810E8C08A3009F05EC002
:103000008091F704811104C08DEB94E00E94D307F6
:1030100081E08093F7048091140190911501A091B3
:103020001601B09117018093B1049093B204A0935C
:10303000B304B093B40480919A0390919B03A09140
:103040009C03B0919D038093B9049093BA04A0931C
:10305000BB04B093BC0480E090E0A0E8BFE38093A1
:10306000200190932101A0932201B093230110929B
:10307000240110922501109226011092270110922E
:1030800028011092290110922A0110922B01C12CC3
:10309000D12C760197018601AC01BD018DEB94E046
:1030A0000E9419088CE0809395038091EE03909123
:1030B000EF034E969093AB038093AA038091950300
:1030C0008C3009F082C00E948A0A8091AA039091F4
:1030D000AB03A0E0B0E04091EE035091EF036091AC
:1030E000F0037091F10384179507A607B70708F05E
:1030F00023C180909A0390909B03A0909C03B09072
:103100009D0320E030E040E251E4609114017091B1
:10311000150180911601909117010E94642BA50161
:1031200094010E94292D181664F520E030E040E853
:103130005FE36091200170912101809122019091C3
:1031400023010E94652BAB01BC01409320015093E9
:1031500021016093220170932301C0902801D09037
:103160002901E0902A01F0902B0100912401109197
:10317000250120912601309127018DEB94E00E94DA
:10318000190820E030E040E251E4609114017091B0
:10319000150180911601909117010E94642B9B01EB
:1031A000AC01C501B4010E94292D18162CF48EE043
:1031B000809395030E94370D8091EE039091EF0369
:1031C0004E969093AB038093AA03809195038E3023
:1031D00009F0B2C00E948A0A8091AA039091AB03C1
:1031E000A0E0B0E04091EE035091EF036091F00356
:1031F0007091F10384179507A607B70708F09CC0E4
:1032000080909A0390909B03A0909C03B0909D03A4
:103210002091140130911501409116015091170130
:10322000C501B4010E94D12B87FF2CC02DEC3CECD2
:103230004CEC5DE3609124017091250180912601A1
:10324000909127010E94652B8B019C0160932401C2
:10325000709325018093260190932701C090280147
:10326000D0902901E0902A01F0902B01409120019B
:103270005091210160912201709123018DEB94E026
:103280000E941908209114013091150140911601F6
:1032900050911701C501B4010E94292D87FD43C03B
:1032A0001092F70460E08BE00E94F81080E18093B8
:1032B000950380E090E0A8ECB2E48093280190931D
:1032C0002901A0932A01B0932B0120E030E040ECCB
:1032D0005FE3609120017091210180912201909122
:1032E00023010E947E2D6093200170932101809321
:1032F00022019093230120E030E040EC5FE36091F5
:1033000024017091250180912601909127010E944E
:103310007E2D609324017093250180932601909364
:1033200027010E94370D8091EE039091EF034E9696
:103330009093AB038093AA030E94B41228EE33E06B
:1033400040E050E00E94252E2AE030E040E050E0CE
:103350000E94252E8091F5039091F603A091F7032A
:10336000B091F803281739074A075B0709F402C12F
:103370002093F5033093F6034093F7035093F8033B
:103380008091F4038F5F8093F4038EE00E946312B8
:103390002091AF03222341F02091AF03213009F0A7
:1033A0008BC004E110E029C089329105ACF3209173
:1033B000000123502F3008F42FE02093000121E07A
:1033C0002093AF031092AE031092B1031092B0039A
:1033D0001092B3031092B2031092B5031092B4038B
:1033E0001092B7031092B6031092B9031092B8036B
:1033F0001092BB031092BA03CFCF8EE00E946312EB
:103400008436910514F41092AF039C012B5D324079
:103410002B33310550F42091B2033091B3032F5F69
:103420003F4F3093B3032093B2039C012B533240A0
:103430002133310550F42091B4033091B5032F5F4F
:103440003F4F3093B5032093B4039C01255A31407C
:103450002232310550F42091B6033091B7032F5F2B
:103460003F4F3093B7032093B6039C012550314062
:103470002534310550F42091B8033091B9032F5F02
:103480003F4F3093B9032093B8039C012D58310965
:103490002D31310550F42091BA033091BB032F5FD9
:1034A0003F4F3093BB032093BA030150110909F039
:1034B000A4CF24E02093AF032091AF03243031F058
:1034C0002091AF03263009F050C044C020918C03F6
:1034D00030918D03E0EBF3E040E050E0A191B19139
:1034E0004F5F5F4F60817181A617B70724F04530A9
:1034F0005105A1F702C09A01FACF30938D032093B2
:103500008C0346E04093AF03220F331FF901E055CF
:10351000FC4F208131812431310591F221E020934B
:10352000AF031092B1031092B0031092B303109244
:10353000B2031092B5031092B4031092B703109225
:10354000B6031092B9031092B8031092BB03109205
:10355000BA03B6CF2091AE032F5F2093AE03309114
:103560000001231710F01092AF0388971CF488E233
:10357000809300018091F4038A3010F40C94BA26F1
:103580001092F4038091F3038F5F8093F303809193
:103590009203909193038233910509F4C3C70CF011
:1035A000A8C08A30910509F42DC40CF08BC0853079
:1035B000910509F49BC344F4892B11F00C94C624A3
:1035C0000E94740B0C94C2248630910509F4E4C364
:1035D000089711F00C94C62460E080E00E947410FB
:1035E0006091B2037091B30381E495E00E9486106C
:1035F00063E172E081E495E00E94F3066091B40318
:103600007091B50381E495E00E94861063E172E059
:1036100081E495E00E94F3066091B6037091B703D0
:1036200081E495E00E94861063E172E081E495E018
:103630000E94F3066091B8037091B90381E495E0AC
:103640000E94861063E172E081E495E00E94F30637
:103650006091BA037091BB0381E495E00E948610EB
:1036600061E080E00E94741060918C0370918D0382
:1036700081E495E00E94861068E272E081E495E0C2
:103680000E94F3068EE00E946312BC0181E495E083
:103690000E94861068E272E081E495E00E94F306E1
:1036A0004091AF0350E060E070E02AE081E495E0F3
:1036B0000E94CE0565E172E081E495E00E94F30688
:1036C0000C94C6248E31910509F467C54CF48F30F3
:1036D000910509F417C4449709F492C40C94C624C4
:1036E0008332910509F402C6889709F48BC60C94BD
:1036F000C6248134910599F1CCF48E33910511F4EF
:103700000C94B4232CF4CC9709F496C70C94C624DB
:103710008F33910511F40C946F248034910511F0CE
:103720000C94C6240E94710C0C94C2248F35910510
:1037300009F4C8C154F48634910509F4A6C0803553
:10374000910509F429C10C94C6248436910509F425
:103750003DC28F3F910509F49EC30C94C62460E0DE
:1037600080E00E94741068E571E081E495E00E94B9
:10377000F30661E080E00E9474106EE772E081E47D
:1037800095E00E94F3064091280150912901609133
:103790002A0170912B0122E030E081E495E00E9443
:1037A000170663E972E081E495E00E94F3068091D8
:1037B0008C0390918D038130910519F4A0E4B0E061
:1037C000E6C68530910519F446E450E0FAC182302E
:1037D000910549F520E030E040E251E46091280194
:1037E0007091290180912A0190912B010E94642BF4
:1037F0006B017C0120E030E0A9010E94D12B87FD04
:1038000009C0C0922801D0922901E0922A01F092C9
:103810002B0119C1109228011092290110922A013E
:1038200010922B0110C1049711F00C94C22420E0D7
:1038300030E040E251E460912801709129018091CB
:103840002A0190912B010E94652B6B017C016093F2
:1038500028017093290180932A0190932B010091F4
:1038600024011091250120912601309127014091DA
:1038700020015091210160912201709123018DEB73
:1038800094E00E9419080C94C22460E080E00E9439
:10389000741062E671E081E495E00E94F30661E055
:1038A00080E00E9474106EE772E081E495E00E946F
:1038B000F3064091240150912501609126017091F9
:1038C000270122E030E081E495E00E94170663E9D9
:1038D00072E081E495E00E94F30680918C03909160
:1038E0008D038130910519F481E490E056C585304F
:1038F000910509F430C18230910549F52DEC3CEC7D
:103900004CEC5DE3609124017091250180912601CA
:10391000909127010E94642B6B017C0120E030E034
:10392000A9010E94D12B87FD09C0C0922401D09229
:103930002501E0922601F092270185C01092240112
:103940001092250110922601109227017CC0049745
:1039500011F00C94C2242DEC3CEC4CEC5DE3609136
:1039600024017091250180912601909127010E94E8
:10397000652B8B019C01609324017093250180933A
:10398000260190932701C0902801D0902901E09052
:103990002A01F0902B016BCF60E080E00E94741050
:1039A0006CE671E081E495E00E94F30661E080E05E
:1039B0000E9474106EE772E081E495E00E94F306C5
:1039C00040912001509121016091220170912301C9
:1039D00022E030E081E495E00E94170663E972E09E
:1039E00081E495E00E94F30680918C0390918D0311
:1039F0008230910589F520E030E040E85FE3609196
:103A000020017091210180912201909123010E9457
:103A1000642B6B017C0120E030E0A9010E94D12BD6
:103A200087FD09C0C0922001D0922101E0922201BD
:103A3000F092230108C010922001109221011092EF
:103A4000220110922301C0902801D0902901E0901A
:103A50002A01F0902B0103CF8430910549F520E035
:103A600030E040E85FE36091200170912101809196
:103A70002201909123010E94652BAB01BC01409370
:103A80002001509321016093220170932301C09083
:103A90002801D0902901E0902A01F0902B0100919B
:103AA0002401109125012091260130912701E7CEB4
:103AB0008130910509F488CE059709F063C7AFE519
:103AC000B0E065C560E080E00E94741066E771E0D8
:103AD00081E495E00E94F30661E080E00E947410AA
:103AE0006EE772E081E495E00E94F30640911401D4
:103AF00050911501609116017091170120E030E09E
:103B000081E495E00E94170663E972E081E495E0A4
:103B10000E94F30667E871E081E495E00E94F306F5
:103B200040919A0350919B0360919C0370919D0377
:103B300020E030E081E495E00E94170669E871E03A
:103B400081E495E00E94F30680918C0390918D03AF
:103B50008130910529F4309293032092920312C789
:103B60008230910579F420E030E040E85FE3609135
:103B700014017091150180911601909117010E9416
:103B8000642B11C084309105B9F420E030E040E8A6
:103B90005FE360911401709115018091160190917D
:103BA00017010E94652B6093140170931501809397
:103BB000160190931701E6C6059709F0E3C644E69F
:103BC00050E05093930340939203DCC660E080E0A2
:103BD0000E9474106BE871E081E495E00E94F306A6
:103BE00040919A0350919B0360919C0370919D03B7
:103BF00020E030E081E495E00E94170663E972E07E
:103C000081E495E00E94F306809195038823A1F05A
:103C100040911401509115016091160170911701A6
:103C200020E030E081E495E00E94170663E272E054
:103C300081E495E00E94F30680919503811106C00E
:103C40006FE871E081E495E00E94F30660E08FE0A8
:103C50000E9474108BE00E94CF10019731F464E948
:103C600071E081E495E00E94F3068BE00E94CF10A2
:103C7000892B31F468E272E081E495E00E94F3065A
:103C800068E272E081E495E00E94F30661E080E082
:103C90000E94741066E971E081E495E00E94F306E9
:103CA00080918C0390918D038230910511F460E036
:103CB00004C08430910529F461E08CE00E94F81082
:103CC00061C68330910551F4809195038F5F8230F6
:103CD00010F40C94222A1092950354C68130910559
:103CE00009F4EDCE059709F4D6C04CC660E080E03B
:103CF0000E9474106EE971E081E495E00E94F30681
:103D00004091940350E060E070E02AE081E495E0A7
:103D10000E94CE0561E080E00E94741080919403BF
:103D2000813031F465EA71E081E495E00E94F306A8
:103D300080919403823031F463EB71E081E495E08B
:103D40000E94F30680919403833031F461EC71E0BA
:103D500081E495E00E94F30680919403843031F46D
:103D60006FEC71E081E495E00E94F306809194038A
:103D7000853031F46DED71E081E495E00E94F30649
:103D800080919403863009F0FDC568EE71E081E40E
:103D900095E00E94F306F6C560E080E00E94741092
:103DA00063EF71E081E495E00E94F30680918C035B
:103DB00090918D038530910519F480E490E0EDC277
:103DC000039709F0DFC5E12CF12C6FEFC7010E94CA
:103DD000562B9FEFE91AF90AAFEFEA16A1E0FA06AF
:103DE000A1F761E080E00E94741066E072E081E477
:103DF00095E00E94F30668E273E280E090E00E94A2
:103E00007A12C0C560E080E00E94741060E372E046
:103E100081E495E00E94F30661E080E00E94741066
:103E20006EE772E081E495E00E94F30640910101A3
:103E300050910201609103017091040120E030E093
:103E400081E495E00E94170663E972E081E495E061
:103E50000E94F30667E871E081E495E00E94F306B2
:103E600040919E0350919F036091A0037091A10324
:103E700020E030E081E495E00E94170669E871E0F7
:103E800081E495E00E94F30680918C0390918D036C
:103E90008130910529F4109293031092920372C518
:103EA0008230910579F420E030E040E85FE36091F2
:103EB00001017091020180910301909104010E941F
:103EC000642B11C084309105B9F420E030E040E863
:103ED0005FE3609101017091020180910301909173
:103EE00004010E94652B609301017093020180938D
:103EF00003019093040146C5059709F043C58FE07F
:103F000090E04BC260E080E00E9474106AE272E0D0
:103F100081E495E00E94F30661E080E00E94741065
:103F20006EE772E081E495E00E94F306409105019E
:103F300050910601609107017091080120E030E086
:103F400081E495E00E94170663E972E081E495E060
:103F50000E94F30667E871E081E495E00E94F306B1
:103F600040919E0350919F036091A0037091A10323
:103F700020E030E081E495E00E94170669E871E0F6
:103F800081E495E00E94F30680918C0390918D036B
:103F90008130910519F48AE090E0FFC182309105EB
:103FA00079F420E030E040E85FE360910501709132
:103FB000060180910701909108010E94642B11C0B5
:103FC00084309105B9F420E030E040E85FE360918F
:103FD00005017091060180910701909108010E94EE
:103FE000652B609305017093060180930701909300
:103FF0000801C8C4059709F0C5C484E190E0CDC1AB
:1040000060E080E00E9474106BE372E081E495E070
:104010000E94F30660E089E00E94741080910A011A
:10402000813031F464E472E081E495E00E94F306AB
:1040300080910A01811106C06BE472E081E495E091
:104040000E94F30661E080E00E9474106EE772E067
:1040500081E495E00E94F30660910D0170910E01DC
:1040600081E495E00E94861062E572E081E495E0CB
:104070000E94F3068091980390919903892B71F423
:104080004091C6035091C7036091C8037091C90362
:1040900022E030E081E495E00E94170660919803E9
:1040A00070919903CB0101970397C0F4072E000C80
:1040B000880B990B0E94792C2091C6033091C7037D
:1040C0004091C8035091C9030E947E2DAB01BC01F1
:1040D00022E030E081E495E00E94170665E572E099
:1040E00081E495E00E94F30680918C0390918D030A
:1040F0008130910519F48FE090E035C08230910550
:10410000A1F480911301BAE08B9FC001112434E027
:10411000959587953A95E1F720910D0130910E0123
:10412000A901481B590BCA0114C084309105B1F490
:10413000809113015AE0859FC001112424E09595D8
:1041400087952A95E1F720910D0130910E01820F9C
:10415000931F90930E0180930D0116C08530910539
:1041600039F48EE190E090939303809392030CC016
:10417000039751F480910A01811104C081E080937A
:104180000A0102C010920A0180910A01823008F4EB
:10419000F9C381E080930A01F5C360E080E00E94EA
:1041A00074106BE572E081E495E00E94F30660E034
:1041B00089E00E94741080911301803131F463E62C
:1041C00072E081E495E00E94F30680911301803251
:1041D00031F46BE672E081E495E00E94F30661E061
:1041E00080E00E9474106EE772E081E495E00E9426
:1041F000F30660910B0170910C0181E495E00E943F
:10420000861062E572E081E495E00E94F306609119
:104210000B0170910C01072E000C880B990B0E946A
:10422000792C20910F013091100140911101509192
:1042300012010E94D62B20E030E040E051E40E94C1
:104240007E2DAB01BC014093C6035093C70360931E
:10425000C8037093C90322E030E081E495E00E9436
:10426000170665E572E081E495E00E94F30680910F
:104270008C0390918D038130910519F484E190E0D5
:1042800005C08530910539F483E290E09093930363
:104290008093920321C08230910531F480910B010B
:1042A00090910C010A9708C08430910551F48091D7
:1042B0000B0190910C010A9690930C0180930B01D5
:1042C0000BC0039749F480911301803211F480E10F
:1042D00001C080E2809313018091130181508E3FD1
:1042E00008F450C380E1809313014CC360E080E088
:1042F0000E94741063E772E081E495E00E94F30687
:104300006CE772E081E495E00E94F30680919603E9
:10431000811106C060E872E081E495E00E94F30636
:1043200080919603813031F464E872E081E495E095
:104330000E94F30663E972E081E495E00E94F306CF
:1043400061E080E00E94741068E872E081E495E02A
:104350000E94F30662E972E081E495E00E94F306B0
:10436000609118017091190181E495E00E94861016
:104370006EE772E081E495E00E94F30680918C0381
:1043800090918D038130910519F48EE190E005C084
:104390008530910539F488E290E0909393038093FF
:1043A0009203F0C28230910519F410929603EAC28A
:1043B0008430910521F481E080939603E3C2039752
:1043C00009F0E0C28091180190911901883C910593
:1043D00059F08C32A1E09A0771F08436910509F00A
:1043E000D1C288EC90E002C08CE291E09093190178
:1043F00080931801C7C244E650E0509319014093DE
:104400001801C0C260E080E00E94741065E972E0AB
:1044100081E495E00E94F30661E080E00E94741060
:104420006EE772E081E495E00E94F30640912C0172
:1044300050912D0160912E0170912F0122E030E00A
:1044400081E495E00E94170663E972E081E495E05B
:104450000E94F30680918C0390918D038130910529
:1044600019F483E290E099CF8530910509F413C1E6
:104470008230910549F520E030E040E85FE360914B
:104480002C0170912D0180912E0190912F010E949D
:10449000642B6B017C0120E030E0A9010E94D12B4C
:1044A00087FD09C0C0922C01D0922D01E0922E010F
:1044B000F0922F011EC110922C0110922D0110922A
:1044C0002E0110922F0115C1049709F05BC220E064
:1044D00030E040E85FE360912C0170912D01809104
:1044E0002E0190912F010E94652BAB01BC014093DE
:1044F0002C0150932D0160932E0170932F01C090D9
:104500003401D0903501E0903601F09037010091F0
:10451000300110913101209132013091330185E059
:1045200095E0AFC960E080E00E9474106EE972E02F
:1045300081E495E00E94F30661E080E00E9474103F
:104540006EE772E081E495E00E94F306409130014D
:1045500050913101609132017091330122E030E0DD
:1045600081E495E00E94170663E972E081E495E03A
:104570000E94F30680918C0390918D038130910508
:1045800009F409CF8530910539F4ACE3B0E0B0937C
:104590009303A0939203F6C18230910549F52DEC67
:1045A0003CEC4CEC5DE36091300170913101809105
:1045B0003201909133010E94642B6B017C0120E059
:1045C00030E0A9010E94D12B87FD09C0C0923001C3
:1045D000D0923101E0923201F09233018AC0109200
:1045E000300110923101109232011092330181C0DA
:1045F000049709F0C7C12DEC3CEC4CEC5DE36091F5
:1046000030017091310180913201909133010E940B
:10461000652B8B019C016093300170933101809375
:10462000320190933301C0903401D0903501E09075
:104630003601F090370189C060E080E00E9474107C
:1046400067EA72E081E495E00E94F30661E080E0B1
:104650000E9474106EE772E081E495E00E94F30618
:1046600040913401509135016091360170913701CC
:1046700022E030E081E495E00E94170663E972E0F1
:1046800081E495E00E94F30680918C0390918D0364
:104690008130910519F482E390E07FCE823091055C
:1046A00089F520E030E040E251E4609134017091FE
:1046B000350180913601909137010E94642B6B0186
:1046C0007C0120E030E0A9010E94D12B87FD09C0C8
:1046D000C0923401D0923501E0923601F092370158
:1046E00008C01092340110923501109236011092D8
:1046F0003701C0903401D0903501E0903601F09040
:1047000037011BC08430910549F520E030E040E2DC
:1047100051E460913401709135018091360190919E
:1047200037010E94652B6B017C016093340170930B
:10473000350180933601909337010091300110913B
:104740003101209132013091330140912C0150917F
:104750002D0160912E0170912F01E1CE059709F096
:1047600011C18EE390E019CE60E080E00E947410E9
:1047700080919703823030F460EB72E081E495E041
:104780000E94F306809197038C3031F46FEB72E056
:1047900081E495E00E94F306809197038E3031F416
:1047A00060ED72E081E495E00E94F306809197034A
:1047B000803131F463EE72E081E495E00E94F3060B
:1047C00060E08FE00E9474108AE00E94CF10019791
:1047D00031F464E971E081E495E00E94F3068AE037
:1047E0000E94CF10892B31F468E272E081E495E0F9
:1047F0000E94F30661E080E00E94741080919703AC
:104800008E3001F563EF72E081E495E00E94F306DB
:1048100060912C0170912D0180912E0190912F01BA
:104820009B01AC010E94652BAB01BC0120E030E094
:1048300081E495E00E94170668E272E081E495E069
:104840000E94F306809197038031A1F563EF72E037
:1048500081E495E00E94F30640912C0150912D01D6
:1048600060912E0170912F0120E030E081E495E00D
:104870000E94170668E272E081E495E00E94F30668
:1048800067EF72E081E495E00E94F3064091300109
:1048900050913101609132017091330122E030E09A
:1048A00081E495E00E94170668E272E081E495E0F9
:1048B0000E94F30680918C0390918D0381309105C5
:1048C00009F463CE8530910519F48FE390E065CD4E
:1048D000039709F057C08AE08093970353C060E0C4
:1048E00080E00E9474106BEF72E081E495E00E941A
:1048F000F30661E080E00E9474106EE772E081E4EC
:1049000095E00E94F3064091090150E060E070E0FC
:104910002AE081E495E00E94CE0562E572E081E440
:1049200095E00E94F30620918C0330918D03213095
:10493000310539F48EE390E09093930380939203D2
:104940000DC0809109012230310511F4815004C05D
:104950002430310519F48F5F80930901809109019A
:10496000811103C081E080930901809109018F3F8B
:1049700019F48EEF809309016091090170E089E0DC
:104980000E94041210928D0310928C032091C00398
:104990003091C103809192039091930328173907B6
:1049A00081F010928D0310928C030E946C100E9473
:1049B000370D80919203909193039093C10380935C
:1049C000C003E0909803F0909903E114F10451F4CE
:1049D00080E10E94B10244EF51E05093C50340933F
:1049E000C40321C05CEFE5165FEFF50631F460E02B
:1049F00081E10E94F81061E009C084E0E816F1044A
:104A000091F460E081E10E94F81060E08FE00E9484
:104A1000F81060910B0170910C0120E030E0A901C9
:104A200080E10E94380380910A0181113EC0C701D4
:104A300001970397D0F461E081E10E94F81060E0F3
:104A400070E08FE00E94041280910D0190910E01A0
:104A5000E89EB001E99E700DF89E700D112420E0D3
:104A600030E0A90180E10E943803C7010396039753
:104A7000E0F461E081E10E94F81061E08FE00E94C3
:104A8000F81080910D0190910E01E89EB001E99E11
:104A9000700DF89E700D112471956195710920E0DB
:104AA00030E0A90180E10E94380380910A01813041
:104AB00009F0BAC0C7010197039708F055C061E03B
:104AC00081E10E94F81060E08FE00E94F810809170
:104AD000C4039091C50340910D0150910E01E49ED5
:104AE0009001E59E300DF49E300D1124AC01421B67
:104AF000530B4536510534F0845691099093C50304
:104B00008093C4038091C4039091C503A901481BFD
:104B1000590B4536510534F08C599F4F9093C5037E
:104B20008093C4038091C4039091C50382179307B7
:104B30002CF40A969093C5038093C4038091C40318
:104B40009091C503281739072CF40A979093C50351
:104B50008093C4036091C4037091C50320E030E0EA
:104B6000A90180E10E943803C7010396039708F06A
:104B70005BC061E081E10E94F81061E08FE00E947B
:104B8000F81020910D0130910E01E29EC001E39ECC
:104B9000900DF29E900D11242091C4033091C50315
:104BA000AC01420F531F4536510534F024563109EC
:104BB0003093C5032093C403919581959109209169
:104BC000C4033091C503AC01421B530B453651055C
:104BD00034F02C593F4F3093C5032093C4032091E8
:104BE000C4033091C5032817390734F4265F3F4FBB
:104BF0003093C5032093C4032091C4033091C503AF
:104C00008217930734F42A5031093093C503209357
:104C1000C4036091C4037091C50320E030E0A90192
:104C200080E10E94380303C0E114F10431F01092D6
:104C3000C3031092C20360E00CC08091C203909144
:104C4000C3038037974140F01092C3031092C20310
:104C500061E087E00E94F8108091C2039091C30345
:104C600001969093C3038093C2036091130198EC63
:104C7000699FB0011124072E000C880B990B0E942C
:104C8000792C20E030E847EF51E40E947E2D28ED9A
:104C900033EA4EE653E40E94D62B4B015C0160934D
:104CA0000F01709310018093110190931201609194
:104CB0000D0170910E01072E000C880B990B0E94BC
:104CC000792CA50194010E94D62B6093C6037093A2
:104CD000C7038093C8039093C903209197032130A1
:104CE000B1F597012150310923303105D0F520E08D
:104CF00030E040E251E40E94D62B20E030E04AE769
:104D000054E40E94D62B4B015C01B7010F2C000C20
:104D1000880B990B0E94792C9B01AC01C501B40151
:104D20000E947E2D9B01AC0160918E0370918F03D8
:104D300080919003909191030E94652B60938E0364
:104D400070938F0380939003909391030AC0211175
:104D500008C010928E0310928F031092900310924D
:104D6000910383E10E94CF10892B19F4EF2809F0F9
:104D70006CC3A8958091F3038A3008F45FC38091D7
:104D8000F2038F5F8093F2031092F3034091EE03DE
:104D90005091EF036091F0037091F1034F5F5F4F0B
:104DA0006F4F7F4F4093EE035093EF036093F003F8
:104DB0007093F1038C3310F01092F20340919E0334
:104DC00050919F036091A0037091A10325E030E012
:104DD00084E194E00E9417066AE073E084E194E0C5
:104DE0000E94F30640919A0350919B0360919C03AB
:104DF00070919D0325E030E084E194E00E94170665
:104E00006AE073E084E194E00E94F30640912C0193
:104E100050912D0160912E0170912F0122E030E020
:104E200084E194E00E9417066AE073E084E194E074
:104E30000E94F3064091300150913101609132019E
:104E40007091330122E030E084E194E00E94170683
:104E50006AE073E084E194E00E94F306409134013B
:104E600050913501609136017091370122E030E0B8
:104E700084E194E00E9417066AE073E084E194E024
:104E80000E94F30666E070E084E194E00E948610E0
:104E90006CE073E084E194E00E94B9052091E8039E
:104EA0003091E9034091EA035091EB0360E070E038
:104EB00080E894E40E94D62B20E030E040E85FE3F5
:104EC0000E94642B9B01AC0160E070E081E995E4F5
:104ED0000E94D62B20E030E543EC57E40E94D62B0D
:104EE0000E94362D20E030EE46E755E40E94D62B96
:104EF0002FE03FEC4BE55BE30E94652B9B01AC018F
:104F000060E070E080E89FE30E94D62B23E333E962
:104F100048E853E40E94642B2B013C0160939E03FC
:104F200070939F038093A0039093A1032091E403C7
:104F30003091E5034091E6035091E70360E070E0B3
:104F400080E894E40E94D62B20E030E040E85FE364
:104F50000E94642B9B01AC0160E070E081E995E464
:104F60000E94D62B20E030E543EC57E40E94D62B7C
:104F70000E94362D20E030EE46E755E40E94D62B05
:104F80002FE03FEC4BE55BE30E94652B9B01AC01FE
:104F900060E070E080E89FE30E94D62B23E333E9D2
:104FA00048E853E40E94642B6B017C0160939A03F0
:104FB00070939B0380939C0390939D038091EC03DB
:104FC0009091ED0301969093ED038093EC03059788
:104FD00004F12091E0033091E1034091E20350910C
:104FE000E303C701B6010E94642B6093DC03709356
:104FF000DD038093DE039093DF03C092E003D09241
:10500000E103E092E203F092E3031092ED031092C9
:10501000EC0380911E01813021F58090DC0390909B
:10502000DD03A090DE03B090DF0320E030E0A901B3
:10503000C501B4010E94292D181644F4C0921A012A
:10504000D0921B01E0921C01F0921D0120E030E0A3
:10505000A901C501B4010E94D12B87FF2BC010927A
:105060001E0180911E01811125C08090DC0390906B
:10507000DD03A090DE03B090DF0320E030E0A90163
:10508000C501B4010E94D12B87FF08C0C092D8038C
:10509000D092D903E092DA03F092DB0320E030E013
:1050A000A901C501B4010E94292D18161CF481E044
:1050B00080931E018091980390919903892B29F088
:1050C0001092D7031092D60311C0809197038130BC
:1050D00069F48091D6039091D70301969093D703FA
:1050E0008093D603813B944008F019C280919503C8
:1050F000813011F0843191F48091D4039091D503E3
:1051000001969093D5038093D40381319E4030F073
:10511000109295031092D5031092D40320E030E052
:1051200045EA53E4C301B2010E94292D18165CF42C
:1051300081E08093940385E090E0909393038093C3
:1051400092030E94440A20E030E045EA53E4609173
:105150009A0370919B0380919C0390919D030E9400
:10516000292D18165CF482E08093940385E090E08A
:1051700090939303809392030E94440A20E030E0CE
:1051800040EA51EC60919E0370919F038091A003CF
:105190009091A1030E94D12B87FF0FC080919703AC
:1051A000882359F083E08093940385E090E0909306
:1051B0009303809392030E94440A20E030E040EA87
:1051C00051EC60919A0370919B0380919C039091A4
:1051D0009D030E94D12B87FF0FC0809195038823E8
:1051E00059F084E08093940385E090E090939303DA
:1051F000809392030E94440A80919703813009F0C2
:105200005BC0C0909E03D0909F03E090A003F090FD
:10521000A10320E030E040EA51E46091D0037091B6
:10522000D1038091D2039091D3030E94642BA701F4
:1052300096010E94292D18160CF042C02091CC0333
:105240003091CD034091CE035091CF03C701B601F9
:105250000E94292D181654F4C092CC03D092CD038D
:10526000E092CE03F092CF031092CB032091CC03B7
:105270003091CD034091CE035091CF03C701B601C9
:105280000E94D12B1816E4F08091CB038F5F80939E
:10529000CB0390E0209118013091190128173907AC
:1052A0007CF40E94440A85E08093940385E090E0BA
:1052B0009093930380939203809197038823D1F076
:1052C00020E030E040EA51E46091D0037091D103D6
:1052D0008091D2039091D3030E94642B20919E036E
:1052E00030919F034091A0035091A1030E94D12BC4
:1052F00087FF12C080919E0390919F03A091A0030D
:10530000B091A1038093CC039093CD03A093CE03DF
:10531000B093CF031092CB0380919503813019F0A5
:10532000843109F05BC0C0909A03D0909B03E09059
:105330009C03F0909D0320E030E040EA51E460914E
:1053400014017091150180911601909117010E942E
:10535000642BA70196010E94292D18160CF03EC05F
:105360002091E0033091E1034091E2035091E30387
:10537000C701B6010E94292D181654F4C092E0030B
:10538000D092E103E092E203F092E3031092CA03A9
:105390002091E0033091E1034091E2035091E30357
:1053A000C701B6010E94D12B1816C4F08091CA0320
:1053B0008F5F8093CA0390E020911801309119010A
:1053C000281739075CF40E94440A86E0809394030E
:1053D00085E090E0909393038093920380919503EE
:1053E0008823D1F020E030E040EA51E46091D0031E
:1053F0007091D1038091D2039091D3030E94642BCA
:1054000020919A0330919B0340919C0350919D03FE
:105410000E94D12B87FF12C080919A0390919B0329
:10542000A0919C03B0919D038093E0039093E103CE
:10543000A093E203B093E3031092CA030E94BC015D
:105440000C941714809395039DCA1092990310929F
:10545000980380E10E94B10260E087E00E94F810AA
:1054600060E081E10E94F81026E930E040E050E081
:1054700066E275E087E00E94380366E970E080E04C
:1054800090E00E947A122CE231E040E050E066E2C7
:1054900075E087E00E9438036CE271E080E090E004
:1054A0000E947A1226E930E040E050E066E275E0C2
:1054B00087E00E9438036CE271E080E090E00E9497
:1054C0007A1226E930E040E050E066E174E087E0DF
:1054D0000E94380366E970E080E090E00E947A1252
:1054E0002CE231E040E050E066E275E087E00E94A7
:1054F00038036CE271E080E090E00E947A1228E5C7
:1055000032E040E050E060E276E087E00E9438035D
:1055100068E572E080E090E00E947A122ACC109256
:1055200097031092D7031092D6038091960381308F
:1055300009F0DCCD60E08DE00E94F810D7CDAF928D
:10554000BF92CF92DF92EF92FF920F931F93E4E10D
:10555000F4E01382128288EE93E0A0E0B0E084834E
:105560009583A683B7838EE391E09183808385EC56
:1055700090E09587848784EC90E09787868780EC1D
:1055800090E0918B808B81EC90E0938B828B82EC0E
:1055900090E0958B848B86EC90E0978B868B118EB8
:1055A000128E138E148EE1E4F5E01382128280E5F0
:1055B00091E09183808388E084838FEF858386E008
:1055C000868382E0878383E0808784E0818785E02B
:1055D00082871386148615861686178681E00E94B8
:1055E0006311A0903001B0903101C0903201D09091
:1055F0003301E0902C01F0902D0100912E011091CB
:105600002F01809137018F93809136018F93809184
:1056100035018F93809134018F9329EF34E04DEF62
:1056200054E061E075E085E095E00E94C012A09032
:105630002401B0902501C0902601D0902701E09070
:105640002001F0902101009122011091230180910D
:105650002B018F9380912A018F93809129018F9341
:10566000809128018F9321EB34E045EB54E069EB06
:1056700074E08DEB94E00E94C0128DB79EB708963F
:105680000FB6F8949EBF0FBE8DBF1F910F91FF9074
:10569000EF90DF90CF90BF90AF900895F999FECF33
:1056A00092BD81BDF89A992780B50895262FF99962
:1056B000FECF1FBA92BD81BD20BD0FB6F894FA9AF5
:1056C000F99A0FBE019608955058BB27AA270E9449
:1056D0007C2B0C94EF2C0E94E12C38F00E94E82CDB
:1056E00020F039F49F3F19F426F40C94DE2C0EF4CC
:1056F000E095E7FB0C94D82CE92F0E94002D58F37D
:10570000BA17620773078407950720F079F4A6F5A6
:105710000C94222D0EF4E0950B2EBA2FA02D0B0128
:10572000B90190010C01CA01A0011124FF27591BE6
:1057300099F0593F50F4503E68F11A16F040A22FEC
:10574000232F342F4427585FF3CF4695379527955D
:10575000A795F0405395C9F77EF41F16BA0B620B5C
:10576000730B840BBAF09150A1F0FF0FBB1F661FA3
:10577000771F881FC2F70EC0BA0F621F731F841FE6
:1057800048F4879577956795B795F7959E3F08F00C
:10579000B0CF9395880F08F09927EE0F97958795CE
:1057A00008950E94B42C08F481E008950E94EA2B29
:1057B0000C94EF2C0E94E82C58F00E94E12C40F051
:1057C00029F45F3F29F00C94D82C51110C94232D0F
:1057D0000C94DE2C0E94002D68F39923B1F355231D
:1057E00091F3951B550BBB27AA27621773078407F4
:1057F00038F09F5F5F4F220F331F441FAA1FA9F38A
:1058000035D00E2E3AF0E0E832D091505040E69577
:10581000001CCAF72BD0FE2F29D0660F771F881FD8
:10582000BB1F261737074807AB07B0E809F0BB0BCB
:10583000802DBF01FF2793585F4F3AF09E3F5105DF
:1058400078F00C94D82C0C94232D5F3FE4F3983E11
:10585000D4F3869577956795B795F7959F5FC9F7C8
:10586000880F911D9695879597F90895E1E0660F49
:10587000771F881FBB1F621773078407BA0720F0C2
:10588000621B730B840BBA0BEE1F88F7E09508952B
:105890000E94082D88F09F5798F0B92F9927B7518B
:1058A000B0F0E1F0660F771F881F991F1AF0BA95C4
:1058B000C9F714C0B13091F00E94222DB1E00895D3
:1058C0000C94222D672F782F8827B85F39F0B93FC5
:1058D000CCF3869577956795B395D9F73EF4909577
:1058E0008095709561957F4F8F4F9F4F0895E894F5
:1058F00009C097FB3EF490958095709561957F4F18
:105900008F4F9F4F9923A9F0F92F96E9BB279395C5
:10591000F695879577956795B795F111F8CFFAF4D5
:10592000BB0F11F460FF1BC06F5F7F4F8F4F9F4F06
:1059300016C0882311F096E911C0772321F09EE864
:10594000872F762F05C0662371F096E8862F70E0CA
:1059500060E02AF09A95660F771F881FDAF7880FA4
:105960009695879597F90895990F0008550FAA0BFA
:10597000E0E8FEEF16161706E807F907C0F0121662
:105980001306E407F50798F0621B730B840B950B65
:1059900039F40A2661F0232B242B252B21F40895BA
:1059A0000A2609F4A140A6958FEF811D811D089557
:1059B00097F99F6780E870E060E008959FEF80ECC2
:1059C000089500240A941616170618060906089565
:1059D00000240A9412161306140605060895092ECB
:1059E0000394000C11F4882352F0BB0F40F4BF2B3A
:1059F00011F460FF04C06F5F7F4F8F4F9F4F08957A
:105A000057FD9058440F551F59F05F3F71F047956F
:105A1000880F97FB991F61F09F3F79F08795089554
:105A2000121613061406551FF2CF4695F1DF08C073
:105A3000161617061806991FF1CF86957105610590
:105A400008940895E894BB2766277727CB0197F938
:105A500008950E94B42C08F48FEF089516F00C946A
:105A6000F02D0C94DE2C68940C94D82C0E94082DF8
:105A7000A8F39923C1F3AEF3DF93CF931F930F9352
:105A8000FF92C92FDD2788232AF02197660F771F01
:105A9000881FDAF720E030E040E85FEB9FE38839C9
:105AA00020F0803E38F021968F770E94652BE8E643
:105AB000F0E004C00E94652BE5E9F0E00E94FE2DB5
:105AC0008B01BE01EC01FB2E6F5771097595771F95
:105AD000880B990B0E94792C28E132E741E35FE3C0
