:100000000C9490000C94B8000C94B8000C94B800B8
:100010000C94B8000C94B8000C94B8000C94DC025A
:100020000C94B8000C94B8000C94B8000C94B80070
:100030000C94B8000C94B8000C94B8000C94B80060
:100040000C948C130C94B8000C941B070C94F506BC
:100050000C94B8000C94B8000C94B8000C94B80040
:100060000C94B8000C94B80008000000BE9224491B
:10007000123EABAAAA2ABECDCCCC4C3E00000080DA
:10008000BEABAAAAAA3E00000000BF000000803F4D
:100090000000000000084178D3BB4387D1133D190D
:1000A0000E3CC3BD4282AD2B3E68EC8276BED98F3A
:1000B000E1A93E4C80EFFFBE01C4FF7F3F0000007E
:1000C00000000200000000240027002A00000000B9
:1000D00000250028002B0000000000230026002936
:1000E00000040404040404040402020202020203E1
:1000F00003030303030102040810204080010204EB
:10010000081020010204081020000000080002016D
:100110000000030407000000000000000000072B9F
:1001200011241FBECFEFD8E0DEBFCDBF13E0A0E0AB
:10013000B1E0EAEEFDE502C005900D92AA39B107E3
:10014000D9F725E0AAE9B3E001C01D92A137B207B3
:10015000E1F710E0C0E9D0E004C02197FE010E9461
:10016000D92ECF38D107C9F70E94D6130C94F32E9D
:100170000C940000CF92DF92EF92FF920F931F93A7
:10018000CF93DF936C017A018B01C0E0D0E0CE15F4
:10019000DF0581F0D8016D918D01D601ED91FC91C3
:1001A0000190F081E02DC6010995892B11F021966F
:1001B000EECF7E01C701DF91CF911F910F91FF908C
:1001C000EF90DF90CF900895FC01538D448D252F43
:1001D00030E0842F90E0821B930B541710F0CF96E1
:1001E000089501970895FC01918D828D981761F013
:1001F000828DDF01A80FB11D5D968C91928D9F5F5E
:100200009F73928F90E008958FEF9FEF0895FC0108
:10021000918D828D981731F0828DE80FF11D858DBB
:1002200090E008958FEF9FEF0895FC01918D228D4E
:10023000892F90E0805C9F4F821B91098F739927D3
:1002400008958BE294E00E94150121E0892B09F4C6
:1002500020E0822F0895FC01848DDF01A80FB11DDD
:10026000A35ABF4F2C91848D90E001968F739927EC
:10027000848FA689B7892C93A089B1898C918370CA
:1002800080648C93938D848D981306C00288F389C3
:10029000E02D80818F7D80830895EF92FF920F93F0
:1002A0001F93CF93DF93EC0181E0888F9B8D8C8D22
:1002B000981305C0E889F989808185FD26C0F62E4E
:1002C0000B8D10E00F5F1F4F0F731127E02E8C8DE9
:1002D000E8120CC00FB607FCFACFE889F9898081D3
:1002E00085FFF5CFCE010E942B01F1CF8B8DFE0152
:1002F000E80FF11DE35AFF4FF0829FB7F8940B8F80
:10030000EA89FB89808180620AC09FB7F894EE89F0
:10031000FF896083E889F9898081837080648083A4
:100320009FBF81E090E0DF91CF911F910F91FF90EF
:10033000EF900895CF93DF93EC01888D8823C9F067
:10034000EA89FB89808185FD05C0A889B9898C91DE
:1003500086FD0FC00FB607FCF5CF808185FFF2CF79
:10036000A889B9898C9185FFEDCFCE010E942B0120
:10037000E7CFDF91CF91089580E090E0892B29F0BD
:100380000E94210181110C9400000895089580E0DD
:1003900090E008950E94EE2ECF93DF93EC0160E091
:1003A0008E810E940A1161E08E810E940A1160E034
:1003B0008E810E940A118BE891E00197F1F7DF919D
:1003C000CF910895CF93DF93EB010E94B62B8883E2
:1003D000CE01DF91CF910895CF92DF92EF92FF92FD
:1003E0000F931F93CF93DF93EB017B0124E0E20E89
:1003F000F11C8B016C01C61AD70AC601800F911F30
:100400000E94B62BF80181938F01EE15FF05A9F725
:10041000CE01DF91CF911F910F91FF90EF90DF9070
:10042000CF9008950F931F93CF93DF938C01EB012F
:100430000E94B62B8883C80101960E94B62B89833F
:10044000CE01DF91CF911F910F910895FF920F93ED
:100450001F93CF93DF93EC01F62E08811981C80119
:100460000E94B62BF81621F06F2DC8010E94BE2BFA
:10047000CE01DF91CF911F910F91FF9008950F93BF
:100480001F93CF93DF9300D0CDB7DEB78B01FB0175
:1004900060819A838983CE0101960E942602C80159
:1004A0000F900F90DF91CF911F910F910895AF9210
:1004B000BF92CF92DF92EF92FF920F931F93CF9351
:1004C000DF9300D0CDB7DEB78B016B0124E0C20E05
:1004D000D11C7B015C01A61AB70AC5018E0D9F1DB8
:1004E000F70161917F019A838983CE0101960E9471
:1004F0002602EC14FD0489F7C8010F900F90DF91DC
:10050000CF911F910F91FF90EF90DF90CF90BF9010
:10051000AF900895EF92FF920F931F93CF93DF93C5
:1005200000D0CDB7DEB78C017B01FB0160819A83DF
:100530008983CE0101960E942602F70161810F5F37
:100540001F4F1A830983CE0101960E942602C7011C
:100550000F900F90DF91CF911F910F91FF90EF902F
:10056000089590911F01891324C0E2ECF0E0E4911A
:100570009FEF90931F01E130B9F098F0E230C9F499
:10058000909170009D7F9093700091E09093B000E7
:100590009091B100987F94609093B1001092B30055
:1005A00008C010926E0005C090916F009D7F9093DF
:1005B0006F0060E00C940A111F920F920FB60F9219
:1005C00011242F933F934F935F936F937F938F9358
:1005D0009F93AF93BF93EF93FF9380911F049091EC
:1005E0002004A0912104B0912204892B8A2B8B2B0B
:1005F00051F190911E04E0911C04F0911D04808142
:100600008927808380911F0490912004A091210468
:10061000B0912204181619061A061B06C4F480911C
:100620001F0490912004A0912104B091220401970D
:10063000A109B10980931F0490932004A093210481
:10064000B093220404C080911F010E94B102FF9167
:10065000EF91BF91AF919F918F917F916F915F913A
:100660004F913F912F910F900FBE0F901F901895B3
:100670004F925F926F927F928F929F92AF92BF92B2
:10068000CF92DF92EF92FF920F931F93CF93DF935E
:1006900000D000D01F92CDB7DEB78B0129013A01FF
:1006A00090911F01891721F09F3F09F045C205C0B5
:1006B000E2ECF0E024912D837CC080931F01E2ECFA
:1006C000F0E094919D839F3F09F436C2913009F484
:1006D00049C058F1923009F06CC01092B0001092ED
:1006E000B1009091B00092609093B0009091B100F1
:1006F00091609093B100282F30E0F901EF51FF4F46
:10070000E491F0E0EE0FFF1FE353FF4F459154914A
:1007100050931D0440931C04F901EB50FF4FE491EA
:10072000E0931E0492E09D8303C214BC15BC94B5F3
:10073000926094BD95B5916095BD282F30E0F90188
:10074000EF51FF4FE491F0E0EE0FFF1FE353FF4F37
:1007500045915491F901EB50FF4FE491E09313045C
:100760001D82E6C11092800010928100909181005C
:1007700098609093810090918100916090938100A6
:10078000282F30E0F901EF51FF4FE491F0E0EE0F38
:10079000FF1FE353FF4F45915491F901EB50FF4F79
:1007A000E491E093120461E00E94391121E02D836D
:1007B00089C02D8127FDC0C161E00E9439118D8162
:1007C0008D7F09F07FC04801A12CB12C60E072E15F
:1007D0008AE790E0A50194010E94AF2E29833A8315
:1007E0004B835C8369017A0181E0C81AD108E10872
:1007F000F1089FEFC916D104E104F10409F008F4EF
:100800004EC060E472E48FE090E0A50194010E9484
:10081000AF2E69017A0181E0C81AD108E108F10818
:100820009D81923009F52FEFC216D104E104F10445
:1008300009F008F444C160E970ED83E090E0A5019F
:1008400094010E94AF2E69017A0181E0C81AD10893
:10085000E108F1089FEFC916D104E104F10411F099
:1008600008F0BAC083E027C02FEFC216D104E1041C
:10087000F104B9F0B0F068E478EE81E090E0A50111
:1008800094010E94AF2E69017A0181E0C81AD10853
:10089000E108F1089D81992309F413C1DCC081E0CE
:1008A00001C082E09D81911106C095B5987F892B8A
:1008B00085BD44C085E09091B100987F892B8093DD
:1008C000B1003CC04801A12CB12C60E072E18AE784
:1008D00090E0A50194010E94AF2E69017A0181E0A8
:1008E000C81AD108E108F108C114D10491E0E90661
:1008F000F10488F068E478EE81E090E0A5019401CD
:100900000E94AF2E69017A0181E0C81AD108E1087E
:10091000F10883E001C081E09D81913079F49091EC
:100920008100987F892B80938100411451046104D8
:10093000710449F42FEF3FEFA9012CC04114510479
:100940006104710471F0D801AA0FBB1FA3019201C9
:100950000E94CE2E28EE33E040E050E00E948D2E23
:1009600003C02FEF3FEFA9018D81813099F08230D4
:1009700019F18111E1C0C7BC209318043093190408
:1009800040931A0450931B0480916E008260809300
:100990006E00D2C0D0928900C092880020931404C7
:1009A00030931504409316045093170480916F0000
:1009B000826080936F00C0C0C092B30020931F0478
:1009C00030932004409321045093220480917000BE
:1009D000826080937000B0C068E478EE81E090E0BF
:1009E000A50194010E94AF2E69017A0191E0C91A14
:1009F000D108E108F1082FEFC216D104E104F10497
:100A000041F138F164E274EF80E090E0A5019401D7
:100A10000E94AF2E69017A0181E0C81AD108E1086D
:100A2000F1089FEFC916D104E104F10409F008F4BC
:100A300041CF62E17AE780E090E0A50194010E9455
:100A4000AF2E69017A0181E0C81AD108E108F108E6
:100A500019C084E030CF2FEFC216D104E104F104B5
:100A600009F008F463C062E17AE780E090E0A50154
:100A700094010E94AF2E69017A0191E0C91AD10850
:100A8000E108F1088FEFC816D104E104F104A9F0E0
:100A9000A0F089819A81AB81BC812AE0B595A795A8
:100AA000979587952A95D1F76C017D0121E0C21AAF
:100AB000D108E108F10887E0FECE86E0FCCE82E0B6
:100AC000FACE8FEFC816D104E104F10469F160F1A8
:100AD00062E17AE780E090E0A50194010E94AF2EE8
:100AE00069017A0191E0C91AD108E108F1082FEFF4
:100AF000C216D104E104F104A9F0A0F089819A8121
:100B0000AB81BC813AE0B595A795979587953A95C5
:100B1000D1F76C017D0121E0C21AD108E108F1088A
:100B200085E0C3CE84E0C1CE83E0BFCE84E0BACE00
:100B300061E00E94391147CE0F900F900F900F90F7
:100B40000F90DF91CF911F910F91FF90EF90DF9069
:100B5000CF90BF90AF909F908F907F906F905F905D
:100B60004F900895DC01ED91FC910190F081E02D12
:100B700009946115710579F0FB0101900020E9F7F6
:100B80003197AF01461B570BDC01ED91FC910280C0
:100B9000F381E02D099480E090E008958F929F9278
:100BA000AF92BF92EF92FF920F931F93CF93DF9379
:100BB000CDB7DEB7A1970FB6F894DEBF0FBECDBF9D
:100BC0007C01FA01CB0119A2223008F42AE08E013F
:100BD0000F5D1F4F822E912CA12CB12CBF01A501BE
:100BE00094010E948D2EF901CA01015011096A3049
:100BF00014F4605D01C0695CD8016C93232B242B35
:100C0000252B61F7B801C7010E94B905A1960FB65F
:100C1000F894DEBF0FBECDBFDF91CF911F910F9132
:100C2000FF90EF90BF90AF909F908F9008957F922C
:100C30008F929F92AF92BF92CF92DF92EF92FF92EC
:100C40000F931F93CF93DF938C016A017B01722E68
:100C50009A01AB01C701B6010E94532E882319F0F7
:100C600064E273E027C046015701E894B7F82FEF1C
:100C70003FEF4FE75FE7C501B4010E94532E81119A
:100C80000DC02FEF3FEF4FE75FE7C501B4010E94B2
:100C9000392C18161CF468E273E00CC02FEF3FEFFC
:100CA0004FE75FE4C701B6010E94912D181694F436
:100CB0006CE273E0C801DF91CF911F910F91FF901B
:100CC000EF90DF90CF90BF90AF909F908F907F90EC
:100CD0000C94B9052FEF3FEF4FE75FECC701B6016A
:100CE0000E94392C87FDE4CF20E030E0A901C70144
:100CF000B6010E94392C87FF0AC06DE2C8010E942C
:100D0000B205EC01F7FAF094F7F8F09402C0C0E0F5
:100D1000D0E0B12C60E070E080E09FE3B71440F4D5
:100D200020E030E040E251E40E943E2CB394F6CF44
:100D3000A70196010E94CD2B6B017C010E94B02C73
:100D40004B015C012AE0AB01BC01C8010E94CE0549
:100D5000C80FD91F7720C1F1C501B4010E94DF2C53
:100D60009B01AC01C701B6010E94CC2B6B017C0139
:100D70006EE2C8010E94B205C80FD91F20E030E022
:100D800040E251E4C701B6010E94E62D4B015C012F
:100D90000E94B02C6B01E12CF12C2AE0B701A601D6
:100DA000C8010E94CE05C80FD91FC701B6010E9415
:100DB000DF2C9B01AC01C501B4010E94CC2B6B015F
:100DC0007C017A947110DACFCE01DF91CF911F911F
:100DD0000F91FF90EF90DF90CF90BF90AF909F90DA
:100DE0008F907F9008950C94B9051F920F920FB6C3
:100DF0000F9211242F933F934F935F936F937F93A1
:100E00008F939F93AF93BF93EF93FF938BE294E005
:100E10000E942B01FF91EF91BF91AF919F918F9114
:100E20007F916F915F914F913F912F910F900FBEE6
:100E30000F901F9018951F920F920FB60F921124CA
:100E40002F938F939F93EF93FF93E0913B04F09147
:100E50003C048081E0914104F091420482FD12C083
:100E60009081809144048F5F8F7320914504821795
:100E700051F0E0914404F0E0E55DFB4F958F8093E5
:100E8000440401C08081FF91EF919F918F912F9138
:100E90000F900FBE0F901F901895CF92DF92EF9298
:100EA000FF920F931F93CF93DF936C017C0187E038
:100EB000E80EF11CC0E0D0E0062F10E0B8010C2EC7
:100EC00002C0759567950A94E2F76170F701819108
:100ED0007F010E940A112196C430D10579F7C6011D
:100EE000DF91CF911F910F91FF90EF90DF90CF9006
:100EF0000C94CC01CF92DF92EF92FF920F931F934D
:100F0000CF93DF93EC01F62E642F8C810E940A119F
:100F10008D818F3F19F060E00E940A118F850F2D9F
:100F200010E084FF25C06E0187E0C80ED11CE12CC3
:100F3000F12CB8010E2C02C0759567950A94E2F762
:100F40006170F60181916F010E940A11FFEFEF1AA3
:100F5000FF0A88E0E816F10461F7CE01DF91CF9136
:100F60001F910F91FF90EF90DF90CF900C94CC01E8
:100F7000B80184E0759567958A95E1F7CE010E94E6
:100F80004D076F2DCE01DF91CF911F910F91FF90F3
:100F9000EF90DF90CF900C944D0741E00E947A07CC
:100FA00081E090E008958F929F92AF92BF92CF928E
:100FB000DF92EF92FF92CF93DF93EC01EE8DFF8DE6
:100FC000C080D180E280F380CEA2DFA2E8A6F9A69D
:100FD000EC8DFD8D80819181A281B3818AA79BA731
:100FE000ACA7BDA78EA89FA8A8ACB9ACA5019401D9
:100FF000C701B6010E94912D181664F08AA89BA81B
:10100000ACA8BDA8A5019401C701B6010E94392C66
:1010100087FF04C08EA29FA2A8A6B9A6DF91CF9198
:10102000FF90EF90DF90CF90BF90AF909F908F9008
:1010300008954F925F926F927F928F929F92AF929C
:10104000BF92CF92DF92EF92FF920F931F93CF93B5
:10105000DF9300D000D000D0CDB7DEB79E838D8364
:101060002A013B014801590120E030E0A901C301F8
:10107000B2010E94392C87FD89C020E030E0A9012F
:10108000C501B4010E94392C87FD80C020E030E00A
:10109000A901C701B6010E94392C87FD77C081E004
:1010A000ED81FE81228D338D2130310509F080E004
:1010B000ED81FE8183AF408251826282738284829D
:1010C0009582A682B782C086D186E286F38666A51F
:1010D00077A580A991A90E94DF2C20E030E04AE7A3
:1010E00054E40E943E2C69837A838B839C83ED8138
:1010F000FE8144865586668677869B01AC01C501D4
:10110000B4010E94E62D4B015C01ED81FE81608BF4
:10111000718B828B938B29813A814B815C81C701D2
:10112000B6010E943E2C6B017C01ED81FE81648B37
:10113000758B868B978B808D918D019739F5A301E7
:10114000920160E070E0CB010E94CC2BED81FE812A
:101150006487758786879787A501940160E070E0B2
:10116000CB010E94CC2BED81FE81608B718B828B39
:10117000938BA701960160E070E0CB010E94CC2B1D
:10118000ED81FE81648B758B868B978B26960FB6CF
:10119000F894DEBF0FBECDBFDF91CF911F910F91AD
:1011A000FF90EF90DF90CF90BF90AF909F908F9087
:1011B0007F906F905F904F9008952F923F924F9243
:1011C0005F926F927F928F929F92AF92BF92CF92D7
:1011D000DF92EF92FF920F931F93CF93DF93CDB7E0
:1011E000DEB760970FB6F894DEBF0FBECDBFDC014F
:1011F000DA96BC91B983B11102C019822BC1988BC8
:101200008F870E94C6126E837F8388879987EF85B8
:10121000F88982A193A1A4A1B5A14E815F816885BF
:101220007985481B590B6A0B7B0B86A597A5A0A94E
:10123000B1A9481759076A077B07F8F2048CF58DA6
:10124000E02D80819181A281B3818A839B83AC83CD
:10125000BD83AF85B8899096ED91FC9191972A81D5
:101260003B814C815D8160817181828193810E948B
:10127000CC2B4B015C01EF85F88922A533A544A551
:1012800055A56A817B818C819D810E94CC2B6B014D
:101290007C01AF85B88950962D913D914D915C911F
:1012A0005397C501B4010E94E62DEF85F88926A168
:1012B00037A140A551A50E94CD2B2B013C01AF8544
:1012C000B88996966D937D938D939C939997DB96B1
:1012D000BC91BA87B11118C0EF85F889248535858E
:1012E00046855785C701B6010E94E62D9B01AC01DA
:1012F000C301B2010E94CC2BAF85B88996966D933D
:101300007D938D939C939997EF85F88946A057A07C
:1013100060A471A416A907A930AC21AC212F302FED
:10132000432D522DC301B2010E94912D18162CF4A9
:10133000812F902FA32DB22D18C0AF85B889D296DA
:101340008D919D910D90BC91A02D8B879C87AD8731
:10135000BE879C01AD01C301B2010E94392C87FFF9
:101360000AC08B859C85AD85BE85EF85F88986A3EF
:1013700097A3A0A7B1A7FA85FF2379F0AF85B88915
:101380001C962D913D914D915C911F97C501B40123
:101390000E94E62D4B015C0103C0812C912C54016D
:1013A000EF85F8892489358946895789C701B601AF
:1013B0000E94E62D9B01AC01AF85B88996966D9190
:1013C0007D918D919C9199970E94CC2BA5019401C0
:1013D0000E94CD2B6B017C019B01AC01612F702F12
:1013E000832D922D0E94392C87FD14C0EF85F8893A
:1013F00012A903A934A825A8212F302F432D522D3F
:10140000B601C7010E94392C87FD04C01C2D0D2D8B
:101410003E2C2F2CAF85B8895E96ED91FC915F979D
:10142000812F902FA32DB22D80839183A283B3832C
:101430008A819B81AC81BD81EF85F88982A793A7C2
:10144000A4A7B5A78E819F81A885B98582A393A300
:10145000A4A3B5A3898160960FB6F894DEBF0FBE32
:10146000CDBFDF91CF911F910F91FF90EF90DF9053
:10147000CF90BF90AF909F908F907F906F905F9034
:101480004F903F902F9008951092AE031092AC03AE
:101490001092B0031092AF0360E08CE00E940A113A
:1014A0006EE971E08BE294E00E94F3068091AB0359
:1014B000813021F485EA91E00E94CE108091AB0347
:1014C000823021F483EB91E00E94CE108091AB0337
:1014D000833021F481EC91E00E94CE108091AB0327
:1014E000843021F48FEC91E00E94CE108091AB0308
:1014F000853021F48DED91E00E94CE108091AB03F8
:10150000863021F488EE91E00E94CE1060E08DE0FC
:101510000C940A11CF92DF92EF92FF920F931F93D8
:101520008091140190911501A0911601B0911701BD
:101530008093C8049093C904A093CA04B093CB04C9
:101540008091B1039091B203A091B303B091B40321
:101550008093D0049093D104A093D204B093D30489
:1015600084ED94E00E94DD080E94C612C0909E03A4
:10157000D0909F03E090A003F090A1032091380148
:10158000309139018901330F220B330BAB01BC01C0
:101590004C195D096E097F090417150726073707DF
:1015A00070F4D701C601800F911FA21FB31F809353
:1015B0009E0390939F03A093A003B093A1030E9466
:1015C000C612C0909E03D0909F03E090A003F090BD
:1015D000A1036C197D098E099F090E94DF2C2091BF
:1015E000CC043091CD044091CE045091CF040E94A0
:1015F000912D181614F460E001C061E08BE01F919A
:101600000F91FF90EF90DF90CF900C940A110F9301
:101610001F938091010190910201A0910301B0916B
:1016200004018093100590931105A0931205B093C7
:1016300013058091B5039091B603A091B703B091C3
:10164000B8038093180590931905A0931A05B093D9
:101650001B058CE195E00E94DD080E94C6120091F6
:101660009A0310919B0320919C0330919D03AB0141
:10167000BC01401B510B620B730B493E534061058B
:10168000710570F0D901C80188519C4FAF4FBF4F11
:1016900080939A0390939B03A0939C03B0939D0324
:1016A0000E94C61200919A0310919B0320919C0303
:1016B00030919D03601B710B820B930B0E94DF2CFA
:1016C000209114053091150540911605509117058C
:1016D0000E94912D181614F460E001C061E08AE0C8
:1016E0001F910F910C940A1160E080E00E94861017
:1016F00060E373E088E595E00E94F3064091B5034E
:101700005091B6036091B7037091B80320E030E0C8
:1017100088E595E00E94170663E972E088E595E0A8
:101720000E94F3068091AE038130C1F520E030E0E5
:1017300040E85EE36091A4037091A5038091A60345
:101740009091A7030E94392C87FF14C04091050196
:1017500050910601609107017091080120E030E08E
:1017600088E595E00E94170663E972E088E595E058
:101770000E94F30640910101509102016091030122
:101780007091040120E030E088E595E00E941706A2
:1017900063E373E088E595E00E94F3068091AE0371
:1017A000811106C06FE871E088E595E00E94F306BC
:1017B00060E08FE00E9486108AE00E94E1100197AD
:1017C00031F464E971E088E595E00E94F3068AE06F
:1017D0000E94E110892B31F468E272E088E595E01F
:1017E0000E94F30661E080E00E9486106AE373E0E5
:1017F00088E595E00E94F3068091AF039091B003D5
:1018000097FD06C068E272E088E595E00E94F30665
:101810006091AF037091B00388E595E00E94981045
:101820008091A2039091A3038130910519F484E67D
:1018300090E005C08530910539F48AE090E09093FE
:10184000AA038093A90330C08430910551F42091FC
:10185000AF033091B0032F5F3F4F25303105E4F1E6
:101860000EC08230910581F48091AF039091B00356
:1018700001978C3F2FEF920714F48CEF9FEF90931A
:10188000B0038093AF0310C0039771F41092A303C9
:101890001092A2038091AE038F5F823018F4809380
:1018A000AE0302C01092AE0361E08AE00E9486108F
:1018B0004091A4035091A5036091A6037091A703E2
:1018C00022E030E088E595E00E94170661E473E0CD
:1018D00088E595E00C94F3063093B0032093AF03B2
:1018E000E3CF60E080E00E9486108091AC038230FC
:1018F00010F0843131F464E473E088E595E00E94EF
:10190000F3068091AC038C3031F464E573E088E534
:1019100095E00E94F3068091AC038E3031F466E6C8
:1019200073E088E595E00E94F3068091AC03803176
:1019300031F463EE72E088E595E00E94F30660E022
:101940008FE00E9486108BE00E94E110019731F435
:1019500064E971E088E595E00E94F3068BE00E945F
:10196000E110892B31F468E272E088E595E00E948D
:10197000F30661E080E00E9486108091AC038E3017
:1019800001F56AE773E088E595E00E94F30660914F
:1019900020017091210180912201909123019B01EE
:1019A000AC010E94CD2BAB01BC0120E030E088E50A
:1019B00095E00E94170668E272E088E595E00E94D3
:1019C000F3068091AC038031A1F56AE773E088E506
:1019D00095E00E94F3064091200150912101609111
:1019E00022017091230120E030E088E595E00E941B
:1019F000170668E272E088E595E00E94F3066FE75B
:101A000073E088E595E00E94F3064091240150912F
:101A10002501609126017091270122E030E088E5E0
:101A200095E00E94170668E272E088E595E00E9462
:101A3000F3068091A2039091A3038130910519F4DC
:101A400086E090E005C08530910539F481E490E0AE
:101A50009093AA038093A9030895039739F41092F1
:101A6000A3031092A2038AE08093AC03089560E17F
:101A700074E080E090E00E948A0261E071E088E01A
:101A800090E00E9457026BE071E08CE090E00E94D1
:101A90008A026DE071E080E190E00E948A026CE2CF
:101AA00071E084E190E00E94570260E371E088E118
:101AB00090E00E94570264E371E08CE190E00E94A4
:101AC000570265E071E080E290E00E94570264E115
:101AD00071E084E290E00E94570260E271E088E2E7
:101AE00090E00E94570264E271E08CE290E00E9474
:101AF000570268E271E080E390E00E94570269E0DB
:101B000071E084E390E00E943F026DEA73E088E3B5
:101B100090E00E943F0263E171E08CE390E00E945C
:101B20003F026AE071E080E490E00E943F0268E1D9
:101B300071E084E490E00E948A0268EA73E088E43D
:101B400090E00C943F02CF92DF92EF92FF920F93BE
:101B50001F93CF93DF9300D0CDB7DEB760E082E173
:101B60000E94391160E085E10E94391161E08AE04C
:101B70000E94391161E08BE00E94391161E080E13F
:101B80000E94391161E08FE00E94391161E081E12A
:101B90000E94391161E087E00E94391161E08CE018
:101BA0000E94391162E083E10E94391161E08DE009
:101BB0000E94391160E080E10E940A1160E087E034
:101BC0000E940A1161E087E00E940A1161E08DE045
:101BD0000E940A1160E174E080E090E00E9412022D
:101BE00080911004909111040196C1F400E010E07E
:101BF0001A821982BE016F5F7F4FC8010E948A025C
:101C00000F5F1F4F0F3F81E0180791F781E090E0D1
:101C100090931104809310040E94370D60E174E0EA
:101C200080E090E00E94120261E071E088E090E0C4
:101C30000E94EC016BE071E08CE090E00E941202E7
:101C40006DE071E080E190E00E9412026CE271E0D0
:101C500084E190E00E94EC0160E371E088E190E0B3
:101C60000E94EC0164E371E08CE190E00E94EC01E1
:101C700065E071E080E290E00E94EC0164E171E0D7
:101C800084E290E00E94EC0160E271E088E290E082
:101C90000E94EC0164E271E08CE290E00E94EC01B1
:101CA00068E271E080E390E00E94EC0169E071E09D
:101CB00084E390E00E94E2016DEA73E088E390E043
:101CC0000E94E20163E171E08CE390E00E94E20196
:101CD0006AE071E080E490E00E94E20168E171E076
:101CE00084E490E00E94120268EA73E088E490E0E5
:101CF0000E94E2018091100490911104019690934A
:101D000011048093100482E00E94751169E071E073
:101D100084E390E00E94E2018091090181508E3FAE
:101D200018F082E88093090160E084E00E94861048
:101D300064E873E088E595E00E94F30661E082E0E4
:101D40000E9486106CE873E088E595E00E94F30637
:101D50006FEF70E089E00E94161208EC10E08091AD
:101D6000090190E0801791076CF4B80189E00E94A6
:101D700016126AE070E080E090E00E948C12015040
:101D80001109EDCF68EE73E080E090E00E948C12C4
:101D90006091090170E089E00E9416120E947E1095
:101DA000E0913B04F0913C0482E08083E0913704B1
:101DB000F09138041082E0913904F0913A0480E106
:101DC000808310924304E0913F04F091400486E048
:101DD0008083E0913D04F0913E04808180618083A6
:101DE000E0913D04F0913E04808188608083E09121
:101DF0003D04F0913E04808180688083E0913D0441
:101E0000F0913E0480818F7D8083809118019091B4
:101E1000190184569109893C910530F084E690E0DF
:101E200090931901809318018091A803823010F0DB
:101E30001092A8030E94C61260939A0370939B03AA
:101E400080939C0390939D0340E050E06AE774E424
:101E50008CE195E00E94091080915605811104C023
:101E60008CE195E00E94D30781E080935605C090F5
:101E70003401D0903501E0903601F09037010091A7
:101E800030011091310120913201309133014091A4
:101E90002C0150912D0160912E0170912F018CE148
:101EA00095E00E9419080E94C61260939E037093E9
:101EB0009F038093A0039093A103609138017091D8
:101EC0003901072E000C880B990B0E94E12CAB0105
:101ED000BC0184ED94E00E94091080910E058111EF
:101EE00004C084ED94E00E94D30781E080930E0546
:101EF000C0902801D0902901E0902A01F0902B0198
:101F00000091240110912501209126013091270193
:101F10004091200150912101609122017091230193
:101F200084ED94E00E94190880918000807E816099
:101F30008093800080918100807E8A608093810000
:101F400099E288E10FB6F894A895809360000FBEDF
:101F5000909360000F900F90DF91CF911F910F91A0
:101F6000FF90EF90DF90CF900895833081F028F4B8
:101F7000813099F08230A1F008958730A9F088303F
:101F8000B9F08430D1F4809180008F7D03C08091BE
:101F900080008F7780938000089584B58F7702C08A
:101FA00084B58F7D84BD08958091B0008F7703C084
:101FB0008091B0008F7D8093B00008953FB7F89472
:101FC0008091270490912804A0912904B0912A04BB
:101FD00026B5A89B05C02F3F19F00196A11DB11D84
:101FE0003FBFBA2FA92F982F8827820F911DA11DBF
:101FF000B11DBC01CD0142E0660F771F881F991FFC
:102000004A95D1F7089540E0682F88E595E00C9453
:102010007A078F929F92AF92BF92CF92DF92EF9208
:10202000FF920F931F93CF93DF93EC016A017B0123
:1020300020E030E0A901C701B6010E94392C181632
:102040000CF04FC01AAA1BAA1CAA1DAACEAADFAA6E
:10205000E8AEF9AE8AAD882309F443C00E8D1F8D1A
:10206000F80180809180A280B380A5019401C7010E
:10207000B6010E94392C87FF06C0F801C082D182C8
:10208000E282F3820EC020E030E0A901C501B40174
:102090000E94392C87FF05C0F8011082118212823C
:1020A00013828EA09FA0A8A4B9A4CEA8DFA8E8ACF4
:1020B000F9ACA7019601C501B4010E94912D181633
:1020C00064F0CAA8DBA8ECA8FDA8A7019601C50189
:1020D000B4010E94392C87FF04C0CEA2DFA2E8A67B
:1020E000F9A6DF91CF911F910F91FF90EF90DF90B4
:1020F000CF90BF90AF909F908F90089581E00E9405
:1021000003108BE39FE10197F1F70895643008F025
:1021100063E090916B05691710F06FEF690FE62F80
:10212000F0E0E85AFA4F9489890F80680C94031004
:10213000CF92DF92EF92FF920F931F93CF93DF9393
:102140006B01770FEE08FF08F7FE1BC0EC016DE294
:102150000E94B2058C0144275527BA014C195D092C
:102160006E097F092AE0CE010E94CE05800F911FE3
:10217000DF91CF911F910F91FF90EF90DF90CF9063
:1021800008952AE0B701A601DF91CF911F910F9129
:10219000FF90EF90DF90CF900C94CE05CF93DF931C
:1021A000BC018BE294E00E94B905EC0161E273E0AE
:1021B0008BE294E00E94B9058C0F9D1FDF91CF91B7
:1021C0000895CF93DF93282F30E0F901E75FFE4FAA
:1021D0008491F901EB50FF4FD491F901EF51FF4F7A
:1021E000C491CC2391F081110E94B50FEC2FF0E047
:1021F000EE0FFF1FE952FF4FA591B491EC91ED2333
:1022000081E090E021F480E002C080E090E0DF9186
:10221000CF9108951F93CF93DF93282F30E0F901DA
:10222000E75FFE4F8491F901EB50FF4FD491F90124
:10223000EF51FF4FC491CC23C1F0162F81110E94A2
:10224000B50FEC2FF0E0EE0FFF1FE353FF4FA5910A
:10225000B4919FB7F894111104C08C91D095D823F4
:1022600002C0EC91DE2BDC939FBFDF91CF911F91D9
:102270000895CF93DF9390E0FC01EB50FF4F249142
:10228000FC01EF51FF4F8491882361F190E0880FAA
:10229000991FFC01ED53FF4FC591D491FC01E3530D
:1022A000FF4FA591B491611109C09FB7F89488813F
:1022B000209582238883EC912E230BC0623061F439
:1022C0009FB7F8948881322F309583238883EC91CF
:1022D0002E2B2C939FBF06C08FB7F894E8812E2B2E
:1022E00028838FBFDF91CF910895CF93DF93823002
:1022F00028F09091670598609093670580936B052F
:1023000010926C0580E480936D0580E180936E05EA
:1023100080E580936F0561E080915C050E94391132
:1023200080915D058F3F19F061E00E94391161E0F5
:1023300080915E050E943911C8E5D5E09E012855BF
:1023400035408091670584FD03C084E090E002C0C1
:1023500088E090E02196281739072CF461E08E81FF
:102360000E943911EBCF8BE39DE00197F1F760E01C
:1023700080915C050E940A1160E080915E050E94D8
:102380000A1180915D058F3F19F060E00E940A11EB
:102390008091670584FD20C063E088E595E00E9498
:1023A0004D07CBE4D6E4CE010197F1F763E088E571
:1023B00095E00E944D072197F1F763E088E595E0ED
:1023C0000E944D0783E592E00197F1F762E088E50E
:1023D00095E00E944D0715C080620E9403108BE4B7
:1023E00096E40197F1F78091670580620E940310DF
:1023F00083E592E00197F1F78091670580620E9482
:1024000003108091670580620E94031084E080932E
:1024100068058CE00E9403100E947E1082E0809389
:10242000690586E0DF91CF910C9403101F93CF9341
:10243000DF93182FEB0161E00E943911209711F40E
:1024400060E004C0CF3FD10539F461E0812FDF9116
:10245000CF911F910C940A11E12FF0E0E75FFE4F3E
:10246000E491E330F9F048F4E130B9F0E230A1F55D
:1024700084B5806284BDC8BD34C0E730E9F0E8307F
:1024800019F1E43049F580918000806280938000EA
:10249000D0938B00C0938A0024C084B5806884BD2B
:1024A000C7BD1FC080918000806880938000D0935A
:1024B0008900C093880015C08091B0008068809327
:1024C000B000C093B3000DC08091B00080628093D3
:1024D000B000C093B40005C0C038D1050CF0B5CF32
:1024E000AFCFDF91CF911F9108958E3008F08E50BD
:1024F0008770806480937C0080917A0080648093F0
:102500007A0080917A0086FDFCCF8091780020913E
:10251000790090E0922B08958F929F92AF92BF9294
:10252000CF92DF92EF92FF926B017C010E94DE0F4F
:102530004B015C01C114D104E104F104F1F00E94EB
:10254000DE0FDC01CB0188199909AA09BB09883E75
:102550009340A105B10570F321E0C21AD108E1084A
:10256000F10888EE880E83E0981EA11CB11CC114EE
:10257000D104E104F10419F7DDCFFF90EF90DF9073
:10258000CF90BF90AF909F908F9008952FB7F89401
:102590006091230470912404809125049091260475
:1025A0002FBF08954F925F926F927F928F929F926A
:1025B000AF92BF92CF92DF92EF92FF920F931F9351
:1025C000CF93DF93CDB7DEB74C01DC015F965C9310
:1025D0004E935E975D967C936E935C9791963C9339
:1025E0002E939097DA961C92FC0112AA13AA14AAB1
:1025F00015AA80E090E0AFE7B3E486AB97ABA0AF5D
:10260000B1AF84E690E0A0E0B0E086A797A7A0ABCA
:10261000B1AB118E108E20E030E0A901C801B701E6
:102620000E94392C87FD56C020E030E0A901C60188
:10263000B5010E94392C87FD4DC020E030E0A90192
:102640006B897C898D899E890E94392C87FD42C0C7
:1026500081E090E0D4015B969C938E935A97DB9631
:102660008C93DB97F401E082F1820283138314964A
:10267000AD92BD92CD92DC9217978B899C89AD89E2
:10268000BE8980879187A287B387D4011C96ED927B
:10269000FD920D931C931F972DEC3CEC4CEC5DE3ED
:1026A000C601B5010E94E62DF401608B718B828B0F
:1026B000938B2DEC3CEC4CEC5DE36B897C898D8934
:1026C0009E890E943E2CD40154966D937D938D93E8
:1026D0009C9357970E94C612F401C6A4D7A4E0A801
:1026E000F1A8DC01CB018C199D09AE09BF0982A3B9
:1026F00093A3A4A3B5A3DF91CF911F910F91FF9056
:10270000EF90DF90CF90BF90AF909F908F907F9091
:102710006F905F904F9008951F920F920FB60F9297
:1027200011242F933F938F939F93AF93BF938091E7
:10273000230490912404A0912504B09126043091A3
:10274000700523E0230F2D3720F40196A11DB11D44
:1027500005C026E8230F0296A11DB11D2093700528
:102760008093230490932404A0932504B09326041B
:102770008091270490912804A0912904B0912A0403
:102780000196A11DB11D8093270490932804A09366
:102790002904B0932A04BF91AF919F918F913F91EB
:1027A0002F910F900FBE0F901F901895CF93DF932E
:1027B000CDB7DEB7C054D1090FB6F894DEBF0FBE57
:1027C000CDBF789484B5826084BD84B5816084BDBA
:1027D00085B5826085BD85B5816085BD80916E00BF
:1027E000816080936E0010928100809181008260F0
:1027F000809381008091810081608093810080912D
:1028000080008160809380008091B100846080931B
:10281000B1008091B00081608093B00080917A0017
:10282000846080937A0080917A00826080937A003D
:1028300080917A00816080937A0080917A0080682C
:1028400080937A001092C1000E94A30D70E4272E9D
:10285000312C82E10E9475128C01C090BD03D09092
:10286000BE03E090BF03F090C00320E030E04EE7ED
:1028700053E4C701B6010E943E2C9B01AC01C70185
:10288000B6010E94CC2B6B017C01B801110F880BA3
:10289000990B0E94E12C9B01AC01C701B6010E947B
:1028A000CD2B6093BD037093BE038093BF039093C1
:1028B000C00320E030E04EE753E40E943E2C6093DA
:1028C000FF0370930004809301049093020485E158
:1028D0000E9475128C01C090B903D090BA03E090A9
:1028E000BB03F090BC0320E030E04EE753E4C701A7
:1028F000B6010E943E2C9B01AC01C701B6010E94AB
:10290000CC2B6B017C01B801110F880B990B0E9435
:10291000E12C9B01AC01C701B6010E94CD2B609355
:10292000B9037093BA038093BB039093BC0320E078
:1029300030E04EE753E40E943E2C6093FB0370931B
:10294000FC038093FD039093FE038091AE038130DE
:1029500009F0FDC0C090A403D090A503E090A603A9
:10296000F090A70320E030E040E85EE3C701B60145
:102970000E94392C181684F080910501909106016F
:10298000A0910701B09108018093E7039093E803B9
:10299000A093E903B093EA0320E030E040E85EE36F
:1029A000C701B6010E94912D181684F4809101018F
:1029B00090910201A0910301B09104018093E7037B
:1029C0009093E803A093E903B093EA036091E703CF
:1029D0007091E8038091E9039091EA0360931005F8
:1029E00070931105809312059093130520E030E059
:1029F00040E251E40E94CC2B21966CAF7DAF8EAFAC
:102A00009FAF21974090B5035090B6036090B703F5
:102A10007090B803A30192010E94912D181674F5CD
:102A200061E08AE00E940A11A0903001B09031016B
:102A3000C0903201D0903301E0902C01F0902D0134
:102A400000912E0110912F01809137018F93809179
:102A500036018F93809135018F93809134018F934C
:102A600020E135E044E155E068E175E0CE010196F2
:102A70000E94D2120F900F900F900F90A30192011D
:102A800021966CAD7DAD8EAD9FAD21970E94392C06
:102A900087FF4EC180915605811104C08CE195E0FD
:102AA0000E94D30781E0809356054092180550920A
:102AB000190560921A0570921B058CE195E00E9441
:102AC000DD080E94C61200919A0310919B03209189
:102AD0009C0330919D03AB01BC01401B510B620B69
:102AE000730B493E53406105710570F0D901C8016F
:102AF00088519C4FAF4FBF4F80939A0390939B0395
:102B0000A0939C03B0939D030E94C61200919A0368
:102B100010919B0320919C0330919D03601B710BCE
:102B2000820B930B0E94DF2C209114053091150528
:102B300040911605509117050E94912D181614F416
:102B400060E001C061E08AE00E940A11F1C08111D9
:102B500007C01092560560E08AE00E940A1161C029
:102B60008A3009F05EC080915605811104C08CE165
:102B700095E00E94D30781E0809356058091010182
:102B800090910201A0910301B0910401809310057E
:102B900090931105A0931205B09313058091B5038E
:102BA0009091B603A091B703B091B8038093180534
:102BB00090931905A0931A05B0931B0580E090E04F
:102BC000A0E8BFE380932C0190932D01A0932E01E8
:102BD000B0932F0110923001109231011092320106
:102BE0001092330110923401109235011092360187
:102BF00010923701C12CD12C760197018601AC01CE
:102C0000BD018CE195E00E9419088CE08093AE0331
:102C100080910504909106044E969093C40380938E
:102C2000C3038091AE038C3009F082C00E94070B71
:102C30008091C3039091C403A0E0B0E040910504EB
:102C40005091060460910704709108048417950759
:102C5000A607B70708F023C18090B5039090B6038C
:102C6000A090B703B090B80320E030E040E251E418
:102C70006091010170910201809103019091040122
:102C80000E94CC2BA50194010E94912D181664F589
:102C900020E030E040E85FE360912C0170912D016D
:102CA00080912E0190912F010E94CD2BAB01BC0190
:102CB00040932C0150932D0160932E0170932F01AE
:102CC000C0903401D0903501E0903601F09037018A
:102CD0000091300110913101209132013091330186
:102CE0008CE195E00E94190820E030E040E251E4D8
:102CF00060910101709102018091030190910401A2
:102D00000E94CC2B9B01AC01C501B4010E94912D06
:102D100018162CF48EE08093AE030E94370D80913C
:102D20000504909106044E969093C4038093C303C8
:102D30008091AE038E3009F0B2C00E94070B8091E3
:102D4000C3039091C403A0E0B0E04091050450910A
:102D50000604609107047091080484179507A6077C
:102D6000B70708F09CC08090B5039090B603A09080
:102D7000B703B090B8032091010130910201409156
:102D8000030150910401C501B4010E94392C87FF51
:102D90002CC02DEC3CEC4CEC5DE36091300170916B
:102DA000310180913201909133010E94CD2B8B0132
:102DB0009C016093300170933101809332019093B4
:102DC0003301C0903401D0903501E0903601F0908D
:102DD000370140912C0150912D0160912E0170918D
:102DE0002F018CE195E00E9419082091010130919A
:102DF00002014091030150910401C501B4010E94F8
:102E0000912D87FD43C01092560560E08AE00E9434
:102E10000A1180E090E0A8ECB2E480933401909332
:102E20003501A0933601B093370120E030E040EC4B
:102E30005FE360912C0170912D0180912E019091A2
:102E40002F010E94E62D60932C0170932D01809339
:102E50002E0190932F0120E030E040EC5FE3609181
:102E600030017091310180913201909133010E94C3
:102E7000E62D60933001709331018093320190937D
:102E8000330180E18093AE030E94370D80910504E9
:102E9000909106044E969093C4038093C30380914F
:102EA000AC03882309F43DC0813009F03EC0C090D6
:102EB000B103D090B203E090B303F090B40320E0EC
:102EC00030E040E251E4609114017091150180916D
:102ED0001601909117010E94CC2BA70196010E9428
:102EE000912D181624F461E08BE00E940A1120E075
:102EF00030E040E251E4609114017091150180913D
:102F00001601909117010E94CC2B9B01AC01C701C7
:102F1000B6010E94912D18160CF0E2C084E1809356
:102F2000AC0360E08BE00E940A118091AC03843115
:102F300009F075C080910E05811104C084ED94E004
:102F40000E94D30781E080930E0580911401909137
:102F50001501A0911601B09117018093C8049093B8
:102F6000C904A093CA04B093CB048091B10390919B
:102F7000B203A091B303B091B4038093D0049093B3
:102F8000D104A093D204B093D30484ED94E00E94C2
:102F9000DD080E94C61200919E0310919F032091AC
:102FA000A0033091A103AB01BC01401B510B620B8C
:102FB000730B493E53406105710570F0D901C8019A
:102FC00088519C4FAF4FBF4F80939E0390939F03B8
:102FD000A093A003B093A1030E94C61200919E0388
:102FE00010919F032091A0033091A103601B710BEE
:102FF000820B930B0E94DF2C2091CC043091CD04E6
:103000004091CE045091CF040E94912D181614F4D3
:1030100060E001C061E08BE00E940A11E8C08A30E4
:1030200009F05EC080910E05811104C084ED94E02A
:103030000E94D30781E080930E0580911401909146
:103040001501A0911601B09117018093C8049093C7
:10305000C904A093CA04B093CB048091B1039091AA
:10306000B203A091B303B091B4038093D0049093C2
:10307000D104A093D204B093D30480E090E0A0E800
:10308000BFE38093200190932101A0932201B0938C
:103090002301109224011092250110922601109212
:1030A0002701109228011092290110922A011092F2
:1030B0002B01C12CD12C760197018601AC01BD01F9
:1030C00084ED94E00E9419088CE08093AC03809119
:1030D0000504909106044E969093C2038093C10319
:1030E0008091AC038C3009F082C00E948A0A8091E2
:1030F000C1039091C203A0E0B0E04091050450915B
:103100000604609107047091080484179507A607C8
:10311000B70708F023C18090B1039090B203A0904C
:10312000B303B090B40320E030E040E251E460919A
:1031300014017091150180911601909117010E9460
:10314000CC2BA50194010E94912D181664F520E066
:1031500030E040E85FE360912001709121018091AF
:103160002201909123010E94CD2BAB01BC01409321
:103170002001509321016093220170932301C0909C
:103180002801D0902901E0902A01F0902B010091B4
:10319000240110912501209126013091270184ED11
:1031A00094E00E94190820E030E040E251E4609190
:1031B00014017091150180911601909117010E94E0
:1031C000CC2B9B01AC01C501B4010E94912D1816B6
:1031D0002CF48EE08093AC030E94370D809105049F
:1031E000909106044E969093C2038093C103809100
:1031F000AC038E3009F0B2C00E948A0A8091C103EC
:103200009091C203A0E0B0E0409105045091060403
:10321000609107047091080484179507A607B70703
:1032200008F09CC08090B1039090B203A090B303CB
:10323000B090B40320911401309115014091160112
:1032400050911701C501B4010E94392C87FF2CC091
:103250002DEC3CEC4CEC5DE3609124017091250178
:1032600080912601909127010E94CD2B8B019C011A
:103270006093240170932501809326019093270188
:10328000C0902801D0902901E0902A01F0902B01F4
:103290004091200150912101609122017091230100
:1032A00084ED94E00E9419082091140130911501D9
:1032B0004091160150911701C501B4010E94912D52
:1032C00087FD43C010920E0560E08BE00E940A115A
:1032D00080E18093AC0380E090E0A8ECB2E48093BE
:1032E000280190932901A0932A01B0932B0120E09B
:1032F00030E040EC5FE3609120017091210180910A
:103300002201909123010E94E62D60932001709389
:103310002101809322019093230120E030E040ECD2
:103320005FE36091240170912501809126019091C5
:1033300027010E94E62D609324017093250180935C
:103340002601909327010E94370D809105049091EA
:1033500006044E969093C2038093C1030E94C61246
:1033600028EE33E040E050E00E948D2E2AE030E06D
:1033700040E050E00E948D2E80910C0490910D044D
:10338000A0910E04B0910F04281739074A075B0774
:1033900009F402C120930C0430930D0440930E04F1
:1033A00050930F0480910B048F5F80930B048EE089
:1033B0000E9475122091C603222341F02091C6037A
:1033C000213009F08BC004E110E029C08932910559
:1033D000ACF32091000123502F3008F42FE020930C
:1033E000000121E02093C6031092C5031092C80388
:1033F0001092C7031092CA031092C9031092CC0313
:103400001092CB031092CE031092CD031092D003F2
:103410001092CF031092D2031092D103CFCF8EE03F
:103420000E9475128436910514F41092C6039C0113
:103430002B5D32402B33310550F42091C90330917C
:10344000CA032F5F3F4F3093CA032093C9039C01E7
:103450002B5332402133310550F42091CB0330916E
:10346000CC032F5F3F4F3093CC032093CB039C01C1
:10347000255A31402232310550F42091CD0330914C
:10348000CE032F5F3F4F3093CE032093CD039C019B
:10349000255031402534310550F42091CF0330912F
:1034A000D0032F5F3F4F3093D0032093CF039C0175
:1034B0002D5831092D31310550F42091D10330912F
:1034C000D2032F5F3F4F3093D2032093D10301509B
:1034D000110909F0A4CF24E02093C6032091C6036C
:1034E000243031F02091C603263009F050C044C08A
:1034F0002091A2033091A303E7ECF3E040E050E019
:10350000A191B1914F5F5F4F60817181A617B7079D
:1035100024F045305105A1F702C09A01FACF30934B
:10352000A3032093A20346E04093C603220F331F58
:10353000F901E953FC4F208131812431310591F2A9
:1035400021E02093C6031092C8031092C703109283
:10355000CA031092C9031092CC031092CB031092AD
:10356000CE031092CD031092D0031092CF0310928D
:10357000D2031092D103B6CF2091C5032F5F2093C1
:10358000C50330910001231710F01092C6038897ED
:103590001CF488E28093000180910B048A3010F4BF
:1035A0000C94222710920B0480910A048F5F809361
:1035B0000A048091A9039091AA038233910509F42A
:1035C000B9C70CF0A8C08A30910509F427C40CF0E3
:1035D0008BC08530910509F493C344F4892B11F015
:1035E0000C9402250E94740B0C94FE2486309105E5
:1035F00009F4DCC3089711F00C94022560E080E028
:103600000E9486106091C9037091CA0388E595E015
:103610000E94981063E172E088E595E00E94F3064D
:103620006091CB037091CC0388E595E00E949810DF
:1036300063E172E088E595E00E94F3066091CD03B6
:103640007091CE0388E595E00E94981063E172E0E6
:1036500088E595E00E94F3066091CF037091D00356
:1036600088E595E00E94981063E172E088E595E0B6
:103670000E94F3066091D1037091D20388E595E032
:103680000E94981061E080E00E9486106091A20381
:103690007091A30388E595E00E94981068E272E0BB
:1036A00088E595E00E94F3068EE00E947512BC0149
:1036B00088E595E00E94981068E272E088E595E060
:1036C0000E94F3064091C60350E060E070E02AE0FB
:1036D00088E595E00E94CE0565E172E088E595E019
:1036E0000E94F3060C9402258E31910509F461C500
:1036F0004CF48F30910509F411C4449709F48CC43B
:103700000C9402258332910509F4FCC5889709F4CD
:1037100081C60C9402258134910599F1CCF48E3345
:10372000910511F40C94BE232CF4CC9709F48EC7A8
:103730000C9402258F33910511F40C947D24803470
:10374000910511F00C9402250E94710C0C94FE243A
:103750008F35910509F4C6C154F48634910509F4F6
:10376000A4C08035910509F427C10C940225843644
:10377000910509F435C28F3F910509F498C30C9463
:10378000022560E080E00E94861068E571E088E52F
:1037900095E00E94F30661E080E00E9486106EE7EB
:1037A00072E088E595E00E94F3064091280150916F
:1037B000290160912A0170912B0122E030E088E517
:1037C00095E00E94170663E972E088E595E00E94A3
:1037D000F3068091A2039091A3038130910509F42F
:1037E000F6C28530910519F4A6E4B0E0DAC682305D
:1037F000910549F520E030E040E251E46091280174
:103800007091290180912A0190912B010E94CC2B6B
:103810006B017C0120E030E0A9010E94392C87FD7A
:1038200009C0C0922801D0922901E0922A01F092A9
:103830002B0119C1109228011092290110922A011E
:1038400010922B0110C1049711F00C94FE2420E07B
:1038500030E040E251E460912801709129018091AB
:103860002A0190912B010E94CD2B6B017C0160936A
:1038700028017093290180932A0190932B010091D4
:1038800024011091250120912601309127014091BA
:10389000200150912101609122017091230184ED5A
:1038A00094E00E9419080C94FE2460E080E00E94DD
:1038B000861062E671E088E595E00E94F30661E01B
:1038C00080E00E9486106EE772E088E595E00E9435
:1038D000F3064091240150912501609126017091D9
:1038E000270122E030E088E595E00E94170663E9B1
:1038F00072E088E595E00E94F3068091A203909122
:10390000A3038130910519F481E490E0EAC7853082
:10391000910509F430C18230910549F52DEC3CEC5C
:103920004CEC5DE3609124017091250180912601AA
:10393000909127010E94CC2B6B017C0120E030E0AC
:10394000A9010E94392C87FD09C0C0922401D092A0
:103950002501E0922601F092270185C010922401F2
:103960001092250110922601109227017CC0049725
:1039700011F00C94FE242DEC3CEC4CEC5DE36091DA
:1039800024017091250180912601909127010E94C8
:10399000CD2B8B019C0160932401709325018093B2
:1039A000260190932701C0902801D0902901E09032
:1039B0002A01F0902B016BCF60E080E00E9486101E
:1039C0006CE671E088E595E00E94F30661E080E036
:1039D0000E9486106EE772E088E595E00E94F3068B
:1039E00040912001509121016091220170912301A9
:1039F00022E030E088E595E00E94170663E972E076
:103A000088E595E00E94F3068091A2039091A303BC
:103A10008230910589F520E030E040E85FE3609175
:103A200020017091210180912201909123010E9437
:103A3000CC2B6B017C0120E030E0A9010E94392CE5
:103A400087FD09C0C0922001D0922101E09222019D
:103A5000F092230108C010922001109221011092CF
:103A6000220110922301C0902801D0902901E090FA
:103A70002A01F0902B0103CF8430910549F520E015
:103A800030E040E85FE36091200170912101809176
:103A90002201909123010E94CD2BAB01BC014093E8
:103AA0002001509321016093220170932301C09063
:103AB0002801D0902901E0902A01F0902B0100917B
:103AC0002401109125012091260130912701E7CE94
:103AD0008130910509F488CE059709F08FC78FE5ED
:103AE00090E0FFC660E080E00E94861066E771E02B
:103AF00088E595E00E94F30661E080E00E94861070
:103B00006EE772E088E595E00E94F30640911401AB
:103B100050911501609116017091170120E030E07D
:103B200088E595E00E94170663E972E088E595E074
:103B30000E94F30667E871E088E595E00E94F306CD
:103B40004091B1035091B2036091B3037091B403FB
:103B500020E030E088E595E00E94170669E871E012
:103B600088E595E00E94F3068091A2039091A3035B
:103B70008130910519F480E590E0B3C6823091055B
:103B800079F420E030E040E85FE360911401709147
:103B9000150180911601909117010E94CC2B11C044
:103BA00084309105B9F420E030E040E85FE36091B3
:103BB00014017091150180911601909117010E94D6
:103BC000CD2B60931401709315018093160190938F
:103BD000170114C7059709F011C784E690E081C664
:103BE00060E080E00E9486106BE871E088E595E077
:103BF0000E94F3064091B1035091B2036091B30368
:103C00007091B40320E030E088E595E00E9417064B
:103C100063E972E088E595E00E94F3068091AC03C9
:103C20008823A1F040911401509115016091160173
:103C30007091170120E030E088E595E00E941706BA
:103C400063E272E088E595E00E94F3068091AC03A0
:103C5000811106C06FE871E088E595E00E94F306E7
:103C600060E08FE00E9486108BE00E94E1100197D7
:103C700031F464E971E088E595E00E94F3068BE099
:103C80000E94E110892B31F468E272E088E595E04A
:103C90000E94F30668E272E088E595E00E94F30670
:103CA00061E080E00E94861066E971E088E595E0B9
:103CB0000E94F3068091A2039091A30382309105A4
:103CC00011F460E004C08430910529F461E08CE0D7
:103CD0000E940A1193C68330910551F48091AC0380
:103CE0008F5F823010F40C948A2A1092AC0386C63F
:103CF0008130910509F4F3CE059709F4D8C07EC64A
:103D000060E080E00E9486106EE971E088E595E051
:103D10000E94F3064091AB0350E060E070E02AE0BF
:103D200088E595E00E94CE0561E080E00E94861063
:103D30008091AB03813031F465EA71E088E595E06C
:103D40000E94F3068091AB03823031F463EB71E0A3
:103D500088E595E00E94F3068091AB03833031F44F
:103D600061EC71E088E595E00E94F3068091AB0379
:103D7000843031F46FEC71E088E595E00E94F30641
:103D80008091AB03853031F46DED71E088E595E00D
:103D90000E94F3068091AB03863009F02FC668EECF
:103DA00071E088E595E00E94F30628C660E080E0B7
:103DB0000E94861063EF71E088E595E00E94F306AB
:103DC0008091A2039091A3038530910529F430924C
:103DD000AA032092A90312C6039709F00FC6E12C8B
:103DE000F12C6FEFC7010E94BE2BBFEFEB1AFB0A4D
:103DF0002FEFE21621E0F206A1F761E080E00E94D9
:103E0000861066E072E088E595E00E94F30668E2BD
:103E100073E280E090E00E948C12F0C560E080E0E8
:103E20000E94861060E372E088E595E00E94F30648
:103E300061E080E00E9486106EE772E088E595E020
:103E40000E94F3064091010150910201609103012B
:103E50007091040120E030E088E595E00E941706AB
:103E600063E972E088E595E00E94F30667E871E097
:103E700088E595E00E94F3064091B5035091B603A2
:103E80006091B7037091B80320E030E088E595E0D9
:103E90000E94170669E871E088E595E00E94F30644
:103EA0008091A2039091A3038130910529F410928F
:103EB000AA031092A903A2C58230910579F420E0EB
:103EC00030E040E85FE36091010170910201809170
:103ED0000301909104010E94CC2B11C08430910504
:103EE000B9F420E030E040E85FE3609101017091B7
:103EF000020180910301909104010E94CD2B6093F7
:103F0000010170930201809303019093040176C52F
:103F1000059709F073C58FE090E0E3C460E080E0AE
:103F20000E9486106AE272E088E595E00E94F3063E
:103F300061E080E00E9486106EE772E088E595E01F
:103F40000E94F3064091050150910601609107011E
:103F50007091080120E030E088E595E00E941706A6
:103F600063E972E088E595E00E94F30667E871E096
:103F700088E595E00E94F3064091B5035091B603A1
:103F80006091B7037091B80320E030E088E595E0D8
:103F90000E94170669E871E088E595E00E94F30643
:103FA0008091A2039091A3038130910519F48AE0D6
:103FB00090E097C48230910579F420E030E040E849
:103FC0005FE3609105017091060180910701909176
:103FD00008010E94CC2B11C084309105B9F420E077
:103FE00030E040E85FE36091050170910601809147
:103FF0000701909108010E94CD2B609305017093F9
:1040000006018093070190930801F8C4059709F011
:10401000F5C484E190E065C460E080E00E94861011
:104020006BE372E088E595E00E94F30660E089E0CA
:104030000E94861080910A01813031F464E472E0BC
:1040400088E595E00E94F30680910A01811106C07F
:104050006BE472E088E595E00E94F30661E080E0A1
:104060000E9486106EE772E088E595E00E94F306F4
:1040700060910D0170910E0188E595E00E94981005
:1040800062E572E088E595E00E94F3068091AF0357
:104090009091B003892B71F44091DD035091DE03C0
:1040A0006091DF037091E00322E030E088E595E065
:1040B0000E9417066091AF037091B003CB01019786
:1040C0000397C0F4072E000C880B990B0E94E12C7B
:1040D0002091DD033091DE034091DF035091E00336
:1040E0000E94E62DAB01BC0122E030E088E595E0BE
:1040F0000E94170665E572E088E595E00E94F306E8
:104100008091A2039091A3038130910519F48FE06F
:1041100090E035C082309105A1F4809113014AE00E
:10412000849FC001112454E0959587955A95E1F735
:1041300020910D0130910E01D901A81BB90BCD01C1
:1041400014C084309105B1F480911301BAE08B9FC3
:10415000C001112444E0959587954A95E1F7209197
:104160000D0130910E01820F931F90930E018093E9
:104170000D0116C08530910539F48EE190E09093E1
:10418000AA038093A9030CC0039751F480910A01FC
:10419000811104C081E080930A0102C010920A01DB
:1041A00080910A01823008F429C481E080930A01D9
:1041B00025C460E080E00E9486106BE572E088E52F
:1041C00095E00E94F30660E089E00E9486108091ED
:1041D0001301803131F463E672E088E595E00E94D6
:1041E000F30680911301803231F46BE672E088E5CA
:1041F00095E00E94F30661E080E00E9486106EE781
:1042000072E088E595E00E94F30660910B017091E1
:104210000C0188E595E00E94981062E572E088E55F
:1042200095E00E94F30660910B0170910C01072E3E
:10423000000C880B990B0E94E12C20910F0130910A
:10424000100140911101509112010E943E2C20E07A
:1042500030E040E051E40E94E62DAB01BC01409308
:10426000DD035093DE036093DF037093E00322E0ED
:1042700030E088E595E00E94170665E572E088E584
:1042800095E00E94F3068091A2039091A3038130F0
:10429000910519F484E190E005C08530910539F469
:1042A00083E290E09093AA038093A90321C0823017
:1042B000910531F480910B0190910C010A9708C08F
:1042C0008430910551F480910B0190910C010A9674
:1042D00090930C0180930B010BC0039749F48091DC
:1042E0001301803211F480E101C080E28093130158
:1042F0008091130181508E3F08F480C380E1809348
:1043000013017CC360E080E00E94861063E772E0E6
:1043100088E595E00E94F3066CE772E088E595E099
:104320000E94F3068091AD03811106C060E872E03F
:1043300088E595E00E94F3068091AD03813031F469
:1043400064E872E088E595E00E94F30663E972E0B4
:1043500088E595E00E94F30661E080E00E94861007
:1043600068E872E088E595E00E94F30662E972E091
:1043700088E595E00E94F30660911801709119019B
:1043800088E595E00E9498106EE772E088E595E078
:104390000E94F3068091A2039091A30381309105BE
:1043A00019F48EE190E09DC28530910539F448E220
:1043B00050E05093AA034093A90320C38230910593
:1043C00019F41092AD031AC38430910521F481E0F1
:1043D0008093AD0313C3039709F010C380911801B4
:1043E00090911901883C910559F08C3251E0950764
:1043F00051F08436910509F001C388EC90E005C0C6
:104400008CE291E002C084E690E0909319018093E1
:104410001801F4C260E080E00E94861065E972E055
:1044200088E595E00E94F30661E080E00E94861036
:104430006EE772E088E595E00E94F30640912C015A
:1044400050912D0160912E0170912F0122E030E0FA
:1044500088E595E00E94170663E972E088E595E03B
:104460000E94F3068091A2039091A30381309105ED
:1044700019F483E290E035C28530910509F415C145
:104480008230910549F520E030E040E85FE360913B
:104490002C0170912D0180912E0190912F010E948D
:1044A000CC2B6B017C0120E030E0A9010E94392C6B
:1044B00087FD09C0C0922C01D0922D01E0922E01FF
:1044C000F0922F0120C110922C0110922D01109218
:1044D0002E0110922F0117C1049709F08FC220E01E
:1044E00030E040E85FE360912C0170912D018091F4
:1044F0002E0190912F010E94CD2BAB01BC01409366
:104500002C0150932D0160932E0170932F01C090C8
:104510003401D0903501E0903601F09037010091E0
:1045200030011091310120913201309133018CE141
:1045300095E0B7C960E080E00E9486106EE972E005
:1045400088E595E00E94F30661E080E00E94861015
:104550006EE772E088E595E00E94F3064091300135
:1045600050913101609132017091330122E030E0CD
:1045700088E595E00E94170663E972E088E595E01A
:104580000E94F3068091A2039091A30381309105CC
:1045900019F488E290E0A5C18530910539F4ACE3C7
:1045A000B0E0B093AA03A093A90328C2823091057A
:1045B00049F52DEC3CEC4CEC5DE3609130017091E1
:1045C000310180913201909133010E94CC2B6B011B
:1045D0007C0120E030E0A9010E94392C87FD09C050
:1045E000C0923001D0923101E0923201F092330159
:1045F0008AC0109230011092310110923201109253
:10460000330181C0049709F0F9C12DEC3CEC4CEC6E
:104610005DE36091300170913101809132019091A0
:1046200033010E94CD2B8B019C016093300170936C
:1046300031018093320190933301C0903401D090C6
:104640003501E0903601F090370189C060E080E0EC
:104650000E94861067EA72E088E595E00E94F30602
:1046600061E080E00E9486106EE772E088E595E0E8
:104670000E94F3064091340150913501609136015A
:104680007091370122E030E088E595E00E9417063E
:1046900063E972E088E595E00E94F3068091A20349
:1046A0009091A3038130910519F482E390E019C140
:1046B0008230910589F520E030E040E251E46091DC
:1046C00034017091350180913601909137010E943B
:1046D000CC2B6B017C0120E030E0A9010E94392C39
:1046E00087FD09C0C0923401D0923501E0923601B5
:1046F000F092370108C010923401109235011092E7
:10470000360110923701C0903401D0903501E0900D
:104710003601F09037011BC08430910549F520E047
:1047200030E040E251E460913401709135018091B4
:104730003601909137010E94CD2B6B017C01609373
:1047400034017093350180933601909337010091C5
:1047500030011091310120913201309133014091AB
:104760002C0150912D0160912E0170912F01DFCE0F
:10477000059709F043C18EE390E0B3C060E080E0AC
:104780000E9486108091AE03823030F460EB72E0BC
:1047900088E595E00E94F3068091AE038C3031F4F9
:1047A0006FEB72E088E595E00E94F3068091AE031E
:1047B0008E3031F460ED72E088E595E00E94F306FA
:1047C0008091AE03803131F463EE72E088E595E0CC
:1047D0000E94F30660E08FE00E9486108AE00E944B
:1047E000E110019731F464E971E088E595E00E94F9
:1047F000F3068AE00E94E110892B31F468E272E04E
:1048000088E595E00E94F30661E080E00E94861052
:104810008091AE038E3001F563EF72E088E595E09C
:104820000E94F30660912C0170912D0180912E0160
:1048300090912F019B01AC010E94CD2BAB01BC01DB
:1048400020E030E088E595E00E94170668E272E01B
:1048500088E595E00E94F3068091AE038031A1F5D2
:1048600063EF72E088E595E00E94F30640912C0129
:1048700050912D0160912E0170912F0120E030E0C8
:1048800088E595E00E94170668E272E088E595E009
:104890000E94F30667EF72E088E595E00E94F30658
:1048A000409130015091310160913201709133019A
:1048B00022E030E088E595E00E94170668E272E0A9
:1048C00088E595E00E94F3068091A2039091A303EE
:1048D0008130910509F463CE8530910539F48FE379
:1048E00090E09093AA038093A90388C0039709F0EE
:1048F00085C08AE08093AE0381C060E080E00E94C2
:1049000086106BEF72E088E595E00E94F306409117
:10491000090150E060E070E02AE088E595E00E943F
:10492000CE0562E572E088E595E00E94F30661E05D
:1049300080E00E94861065E073E088E595E00E94C3
:10494000F3068091A803811106C06CE073E088E54E
:1049500095E00E94F3068091A803813031F464E170
:1049600073E088E595E00E94F3066CE173E088E56A
:1049700095E00E94F3068091A2039091A303039710
:1049800071F41092A3031092A2038091A8038111E5
:1049900004C081E08093A80302C01092A803209174
:1049A000A2033091A3032130310539F48EE390E066
:1049B0009093AA038093A9030DC08091090122302E
:1049C000310511F4815004C02430310519F48F5F92
:1049D0008093090180910901811103C081E08093D6
:1049E0000901809109018F3F19F48EEF809309012D
:1049F0006091090170E089E00E9416121092A303F1
:104A00001092A2032091D7033091D8038091A9037B
:104A10009091AA032817390781F01092A3031092EE
:104A2000A2030E947E100E94370D8091A9039091ED
:104A3000AA039093D8038093D703E090AF03F0903C
:104A4000B003E114F10451F480E10E94B10244EF9B
:104A500051E05093DC034093DB0321C05CEFE5168B
:104A60005FEFF50631F460E081E10E940A1161E038
:104A700009C084E0E816F10491F460E081E10E944D
:104A80000A1160E08FE00E940A1160910B017091A1
:104A90000C0120E030E0A90180E10E943803809100
:104AA0000A0181113EC0C70101970397D0F461E06C
:104AB00081E10E940A1160E070E08FE00E9416120E
:104AC00080910D0190910E01E89EB001E99E700D5C
:104AD000F89E700D112420E030E0A90180E10E94D1
:104AE0003803C70103960397E0F461E081E10E9477
:104AF0000A1161E08FE00E940A1180910D019091EE
:104B00000E01E89EB001E99E700DF89E700D112413
:104B100071956195710920E030E0A90180E10E9462
:104B2000380380910A01813009F0BAC0C7010197AA
:104B3000039708F055C061E081E10E940A1160E02E
:104B40008FE00E940A118091DB039091DC03409179
:104B50000D0150910E01E49E9001E59E300DF49EF2
:104B6000300D1124AC01421B530B4536510534F076
:104B7000845691099093DC038093DB038091DB03DF
:104B80009091DC03A901481B590B4536510534F0BF
:104B90008C599F4F9093DC038093DB038091DB0360
:104BA0009091DC03821793072CF40A969093DC0310
:104BB0008093DB038091DB039091DC032817390796
:104BC0002CF40A979093DC038093DB036091DB0362
:104BD0007091DC0320E030E0A90180E10E943803FD
:104BE000C7010396039708F05BC061E081E10E9472
:104BF0000A1161E08FE00E940A1120910D013091AD
:104C00000E01E29EC001E39E900DF29E900D1124D4
:104C10002091DB033091DC03AC01420F531F45367A
:104C2000510534F0245631093093DC032093DB0323
:104C30009195819591092091DB033091DC03AC01C2
:104C4000421B530B4536510534F02C593F4F3093DE
:104C5000DC032093DB032091DB033091DC03281776
:104C6000390734F4265F3F4F3093DC032093DB0396
:104C70002091DB033091DC038217930734F42A5030
:104C800031093093DC032093DB036091DB037091E7
:104C9000DC0320E030E0A90180E10E94380303C07A
:104CA000E114F10431F01092DA031092D90360E0BC
:104CB0000CC08091D9039091DA038037974140F07E
:104CC0001092DA031092D90361E087E00E940A1182
:104CD0008091D9039091DA0301969093DA0380933F
:104CE000D9038091A803813079F426E6822E982C8E
:104CF00028E1A22E22E4B22E412C38E3532E3BE0D1
:104D0000632E33E4732E0DC0812C912C88E1A82EE4
:104D100082E4B82E412C90E8592E97EF692E91E449
:104D2000792E6091130198EC699FB0011124072E30
:104D3000000C880B990B0E94E12CA30192010E94A8
:104D4000E62D2B013C01A5019401C501B4010E948F
:104D5000CD2B23EC35EF48E450E40E94E62D9B0177
:104D6000AC01C301B2010E943E2C4B015C01609377
:104D70000F017093100180931101909312016091C3
:104D80000D0170910E01072E000C880B990B0E94EB
:104D9000E12CA50194010E943E2C6093DD037093E9
:104DA000DE038093DF039093E0032091AE03213074
:104DB000B1F597012150310923303105D0F520E0BC
:104DC00030E040E251E40E943E2C20E030E04AE72F
:104DD00054E40E943E2C4B015C01B7010F2C000CE7
:104DE000880B990B0E94E12C9B01AC01C501B40119
:104DF0000E94E62D9B01AC016091A4037091A50374
:104E00008091A6039091A7030E94CD2B6093A403E9
:104E10007093A5038093A6039093A7030AC0211162
:104E200008C01092A4031092A5031092A60310923A
:104E3000A70383E10E94E110892B19F4EF2809F000
:104E40006CC3A89580910A048A3008F45FC38091EE
:104E500009048F5F8093090410920A0440910504AD
:104E60005091060460910704709108044F5F5F4FF2
:104E70006F4F7F4F409305045093060460930704DF
:104E8000709308048C3310F0109209044091B5031C
:104E90005091B6036091B7037091B80325E030E0FC
:104EA0008BE294E00E9417066FE173E08BE294E0DE
:104EB0000E94F3064091B1035091B2036091B30395
:104EC0007091B40325E030E08BE294E00E94170675
:104ED0006FE173E08BE294E00E94F30640912C01B5
:104EE00050912D0160912E0170912F0122E030E050
:104EF0008BE294E00E9417066FE173E08BE294E08E
:104F00000E94F306409130015091310160913201CD
:104F10007091330122E030E08BE294E00E941706AA
:104F20006FE173E08BE294E00E94F306409134015C
:104F300050913501609136017091370122E030E0E7
:104F40008BE294E00E9417066FE173E08BE294E03D
:104F50000E94F30666E070E08BE294E00E949810F5
:104F600061E273E08BE294E00E94B9052091FF03B7
:104F700030910004409101045091020460E070E01F
:104F800080E894E40E943E2C20E030E040E85FE3BB
:104F90000E94CC2B9B01AC0160E070E081E995E4BC
:104FA0000E943E2C20E030E543EC57E40E943E2C6A
:104FB0000E949E2D20E030EE46E755E40E943E2CF4
:104FC0002FE03FEC4BE55BE30E94CD2B9B01AC0156
:104FD00060E070E080E89FE30E943E2C23E333E929
:104FE00048E853E40E94CC2B2B013C016093B503AD
:104FF0007093B6038093B7039093B8032091FB039B
:105000003091FC034091FD035091FE0360E070E09D
:1050100080E894E40E943E2C20E030E040E85FE32A
:105020000E94CC2B9B01AC0160E070E081E995E42B
:105030000E943E2C20E030E543EC57E40E943E2CD9
:105040000E949E2D20E030EE46E755E40E943E2C63
:105050002FE03FEC4BE55BE30E94CD2B9B01AC01C5
:1050600060E070E080E89FE30E943E2C23E333E998
:1050700048E853E40E94CC2B6B017C016093B103A0
:105080007093B2038093B3039093B40380910304AD
:10509000909104040196909304048093030405976F
:1050A00004F12091F7033091F8034091F9035091F6
:1050B000FA03C701B6010E94CC2B6093F3037093EF
:1050C000F4038093F5039093F603C092F703D09214
:1050D000F803E092F903F092FA031092040410929C
:1050E000030480911E01813021F58090F30390909C
:1050F000F403A090F503B090F60320E030E0A9019E
:10510000C501B4010E94912D181644F4C0921A01F1
:10511000D0921B01E0921C01F0921D0120E030E0D2
:10512000A901C501B4010E94392C87FF2BC0109240
:105130001E0180911E01811125C08090F303909083
:10514000F403A090F503B090F60320E030E0A9014D
:10515000C501B4010E94392C87FF08C0C092EF033B
:10516000D092F003E092F103F092F20320E030E0FD
:10517000A901C501B4010E94912D18161CF481E00B
:1051800080931E018091AF039091B003892B29F089
:105190001092EE031092ED0311C08091AE038130A6
:1051A00069F48091ED039091EE0301969093EE03E4
:1051B0008093ED03813B944008F019C28091AC03C9
:1051C000813011F0843191F48091EB039091EC03E4
:1051D00001969093EC038093EB0381319E4030F075
:1051E0001092AC031092EC031092EB0320E030E03D
:1051F00045EA53E4C301B2010E94912D18165CF4F4
:1052000081E08093AB0385E090E09093AA038093C4
:10521000A9030E94440A20E030E045EA53E460918B
:10522000B1037091B2038091B3039091B4030E94D3
:10523000912D18165CF482E08093AB0385E090E03A
:105240009093AA038093A9030E94440A20E030E0CF
:1052500040EA51EC6091B5037091B6038091B703B9
:105260009091B8030E94392C87FF0FC08091AE0344
:10527000882359F083E08093AB0385E090E090931E
:10528000AA038093A9030E94440A20E030E040EA88
:1052900051EC6091B1037091B2038091B30390918E
:1052A000B4030E94392C87FF0FC08091AC03882380
:1052B00059F084E08093AB0385E090E09093AA03DB
:1052C0008093A9030E94440A8091AE03813009F0C3
:1052D0005BC0C090B503D090B603E090B703F090E8
:1052E000B80320E030E040EA51E46091E7037091B8
:1052F000E8038091E9039091EA030E94CC2BA70177
:1053000096010E94912D18160CF042C02091E303E3
:105310003091E4034091E5035091E603C701B601E3
:105320000E94912D181654F4C092E303D092E40326
:10533000E092E503F092E6031092E2032091E3038A
:105340003091E4034091E5035091E603C701B601B3
:105350000E94392C1816E4F08091E2038F5F80934D
:10536000E20390E0209118013091190128173907C4
:105370007CF40E94440A85E08093AB0385E090E0D2
:105380009093AA038093A9038091AE038823D1F060
:1053900020E030E040EA51E46091E7037091E803D7
:1053A0008091E9039091EA030E94CC2B2091B503F0
:1053B0003091B6034091B7035091B8030E94392C45
:1053C00087FF12C08091B5039091B603A091B703F7
:1053D000B091B8038093E3039093E403A093E503B3
:1053E000B093E6031092E2038091AC03813019F090
:1053F000843109F05BC0C090B103D090B203E0905B
:10540000B303F090B40320E030E040EA51E460914F
:1054100014017091150180911601909117010E945D
:10542000CC2BA70196010E94912D18160CF03EC0BE
:105430002091F7033091F8034091F9035091FA035A
:10544000C701B6010E94912D181654F4C092F703BB
:10545000D092F803E092F903F092FA031092E1037C
:105460002091F7033091F8034091F9035091FA032A
:10547000C701B6010E94392C1816C4F08091E103CF
:105480008F5F8093E10390E0209118013091190122
:10549000281739075CF40E94440A86E08093AB0326
:1054A00085E090E09093AA038093A9038091AC03D8
:1054B0008823D1F020E030E040EA51E46091E70336
:1054C0007091E8038091E9039091EA030E94CC2B4C
:1054D0002091B1033091B2034091B3035091B403D2
:1054E0000E94392C87FF12C08091B1039091B203C2
:1054F000A091B303B091B4038093F7039093F803A2
:10550000A093F903B093FA031092E1030E94BC0147
:105510000C9429148093AC0371CA1092B0031092BA
:10552000AF0380E10E94B10260E087E00E940A11AF
:1055300060E081E10E940A1126E930E040E050E09D
:1055400066E275E087E00E94380366E970E080E07B
:1055500090E00E948C122CE231E040E050E066E2E4
:1055600075E087E00E9438036CE271E080E090E033
:105570000E948C1226E930E040E050E066E275E0DF
:1055800087E00E9438036CE271E080E090E00E94C6
:105590008C1226E930E040E050E066E174E087E0FC
:1055A0000E94380366E970E080E090E00E948C126F
:1055B0002CE231E040E050E066E275E087E00E94D6
:1055C00038036CE271E080E090E00E948C1228E5E4
:1055D00032E040E050E060E276E087E00E9438038D
:1055E00068E572E080E090E00E948C122ACC109274
:1055F000AE031092EE031092ED038091AD03813063
:1056000009F0DCCD60E08DE00E940A11D7CDAF92A9
:10561000BF92CF92DF92EF92FF920F931F93EBE234
:10562000F4E01382128288EE93E0A0E0B0E084837D
:105630009583A683B7838EE391E09183808385EC85
:1056400090E09587848784EC90E09787868780EC4C
:1056500090E0918B808B81EC90E0938B828B82EC3D
:1056600090E0958B848B86EC90E0978B868B118EE7
:10567000128E138E148EE8E5F5E01382128280E517
:1056800091E09183808388E084838FEF858386E037
:10569000868382E0878383E0808784E0818785E05A
:1056A00082871386148615861686178681E00E94E7
:1056B0007511A0903001B0903101C0903201D090AE
:1056C0003301E0902C01F0902D0100912E011091FA
:1056D0002F01809137018F93809136018F938091B4
:1056E00035018F93809134018F9320E135E044E1BF
:1056F00055E068E175E08CE195E00E94D212A0903F
:105700002401B0902501C0902601D0902701E0909F
:105710002001F0902101009122011091230180913C
:105720002B018F9380912A018F93809129018F9370
:10573000809128018F9328EC34E04CEC54E060ED2C
:1057400074E084ED94E00E94D2128DB79EB7089663
:105750000FB6F8949EBF0FBE8DBF1F910F91FF90A3
:10576000EF90DF90CF90BF90AF900895F999FECF62
:1057700092BD81BDF89A992780B50895262FF99991
:10578000FECF1FBA92BD81BD20BD0FB6F894FA9A24
:10579000F99A0FBE019608955058BB27AA270E9478
:1057A000E42B0C94572D0E94492D38F00E94502D67
:1057B00020F039F49F3F19F426F40C94462D0EF492
:1057C000E095E7FB0C94402DE92F0E94682D58F3DB
:1057D000BA17620773078407950720F079F4A6F5D6
:1057E0000C948A2D0EF4E0950B2EBA2FA02D0B01F0
:1057F000B90190010C01CA01A0011124FF27591B16
:1058000099F0593F50F4503E68F11A16F040A22F1B
:10581000232F342F4427585FF3CF4695379527958C
:10582000A795F0405395C9F77EF41F16BA0B620B8B
:10583000730B840BBAF09150A1F0FF0FBB1F661FD2
:10584000771F881FC2F70EC0BA0F621F731F841F15
:1058500048F4879577956795B795F7959E3F08F03B
:10586000B0CF9395880F08F09927EE0F97958795FD
:1058700008950E941C2D08F481E008950E94522C86
:105880000C94572D0E94502D58F00E94492D40F045
:1058900029F45F3F29F00C94402D51110C948B2D6D
:1058A0000C94462D0E94682D68F39923B1F355237B
:1058B00091F3951B550BBB27AA2762177307840723
:1058C00038F09F5F5F4F220F331F441FAA1FA9F3B9
:1058D00035D00E2E3AF0E0E832D091505040E695A7
:1058E000001CCAF72BD0FE2F29D0660F771F881F08
:1058F000BB1F261737074807AB07B0E809F0BB0BFB
:10590000802DBF01FF2793585F4F3AF09E3F51050E
:1059100078F00C94402D0C948B2D5F3FE4F3983E6F
:10592000D4F3869577956795B795F7959F5FC9F7F7
:10593000880F911D9695879597F90895E1E0660F78
:10594000771F881FBB1F621773078407BA0720F0F1
:10595000621B730B840BBA0BEE1F88F7E09508955A
:105960000E94702D88F09F5798F0B92F9927B75152
:10597000B0F0E1F0660F771F881F991F1AF0BA95F3
:10598000C9F714C0B13091F00E948A2DB1E008959A
:105990000C948A2D672F782F8827B85F39F0B93F8C
:1059A000CCF3869577956795B395D9F73EF49095A6
:1059B0008095709561957F4F8F4F9F4F0895E89424
:1059C00009C097FB3EF490958095709561957F4F47
:1059D0008F4F9F4F9923A9F0F92F96E9BB279395F5
:1059E000F695879577956795B795F111F8CFFAF405
:1059F000BB0F11F460FF1BC06F5F7F4F8F4F9F4F36
:105A000016C0882311F096E911C0772321F09EE893
:105A1000872F762F05C0662371F096E8862F70E0F9
:105A200060E02AF09A95660F771F881FDAF7880FD3
:105A30009695879597F90895990F0008550FAA0B29
:105A4000E0E8FEEF16161706E807F907C0F0121691
:105A50001306E407F50798F0621B730B840B950B94
:105A600039F40A2661F0232B242B252B21F40895E9
:105A70000A2609F4A140A6958FEF811D811D089586
:105A800097F99F6780E870E060E008959FEF80ECF1
:105A9000089500240A941616170618060906089594
:105AA00000240A9412161306140605060895092EFA
:105AB0000394000C11F4882352F0BB0F40F4BF2B69
:105AC00011F460FF04C06F5F7F4F8F4F9F4F0895A9
:105AD00057FD9058440F551F59F05F3F71F047959F
