:100000000C9490000C94B8000C94B8000C94B800B8
:100010000C94B8000C94B8000C94B8000C94DC025A
:100020000C94B8000C94B8000C94B8000C94B80070
:100030000C94B8000C94B8000C94B8000C94B80060
:100040000C948C130C94B8000C941B070C94F506BC
:100050000C94B8000C94B8000C94B8000C94B80040
:100060000C94B8000C94B80008000000BE9224491B
:10007000123EABAAAA2ABECDCCCC4C3E00000080DA
:10008000BEABAAAAAA3E00000000BF000000803F4D
:100090000000000000084178D3BB4387D1133D190D
:1000A0000E3CC3BD4282AD2B3E68EC8276BED98F3A
:1000B000E1A93E4C80EFFFBE01C4FF7F3F0000007E
:1000C00000000200000000240027002A00000000B9
:1000D00000250028002B0000000000230026002936
:1000E00000040404040404040402020202020203E1
:1000F00003030303030102040810204080010204EB
:10010000081020010204081020000000080002016D
:1001100000000304070000000000000000002A2B7C
:1001200011241FBECFEFD8E0DEBFCDBF13E0A0E0AB
:10013000B1E0E0E3FEE502C005900D92AA3AB107F6
:10014000D9F725E0AAEAB3E001C01D92A837B207AB
:10015000E1F710E0C0E9D0E004C02197FE010E9461
:10016000FC2ECF38D107C9F70E94D6130C94162F56
:100170000C940000CF92DF92EF92FF920F931F93A7
:10018000CF93DF936C017A018B01C0E0D0E0CE15F4
:10019000DF0581F0D8016D918D01D601ED91FC91C3
:1001A0000190F081E02DC6010995892B11F021966F
:1001B000EECF7E01C701DF91CF911F910F91FF908C
:1001C000EF90DF90CF900895FC01538D448D252F43
:1001D00030E0842F90E0821B930B541710F0CF96E1
:1001E000089501970895FC01918D828D981761F013
:1001F000828DDF01A80FB11D5D968C91928D9F5F5E
:100200009F73928F90E008958FEF9FEF0895FC0108
:10021000918D828D981731F0828DE80FF11D858DBB
:1002200090E008958FEF9FEF0895FC01918D228D4E
:10023000892F90E0805C9F4F821B91098F739927D3
:10024000089582E394E00E94150121E0892B09F4CE
:1002500020E0822F0895FC01848DDF01A80FB11DDD
:10026000A35ABF4F2C91848D90E001968F739927EC
:10027000848FA689B7892C93A089B1898C918370CA
:1002800080648C93938D848D981306C00288F389C3
:10029000E02D80818F7D80830895EF92FF920F93F0
:1002A0001F93CF93DF93EC0181E0888F9B8D8C8D22
:1002B000981305C0E889F989808185FD26C0F62E4E
:1002C0000B8D10E00F5F1F4F0F731127E02E8C8DE9
:1002D000E8120CC00FB607FCFACFE889F9898081D3
:1002E00085FFF5CFCE010E942B01F1CF8B8DFE0152
:1002F000E80FF11DE35AFF4FF0829FB7F8940B8F80
:10030000EA89FB89808180620AC09FB7F894EE89F0
:10031000FF896083E889F9898081837080648083A4
:100320009FBF81E090E0DF91CF911F910F91FF90EF
:10033000EF900895CF93DF93EC01888D8823C9F067
:10034000EA89FB89808185FD05C0A889B9898C91DE
:1003500086FD0FC00FB607FCF5CF808185FFF2CF79
:10036000A889B9898C9185FFEDCFCE010E942B0120
:10037000E7CFDF91CF91089580E090E0892B29F0BD
:100380000E94210181110C9400000895089580E0DD
:1003900090E008950E94112FCF93DF93EC0160E06D
:1003A0008E810E940A1161E08E810E940A1160E034
:1003B0008E810E940A118BE891E00197F1F7DF919D
:1003C000CF910895CF93DF93EB010E94D92B8883BF
:1003D000CE01DF91CF910895CF92DF92EF92FF92FD
:1003E0000F931F93CF93DF93EB017B0124E0E20E89
:1003F000F11C8B016C01C61AD70AC601800F911F30
:100400000E94D92BF80181938F01EE15FF05A9F702
:10041000CE01DF91CF911F910F91FF90EF90DF9070
:10042000CF9008950F931F93CF93DF938C01EB012F
:100430000E94D92B8883C80101960E94D92B8983F9
:10044000CE01DF91CF911F910F910895FF920F93ED
:100450001F93CF93DF93EC01F62E08811981C80119
:100460000E94D92BF81621F06F2DC8010E94E12BB4
:10047000CE01DF91CF911F910F91FF9008950F93BF
:100480001F93CF93DF9300D0CDB7DEB78B01FB0175
:1004900060819A838983CE0101960E942602C80159
:1004A0000F900F90DF91CF911F910F910895AF9210
:1004B000BF92CF92DF92EF92FF920F931F93CF9351
:1004C000DF9300D0CDB7DEB78B016B0124E0C20E05
:1004D000D11C7B015C01A61AB70AC5018E0D9F1DB8
:1004E000F70161917F019A838983CE0101960E9471
:1004F0002602EC14FD0489F7C8010F900F90DF91DC
:10050000CF911F910F91FF90EF90DF90CF90BF9010
:10051000AF900895EF92FF920F931F93CF93DF93C5
:1005200000D0CDB7DEB78C017B01FB0160819A83DF
:100530008983CE0101960E942602F70161810F5F37
:100540001F4F1A830983CE0101960E942602C7011C
:100550000F900F90DF91CF911F910F91FF90EF902F
:10056000089590911E01891324C0E2ECF0E0E4911B
:100570009FEF90931E01E130B9F098F0E230C9F49A
:10058000909170009D7F9093700091E09093B000E7
:100590009091B100987F94609093B1001092B30055
:1005A00008C010926E0005C090916F009D7F9093DF
:1005B0006F0060E00C940A111F920F920FB60F9219
:1005C00011242F933F934F935F936F937F938F9358
:1005D0009F93AF93BF93EF93FF93809126049091E5
:1005E0002704A0912804B0912904892B8A2B8B2BF6
:1005F00051F190912504E0912304F091240480812D
:10060000892780838091260490912704A091280453
:10061000B0912904181619061A061B06C4F4809115
:10062000260490912704A0912804B09129040197F1
:10063000A109B1098093260490932704A09328046C
:10064000B093290404C080911E010E94B102FF9161
:10065000EF91BF91AF919F918F917F916F915F913A
:100660004F913F912F910F900FBE0F901F901895B3
:100670004F925F926F927F928F929F92AF92BF92B2
:10068000CF92DF92EF92FF920F931F93CF93DF935E
:1006900000D000D01F92CDB7DEB78B0129013A01FF
:1006A00090911E01891721F09F3F09F045C205C0B6
:1006B000E2ECF0E024912D837CC080931E01E2ECFB
:1006C000F0E094919D839F3F09F436C2913009F484
:1006D00049C058F1923009F06CC01092B0001092ED
:1006E000B1009091B00092609093B0009091B100F1
:1006F00091609093B100282F30E0F901EF51FF4F46
:10070000E491F0E0EE0FFF1FE353FF4F459154914A
:100710005093240440932304F901EB50FF4FE491DC
:10072000E093250492E09D8303C214BC15BC94B5EC
:10073000926094BD95B5916095BD282F30E0F90188
:10074000EF51FF4FE491F0E0EE0FFF1FE353FF4F37
:1007500045915491F901EB50FF4FE491E0931A0455
:100760001D82E6C11092800010928100909181005C
:1007700098609093810090918100916090938100A6
:10078000282F30E0F901EF51FF4FE491F0E0EE0F38
:10079000FF1FE353FF4F45915491F901EB50FF4F79
:1007A000E491E093190461E00E94391121E02D8366
:1007B00089C02D8127FDC0C161E00E9439118D8162
:1007C0008D7F09F07FC04801A12CB12C60E072E15F
:1007D0008AE790E0A50194010E94D22E29833A83F2
:1007E0004B835C8369017A0181E0C81AD108E10872
:1007F000F1089FEFC916D104E104F10409F008F4EF
:100800004EC060E472E48FE090E0A50194010E9484
:10081000D22E69017A0181E0C81AD108E108F108F5
:100820009D81923009F52FEFC216D104E104F10445
:1008300009F008F444C160E970ED83E090E0A5019F
:1008400094010E94D22E69017A0181E0C81AD10870
:10085000E108F1089FEFC916D104E104F10411F099
:1008600008F0BAC083E027C02FEFC216D104E1041C
:10087000F104B9F0B0F068E478EE81E090E0A50111
:1008800094010E94D22E69017A0181E0C81AD10830
:10089000E108F1089D81992309F413C1DCC081E0CE
:1008A00001C082E09D81911106C095B5987F892B8A
:1008B00085BD44C085E09091B100987F892B8093DD
:1008C000B1003CC04801A12CB12C60E072E18AE784
:1008D00090E0A50194010E94D22E69017A0181E085
:1008E000C81AD108E108F108C114D10491E0E90661
:1008F000F10488F068E478EE81E090E0A5019401CD
:100900000E94D22E69017A0181E0C81AD108E1085B
:10091000F10883E001C081E09D81913079F49091EC
:100920008100987F892B80938100411451046104D8
:10093000710449F42FEF3FEFA9012CC04114510479
:100940006104710471F0D801AA0FBB1FA3019201C9
:100950000E94F12E28EE33E040E050E00E94B02EDD
:1009600003C02FEF3FEFA9018D81813099F08230D4
:1009700019F18111E1C0C7BC20931F0430932004FA
:10098000409321045093220480916E0082608093F2
:100990006E00D2C0D0928900C092880020931B04C0
:1009A00030931C0440931D0450931E0480916F00EB
:1009B000826080936F00C0C0C092B3002093260471
:1009C00030932704409328045093290480917000A9
:1009D000826080937000B0C068E478EE81E090E0BF
:1009E000A50194010E94D22E69017A0191E0C91AF1
:1009F000D108E108F1082FEFC216D104E104F10497
:100A000041F138F164E274EF80E090E0A5019401D7
:100A10000E94D22E69017A0181E0C81AD108E1084A
:100A2000F1089FEFC916D104E104F10409F008F4BC
:100A300041CF62E17AE780E090E0A50194010E9455
:100A4000D22E69017A0181E0C81AD108E108F108C3
:100A500019C084E030CF2FEFC216D104E104F104B5
:100A600009F008F463C062E17AE780E090E0A50154
:100A700094010E94D22E69017A0191E0C91AD1082D
:100A8000E108F1088FEFC816D104E104F104A9F0E0
:100A9000A0F089819A81AB81BC812AE0B595A795A8
:100AA000979587952A95D1F76C017D0121E0C21AAF
:100AB000D108E108F10887E0FECE86E0FCCE82E0B6
:100AC000FACE8FEFC816D104E104F10469F160F1A8
:100AD00062E17AE780E090E0A50194010E94D22EC5
:100AE00069017A0191E0C91AD108E108F1082FEFF4
:100AF000C216D104E104F104A9F0A0F089819A8121
:100B0000AB81BC813AE0B595A795979587953A95C5
:100B1000D1F76C017D0121E0C21AD108E108F1088A
:100B200085E0C3CE84E0C1CE83E0BFCE84E0BACE00
:100B300061E00E94391147CE0F900F900F900F90F7
:100B40000F90DF91CF911F910F91FF90EF90DF9069
:100B5000CF90BF90AF909F908F907F906F905F905D
:100B60004F900895DC01ED91FC910190F081E02D12
:100B700009946115710579F0FB0101900020E9F7F6
:100B80003197AF01461B570BDC01ED91FC910280C0
:100B9000F381E02D099480E090E008958F929F9278
:100BA000AF92BF92EF92FF920F931F93CF93DF9379
:100BB000CDB7DEB7A1970FB6F894DEBF0FBECDBF9D
:100BC0007C01FA01CB0119A2223008F42AE08E013F
:100BD0000F5D1F4F822E912CA12CB12CBF01A501BE
:100BE00094010E94B02EF901CA01015011096A3026
:100BF00014F4605D01C0695CD8016C93232B242B35
:100C0000252B61F7B801C7010E94B905A1960FB65F
:100C1000F894DEBF0FBECDBFDF91CF911F910F9132
:100C2000FF90EF90BF90AF909F908F9008957F922C
:100C30008F929F92AF92BF92CF92DF92EF92FF92EC
:100C40000F931F93CF93DF938C016A017B01722E68
:100C50009A01AB01C701B6010E94762E882319F0D4
:100C600063E273E027C046015701E894B7F82FEF1D
:100C70003FEF4FE75FE7C501B4010E94762E811177
:100C80000DC02FEF3FEF4FE75FE7C501B4010E94B2
:100C90005C2C18161CF467E273E00CC02FEF3FEFDA
:100CA0004FE75FE4C701B6010E94B42D181694F413
:100CB0006BE273E0C801DF91CF911F910F91FF901C
:100CC000EF90DF90CF90BF90AF909F908F907F90EC
:100CD0000C94B9052FEF3FEF4FE75FECC701B6016A
:100CE0000E945C2C87FDE4CF20E030E0A901C70121
:100CF000B6010E945C2C87FF0AC06DE2C8010E9409
:100D0000B205EC01F7FAF094F7F8F09402C0C0E0F5
:100D1000D0E0B12C60E070E080E09FE3B71440F4D5
:100D200020E030E040E251E40E94612CB394F6CF21
:100D3000A70196010E94F02B6B017C010E94D32C2D
:100D40004B015C012AE0AB01BC01C8010E94CE0549
:100D5000C80FD91F7720C1F1C501B4010E94022D2F
:100D60009B01AC01C701B6010E94EF2B6B017C0116
:100D70006EE2C8010E94B205C80FD91F20E030E022
:100D800040E251E4C701B6010E94092E4B015C010B
:100D90000E94D32C6B01E12CF12C2AE0B701A601B3
:100DA000C8010E94CE05C80FD91FC701B6010E9415
:100DB000022D9B01AC01C501B4010E94EF2B6B0118
:100DC0007C017A947110DACFCE01DF91CF911F911F
:100DD0000F91FF90EF90DF90CF90BF90AF909F90DA
:100DE0008F907F9008950C94B9051F920F920FB6C3
:100DF0000F9211242F933F934F935F936F937F93A1
:100E00008F939F93AF93BF93EF93FF9382E394E00D
:100E10000E942B01FF91EF91BF91AF919F918F9114
:100E20007F916F915F914F913F912F910F900FBEE6
:100E30000F901F9018951F920F920FB60F921124CA
:100E40002F938F939F93EF93FF93E0914204F09140
:100E500043048081E0914804F091490482FD12C06E
:100E6000908180914B048F5F8F7320914C04821787
:100E700051F0E0914B04F0E0EE5CFB4F958F8093D6
:100E80004B0401C08081FF91EF919F918F912F9131
:100E90000F900FBE0F901F901895CF92DF92EF9298
:100EA000FF920F931F93CF93DF936C017C0187E038
:100EB000E80EF11CC0E0D0E0062F10E0B8010C2EC7
:100EC00002C0759567950A94E2F76170F701819108
:100ED0007F010E940A112196C430D10579F7C6011D
:100EE000DF91CF911F910F91FF90EF90DF90CF9006
:100EF0000C94CC01CF92DF92EF92FF920F931F934D
:100F0000CF93DF93EC01F62E642F8C810E940A119F
:100F10008D818F3F19F060E00E940A118F850F2D9F
:100F200010E084FF25C06E0187E0C80ED11CE12CC3
:100F3000F12CB8010E2C02C0759567950A94E2F762
:100F40006170F60181916F010E940A11FFEFEF1AA3
:100F5000FF0A88E0E816F10461F7CE01DF91CF9136
:100F60001F910F91FF90EF90DF90CF900C94CC01E8
:100F7000B80184E0759567958A95E1F7CE010E94E6
:100F80004D076F2DCE01DF91CF911F910F91FF90F3
:100F9000EF90DF90CF900C944D0741E00E947A07CC
:100FA00081E090E008958F929F92AF92BF92CF928E
:100FB000DF92EF92FF92CF93DF93EC01EE8DFF8DE6
:100FC000C080D180E280F380CEA2DFA2E8A6F9A69D
:100FD000EC8DFD8D80819181A281B3818AA79BA731
:100FE000ACA7BDA78EA89FA8A8ACB9ACA5019401D9
:100FF000C701B6010E94B42D181664F08AA89BA8F8
:10100000ACA8BDA8A5019401C701B6010E945C2C43
:1010100087FF04C08EA29FA2A8A6B9A6DF91CF9198
:10102000FF90EF90DF90CF90BF90AF909F908F9008
:1010300008954F925F926F927F928F929F92AF929C
:10104000BF92CF92DF92EF92FF920F931F93CF93B5
:10105000DF9300D000D000D0CDB7DEB79E838D8364
:101060002A013B014801590120E030E0A901C301F8
:10107000B2010E945C2C87FD89C020E030E0A9010C
:10108000C501B4010E945C2C87FD80C020E030E0E7
:10109000A901C701B6010E945C2C87FD77C081E0E1
:1010A000ED81FE81228D338D2130310509F080E004
:1010B000ED81FE8183AF408251826282738284829D
:1010C0009582A682B782C086D186E286F38666A51F
:1010D00077A580A991A90E94022D20E030E04AE77F
:1010E00054E40E94612C69837A838B839C83ED8115
:1010F000FE8144865586668677869B01AC01C501D4
:10110000B4010E94092E4B015C01ED81FE81608BD0
:10111000718B828B938B29813A814B815C81C701D2
:10112000B6010E94612C6B017C01ED81FE81648B14
:10113000758B868B978B808D918D019739F5A301E7
:10114000920160E070E0CB010E94EF2BED81FE8107
:101150006487758786879787A501940160E070E0B2
:10116000CB010E94EF2BED81FE81608B718B828B16
:10117000938BA701960160E070E0CB010E94EF2BFA
:10118000ED81FE81648B758B868B978B26960FB6CF
:10119000F894DEBF0FBECDBFDF91CF911F910F91AD
:1011A000FF90EF90DF90CF90BF90AF909F908F9087
:1011B0007F906F905F904F9008952F923F924F9243
:1011C0005F926F927F928F929F92AF92BF92CF92D7
:1011D000DF92EF92FF920F931F93CF93DF93CDB7E0
:1011E000DEB760970FB6F894DEBF0FBECDBFDC014F
:1011F000DA96BC91B983B11102C019822BC1988BC8
:101200008F870E94C6126E837F8388879987EF85B8
:10121000F88982A193A1A4A1B5A14E815F816885BF
:101220007985481B590B6A0B7B0B86A597A5A0A94E
:10123000B1A9481759076A077B07F8F2048CF58DA6
:10124000E02D80819181A281B3818A839B83AC83CD
:10125000BD83AF85B8899096ED91FC9191972A81D5
:101260003B814C815D8160817181828193810E948B
:10127000EF2B4B015C01EF85F88922A533A544A52E
:1012800055A56A817B818C819D810E94EF2B6B012A
:101290007C01AF85B88950962D913D914D915C911F
:1012A0005397C501B4010E94092EEF85F88926A144
:1012B00037A140A551A50E94F02B2B013C01AF8521
:1012C000B88996966D937D938D939C939997DB96B1
:1012D000BC91BA87B11118C0EF85F889248535858E
:1012E00046855785C701B6010E94092E9B01AC01B6
:1012F000C301B2010E94EF2BAF85B88996966D931A
:101300007D938D939C939997EF85F88946A057A07C
:1013100060A471A416A907A930AC21AC212F302FED
:10132000432D522DC301B2010E94B42D18162CF486
:10133000812F902FA32DB22D18C0AF85B889D296DA
:101340008D919D910D90BC91A02D8B879C87AD8731
:10135000BE879C01AD01C301B2010E945C2C87FFD6
:101360000AC08B859C85AD85BE85EF85F88986A3EF
:1013700097A3A0A7B1A7FA85FF2379F0AF85B88915
:101380001C962D913D914D915C911F97C501B40123
:101390000E94092E4B015C0103C0812C912C540149
:1013A000EF85F8892489358946895789C701B601AF
:1013B0000E94092E9B01AC01AF85B88996966D916C
:1013C0007D918D919C9199970E94EF2BA50194019D
:1013D0000E94F02B6B017C019B01AC01612F702FEF
:1013E000832D922D0E945C2C87FD14C0EF85F88917
:1013F00012A903A934A825A8212F302F432D522D3F
:10140000B601C7010E945C2C87FD04C01C2D0D2D68
:101410003E2C2F2CAF85B8895E96ED91FC915F979D
:10142000812F902FA32DB22D80839183A283B3832C
:101430008A819B81AC81BD81EF85F88982A793A7C2
:10144000A4A7B5A78E819F81A885B98582A393A300
:10145000A4A3B5A3898160960FB6F894DEBF0FBE32
:10146000CDBFDF91CF911F910F91FF90EF90DF9053
:10147000CF90BF90AF909F908F907F906F905F9034
:101480004F903F902F9008951092BE031092BC038E
:101490001092C0031092BF0360E08CE00E940A111A
:1014A0006DE971E082E394E00E94F3068091BB0352
:1014B000813021F484EA91E00E94CE108091BB0338
:1014C000823021F482EB91E00E94CE108091BB0328
:1014D000833021F480EC91E00E94CE108091BB0318
:1014E000843021F48EEC91E00E94CE108091BB03F9
:1014F000853021F48CED91E00E94CE108091BB03E9
:10150000863021F487EE91E00E94CE1060E08DE0FD
:101510000C940A11CF92DF92EF92FF920F931F93D8
:101520008091130190911401A0911501B0911601C1
:101530008093CF049093D004A093D104B093D204AD
:101540008091C1039091C203A091C303B091C403E1
:101550008093D7049093D804A093D904B093DA046D
:101560008BED94E00E94DD080E94C612C090AE038D
:10157000D090AF03E090B003F090B1032091370119
:10158000309138018901330F220B330BAB01BC01C1
:101590004C195D096E097F090417150726073707DF
:1015A00070F4D701C601800F911FA21FB31F809353
:1015B000AE039093AF03A093B003B093B1030E9426
:1015C000C612C090AE03D090AF03E090B003F0908D
:1015D000B1036C197D098E099F090E94022D20918B
:1015E000D3043091D4044091D5045091D6040E9484
:1015F000B42D181614F460E001C061E08BE01F9177
:101600000F91FF90EF90DF90CF900C940A110F9301
:101610001F938091000190910101A0910201B0916E
:1016200003018093170590931805A0931905B093B3
:101630001A058091C5039091C603A091C703B0918C
:10164000C80380931F0590932005A0932105B093B4
:10165000220583E295E00E94DD080E94C6120091F7
:10166000AA031091AB032091AC033091AD03AB0101
:10167000BC01401B510B620B730B493E534061058B
:10168000710570F0D901C80188519C4FAF4FBF4F11
:101690008093AA039093AB03A093AC03B093AD03E4
:1016A0000E94C6120091AA031091AB032091AC03D3
:1016B0003091AD03601B710B820B930B0E94022DC6
:1016C00020911B0530911C0540911D0550911E0570
:1016D0000E94B42D181614F460E001C061E08AE0A5
:1016E0001F910F910C940A1160E080E00E94861017
:1016F0006FE273E08FE595E00E94F3064091C50329
:101700005091C6036091C7037091C80320E030E098
:101710008FE595E00E94170662E972E08FE595E09B
:101720000E94F3068091BE038130C1F520E030E0D5
:1017300040E85EE36091B4037091B5038091B60315
:101740009091B7030E945C2C87FF14C04091040164
:1017500050910501609106017091070120E030E091
:101760008FE595E00E94170662E972E08FE595E04B
:101770000E94F30640910001509101016091020125
:101780007091030120E030E08FE595E00E9417069C
:1017900062E373E08FE595E00E94F3068091BE035B
:1017A000811106C069E373E08FE595E00E94F306BE
:1017B00060E08FE00E9486108AE00E94E1100197AD
:1017C00031F463E971E08FE595E00E94F3068AE069
:1017D0000E94E110892B31F467E272E08FE595E019
:1017E0000E94F30661E080E00E9486106AE473E0E4
:1017F0008FE595E00E94F3068091BF039091C003AE
:1018000097FD06C067E272E08FE595E00E94F3065F
:101810006091BF037091C0038FE595E00E9498101E
:101820008091B2039091B3038130910519F484E65D
:1018300090E005C08530910539F48AE090E09093FE
:10184000BA038093B90330C08430910551F42091DC
:10185000BF033091C0032F5F3F4F25303105E4F1C6
:101860000EC08230910581F48091BF039091C00336
:1018700001978C3F2FEF920714F48CEF9FEF90931A
:10188000C0038093BF0310C0039771F41092B30399
:101890001092B2038091BE038F5F823018F4809360
:1018A000BE0302C01092BE0361E08AE00E9486106F
:1018B0004091B4035091B5036091B6037091B703A2
:1018C00022E030E08FE595E00E94170661E573E0C5
:1018D0008FE595E00C94F3063093C0032093BF038B
:1018E000E3CF60E080E00E9486108091BC038230EC
:1018F00010F0843131F464E573E08FE595E00E94E7
:10190000F3068091BC038C3031F464E673E08FE51C
:1019100095E00E94F3068091BC038E3031F466E7B7
:1019200073E08FE595E00E94F3068091BC0380315F
:1019300031F462EE72E08FE595E00E94F30660E01C
:101940008FE00E9486108BE00E94E110019731F435
:1019500063E971E08FE595E00E94F3068BE00E9459
:10196000E110892B31F467E272E08FE595E00E9487
:10197000F30661E080E00E9486108091BC038E3007
:1019800001F56AE873E08FE595E00E94F306609147
:101990001F017091200180912101909122019B01F2
:1019A000AC010E94F02BAB01BC0120E030E08FE5E0
:1019B00095E00E94170667E272E08FE595E00E94CD
:1019C000F3068091BC038031A1F56AE873E08FE5EE
:1019D00095E00E94F30640911F0150912001609113
:1019E00021017091220120E030E08FE595E00E9416
:1019F000170667E272E08FE595E00E94F3066FE854
:101A000073E08FE595E00E94F30640912301509129
:101A10002401609125017091260122E030E08FE5DC
:101A200095E00E94170667E272E08FE595E00E945C
:101A3000F3068091B2039091B3038130910519F4BC
:101A400086E090E005C08530910539F481E490E0AE
:101A50009093BA038093B9030895039739F41092D1
:101A6000B3031092B2038AE08093BC03089567E148
:101A700074E080E090E00E948A0260E071E088E01B
:101A800090E00E9457026AE071E08CE090E00E94D2
:101A90008A026CE071E080E190E00E948A026BE2D1
:101AA00071E084E190E00E9457026FE271E088E10A
:101AB00090E00E94570263E371E08CE190E00E94A5
:101AC000570264E071E080E290E00E94570263E117
:101AD00071E084E290E00E9457026FE171E088E2D9
:101AE00090E00E94570263E271E08CE290E00E9475
:101AF000570267E271E080E390E00E94570268E0DD
:101B000071E084E390E00E943F026DEB73E088E3B4
:101B100090E00E943F0262E171E08CE390E00E945D
:101B20003F0269E071E080E490E00E943F0267E1DB
:101B300071E084E490E00E948A0268EB73E088E43C
:101B400090E00C943F02CF92DF92EF92FF920F93BE
:101B50001F93CF93DF9300D0CDB7DEB760E082E173
:101B60000E94391160E085E10E94391161E08AE04C
:101B70000E94391161E08BE00E94391161E080E13F
:101B80000E94391161E08FE00E94391161E081E12A
:101B90000E94391161E087E00E94391161E08CE018
:101BA0000E94391162E083E10E94391161E08DE009
:101BB0000E94391160E080E10E940A1160E087E034
:101BC0000E940A1161E087E00E940A1161E08DE045
:101BD0000E940A1167E174E080E090E00E94120226
:101BE00080911704909118040196C1F400E010E070
:101BF0001A821982BE016F5F7F4FC8010E948A025C
:101C00000F5F1F4F0F3F81E0180791F781E090E0D1
:101C100090931804809317040E94370D67E174E0D5
:101C200080E090E00E94120260E071E088E090E0C5
:101C30000E94EC016AE071E08CE090E00E941202E8
:101C40006CE071E080E190E00E9412026BE271E0D2
:101C500084E190E00E94EC016FE271E088E190E0A5
:101C60000E94EC0163E371E08CE190E00E94EC01E2
:101C700064E071E080E290E00E94EC0163E171E0D9
:101C800084E290E00E94EC016FE171E088E290E074
:101C90000E94EC0163E271E08CE290E00E94EC01B2
:101CA00067E271E080E390E00E94EC0168E071E09F
:101CB00084E390E00E94E2016DEB73E088E390E042
:101CC0000E94E20162E171E08CE390E00E94E20197
:101CD00069E071E080E490E00E94E20167E171E078
:101CE00084E490E00E94120268EB73E088E490E0E4
:101CF0000E94E2018091170490911804019690933C
:101D000018048093170482E00E94751168E071E066
:101D100084E390E00E94E2018091080181508E3FAF
:101D200018F082E88093080160E084E00E94861049
:101D300064E973E08FE595E00E94F30661E082E0DC
:101D40000E9486106CE973E08FE595E00E94F3062F
:101D50006FEF70E089E00E94161208EC10E08091AD
:101D6000080190E0801791076CF4B80189E00E94A7
:101D700016126AE070E080E090E00E948C12015040
:101D80001109EDCF68EE73E080E090E00E948C12C4
:101D90006091080170E089E00E9416120E947E1096
:101DA000E0914204F091430482E08083E0913E049C
:101DB000F0913F041082E0914004F091410480E1F1
:101DC000808310924A04E0914604F091470486E033
:101DD0008083E0914404F091450480818061808398
:101DE000E0914404F0914504808188608083E09113
:101DF0004404F0914504808180688083E09144042C
:101E0000F091450480818F7D8083809117019091AE
:101E1000180184569109893C910530F084E690E0E0
:101E200090931801809317018091B803823010F0CD
:101E30001092B8030E94C6126093AA037093AB037A
:101E40008093AC039093AD0340E050E06AE774E404
:101E500083E295E00E94091080915D05811104C024
:101E600083E295E00E94D30781E080935D05C090F6
:101E70003301D0903401E0903501F09036010091AB
:101E80002F011091300120913101309132014091A8
:101E90002B0150912C0160912D0170912E0183E254
:101EA00095E00E9419080E94C6126093AE037093D9
:101EB000AF038093B0039093B103609137017091A9
:101EC0003801072E000C880B990B0E94042DAB01E2
:101ED000BC018BED94E00E940910809115058111E1
:101EE00004C08BED94E00E94D30781E08093150538
:101EF000C0902701D0902801E0902901F0902A019C
:101F00000091230110912401209125013091260197
:101F100040911F0150912001609121017091220197
:101F20008BED94E00E94190880918000807E816092
:101F30008093800080918100807E8A608093810000
:101F400099E288E10FB6F894A895809360000FBEDF
:101F5000909360000F900F90DF91CF911F910F91A0
:101F6000FF90EF90DF90CF900895833081F028F4B8
:101F7000813099F08230A1F008958730A9F088303F
:101F8000B9F08430D1F4809180008F7D03C08091BE
:101F900080008F7780938000089584B58F7702C08A
:101FA00084B58F7D84BD08958091B0008F7703C084
:101FB0008091B0008F7D8093B00008953FB7F89472
:101FC00080912E0490912F04A0913004B09131049F
:101FD00026B5A89B05C02F3F19F00196A11DB11D84
:101FE0003FBFBA2FA92F982F8827820F911DA11DBF
:101FF000B11DBC01CD0142E0660F771F881F991FFC
:102000004A95D1F7089540E0682F8FE595E00C944C
:102010007A078F929F92AF92BF92CF92DF92EF9208
:10202000FF920F931F93CF93DF93EC016A017B0123
:1020300020E030E0A901C701B6010E945C2C18160F
:102040000CF04FC01AAA1BAA1CAA1DAACEAADFAA6E
:10205000E8AEF9AE8AAD882309F443C00E8D1F8D1A
:10206000F80180809180A280B380A5019401C7010E
:10207000B6010E945C2C87FF06C0F801C082D182A5
:10208000E282F3820EC020E030E0A901C501B40174
:102090000E945C2C87FF05C0F80110821182128219
:1020A00013828EA09FA0A8A4B9A4CEA8DFA8E8ACF4
:1020B000F9ACA7019601C501B4010E94B42D181610
:1020C00064F0CAA8DBA8ECA8FDA8A7019601C50189
:1020D000B4010E945C2C87FF04C0CEA2DFA2E8A658
:1020E000F9A6DF91CF911F910F91FF90EF90DF90B4
:1020F000CF90BF90AF909F908F90089581E00E9405
:1021000003108BE39FE10197F1F70895643008F025
:1021100063E090917205691710F06FEF690FE62F79
:10212000F0E0E15AFA4F9489890F80680C9403100B
:10213000CF92DF92EF92FF920F931F93CF93DF9393
:102140006B01770FEE08FF08F7FE1BC0EC016DE294
:102150000E94B2058C0144275527BA014C195D092C
:102160006E097F092AE0CE010E94CE05800F911FE3
:10217000DF91CF911F910F91FF90EF90DF90CF9063
:1021800008952AE0B701A601DF91CF911F910F9129
:10219000FF90EF90DF90CF900C94CE05CF93DF931C
:1021A000BC0182E394E00E94B905EC0160E273E0B7
:1021B00082E394E00E94B9058C0F9D1FDF91CF91BF
:1021C0000895CF93DF93282F30E0F901E75FFE4FAA
:1021D0008491F901EB50FF4FD491F901EF51FF4F7A
:1021E000C491CC2391F081110E94B50FEC2FF0E047
:1021F000EE0FFF1FE952FF4FA591B491EC91ED2333
:1022000081E090E021F480E002C080E090E0DF9186
:10221000CF9108951F93CF93DF93282F30E0F901DA
:10222000E75FFE4F8491F901EB50FF4FD491F90124
:10223000EF51FF4FC491CC23C1F0162F81110E94A2
:10224000B50FEC2FF0E0EE0FFF1FE353FF4FA5910A
:10225000B4919FB7F894111104C08C91D095D823F4
:1022600002C0EC91DE2BDC939FBFDF91CF911F91D9
:102270000895CF93DF9390E0FC01EB50FF4F249142
:10228000FC01EF51FF4F8491882361F190E0880FAA
:10229000991FFC01ED53FF4FC591D491FC01E3530D
:1022A000FF4FA591B491611109C09FB7F89488813F
:1022B000209582238883EC912E230BC0623061F439
:1022C0009FB7F8948881322F309583238883EC91CF
:1022D0002E2B2C939FBF06C08FB7F894E8812E2B2E
:1022E00028838FBFDF91CF910895CF93DF93823002
:1022F00028F090916E05986090936E05809372051A
:102300001092730580E48093740580E180937505D5
:1023100080E58093760561E0809163050E94391124
:10232000809164058F3F19F061E00E94391161E0EE
:10233000809165050E943911CFE5D5E09E012F55AA
:10234000354080916E0584FD03C084E090E002C0BA
:1023500088E090E02196281739072CF461E08E81FF
:102360000E943911EBCF8BE39DE00197F1F760E01C
:10237000809163050E940A1160E0809165050E94CA
:102380000A11809164058F3F19F060E00E940A11E4
:1023900080916E0584FD20C063E08FE595E00E948A
:1023A0004D07CBE4D6E4CE010197F1F763E08FE56A
:1023B00095E00E944D072197F1F763E08FE595E0E6
:1023C0000E944D0783E592E00197F1F762E08FE507
:1023D00095E00E944D0715C080620E9403108BE4B7
:1023E00096E40197F1F780916E0580620E940310D8
:1023F00083E592E00197F1F780916E0580620E947B
:10240000031080916E0580620E94031084E0809327
:102410006F058CE00E9403100E947E1082E0809382
:10242000700586E0DF91CF910C9403101F93CF933A
:10243000DF93182FEB0161E00E943911209711F40E
:1024400060E004C0CF3FD10539F461E0812FDF9116
:10245000CF911F910C940A11E12FF0E0E75FFE4F3E
:10246000E491E330F9F048F4E130B9F0E230A1F55D
:1024700084B5806284BDC8BD34C0E730E9F0E8307F
:1024800019F1E43049F580918000806280938000EA
:10249000D0938B00C0938A0024C084B5806884BD2B
:1024A000C7BD1FC080918000806880938000D0935A
:1024B0008900C093880015C08091B0008068809327
:1024C000B000C093B3000DC08091B00080628093D3
:1024D000B000C093B40005C0C038D1050CF0B5CF32
:1024E000AFCFDF91CF911F9108958E3008F08E50BD
:1024F0008770806480937C0080917A0080648093F0
:102500007A0080917A0086FDFCCF8091780020913E
:10251000790090E0922B08958F929F92AF92BF9294
:10252000CF92DF92EF92FF926B017C010E94DE0F4F
:102530004B015C01C114D104E104F104F1F00E94EB
:10254000DE0FDC01CB0188199909AA09BB09883E75
:102550009340A105B10570F321E0C21AD108E1084A
:10256000F10888EE880E83E0981EA11CB11CC114EE
:10257000D104E104F10419F7DDCFFF90EF90DF9073
:10258000CF90BF90AF909F908F9008952FB7F89401
:1025900060912A0470912B0480912C0490912D0459
:1025A0002FBF08954F925F926F927F928F929F926A
:1025B000AF92BF92CF92DF92EF92FF920F931F9351
:1025C000CF93DF93CDB7DEB74C01DC015F965C9310
:1025D0004E935E975D967C936E935C9791963C9339
:1025E0002E939097DA961C92FC0112AA13AA14AAB1
:1025F00015AA80E090E0AFE7B3E486AB97ABA0AF5D
:10260000B1AF84E690E0A0E0B0E086A797A7A0ABCA
:10261000B1AB118E108E20E030E0A901C801B701E6
:102620000E945C2C87FD56C020E030E0A901C60165
:10263000B5010E945C2C87FD4DC020E030E0A9016F
:102640006B897C898D899E890E945C2C87FD42C0A4
:1026500081E090E0D4015B969C938E935A97DB9631
:102660008C93DB97F401E082F1820283138314964A
:10267000AD92BD92CD92DC9217978B899C89AD89E2
:10268000BE8980879187A287B387D4011C96ED927B
:10269000FD920D931C931F972DEC3CEC4CEC5DE3ED
:1026A000C601B5010E94092EF401608B718B828BEB
:1026B000938B2DEC3CEC4CEC5DE36B897C898D8934
:1026C0009E890E94612CD40154966D937D938D93C5
:1026D0009C9357970E94C612F401C6A4D7A4E0A801
:1026E000F1A8DC01CB018C199D09AE09BF0982A3B9
:1026F00093A3A4A3B5A3DF91CF911F910F91FF9056
:10270000EF90DF90CF90BF90AF909F908F907F9091
:102710006F905F904F9008951F920F920FB60F9297
:1027200011242F933F938F939F93AF93BF938091E7
:102730002A0490912B04A0912C04B0912D04309187
:10274000770523E0230F2D3720F40196A11DB11D3D
:1027500005C026E8230F0296A11DB11D2093770521
:1027600080932A0490932B04A0932C04B0932D04FF
:1027700080912E0490912F04A0913004B0913104E7
:102780000196A11DB11D80932E0490932F04A09358
:102790003004B0933104BF91AF919F918F913F91DD
:1027A0002F910F900FBE0F901F901895CF93DF932E
:1027B000CDB7DEB7C054D1090FB6F894DEBF0FBE57
:1027C000CDBF789484B5826084BD84B5816084BDBA
:1027D00085B5826085BD85B5816085BD80916E00BF
:1027E000816080936E0010928100809181008260F0
:1027F000809381008091810081608093810080912D
:1028000080008160809380008091B100846080931B
:10281000B1008091B00081608093B00080917A0017
:10282000846080937A0080917A00826080937A003D
:1028300080917A00816080937A0080917A0080682C
:1028400080937A001092C1000E94A30D65E0862E4D
:10285000912C82E10E9475127C014090CD03509032
:10286000CE036090CF037090D00320E030E04EE7BD
:1028700053E4C301B2010E94612C9B01AC01C3016E
:10288000B2010E94EF2B2B013C01B701FF0C880B1A
:10289000990B0E94042D9B01AC01C301B2010E945F
:1028A000F02B6093CD037093CE038093CF0390936E
:1028B000D00320E030E04EE753E40E94612C6093A7
:1028C000060470930704809308049093090485E13B
:1028D0000E9475127C014090C9035090CA03609019
:1028E000CB037090CC0320E030E04EE753E4C3010B
:1028F000B2010E94612C9B01AC01C301B2010E9494
:10290000EF2B2B013C01B701FF0C880B990B0E94A8
:10291000042D9B01AC01C301B2010E94F02B609316
:10292000C9037093CA038093CB039093CC0320E038
:1029300030E04EE753E40E94612C609302047093F0
:10294000030480930404909305048091BE038130B6
:1029500009F0FDC0C090B403D090B503E090B60379
:10296000F090B70320E030E040E85EE3C701B60135
:102970000E945C2C181684F080910401909105014E
:10298000A0910601B09107018093EE039093EF03AD
:10299000A093F003B093F10320E030E040E85EE361
:1029A000C701B6010E94B42D181684F4809100016D
:1029B00090910101A0910201B09103018093EE0377
:1029C0009093EF03A093F003B093F1036091EE03B3
:1029D0007091EF038091F0039091F10360931705DC
:1029E000709318058093190590931A0520E030E044
:1029F00040E251E40E94EF2B21966CAF7DAF8EAF89
:102A00009FAF21974090C5035090C6036090C703C5
:102A10007090C803A30192010E94B42D181674F59A
:102A200061E08AE00E940A11A0902F01B09030016D
:102A3000C0903101D0903201E0902B01F0902C0138
:102A400000912D0110912E01809136018F9380917C
:102A500035018F93809134018F93809133018F934F
:102A600027E135E04BE155E06FE175E0CE010196DD
:102A70000E94D2120F900F900F900F90A30192011D
:102A800021966CAD7DAD8EAD9FAD21970E945C2CE3
:102A900087FF4EC180915D05811104C083E295E0FE
:102AA0000E94D30781E080935D0540921F055092FC
:102AB0002005609221057092220583E295E00E9434
:102AC000DD080E94C6120091AA031091AB03209169
:102AD000AC033091AD03AB01BC01401B510B620B49
:102AE000730B493E53406105710570F0D901C8016F
:102AF00088519C4FAF4FBF4F8093AA039093AB0375
:102B0000A093AC03B093AD030E94C6120091AA0338
:102B10001091AB032091AC033091AD03601B710B9E
:102B2000820B930B0E94022D20911B0530911C05F6
:102B300040911D0550911E050E94B42D181614F4E5
:102B400060E001C061E08AE00E940A11F1C08111D9
:102B500007C010925D0560E08AE00E940A1161C022
:102B60008A3009F05EC080915D05811104C083E266
:102B700095E00E94D30781E080935D05809100017C
:102B800090910101A0910201B0910301809317057A
:102B900090931805A0931905B0931A058091C50369
:102BA0009091C603A091C703B091C80380931F05FD
:102BB00090932005A0932105B093220580E090E03A
:102BC000A0E8BFE380932B0190932C01A0932D01EB
:102BD000B0932E0110922F0110923001109231010A
:102BE000109232011092330110923401109235018B
:102BF00010923601C12CD12C760197018601AC01CF
:102C0000BD0183E295E00E9419088CE08093BE0329
:102C100080910C0490910D044E969093D403809370
:102C2000D3038091BE038C3009F082C00E94070B51
:102C30008091D3039091D403A0E0B0E040910C04C4
:102C400050910D0460910E0470910F048417950744
:102C5000A607B70708F023C14090C5035090C603EC
:102C60006090C7037090C80320E030E040E251E478
:102C70006091000170910101809102019091030126
:102C80000E94EF2BA30192010E94B42D181664F547
:102C900020E030E040E85FE360912B0170912C016F
:102CA00080912D0190912E010E94F02BAB01BC016F
:102CB00040932B0150932C0160932D0170932E01B2
:102CC000C0903301D0903401E0903501F09036018E
:102CD00000912F011091300120913101309132018A
:102CE00083E295E00E94190820E030E040E251E4E0
:102CF00060910001709101018091020190910301A6
:102D00000E94EF2B9B01AC01C301B2010E94B42DC4
:102D100018162CF48EE08093BE030E94370D80912C
:102D20000C0490910D044E969093D4038093D3039A
:102D30008091BE038E3009F0B2C00E94070B8091D3
:102D4000D3039091D403A0E0B0E040910C045091E3
:102D50000D0460910E0470910F0484179507A60767
:102D6000B70708F09CC04090C5035090C603609020
:102D7000C7037090C8032091000130910101409178
:102D8000020150910301C301B2010E945C2C87FF34
:102D90002CC02DEC3CEC4CEC5DE360912F0170916C
:102DA000300180913101909132010E94F02B8B0112
:102DB0009C0160932F0170933001809331019093B7
:102DC0003201C0903301D0903401E0903501F09091
:102DD000360140912B0150912C0160912D01709191
:102DE0002E0183E295E00E941908209100013091A4
:102DF00001014091020150910301C301B2010E94FF
:102E0000B42D87FD43C010925D0560E08AE00E940A
:102E10000A1120E030E048EC52E420933301309373
:102E20003401409335015093360120E030E040EC0E
:102E30005FE360912B0170912C0180912D019091A5
:102E40002E010E94092E60932B0170932C01809318
:102E50002D0190932E0120E030E040EC5FE3609183
:102E60002F017091300180913101909132010E94C7
:102E7000092E60932F01709330018093310190935C
:102E8000320180E18093BE030E94370D80910C04D3
:102E900090910D044E969093D4038093D303809128
:102EA000BC03882309F43DC0813009F03EC0C090C6
:102EB000C103D090C203E090C303F090C40320E0AC
:102EC00030E040E251E4609113017091140180916F
:102ED0001501909116010E94EF2BA70196010E9407
:102EE000B42D181624F461E08BE00E940A1120E052
:102EF00030E040E251E4609113017091140180913F
:102F00001501909116010E94EF2B9B01AC01C701A6
:102F1000B6010E94B42D18160CF0E2C084E1809333
:102F2000BC0360E08BE00E940A118091BC038431F5
:102F300009F075C080911505811104C08BED94E0F6
:102F40000E94D30781E08093150580911301909131
:102F50001401A0911501B09116018093CF049093B4
:102F6000D004A093D104B093D2048091C103909176
:102F7000C203A091C303B091C4038093D70490937C
:102F8000D804A093D904B093DA048BED94E00E94A6
:102F9000DD080E94C6120091AE031091AF0320918C
:102FA000B0033091B103AB01BC01401B510B620B6C
:102FB000730B493E53406105710570F0D901C8019A
:102FC00088519C4FAF4FBF4F8093AE039093AF0398
:102FD000A093B003B093B1030E94C6120091AE0358
:102FE0001091AF032091B0033091B103601B710BBE
:102FF000820B930B0E94022D2091D3043091D404B4
:103000004091D5045091D6040E94B42D181614F4A2
:1030100060E001C061E08BE00E940A11E8C08A30E4
:1030200009F05EC080911505811104C08BED94E01C
:103030000E94D30781E08093150580911301909140
:103040001401A0911501B09116018093CF049093C3
:10305000D004A093D104B093D2048091C103909185
:10306000C203A091C303B091C4038093D70490938B
:10307000D804A093D904B093DA0480E090E0A0E8EB
:10308000BFE380931F0190932001A0932101B0938F
:103090002201109223011092240110922501109216
:1030A00026011092270110922801109229011092F6
:1030B0002A01C12CD12C760197018601AC01BD01FA
:1030C0008BED94E00E9419088CE08093BC03809102
:1030D0000C0490910D044E969093D2038093D103EB
:1030E0008091BC038C3009F082C00E948A0A8091D2
:1030F000D1039091D203A0E0B0E040910C04509134
:103100000D0460910E0470910F0484179507A607B3
:10311000B70708F023C14090C1035090C2036090EC
:10312000C3037090C40320E030E040E251E46091BA
:1031300013017091140180911501909116010E9464
:10314000EF2BA30192010E94B42D181664F520E024
:1031500030E040E85FE360911F01709120018091B1
:103160002101909122010E94F02BAB01BC01409300
:103170001F01509320016093210170932201C090A0
:103180002701D0902801E0902901F0902A010091B8
:1031900023011091240120912501309126018BED0E
:1031A00094E00E94190820E030E040E251E4609190
:1031B00013017091140180911501909116010E94E4
:1031C000EF2B9B01AC01C301B2010E94B42D181674
:1031D0002CF48EE08093BC030E94370D80910C0488
:1031E00090910D044E969093D2038093D1038091D9
:1031F000BC038E3009F0B2C00E948A0A8091D103CC
:103200009091D203A0E0B0E040910C0450910D04E5
:1032100060910E0470910F0484179507A607B707F5
:1032200008F09CC04090C1035090C2036090C3035B
:103230007090C40320911301309114014091150145
:1032400050911601C301B2010E945C2C87FF2CC073
:103250002DEC3CEC4CEC5DE360912301709124017A
:1032600080912501909126010E94F02B8B019C01F9
:10327000609323017093240180932501909326018C
:10328000C0902701D0902801E0902901F0902A01F8
:1032900040911F0150912001609121017091220104
:1032A0008BED94E00E9419082091130130911401D4
:1032B0004091150150911601C301B2010E94B42D35
:1032C00087FD43C01092150560E08BE00E940A1153
:1032D00080E18093BC0320E030E048EC52E420938E
:1032E0002701309328014093290150932A0120E0BF
:1032F00030E040EC5FE360911F017091200180910C
:103300002101909122010E94092E60931F01709368
:103310002001809321019093220120E030E040ECD5
:103320005FE36091230170912401809125019091C8
:1033300026010E94092E609323017093240180933B
:103340002501909326010E94370D80910C049091E5
:103350000D044E969093D2038093D1030E94C6121F
:1033600028EE33E040E050E00E94B02E2AE030E04A
:1033700040E050E00E94B02E80911304909114041C
:10338000A0911504B0911604281739074A075B0766
:1033900009F4A7C020931304309314044093150438
:1033A00050931604809112048F5F809312048EE074
:1033B0000E9475129093DD038093DC032091D70364
:1033C000211139C0853691050CF474C02091DA03BF
:1033D0003091DB03AC014E5F5F4F421753071CF186
:1033E0004450510924173507F4F02091D803309147
:1033F000D9032F5F3F4F3093D9032093D803909385
:10340000DB038093DA03253031050CF453C01092AE
:10341000D9031092D80321E02093D7031092DB0345
:103420001092DA0308C01092D9031092D803909337
:10343000DB038093DA032091D7032130D9F59C0177
:103440002B5D32402B33310530F441E050E0509396
:10345000B3034093B2039C012B5332402133310517
:1034600030F4A2E0B0E0B093B303A093B2039C01A8
:10347000255A31402232310530F423E030E03093D8
:10348000B3032093B2039C0125503140253431050C
:1034900030F444E050E05093B3034093B2038D58AE
:1034A00091094D9720F49092B3038092B20382E089
:1034B0008093D7038091D703823099F48091D5030C
:1034C0009091D6030196853191052CF49093D60303
:1034D0008093D50306C01092D6031092D5031092A4
:1034E000D703809112048A3010F40C943A2710927A
:1034F0001204809111048F5F809311048091B903AD
:103500009091BA038233910511F40C94BC220CF013
:10351000A4C08A30910509F427C40CF087C0853017
:10352000910509F495C344F4892B11F00C941A25E4
:103530000E94740B0C9416258630910509F4DEC3A5
:10354000089711F00C941A2560E080E00E94861024
:103550006091DC037091DD038FE595E00E94981087
:1035600062E172E08FE595E00E94F3066091DA0374
:103570007091DB038FE595E00E94981062E172E0A4
:103580008FE595E00E94F3066091D8037091D9030E
:103590008FE595E00E94981062E172E08FE595E07A
:1035A0000E94F30660E070E08FE595E00E949810BD
:1035B00062E172E08FE595E00E94F30660E070E062
:1035C0008FE595E00E94981061E080E00E948610EF
:1035D0006091B2037091B3038FE595E00E9498105B
:1035E00067E272E08FE595E00E94F3068EE00E94AC
:1035F0007512BC018FE595E00E94981067E272E0B9
:103600008FE595E00E94F3064091D70350E060E01B
:1036100070E02AE08FE595E00E94CE0564E172E05B
:103620008FE595E00E94F3060C941A258E319105E2
:1036300009F4E1C54CF48F30910509F451C4449765
:1036400009F40CC50C941A258332910509F47CC643
:10365000889709F401C70C941A2581349105A1F1CA
:10366000D4F48E33910511F40C94DA2334F4CC970E
:1036700011F40C9442230C941A258F33910511F404
:103680000C9495248034910511F00C941A250E9415
:10369000710C0C9416258F35910509F4C7C154F4AB
:1036A0008634910509F4A4C08035910509F427C139
:1036B0000C941A258436910509F436C28F3F910582
:1036C00009F4C1C20C941A2560E080E00E948610C3
:1036D00067E571E08FE595E00E94F30661E080E028
:1036E0000E9486106DE772E08FE595E00E94F30678
:1036F00040912701509128016091290170912A0180
:1037000022E030E08FE595E00E94170662E972E062
:103710008FE595E00E94F3068091B2039091B30388
:103720008130910509F4FBC28530910519F486E4D6
:1037300090E061C68230910549F520E030E040E23A
:1037400051E46091270170912801809129019091A5
:103750002A010E94EF2B6B017C0120E030E0A901DF
:103760000E945C2C87FD09C0C0922701D0922801DD
:10377000E0922901F0922A0119C1109227011092BA
:1037800028011092290110922A0110C1049711F00A
:103790000C94162520E030E040E251E460912701CE
:1037A000709128018091290190912A010E94F02BAB
:1037B0006B017C016093270170932801809329019C
:1037C00090932A0100912301109124012091250159
:1037D0003091260140911F015091200160912101FB
:1037E000709122018BED94E00E9419080C9416252B
:1037F00060E080E00E94861061E671E08FE595E070
:103800000E94F30661E080E00E9486106DE772E09E
:103810008FE595E00E94F306409123015091240129
:10382000609125017091260122E030E08FE595E05E
:103830000E94170662E972E08FE595E00E94F306A8
:103840008091B2039091B3038130910519F481E422
:1038500090E0D1C58530910509F431C182309105E0
:1038600049F52DEC3CEC4CEC5DE36091230170914B
:10387000240180912501909126010E94EF2B6B017C
:103880007C0120E030E0A9010E945C2C87FD09C08A
:10389000C0922301D0922401E0922501F0922601EA
:1038A00085C01092230110922401109225011092DC
:1038B00026017CC0049711F00C9416252DEC3CECED
:1038C0004CEC5DE36091230170912401809125010E
:1038D000909126010E94F02B8B019C0160932301A3
:1038E000709324018093250190932601C0902701B5
:1038F000D0902801E0902901F0902A016BCF60E080
:1039000080E00E9486106BE671E08FE595E00E94F2
:10391000F30661E080E00E9486106DE772E08FE5BB
:1039200095E00E94F30640911F01509120016091A3
:1039300021017091220122E030E08FE595E00E94A4
:10394000170662E972E08FE595E00E94F306809128
:10395000B2039091B3038230910589F520E030E005
:1039600040E85FE360911F01709120018091210187
:10397000909122010E94EF2B6B017C0120E030E04E
:10398000A9010E945C2C87FD09C0C0921F01D09242
:103990002001E0922101F092220108C010921F0143
:1039A000109220011092210110922201C090270153
:1039B000D0902801E0902901F0902A0103CF8430B3
:1039C000910549F520E030E040E85FE360911F0198
:1039D0007091200180912101909122010E94F02B91
:1039E000AB01BC0140931F01509320016093210162
:1039F00070932201C0902701D0902801E090290106
:103A0000F0902A01009123011091240120912501B9
:103A100030912601E7CE8130910509F488CE0597D3
:103A200011F00C9416258FE590E0E5C460E080E08D
:103A30000E94861065E771E08FE595E00E94F3062D
:103A400061E080E00E9486106DE772E08FE595E00E
:103A50000E94F306409113015091140160911501E9
:103A60007091160120E030E08FE595E00E94170686
:103A700062E972E08FE595E00E94F30666E871E086
:103A80008FE595E00E94F3064091C1035091C20377
:103A90006091C3037091C40320E030E08FE595E0AE
:103AA0000E94170668E871E08FE595E00E94F30632
:103AB0008091B2039091B3038130910519F480E5B0
:103AC00090E099C48230910579F420E030E040E83C
:103AD0005FE3609113017091140180911501909141
:103AE00016010E94EF2B11C084309105B9F420E03B
:103AF00030E040E85FE36091130170911401809120
:103B00001501909116010E94F02B609313017093A0
:103B10001401809315019093160188C7059709F049
:103B200085C784E690E067C460E080E00E9486106C
:103B30006AE871E08FE595E00E94F3064091C103C9
:103B40005091C2036091C3037091C40320E030E040
:103B50008FE595E00E94170662E972E08FE595E037
:103B60000E94F3068091BC038823A1F040911301C9
:103B700050911401609115017091160120E030E020
:103B80008FE595E00E94170662E272E08FE595E00E
:103B90000E94F3068091BC03811106C06EE871E0BB
:103BA0008FE595E00E94F30660E08FE00E948610AA
:103BB0008BE00E94E110019731F463E971E08FE539
:103BC00095E00E94F3068BE00E94E110892B31F40E
:103BD00067E272E08FE595E00E94F30667E272E02B
:103BE0008FE595E00E94F30661E080E00E94861078
:103BF00065E971E08FE595E00E94F3068091B203DC
:103C00009091B3038230910511F460E004C08430D8
:103C1000910529F461E08CE00E940A1107C7833006
:103C2000910551F48091BC038F5F823010F40C94A5
:103C3000AD2A1092BC03FAC68130910509F4F3CE87
:103C4000059709F0F3C61092BA031092B903EEC6B5
:103C500060E080E00E9486106DE971E08FE595E0FC
:103C60000E94F3064091BB0350E060E070E02AE060
:103C70008FE595E00E94CE0561E080E00E9486100D
:103C80008091BB03813031F464EA71E08FE595E007
:103C90000E94F3068091BB03823031F462EB71E045
:103CA0008FE595E00E94F3068091BB03833031F4E9
:103CB00060EC71E08FE595E00E94F3068091BB0314
:103CC000843031F46EEC71E08FE595E00E94F306EC
:103CD0008091BB03853031F46CED71E08FE595E0A8
:103CE0000E94F3068091BB03863009F09FC667EE01
:103CF00071E08FE595E00E94F30698C660E080E0F1
:103D00000E94861062EF71E08FE595E00E94F30655
:103D10008091B2039091B3038530910519F480E44A
:103D200090E069C3039709F081C6E12CF12C6FEF95
:103D3000C7010E94E12B5FEFE51AF50A8FEFE81645
:103D400081E0F806A1F761E080E00E94861065E05E
:103D500072E08FE595E00E94F30668E273E280E08E
:103D600090E00E948C1262C660E080E00E948610A3
:103D70006FE272E08FE595E00E94F30661E080E07B
:103D80000E9486106DE772E08FE595E00E94F306D1
:103D90004091000150910101609102017091030175
:103DA00020E030E08FE595E00E94170662E972E0BE
:103DB0008FE595E00E94F30666E871E08FE595E0F7
:103DC0000E94F3064091C5035091C6036091C7035A
:103DD0007091C80320E030E08FE595E00E9417065F
:103DE00068E871E08FE595E00E94F306E090B20389
:103DF000F090B30391E0E916F10429F41092BA03AC
:103E00001092B9032DC0A2E0EA16F10479F420E083
:103E100030E040E85FE36091000170910101809122
:103E20000201909103010E94EF2B12C0B4E0EB1647
:103E3000F104B1F420E030E040E85FE3609100017C
:103E40007091010180910201909103010E94F02B79
:103E5000609300017093010180930201909303012C
:103E600020E030E040E85FE36091000170910101E3
:103E700080910201909103010E945C2C87FF0CC08D
:103E800080E090E0A0E8BFE38093000190930101FF
:103E9000A0930201B093030120E030E040EA53E434
:103EA00060910001709101018091020190910301E4
:103EB0000E94B42D181664F480E090E0A0EAB3E408
:103EC0008093000190930101A0930201B09303013C
:103ED00025E0E216F10409F0A9C58FE090E08BC25D
:103EE00060E080E00E94861069E272E08FE595E074
:103EF0000E94F30661E080E00E9486106DE772E0A8
:103F00008FE595E00E94F306409104015091050170
:103F1000609106017091070120E030E08FE595E0A7
:103F20000E94170662E972E08FE595E00E94F306B1
:103F300066E871E08FE595E00E94F3064091C503C5
:103F40005091C6036091C7037091C80320E030E030
:103F50008FE595E00E94170668E871E08FE595E02F
:103F60000E94F306E090B203F090B30331E0E31651
:103F7000F10439F48AE090E09093BA038093B90396
:103F80002DC042E0E416F10479F420E030E040E88E
:103F90005FE36091040170910501809106019091A9
:103FA00007010E94EF2B12C054E0E516F104B1F4B2
:103FB00020E030E040E85FE360910401709105018A
:103FC00080910601909107010E94F02B60930401FB
:103FD00070930501809306019093070120E030E083
:103FE00040E85FE360910401709105018091060152
:103FF000909107010E945C2C87FF0CC080E090E04C
:10400000A0E8BFE38093040190930501A09306010B
:10401000B093070120E030E040EA53E460910401EE
:104020007091050180910601909107010E94B42DC5
:10403000181664F480E090E0A0EAB3E480930401F1
:1040400090930501A0930601B093070185E0E8165F
:10405000F10409F0EBC484E190E0CDC160E080E0C0
:104060000E9486106AE372E08FE595E00E94F306F5
:1040700060E089E00E94861080910901813031F46E
:1040800063E472E08FE595E00E94F30680910901F8
:10409000811106C06AE472E08FE595E00E94F306A4
:1040A00061E080E00E9486106DE772E08FE595E0A8
:1040B0000E94F30660910C0170910D018FE595E06F
:1040C0000E94981061E572E08FE595E00E94F3068A
:1040D0008091BF039091C003892B71F44091E40358
:1040E0005091E5036091E6037091E70322E030E030
:1040F0008FE595E00E9417066091BF037091C003A1
:10410000CB0101970397C0F4072E000C880B990B85
:104110000E94042D2091E4033091E5034091E603D1
:104120005091E7030E94092EAB01BC0122E030E070
:104130008FE595E00E94170664E572E08FE595E053
:104140000E94F3068091B2039091B30381309105F0
:1041500019F48FE090E035C082309105A1F4809190
:104160001201AAE08A9FC001112454E09595879519
:104170005A95E1F720910C0130910D01A901481BDE
:10418000590BCA0114C084309105B1F48091120119
:104190005AE0859FC001112444E0959587954A9582
:1041A000E1F720910C0130910D01820F931F909344
:1041B0000D0180930C0116C08530910539F48EE114
:1041C00090E09093BA038093B9030CC0039751F425
:1041D00080910901811104C081E08093090102C02E
:1041E0001092090180910901823008F41FC481E016
:1041F000809309011BC460E080E00E9486106AE59C
:1042000072E08FE595E00E94F30660E089E00E948D
:10421000861080911201803131F462E672E08FE500
:1042200095E00E94F30680911201803231F46AE633
:1042300072E08FE595E00E94F30661E080E00E9465
:1042400086106DE772E08FE595E00E94F3066091BD
:104250000A0170910B018FE595E00E94981061E5CD
:1042600072E08FE595E00E94F30660910A0170917B
:104270000B01072E000C880B990B0E94042D209136
:104280000E0130910F0140911001509111010E94D7
:10429000612C20E030E040E051E40E94092EAB01A7
:1042A000BC014093E4035093E5036093E6037093ED
:1042B000E70322E030E08FE595E00E94170664E511
:1042C00072E08FE595E00E94F3068091B203909131
:1042D000B3038130910519F484E190E005C0853085
:1042E000910539F483E290E09093BA038093B90387
:1042F00021C08230910531F480910A0190910B0127
:104300000A9708C08430910551F480910A01909178
:104310000B010A9690930B0180930A010BC003973F
:1043200049F480911201803211F480E101C080E2F1
:10433000809312018091120181508E3F08F476C360
:1043400080E18093120172C360E080E00E948610D9
:1043500062E772E08FE595E00E94F3066BE772E09A
:104360008FE595E00E94F3068091BD03811106C0A0
:104370006FE772E08FE595E00E94F3068091BD0340
:10438000813031F463E872E08FE595E00E94F30636
:1043900062E972E08FE595E00E94F30661E080E05B
:1043A0000E94861067E872E08FE595E00E94F306B0
:1043B00061E972E08FE595E00E94F30660911701D4
:1043C000709118018FE595E00E9498106DE772E0FA
:1043D0008FE595E00E94F3068091B2039091B303BC
:1043E0008130910519F48EE190E005C0853091058A
:1043F00039F488E290E09093BA038093B90316C32E
:104400008230910519F41092BD0310C384309105D8
:1044100021F481E08093BD0309C3039709F006C32B
:104420008091170190911801883C910559F08C32C8
:10443000A1E09A0751F08436910509F0F7C288ECA3
:1044400090E005C08CE291E002C084E690E0909399
:10445000180180931701EAC260E080E00E94861094
:1044600064E972E08FE595E00E94F30661E080E088
:104470000E9486106DE772E08FE595E00E94F306DA
:1044800040912B0150912C0160912D0170912E01D2
:1044900022E030E08FE595E00E94170662E972E0C5
:1044A0008FE595E00E94F3068091B2039091B303EB
:1044B0008130910519F483E290E09DCF853091051C
:1044C00009F40FC18230910549F520E030E040E861
:1044D0005FE360912B0170912C0180912D019091EF
:1044E0002E010E94EF2B6B017C0120E030E0A9013E
:1044F0000E945C2C87FD09C0C0922B01D0922C0138
:10450000E0922D01F0922E011AC110922B0110920F
:104510002C0110922D0110922E0111C1049709F067
:1045200085C220E030E040E85FE360912B017091AC
:104530002C0180912D0190912E010E94F02BAB0156
:10454000BC0140932B0150932C0160932D0170937B
:104550002E01C0903301D0903401E0903501F090ED
:10456000360100912F0110913001209131013091DD
:10457000320183E295E038C960E080E00E94861055
:104580006DE972E08FE595E00E94F30661E080E05E
:104590000E9486106DE772E08FE595E00E94F306B9
:1045A00040912F01509130016091310170913201A1
:1045B00022E030E08FE595E00E94170662E972E0A4
:1045C0008FE595E00E94F3068091B2039091B303CA
:1045D0008130910509F40DCF8530910519F48CE3F4
:1045E00090E009CF8230910549F52DEC3CEC4CEC84
:1045F0005DE360912F0170913001809131019091C4
:1046000032010E94EF2B6B017C0120E030E0A90118
:104610000E945C2C87FD09C0C0922F01D09230010E
:10462000E0923101F09232018AC010922F01109273
:104630003001109231011092320181C0049709F0CB
:10464000F5C12DEC3CEC4CEC5DE360912F017091D9
:10465000300180913101909132010E94F02B8B0149
:104660009C0160932F0170933001809331019093EE
:104670003201C0903301D0903401E0903501F090C8
:10468000360189C060E080E00E94861066EA72E030
:104690008FE595E00E94F30661E080E00E948610BD
:1046A0006DE772E08FE595E00E94F30640913301DB
:1046B00050913401609135017091360122E030E073
:1046C0008FE595E00E94170662E972E08FE595E0BC
:1046D0000E94F3068091B2039091B303813091055B
:1046E00019F482E390E087CE8230910589F520E0CD
:1046F00030E040E251E460913301709134018091E7
:104700003501909136010E94EF2B6B017C0120E076
:1047100030E0A9010E945C2C87FD09C0C0923301E2
:10472000D0923401E0923501F092360108C0109227
:104730003301109234011092350110923601C0906D
:104740003301D0903401E0903501F09036011BC068
:104750008430910549F520E030E040E251E4609179
:1047600033017091340180913501909136010E949E
:10477000F02B6B017C0160933301709334018093C3
:1047800035019093360100912F0110913001209155
:1047900031013091320140912B0150912C016091F7
:1047A0002D0170912E01E5CE059709F03FC18EE3F2
:1047B00090E021CE60E080E00E9486108091BE03F0
:1047C000823030F46FEA72E08FE595E00E94F306E4
:1047D0008091BE038C3031F46EEB72E08FE595E092
:1047E0000E94F3068091BE038E3031F46FEC72E0CC
:1047F0008FE595E00E94F3068091BE03803131F48D
:1048000062EE72E08FE595E00E94F30660E08FE0D3
:104810000E9486108AE00E94E110019731F463E95A
:1048200071E08FE595E00E94F3068AE00E94E110B6
:10483000892B31F467E272E08FE595E00E94F30680
:1048400061E080E00E9486108091BE038E3001F509
:1048500062EF72E08FE595E00E94F30660912B0114
:1048600070912C0180912D0190912E019B01AC0142
:104870000E94F02BAB01BC0120E030E08FE595E019
:104880000E94170667E272E08FE595E00E94F3064A
:104890008091BE038031A1F562EF72E08FE595E073
:1048A0000E94F30640912B0150912C0160912D0143
:1048B00070912E0120E030E08FE595E00E94170610
:1048C00067E272E08FE595E00E94F30666EF72E022
:1048D0008FE595E00E94F30640912F015091300141
:1048E000609131017091320122E030E08FE595E076
:1048F0000E94170667E272E08FE595E00E94F306DA
:104900008091B2039091B3038130910509F467CE91
:104910008530910519F48FE390E06DCD039709F090
:1049200085C08AE08093BE0381C060E080E00E9481
:1049300086106AEF72E08FE595E00E94F3064091E1
:10494000080150E060E070E02AE08FE595E00E9409
:10495000CE0561E572E08FE595E00E94F30661E027
:1049600080E00E94861064E073E08FE595E00E948D
:10497000F3068091B803811106C06BE073E08FE508
:1049800095E00E94F3068091B803813031F463E131
:1049900073E08FE595E00E94F3066BE173E08FE52D
:1049A00095E00E94F3068091B2039091B3030397C0
:1049B00071F41092B3031092B2038091B803811185
:1049C00004C081E08093B80302C01092B803209124
:1049D000B2033091B3032130310539F48EE390E016
:1049E0009093BA038093B9030DC0809108012230DF
:1049F000310511F4815004C02430310519F48F5F62
:104A00008093080180910801811103C081E08093A7
:104A10000801809108018F3F19F48EEF80930801FF
:104A20006091080170E089E00E9416121092B303B1
:104A30001092B2032091DE033091DF038091B9031D
:104A40009091BA032817390781F01092B30310929E
:104A5000B2030E947E100E94370D8091B90390919D
:104A6000BA039093DF038093DE036090BF037090DE
:104A7000C0036114710451F480E10E94B10284EF1B
:104A800091E09093E3038093E20321C0BCEF6B16A7
:104A9000BFEF7B0631F460E081E10E940A1161E022
:104AA00009C024E06216710491F460E081E10E9483
:104AB0000A1160E08FE00E940A1160910A01709172
:104AC0000B0120E030E0A90180E10E9438038091D1
:104AD000090181113EC0C30101970397D0F461E041
:104AE00081E10E940A1160E070E08FE00E941612DE
:104AF00080910C0190910D01689EB001699E700D2E
:104B0000789E700D112420E030E0A90180E10E9420
:104B10003803C30103960397E0F461E081E10E944A
:104B20000A1161E08FE00E940A1180910C019091BE
:104B30000D01689EB001699E700D789E700D112464
:104B400071956195710920E030E0A90180E10E9432
:104B5000380380910901813009F0BAC0C30101977F
:104B6000039708F055C061E081E10E940A1160E0FE
:104B70008FE00E940A118091E2039091E30340913B
:104B80000C0150910D01649E9001659E300D749E44
:104B9000300D1124AC01421B530B4536510534F046
:104BA000845691099093E3038093E2038091E2039A
:104BB0009091E303A901481B590B4536510534F088
:104BC0008C599F4F9093E3038093E2038091E2031B
:104BD0009091E303821793072CF40A969093E303D2
:104BE0008093E2038091E2039091E3032817390751
:104BF0002CF40A979093E3038093E2036091E2031D
:104C00007091E30320E030E0A90180E10E943803C5
:104C1000C3010396039708F05BC061E081E10E9445
:104C20000A1161E08FE00E940A1120910C0130917D
:104C30000D01629EC001639E900D729E900D112425
:104C40002091E2033091E303AC01420F531F45363C
:104C5000510534F0245631093093E3032093E203E5
:104C60009195819591092091E2033091E303AC0184
:104C7000421B530B4536510534F02C593F4F3093AE
:104C8000E3032093E2032091E2033091E30328172A
:104C9000390734F4265F3F4F3093E3032093E20358
:104CA0002091E2033091E3038217930734F42A50F2
:104CB00031093093E3032093E2036091E2037091A2
:104CC000E30320E030E0A90180E10E94380303C043
:104CD0006114710431F01092E1031092E00360E07E
:104CE0000CC08091E0039091E1038037974140F040
:104CF0001092E1031092E00361E087E00E940A1144
:104D00008091E0039091E10301969093E1038093F9
:104D1000E0038091B803813079F426E6C22EDC2CC2
:104D200028E1E22E22E4F22E212C38E3332E3BE060
:104D3000432E33E4532E0DC0C12CD12C88E1E82E34
:104D400082E4F82E212C90E8392E97EF492E91E439
:104D5000592E6091120138EC639FB0011124072E87
:104D6000000C880B990B0E94042DA20191010E9456
:104D7000092E1B012C01A7019601C701B6010E9453
:104D8000F02B23EC35EF48E450E40E94092E9B0100
:104D9000AC01C201B1010E94612C6B017C016093E6
:104DA0000E0170930F018093100190931101609197
:104DB0000C0170910D01072E000C880B990B0E94BD
:104DC000042DA70196010E94612C6093E403709367
:104DD000E5038093E6039093E7032091BE0321301F
:104DE000B1F593012150310923303105D0F520E090
:104DF00030E040E251E40E94612C20E030E04AE7DC
:104E000054E40E94612C6B017C01B301072C000C5F
:104E1000880B990B0E94042D9B01AC01C701B601C0
:104E20000E94092E9B01AC016091B4037091B503FF
:104E30008091B6039091B7030E94F02B6093B40366
:104E40007093B5038093B6039093B7030AC0211102
:104E500008C01092B4031092B5031092B6031092DA
:104E6000B70383E10E94E110892B19F4672809F048
:104E700077C3A895809111048A3008F46AC38091A1
:104E800010048F5F809310041092110440910C0461
:104E900050910D0460910E0470910F044F5F5F4FAD
:104EA0006F4F7F4F40930C0450930D0460930E049A
:104EB00070930F048C3310F0109210044091C503CE
:104EC0005091C6036091C7037091C80325E030E09C
:104ED00082E394E00E9417066EE173E082E394E0BF
:104EE0000E94F3064091C1035091C2036091C30335
:104EF0007091C40325E030E082E394E00E9417063D
:104F00006EE173E082E394E00E94F30640912B018E
:104F100050912C0160912D0170912E0122E030E022
:104F200082E394E00E9417066EE173E082E394E06E
:104F30000E94F30640912F015091300160913101A0
:104F40007091320122E030E082E394E00E94170683
:104F50006EE173E082E394E00E94F3064091330136
:104F600050913401609135017091360122E030E0BA
:104F700082E394E00E9417066EE173E082E394E01E
:104F80000E94F30666E070E082E394E00E949810CD
:104F900060E273E082E394E00E94B9052091060488
:104FA00030910704409108045091090460E070E0DA
:104FB00080E894E40E94612C20E030E040E85FE368
:104FC0000E94EF2B9B01AC0160E070E081E995E469
:104FD0000E94612C20E030E543EC57E40E94612CF4
:104FE0000E94C12D20E030EE46E755E40E94612C7E
:104FF0002FE03FEC4BE55BE30E94F02B9B01AC0103
:1050000060E070E080E89FE30E94612C23E333E9D5
:1050100048E853E40E94EF2B6B017C016093C503C9
:105020007093C6038093C7039093C8032091020432
:1050300030910304409104045091050460E070E055
:1050400080E894E40E94612C20E030E040E85FE3D7
:105050000E94EF2B9B01AC0160E070E081E995E4D8
:105060000E94612C20E030E543EC57E40E94612C63
:105070000E94C12D20E030EE46E755E40E94612CED
:105080002FE03FEC4BE55BE30E94F02B9B01AC0172
:1050900060E070E080E89FE30E94612C23E333E945
:1050A00048E853E40E94EF2B2B013C016093C103BD
:1050B0007093C2038093C3039093C40380910A0446
:1050C00090910B04019690930B0480930A0405972A
:1050D00004F12091FE033091FF03409100045091B0
:1050E0000104C301B2010E94EF2B6093FA03709395
:1050F000FB038093FC039093FD034092FE035092C8
:10510000FF03609200047092010410920B0410924D
:105110000A0480911D01813071F58091FA0390910C
:10512000FB03A091FC03B091FD0321968CAF9DAFD2
:10513000AEAFBFAF219720E030E0A901BC01CD01A7
:105140000E94B42D181644F44092190150921A018D
:1051500060921B0170921C0120E030E0A9012196B1
:105160006CAD7DAD8EAD9FAD21970E945C2C87FF0D
:1051700039C010921D0180911D01811133C0209111
:10518000FA033091FB034091FC035091FD032196FB
:105190002CAF3DAF4EAF5FAF219720E030E0A901CB
:1051A00021966CAD7DAD8EAD9FAD21970E945C2C9C
:1051B00087FF08C04092F6035092F7036092F8030D
:1051C0007092F90320E030E0A90121966CAD7DAD2D
:1051D0008EAD9FAD21970E94B42D18161CF481E06E
:1051E00080931D018091BF039091C003892B29F00A
:1051F0001092F5031092F40311C08091BE03813028
:1052000069F48091F4039091F50301969093F5036E
:105210008093F403813B944008F00CC28091BC035E
:10522000813011F0843191F48091F2039091F30375
:1052300001969093F3038093F20381319E4030F006
:105240001092BC031092F3031092F20320E030E0BE
:1052500045EA53E4C701B6010E94B42D18164CF478
:1052600081E08093BB039092BA038092B9030E94BD
:10527000440A20E030E045EA53E46091C1037091B4
:10528000C2038091C3039091C4030E94B42D1816E9
:105290004CF482E08093BB039092BA038092B903EE
:1052A0000E94440A20E030E040EA51EC6091C503DE
:1052B0007091C6038091C7039091C8030E945C2C33
:1052C00087FF0DC08091BE03882349F083E080935F
:1052D000BB039092BA038092B9030E94440A20E073
:1052E00030E040EA51EC6091C1037091C2038091BB
:1052F000C3039091C4030E945C2C87FF0DC0809172
:10530000BC03882349F084E08093BB039092BA03E6
:105310008092B9030E94440A8091BE03813009F053
:1053200059C0C090C503D090C603E090C703F09069
:10533000C80320E030E040EA51E46091EE03709150
:10534000EF038091F0039091F1030E94EF2BA701EE
:1053500096010E94B42D18160CF040C02091EA036B
:105360003091EB034091EC035091ED03C701B6017E
:105370000E94B42D181654F4C092EA03D092EB03A5
:10538000E092EC03F092ED031092E9032091EA031E
:105390003091EB034091EC035091ED03C701B6014E
:1053A0000E945C2C1816D4F08091E9038F5F8093E3
:1053B000E90390E02091170130911801281739076F
:1053C0006CF40E94440A85E08093BB039092BA0378
:1053D0008092B9038091BE038823D1F020E030E0B1
:1053E00040EA51E46091EE037091EF038091F00385
:1053F0009091F1030E94EF2B2091C5033091C603D9
:105400004091C7035091C8030E945C2C87FF12C0D3
:105410008091C5039091C603A091C703B091C803C2
:105420008093EA039093EB03A093EC03B093ED0316
:105430001092E9038091BC03813019F0843109F0A6
:1054400058C0C090C103D090C203E090C303F09055
:10545000C40320E030E040EA51E460911301709110
:10546000140180911501909116010E94EF2BA70164
:1054700096010E94B42D1816E4F52091FE03309198
:10548000FF034091000450910104C701B6010E943E
:10549000B42D181654F4C092FE03D092FF03E0928C
:1054A0000004F09201041092E8032091FE03309171
:1054B000FF034091000450910104C701B6010E940E
:1054C0005C2C1816B4F08091E8038F5F8093E8039A
:1054D00090E02091170130911801281739074CF4FA
:1054E0000E94440A86E08093BB039092BA038092A4
:1054F000B9038091BC038823D1F020E030E040EA7A
:1055000051E46091EE037091EF038091F00390916C
:10551000F1030E94EF2B2091C1033091C20340910F
:10552000C3035091C4030E945C2C87FF12C080917A
:10553000C1039091C203A091C303B091C4038093AF
:10554000FE039093FF03A0930004B0930104109214
:10555000E8030E94BC010C9429148093BC0366CA22
:105560001092C0031092BF0380E10E94B10260E07C
:1055700087E00E940A1160E081E10E940A1126E999
:1055800030E040E050E066E275E087E00E943803DA
:1055900066E970E080E090E00E948C122CE231E03D
:1055A00040E050E066E275E087E00E9438036CE27C
:1055B00071E080E090E00E948C1226E930E040E04B
:1055C00050E066E275E087E00E9438036CE271E02B
:1055D00080E090E00E948C1226E930E040E050E04C
:1055E00066E174E087E00E94380366E970E080E0DD
:1055F00090E00E948C122CE231E040E050E066E244
:1056000075E087E00E9438036CE271E080E090E092
:105610000E948C1228E532E040E050E060E276E043
:1056200087E00E94380368E572E080E090E00E9425
:105630008C121FCC1092BE031092F5031092F4034B
:105640008091BD03813009F0E9CD60E08DE00E94DA
:105650000A11E4CDAF92BF92CF92DF92EF92FF9208
:105660000F931F93E2E3F4E01382128288EE93E03B
:10567000A0E0B0E084839583A683B7838DE391E0B7
:105680009183808385EC90E09587848784EC90E01B
:105690009787868780EC90E0918B808B81EC90E0FF
:1056A000938B828B82EC90E0958B848B86EC90E0E0
:1056B000978B868B118E128E138E148EEFE5F5E08C
:1056C000138212828FE491E09183808388E0848347
:1056D0008FEF858386E0868382E0878383E08087FF
:1056E00084E0818785E08287138614861586168676
:1056F000178681E00E947511A0902F01B0903001B3
:10570000C0903101D0903201E0902B01F0902C013B
:1057100000912D0110912E01809136018F9380917F
:1057200035018F93809134018F93809133018F9352
:1057300027E135E04BE155E06FE175E083E295E06C
:105740000E94D212A0902301B0902401C0902501A4
:10575000D0902601E0901F01F090200100912101DE
:105760001091220180912A018F93809129018F93BA
:10577000809128018F93809127018F932FEC34E043
:1057800043ED54E067ED74E08BED94E00E94D2129B
:105790008DB79EB708960FB6F8949EBF0FBE8DBF0B
:1057A0001F910F91FF90EF90DF90CF90BF90AF903F
:1057B0000895F999FECF92BD81BDF89A992780B5D9
:1057C0000895262FF999FECF1FBA92BD81BD20BD45
:1057D0000FB6F894FA9AF99A0FBE019608955058A8
:1057E000BB27AA270E94072C0C947A2D0E946C2DAF
:1057F00038F00E94732D20F039F49F3F19F426F4FD
:105800000C94692D0EF4E095E7FB0C94632DE92FC1
:105810000E948B2D58F3BA17620773078407950708
:1058200020F079F4A6F50C94AD2D0EF4E0950B2E36
:10583000BA2FA02D0B01B90190010C01CA01A001E2
:105840001124FF27591B99F0593F50F4503E68F13D
:105850001A16F040A22F232F342F4427585FF3CF7E
:10586000469537952795A795F0405395C9F77EF44F
:105870001F16BA0B620B730B840BBAF09150A1F098
:10588000FF0FBB1F661F771F881FC2F70EC0BA0F1E
:10589000621F731F841F48F4879577956795B795A6
:1058A000F7959E3F08F0B0CF9395880F08F09927A1
:1058B000EE0F9795879508950E943F2D08F481E09B
:1058C00008950E94752C0C947A2D0E94732D58F027
:1058D0000E946C2D40F029F45F3F29F00C94632D59
:1058E00051110C94AE2D0C94692D0E948B2D68F3F0
:1058F0009923B1F3552391F3951B550BBB27AA2789
:1059000062177307840738F09F5F5F4F220F331FC2
:10591000441FAA1FA9F335D00E2E3AF0E0E832D08A
:1059200091505040E695001CCAF72BD0FE2F29D08D
:10593000660F771F881FBB1F261737074807AB075F
:10594000B0E809F0BB0B802DBF01FF2793585F4FD4
:105950003AF09E3F510578F00C94632D0C94AE2DD7
:105960005F3FE4F3983ED4F3869577956795B795B6
:10597000F7959F5FC9F7880F911D9695879597F9C1
:105980000895E1E0660F771F881FBB1F621773073A
:105990008407BA0720F0621B730B840BBA0BEE1F4F
:1059A00088F7E09508950E94932D88F09F5798F00E
:1059B000B92F9927B751B0F0E1F0660F771F881F14
:1059C000991F1AF0BA95C9F714C0B13091F00E942E
:1059D000AD2DB1E008950C94AD2D672F782F882759
:1059E000B85F39F0B93FCCF3869577956795B39555
:1059F000D9F73EF490958095709561957F4F8F4FC4
:105A00009F4F0895E89409C097FB3EF490958095C8
:105A1000709561957F4F8F4F9F4F9923A9F0F92F74
:105A200096E9BB279395F695879577956795B795F2
:105A3000F111F8CFFAF4BB0F11F460FF1BC06F5FD8
:105A40007F4F8F4F9F4F16C0882311F096E911C0EA
:105A5000772321F09EE8872F762F05C0662371F00B
:105A600096E8862F70E060E02AF09A95660F771F1F
:105A7000881FDAF7880F9695879597F90895990FFB
:105A80000008550FAA0BE0E8FEEF16161706E80708
:105A9000F907C0F012161306E407F50798F0621B29
:105AA000730B840B950B39F40A2661F0232B242BFE
:105AB000252B21F408950A2609F4A140A6958FEF1D
:105AC000811D811D089597F99F6780E870E060E06F
:105AD00008959FEF80EC089500240A941616170687
