:100000000C9490000C94B8000C94B8000C94B800B8
:100010000C94B8000C94B8000C94B8000C940D0229
:100020000C94B8000C94B8000C94B8000C94B80070
:100030000C94B8000C94B8000C94B8000C94B80060
:100040000C9409150C94B8000C944C060C942606DC
:100050000C94B8000C94B8000C94B8000C94B80040
:100060000C94B8000C94B80008000000BE9224491B
:10007000123EABAAAA2ABECDCCCC4C3E00000080DA
:10008000BEABAAAAAA3E00000000BF000000803F4D
:100090000000000000084178D3BB4387D1133D190D
:1000A0000E3CC3BD4282AD2B3E68EC8276BED98F3A
:1000B000E1A93E4C80EFFFBE01C4FF7F3F0000007E
:1000C00000000200000000240027002A00000000B9
:1000D00000250028002B0000000000230026002936
:1000E00000040404040404040402020202020203E1
:1000F00003030303030102040810204080010204EB
:10010000081020010204081020000000080002016D
:100110000000030407000000000000000000562C4F
:1001200011241FBECFEFD8E0DEBFCDBF13E0A0E0AB
:10013000B1E0E6EAF0E602C005900D92AE3BB107F1
:10014000D9F725E0AEEBB3E001C01D92AF38B2079E
:10015000E1F710E0C0E9D0E004C02197FE010E9461
:100160004630CF38D107C9F70E9453150C9451304F
:100170000C940000CF92DF92EF92FF920F931F93A7
:10018000CF93DF936C017A018B01C0E0D0E0CE15F4
:10019000DF0581F0D8016D918D01D601ED91FC91C3
:1001A0000190F081E02DC6010995892B11F021966F
:1001B000EECF7E01C701DF91CF911F910F91FF908C
:1001C000EF90DF90CF900895FC01538D448D252F43
:1001D00030E0842F90E0821B930B541710F0CF96E1
:1001E000089501970895FC01918D828D981761F013
:1001F000828DDF01A80FB11D5D968C91928D9F5F5E
:100200009F73928F90E008958FEF9FEF0895FC0108
:10021000918D828D981731F0828DE80FF11D858DBB
:1002200090E008958FEF9FEF0895FC01918D228D4E
:10023000892F90E0805C9F4F821B91098F739927D3
:10024000089586E494E00E94150121E0892B09F4C9
:1002500020E0822F0895FC01848DDF01A80FB11DDD
:10026000A35ABF4F2C91848D90E001968F739927EC
:10027000848FA689B7892C93A089B1898C918370CA
:1002800080648C93938D848D981306C00288F389C3
:10029000E02D80818F7D80830895EF92FF920F93F0
:1002A0001F93CF93DF93EC0181E0888F9B8D8C8D22
:1002B000981305C0E889F989808185FD26C0F62E4E
:1002C0000B8D10E00F5F1F4F0F731127E02E8C8DE9
:1002D000E8120CC00FB607FCFACFE889F9898081D3
:1002E00085FFF5CFCE010E942B01F1CF8B8DFE0152
:1002F000E80FF11DE35AFF4FF0829FB7F8940B8F80
:10030000EA89FB89808180620AC09FB7F894EE89F0
:10031000FF896083E889F9898081837080648083A4
:100320009FBF81E090E0DF91CF911F910F91FF90EF
:10033000EF900895CF93DF93EC01888D8823C9F067
:10034000EA89FB89808185FD05C0A889B9898C91DE
:1003500086FD0FC00FB607FCF5CF808185FFF2CF79
:10036000A889B9898C9185FFEDCFCE010E942B0120
:10037000E7CFDF91CF91089580E090E0892B29F0BD
:100380000E94210181110C9400000895089580E0DD
:1003900090E008950E944C30CF93DF93EC0160E031
:1003A0008E810E94B00C61E08E810E94B00C60E0F2
:1003B0008E810E94B00C8BE891E00197F1F7DF91FC
:1003C000CF91089590912301891324C0E2ECF0E0CD
:1003D000E4919FEF90932301E130B9F098F0E2307F
:1003E000C9F4909170009D7F9093700091E090937C
:1003F000B0009091B100987F94609093B1001092FA
:10040000B30008C010926E0005C090916F009D7FF0
:1004100090936F0060E00C94B00C1F920F920FB697
:100420000F9211242F933F934F935F936F937F937A
:100430008F939F93AF93BF93EF93FF9380913A0471
:1004400090913B04A0913C04B0913D04892B8A2BF0
:100450008B2B51F190913904E0913704F0913804DD
:1004600080818927808380913A0490913B04A091F8
:100470003C04B0913D04181619061A061B06C4F474
:1004800080913A0490913B04A0913C04B0913D04CA
:100490000197A109B10980933A0490933B04A0937A
:1004A0003C04B0933D0404C0809123010E94E2010A
:1004B000FF91EF91BF91AF919F918F917F916F913C
:1004C0005F914F913F912F910F900FBE0F901F9012
:1004D00018954F925F926F927F928F929F92AF92F8
:1004E000BF92CF92DF92EF92FF920F931F93CF9321
:1004F000DF9300D000D01F92CDB7DEB78B0129016A
:100500003A0190912301891721F09F3F09F045C2DC
:1005100005C0E2ECF0E024912D837CC080932301A0
:10052000E2ECF0E094919D839F3F09F436C2913054
:1005300009F449C058F1923009F06CC01092B00033
:100540001092B1009091B00092609093B0009091A1
:10055000B10091609093B100282F30E0F901EF5184
:10056000FF4FE491F0E0EE0FFF1FE353FF4F459183
:1005700054915093380440933704F901EB50FF4FE6
:10058000E491E093390492E09D8303C214BC15BC4E
:1005900094B5926094BD95B5916095BD282F30E0DB
:1005A000F901EF51FF4FE491F0E0EE0FFF1FE3532D
:1005B000FF4F45915491F901EB50FF4FE491E093C7
:1005C0002E041D82E6C1109280001092810090914D
:1005D0008100986090938100909181009160909348
:1005E0008100282F30E0F901EF51FF4FE491F0E056
:1005F000EE0FFF1FE353FF4F45915491F901EB506C
:10060000FF4FE491E0932D0461E00E94DF0C21E0B4
:100610002D8389C02D8127FDC0C161E00E94DF0CC0
:100620008D818D7F09F07FC04801A12CB12C60E045
:1006300072E18AE790E0A50194010E943F2E298390
:100640003A834B835C8369017A0181E0C81AD1083F
:10065000E108F1089FEFC916D104E104F10409F0A3
:1006600008F44EC060E472E48FE090E0A5019401CC
:100670000E943F2E69017A0181E0C81AD108E10881
:10068000F1089D81923009F52FEFC216D104E104E3
:10069000F10409F008F444C160E970ED83E090E0F2
:1006A000A50194010E943F2E69017A0181E0C81AD8
:1006B000D108E108F1089FEFC916D104E104F10463
:1006C00011F008F0BAC083E027C02FEFC216D104A2
:1006D000E104F104B9F0B0F068E478EE81E090E074
:1006E000A50194010E943F2E69017A0181E0C81A98
:1006F000D108E108F1089D81992309F413C1DCC0F8
:1007000081E001C082E09D81911106C095B5987F7E
:10071000892B85BD44C085E09091B100987F892BDD
:100720008093B1003CC04801A12CB12C60E072E183
:100730008AE790E0A50194010E943F2E69017A01A9
:1007400081E0C81AD108E108F108C114D10491E090
:10075000E906F10488F068E478EE81E090E0A50114
:1007600094010E943F2E69017A0181E0C81AD108E4
:10077000E108F10883E001C081E09D81913079F4C6
:1007800090918100987F892B8093810041145104BE
:100790006104710449F42FEF3FEFA9012CC041140B
:1007A00051046104710471F0D801AA0FBB1FA301A9
:1007B00092010E945E2E28EE33E040E050E00E945D
:1007C000692E03C02FEF3FEFA9018D81813099F091
:1007D000823019F18111E1C0C7BC209333043093FA
:1007E0003404409335045093360480916E00826047
:1007F00080936E00D2C0D0928900C092880020936E
:100800002F0430933004409331045093320480918C
:100810006F00826080936F00C0C0C092B3002093CD
:100820003A0430933B0440933C0450933D04809140
:100830007000826080937000B0C068E478EE81E060
:1008400090E0A50194010E943F2E69017A0191E098
:10085000C91AD108E108F1082FEFC216D104E1044A
:10086000F10441F138F164E274EF80E090E0A50119
:1008700094010E943F2E69017A0181E0C81AD108D3
:10088000E108F1089FEFC916D104E104F10409F071
:1008900008F441CF62E17AE780E090E0A50194019D
:1008A0000E943F2E69017A0181E0C81AD108E1084F
:1008B000F10819C084E030CF2FEFC216D104E10453
:1008C000F10409F008F463C062E17AE780E090E0A7
:1008D000A50194010E943F2E69017A0191E0C91A95
:1008E000D108E108F1088FEFC816D104E104F10442
:1008F000A9F0A0F089819A81AB81BC812AE0B595ED
:10090000A795979587952A95D1F76C017D0121E0F0
:10091000C21AD108E108F10887E0FECE86E0FCCEDD
:1009200082E0FACE8FEFC816D104E104F10469F138
:1009300060F162E17AE780E090E0A50194010E9415
:100940003F2E69017A0191E0C91AD108E108F10846
:100950002FEFC216D104E104F104A9F0A0F08981BF
:100960009A81AB81BC813AE0B595A795979587951B
:100970003A95D1F76C017D0121E0C21AD108E10856
:10098000F10885E0C3CE84E0C1CE83E0BFCE84E031
:10099000BACE61E00E94DF0C47CE0F900F900F900F
:1009A0000F900F90DF91CF911F910F91FF90EF90DB
:1009B000DF90CF90BF90AF909F908F907F906F907F
:1009C0005F904F900895DC01ED91FC910190F081D2
:1009D000E02D09946115710579F0FB01019000206B
:1009E000E9F73197AF01461B570BDC01ED91FC9104
:1009F0000280F381E02D099480E090E008958F92C9
:100A00009F92AF92BF92EF92FF920F931F93CF935B
:100A1000DF93CDB7DEB7A1970FB6F894DEBF0FBE58
:100A2000CDBF7C01FA01CB0119A2223008F42AE0E3
:100A30008E010F5D1F4F822E912CA12CB12CBF0176
:100A4000A50194010E94692EF901CA010150110902
:100A50006A3014F4605D01C0695CD8016C93232B8B
:100A6000242B252B61F7B801C7010E94EA04A19647
:100A70000FB6F894DEBF0FBECDBFDF91CF911F91AF
:100A80000F91FF90EF90BF90AF909F908F9008953F
:100A90007F928F929F92AF92BF92CF92DF92EF920E
:100AA000FF920F931F93CF93DF938C016A017B0119
:100AB000722E9A01AB01C701B6010E94FD2F882357
:100AC00019F064EE72E027C046015701E894B7F8C8
:100AD0002FEF3FEF4FE75FE7C501B4010E94FD2F05
:100AE00081110DC02FEF3FEF4FE75FE7C501B40164
:100AF0000E94052D18161CF468EE72E00CC02FEF52
:100B00003FEF4FE75FE4C701B6010E94A82F181618
:100B100094F46CEE72E0C801DF91CF911F910F91B8
:100B2000FF90EF90DF90CF90BF90AF909F908F900D
:100B30007F900C94EA042FEF3FEF4FE75FECC70183
:100B4000B6010E94052D87FDE4CF20E030E0A90129
:100B5000C701B6010E94052D87FF0AC06DE2C801DA
:100B60000E94E304EC01F7FAF094F7F8F09402C065
:100B7000C0E0D0E0B12C60E070E080E09FE3B7140B
:100B800040F420E030E040E251E40E94072FB394AB
:100B9000F6CFA70196010E949B2E6B017C010E945B
:100BA000792F4B015C012AE0AB01BC01C8010E9416
:100BB000FF04C80FD91F7720C1F1C501B4010E94FD
:100BC0000A2D9B01AC01C701B6010E949A2E6B0150
:100BD0007C016EE2C8010E94E304C80FD91F20E027
:100BE00030E040E251E4C701B6010E946B2D4B0199
:100BF0005C010E94792F6B01E12CF12C2AE0B701F6
:100C0000A601C8010E94FF04C80FD91FC701B60181
:100C10000E940A2D9B01AC01C501B4010E949A2ECD
:100C20006B017C017A947110DACFCE01DF91CF9104
:100C30001F910F91FF90EF90DF90CF90BF90AF90FA
:100C40009F908F907F9008950C94EA041F920F92CA
:100C50000FB60F9211242F933F934F935F936F938F
:100C60007F938F939F93AF93BF93EF93FF9386E40C
:100C700094E00E942B01FF91EF91BF91AF919F9162
:100C80008F917F916F915F914F913F912F910F9035
:100C90000FBE0F901F9018951F920F920FB60F92D4
:100CA00011242F938F939F93EF93FF93E09156041A
:100CB000F09157048081E0915C04F0915D0482FD25
:100CC00012C0908180915F048F5F8F7320916004C8
:100CD000821751F0E0915F04F0E0EA5BFB4F958FE3
:100CE00080935F0401C08081FF91EF919F918F916C
:100CF0002F910F900FBE0F901F901895CF92DF92FB
:100D0000EF92FF920F931F93CF93DF936C017C01BF
:100D100087E0E80EF11CC0E0D0E0062F10E0B8013B
:100D20000C2E02C0759567950A94E2F76170F70181
:100D300081917F010E94B00C2196C430D10579F7D2
:100D4000C601DF91CF911F910F91FF90EF90DF903F
:100D5000CF900C94CC01CF92DF92EF92FF920F9341
:100D60001F93CF93DF93EC01F62E642F8C810E94AA
:100D7000B00C8D818F3F19F060E00E94B00C8F8520
:100D80000F2D10E084FF25C06E0187E0C80ED11C36
:100D9000E12CF12CB8010E2C02C0759567950A94D0
:100DA000E2F76170F60181916F010E94B00CFFEFD4
:100DB000EF1AFF0A88E0E816F10461F7CE01DF912F
:100DC000CF911F910F91FF90EF90DF90CF900C94F7
:100DD000CC01B80184E0759567958A95E1F7CE015D
:100DE0000E947E066F2DCE01DF91CF911F910F9152
:100DF000FF90EF90DF90CF900C947E0641E00E9430
:100E0000AB0681E090E008958F929F92AF92BF92DF
:100E1000CF92DF92EF92FF92CF93DF93EC01EE8DB2
:100E2000FF8DC080D180E280F380CEA2DFA2E8A651
:100E3000F9A6EC8DFD8D80819181A281B3818AA775
:100E40009BA7ACA7BDA78EA89FA8A8ACB9ACA501CD
:100E50009401C701B6010E94A82F181664F08AA851
:100E60009BA8ACA8BDA8A5019401C701B6010E942A
:100E7000052D87FF04C08EA29FA2A8A6B9A6DF9168
:100E8000CF91FF90EF90DF90CF90BF90AF909F9069
:100E90008F9008954F925F926F927F928F929F9260
:100EA000AF92BF92CF92DF92EF92FF920F931F9378
:100EB000CF93DF9300D000D000D0CDB7DEB79E83B4
:100EC0008D832A013B014801590120E030E0A9014E
:100ED000C301B2010E94052D87FD89C020E030E0EA
:100EE000A901C501B4010E94052D87FD80C020E045
:100EF00030E0A901C701B6010E94052D87FD77C02A
:100F000081E0ED81FE81228D338D2130310509F0A4
:100F100080E0ED81FE8183AF4082518262827382E4
:100F200084829582A682B782C086D186E286F386C5
:100F300066A577A580A991A90E940A2D20E030E03E
:100F40004AE754E40E94072F69837A838B839C834A
:100F5000ED81FE8144865586668677869B01AC01CD
:100F6000C501B4010E946B2D4B015C01ED81FE8136
:100F7000608B718B828B938B29813A814B815C8151
:100F8000C701B6010E94072F6B017C01ED81FE8134
:100F9000648B758B868B978B808D918D019739F53E
:100FA000A301920160E070E0CB010E949A2EED81D6
:100FB000FE816487758786879787A501940160E025
:100FC00070E0CB010E949A2EED81FE81608B718BC7
:100FD000828B938BA701960160E070E0CB010E94A9
:100FE0009A2EED81FE81648B758B868B978B26966E
:100FF0000FB6F894DEBF0FBECDBFDF91CF911F912A
:101000000F91FF90EF90DF90CF90BF90AF909F90A7
:101010008F907F906F905F904F9008952F923F92A6
:101020004F925F926F927F928F929F92AF92BF92F8
:10103000CF92DF92EF92FF920F931F93CF93DF93A4
:10104000CDB7DEB760970FB6F894DEBF0FBECDBF49
:10105000DC01DA96BC91B983B11102C019822BC1AF
:10106000988B8F870E946C0E6E837F838887998709
:10107000EF85F88982A193A1A4A1B5A14E815F81DA
:1010800068857985481B590B6A0B7B0B86A597A54C
:10109000A0A9B1A9481759076A077B07F8F2048C81
:1010A000F58DE02D80819181A281B3818A839B831C
:1010B000AC83BD83AF85B8899096ED91FC919197F3
:1010C0002A813B814C815D81608171818281938124
:1010D0000E949A2E4B015C01EF85F88922A533A569
:1010E00044A555A56A817B818C819D810E949A2EA1
:1010F0006B017C01AF85B88950962D913D914D9142
:101100005C915397C501B4010E946B2DEF85F8895E
:1011100026A137A140A551A50E949B2E2B013C0181
:10112000AF85B88996966D937D938D939C9399978F
:10113000DB96BC91BA87B11118C0EF85F889248578
:10114000358546855785C701B6010E946B2D9B01E9
:10115000AC01C301B2010E949A2EAF85B889969660
:101160006D937D938D939C939997EF85F88946A015
:1011700057A060A471A416A907A930AC21AC212FF7
:10118000302F432D522DC301B2010E94A82F1816F3
:101190002CF4812F902FA32DB22D18C0AF85B889C4
:1011A000D2968D919D910D90BC91A02D8B879C879F
:1011B000AD87BE879C01AD01C301B2010E94052D20
:1011C00087FF0AC08B859C85AD85BE85EF85F88934
:1011D00086A397A3A0A7B1A7FA85FF2379F0AF85CF
:1011E000B8891C962D913D914D915C911F97C50139
:1011F000B4010E946B2D4B015C0103C0812C912C2A
:101200005401EF85F8892489358946895789C701B2
:10121000B6010E946B2D9B01AC01AF85B8899696F3
:101220006D917D918D919C9199970E949A2EA50127
:1012300094010E949B2E6B017C019B01AC01612FEC
:10124000702F832D922D0E94052D87FD14C0EF85F0
:10125000F88912A903A934A825A8212F302F432DDE
:10126000522DB601C7010E94052D87FD04C01C2D1B
:101270000D2D3E2C2F2CAF85B8895E96ED91FC91FB
:101280005F97812F902FA32DB22D80839183A2830E
:10129000B3838A819B81AC81BD81EF85F88982A768
:1012A00093A7A4A7B5A78E819F81A885B98582A39E
:1012B00093A3A4A3B5A3898160960FB6F894DEBF6B
:1012C0000FBECDBFDF91CF911F910F91FF90EF9097
:1012D000DF90CF90BF90AF909F908F907F906F9056
:1012E0005F904F903F902F900895CF93DF93EB0145
:1012F0000E94292E8883CE01DF91CF910895CF924D
:10130000DF92EF92FF920F931F93CF93DF93EB0146
:101310007B0124E0E20EF11C8B016C01C61AD70A96
:10132000C601800F911F0E94292EF80181938F0121
:10133000EE15FF05A9F7CE01DF91CF911F910F9117
:10134000FF90EF90DF90CF9008950F931F93CF936E
:10135000DF938C01EB010E94292E8883C80101963E
:101360000E94292E8983CE01DF91CF911F910F9189
:1013700008950F931F93CF93DF9300D0CDB7DEB7BF
:101380008B01FB0160819A838983CE0101960E94C3
:10139000F014C8010F900F90DF91CF911F910F9122
:1013A0000895AF92BF92CF92DF92EF92FF920F9388
:1013B0001F93CF93DF9300D0CDB7DEB78B016B01C6
:1013C00024E0C20ED11C7B015C01A61AB70AC5013C
:1013D0008E0D9F1DF70161917F019A838983CE0154
:1013E00001960E94F014EC14FD0489F7C8010F90D7
:1013F0000F90DF91CF911F910F91FF90EF90DF90B1
:10140000CF90BF90AF900895EF92FF920F931F93EC
:10141000CF93DF9300D0CDB7DEB78C017B01FB010A
:1014200060819A838983CE0101960E94F014F701AE
:1014300061810F5F1F4F1A830983CE0101960E94BD
:10144000F014C7010F900F90DF91CF911F910F9172
:10145000FF90EF9008951092D2031092D003109253
:10146000D4031092D30360E08CE00E94B00C62EAD7
:1014700071E086E494E00E9424068091CF038130DD
:1014800021F489EA91E00E942C0C8091CF038230F4
:1014900021F487EB91E00E942C0C8091CF038330E4
:1014A00021F485EC91E00E942C0C8091CF038430D4
:1014B00021F483ED91E00E942C0C8091CF038530C4
:1014C00021F481EE91E00E942C0C8091CF038630B4
:1014D00021F48CEE91E00E942C0C60E08DE00C94E5
:1014E000B00CCF92DF92EF92FF920F931F938091F7
:1014F000140190911501A0911601B09117018093EC
:10150000E3049093E404A093E504B093E60480918F
:10151000D5039091D603A091D703B091D8038093BF
:10152000EB049093EC04A093ED04B093EE048FEEE3
:1015300094E00E940E080E946C0EC090C203D090EE
:10154000C303E090C403F090C50320913C013091A7
:101550003D018901330F220B330BAB01BC014C1948
:101560005D096E097F09041715072607370770F410
:10157000D701C601800F911FA21FB31F8093C20322
:101580009093C303A093C403B093C5030E946C0E51
:10159000C090C203D090C303E090C403F090C50391
:1015A0006C197D098E099F090E940A2D2091E7047C
:1015B0003091E8044091E9045091EA040E94A82F78
:1015C000181614F460E001C061E08BE01F910F91E8
:1015D000FF90EF90DF90CF900C94B00C0F931F937F
:1015E0008091000190910101A0910201B09103014D
:1015F00080932B0590932C05A0932D05B0932E0579
:101600008091D9039091DA03A091DB03B091DC03C0
:101610008093330590933405A0933505B093360538
:1016200087E395E00E940E080E946C0E0091BE03B5
:101630001091BF032091C0033091C103AB01BC01E5
:10164000401B510B620B730B493E53406105710502
:1016500070F0D901C80188519C4FAF4FBF4F8093A4
:10166000BE039093BF03A093C003B093C1030E9435
:101670006C0E0091BE031091BF032091C003309106
:10168000C103601B710B820B930B0E940A2D2091EA
:101690002F053091300540913105509132050E945F
:1016A000A82F181614F460E001C061E08AE01F91D1
:1016B0000F910C94B00C833081F028F4813099F0B4
:1016C0008230A1F008958730A9F08830B9F08430D5
:1016D000D1F4809180008F7D03C0809180008F774E
:1016E00080938000089584B58F7702C084B58F7D84
:1016F00084BD08958091B0008F7703C08091B000C1
:101700008F7D8093B00008953FB7F8948091420494
:1017100090914304A0914404B091450426B5A89B40
:1017200005C02F3F19F00196A11DB11D3FBFBA2F73
:10173000A92F982F8827820F911DA11DB11DBC01D3
:10174000CD0142E0660F771F881F991F4A95D1F798
:10175000089540E0682F83E795E00C94AB068F92E4
:101760009F92AF92BF92CF92DF92EF92FF920F9330
:101770001F93CF93DF93EC016A017B0120E030E0FF
:10178000A901C701B6010E94052D18160CF04FC023
:101790001AAA1BAA1CAA1DAACEAADFAAE8AEF9AEF5
:1017A0008AAD882309F443C00E8D1F8DF801808017
:1017B0009180A280B380A5019401C701B6010E9467
:1017C000052D87FF06C0F801C082D182E282F38234
:1017D0000EC020E030E0A901C501B4010E94052D32
:1017E00087FF05C0F80110821182128213828EA039
:1017F0009FA0A8A4B9A4CEA8DFA8E8ACF9ACA70123
:101800009601C501B4010E94A82F181664F0CAA859
:10181000DBA8ECA8FDA8A7019601C501B4010E94B0
:10182000052D87FF04C0CEA2DFA2E8A6F9A6DF91AE
:10183000CF911F910F91FF90EF90DF90CF90BF90CD
:10184000AF909F908F90089581E00E94A90B8BE349
:101850009FE10197F1F70895CF93DF93BC0186E4F0
:1018600094E00E94EA04EC016AED72E086E494E000
:101870000E94EA048C0F9D1FDF91CF910895643080
:1018800008F063E090918605691710F06FEF690F1B
:10189000E62FF0E0ED58FA4F9489890F80680C9498
:1018A000A90BCF92DF92EF92FF920F931F93CF93EA
:1018B000DF936B01770FEE08FF08F7FE1BC0EC010A
:1018C0006DE20E94E3048C0144275527BA014C19AC
:1018D0005D096E097F092AE0CE010E94FF04800F96
:1018E000911FDF91CF911F910F91FF90EF90DF90AB
:1018F000CF9008952AE0B701A601DF91CF911F9103
:101900000F91FF90EF90DF90CF900C94FF04CF9356
:10191000DF93282F30E0F901E75FFE4F8491F90152
:10192000EB50FF4FD491F901EF51FF4FC491CC23FD
:1019300091F081110E945B0BEC2FF0E0EE0FFF1F86
:10194000E952FF4FA591B491EC91ED2381E090E035
:1019500021F480E002C080E090E0DF91CF91089513
:101960001F93CF93DF93282F30E0F901E75FFE4FFD
:101970008491F901EB50FF4FD491F901EF51FF4FE2
:10198000C491CC23C1F0162F81110E945B0BEC2F68
:10199000F0E0EE0FFF1FE353FF4FA591B4919FB707
:1019A000F894111104C08C91D095D82302C0EC9109
:1019B000DE2BDC939FBFDF91CF911F910895CF93D2
:1019C000DF9390E0FC01EB50FF4F2491FC01EF51BD
:1019D000FF4F8491882361F190E0880F991FFC01EB
:1019E000ED53FF4FC591D491FC01E353FF4FA591F7
:1019F000B491611109C09FB7F89488812095822322
:101A00008883EC912E230BC0623061F49FB7F89469
:101A10008881322F309583238883EC912E2B2C9351
:101A20009FBF06C08FB7F894E8812E2B28838FBF05
:101A3000DF91CF910895CF93DF93823028F090917A
:101A400082059860909382058093860510928705A1
:101A500080E48093880580E18093890580E5809308
:101A60008A0561E0809177050E94DF0C80917805FE
:101A70008F3F19F061E00E94DF0C61E080917905F1
:101A80000E94DF0CC3E7D5E09E01235735408091CB
:101A9000820584FD03C084E090E002C088E090E00D
:101AA0002196281739072CF461E08E810E94DF0C03
:101AB000EBCF8BE39DE00197F1F760E08091770534
:101AC0000E94B00C60E0809179050E94B00C80917A
:101AD00078058F3F19F060E00E94B00C809182057C
:101AE00084FD20C063E083E795E00E947E06CBE49E
:101AF000D6E4CE010197F1F763E083E795E00E9419
:101B00007E062197F1F763E083E795E00E947E0669
:101B100083E592E00197F1F762E083E795E00E94A8
:101B20007E0615C080620E94A90B8BE496E40197A3
:101B3000F1F78091820580620E94A90B83E592E013
:101B40000197F1F78091820580620E94A90B809134
:101B5000820580620E94A90B84E0809383058CE05B
:101B60000E94A90B0E94240C82E08093840586E0E9
:101B7000DF91CF910C94A90B1F93CF93DF93182F74
:101B8000EB0161E00E94DF0C209711F460E004C0DB
:101B9000CF3FD10539F461E0812FDF91CF911F91C3
:101BA0000C94B00CE12FF0E0E75FFE4FE491E330DE
:101BB000F9F048F4E130B9F0E230A1F584B5806283
:101BC00084BDC8BD34C0E730E9F0E83019F1E43035
:101BD00049F580918000806280938000D0938B00D3
:101BE000C0938A0024C084B5806884BDC7BD1FC06F
:101BF00080918000806880938000D0938900C0939A
:101C0000880015C08091B00080688093B000C093B8
:101C1000B3000DC08091B00080628093B000C0938B
:101C2000B40005C0C038D1050CF0B5CFAFCFDF91FF
:101C3000CF911F9108958E3008F08E508770806488
:101C400080937C0080917A00806480937A008091F8
:101C50007A0086FDFCCF809178002091790090E099
:101C6000922B08958F929F92AF92BF92CF92DF9264
:101C7000EF92FF926B017C010E94840B4B015C018F
:101C8000C114D104E104F104F1F00E94840BDC01E1
:101C9000CB0188199909AA09BB09883E9340A1057F
:101CA000B10570F321E0C21AD108E108F10888EE0D
:101CB000880E83E0981EA11CB11CC114D104E1045C
:101CC000F10419F7DDCFFF90EF90DF90CF90BF9038
:101CD000AF909F908F9008952FB7F89460913E0435
:101CE00070913F0480914004909141042FBF08956A
:101CF0004F925F926F927F928F929F92AF92BF921C
:101D0000CF92DF92EF92FF920F931F93CF93DF93C7
:101D1000CDB7DEB74C01DC015F965C934E935E97C6
:101D20005D967C936E935C9791963C932E939097DF
:101D3000DA961C92FC0112AA13AA14AA15AA80E032
:101D400090E0AFE7B3E486AB97ABA0AFB1AF84E66A
:101D500090E0A0E0B0E086A797A7A0ABB1AB118E52
:101D6000108E20E030E0A901C801B7010E94052DC6
:101D700087FD56C020E030E0A901C601B5010E94F0
:101D8000052D87FD4DC020E030E0A9016B897C89DD
:101D90008D899E890E94052D87FD42C081E090E0DB
:101DA000D4015B969C938E935A97DB968C93DB972A
:101DB000F401E082F182028313831496AD92BD9206
:101DC000CD92DC9217978B899C89AD89BE898087DB
:101DD0009187A287B387D4011C96ED92FD920D9353
:101DE0001C931F972DEC3CEC4CEC5DE3C601B50158
:101DF0000E946B2DF401608B718B828B938B2DEC89
:101E00003CEC4CEC5DE36B897C898D899E890E945A
:101E1000072FD40154966D937D938D939C93579780
:101E20000E946C0EF401C6A4D7A4E0A8F1A8DC01BE
:101E3000CB018C199D09AE09BF0982A393A3A4A36A
:101E4000B5A3DF91CF911F910F91FF90EF90DF909D
:101E5000CF90BF90AF909F908F907F906F905F904A
:101E60004F9008950F931F930E946C0E60934E0441
:101E700070934F04809350049093510486E494E04F
:101E80000E94070197FF1FC00E946C0E00914E0434
:101E900010914F042091500430915104DC01CB018A
:101EA000801B910BA20BB30B00914A0410914B04C1
:101EB00020914C0430914D0480179107A207B3077D
:101EC000E8F28FEF9FEF1F910F91089560E080E09F
:101ED0000E943F0C8091D203823030F460EF72E0B8
:101EE00083E795E00E9424068091D2038C3031F480
:101EF0006FEF72E083E795E00E9424068091D203A1
:101F00008E3031F460E173E083E795E00E942406AF
:101F10008091D203803131F463E273E083E795E08E
:101F20000E94240660E08FE00E943F0C8AE00E943D
:101F3000870C019731F468E971E083E795E00E942E
:101F400024068AE00E94870C892B31F46CE272E04F
:101F500083E795E00E94240661E080E00E943F0C48
:101F60008091D2038E3001F563E373E083E795E05F
:101F70000E942406609130017091310180913201FC
:101F8000909133019B01AC010E949B2EAB01BC01DF
:101F900020E030E083E795E00E9448056CE272E0C3
:101FA00083E795E00E9424068091D2038031A1F559
:101FB00063E373E083E795E00E94240640913001DB
:101FC00050913101609132017091330120E030E095
:101FD00083E795E00E9448056CE272E083E795E0B4
:101FE0000E94240667E373E083E795E00E942406DD
:101FF0004091340150913501609136017091370163
:1020000022E030E083E795E00E9448056CE272E050
:1020100083E795E00E9424068091C6039091C70350
:102020008130910519F48CE390E005C0853091056D
:1020300039F48FE390E09093CE038093CD0308951D
:10204000039739F41092C7031092C6038AE0809375
:10205000D203089560E080E00E943F0C6BE373E0E0
:1020600083E795E00E9424064091D9035091DA035A
:102070006091DB037091DC0320E030E083E795E0C2
:102080000E94480567E972E083E795E00E94240614
:102090008091D2038130C1F520E030E040E05FE381
:1020A0006091C8037091C9038091CA039091CB03DA
:1020B0000E94052D87FF14C0409104015091050135
:1020C000609106017091070120E030E083E795E020
:1020D0000E94480567E972E083E795E00E942406C4
:1020E0004091000150910101609102017091030142
:1020F00020E030E083E795E00E9448056EE373E05E
:1021000083E795E00E9424068091D203811106C0E6
:1021100065E473E083E795E00E94240660E08FE0C9
:102120000E943F0C8AE00E94870C019731F468E915
:1021300071E083E795E00E9424068AE00E94870C04
:10214000892B31F46CE272E083E795E00E9424066B
:1021500061E080E00E943F0C83E10E94870C0197C0
:10216000D9F466E573E083E795E00E942406809148
:10217000D3039091D40397FD06C06CE272E083E72D
:1021800095E00E9424066091D3037091D40383E705
:1021900095E00E94510C1EC080918D058F5F8530A7
:1021A00018F480938D0502C010928D0580918D05E5
:1021B000833030F46DE573E083E795E00E942406F8
:1021C00080918D05833030F065E272E083E795E021
:1021D0000E9424068091C6039091C7038130910527
:1021E00019F484E690E005C08530910539F48AE061
:1021F00090E09093CE038093CD0339C08430910555
:1022000059F42091D3033091D4032F5F3F4F2530F1
:1022100031050CF444C00EC08230910581F48091E8
:10222000D3039091D40301978C3F2FEF920714F4BE
:102230008CEF9FEF9093D4038093D30318C0039740
:10224000B1F41092C7031092C6038091D20381119A
:102250000CC081E08093D2031092C8031092C9038E
:102260001092CA031092CB0302C01092D20361E015
:102270008AE00E943F0C4091C8035091C9036091CD
:10228000CA037091CB0322E030E083E795E00E941F
:10229000480566E673E083E795E00C9424063093E6
:1022A000D4032093D303E3CF60E080E00E943F0C8F
:1022B0008091D003823010F0843131F469E673E00C
:1022C00083E795E00E9424068091D0038C3031F49E
:1022D00069E773E083E795E00E9424068091D003CC
:1022E0008E3031F46BE873E083E795E00E942406BA
:1022F0008091D003803131F463E273E083E795E0AD
:102300000E94240660E08FE00E943F0C8BE00E9458
:10231000870C019731F468E971E083E795E00E944A
:1023200024068BE00E94870C892B31F46CE272E06A
:1023300083E795E00E94240661E080E00E943F0C64
:102340008091D0038E3001F56FE973E083E795E06B
:102350000E9424066091240170912501809126013C
:10236000909127019B01AC010E949B2EAB01BC0107
:1023700020E030E083E795E00E9448056CE272E0DF
:1023800083E795E00E9424068091D0038031A1F577
:102390006FE973E083E795E00E94240640912401F1
:1023A00050912501609126017091270120E030E0D5
:1023B00083E795E00E9448056CE272E083E795E0D0
:1023C0000E94240664EA73E083E795E00E942406F5
:1023D000409128015091290160912A0170912B01AF
:1023E00022E030E083E795E00E9448056CE272E06D
:1023F00083E795E00E9424068091C6039091C7036D
:102400008130910519F486E090E005C08530910592
:1024100039F481E490E09093CE038093CD03089546
:10242000039739F41092C7031092C6038AE0809391
:10243000D00308956BE875E080E090E00E94040A04
:1024400060E071E088E090E00E94D1096BE071E00B
:102450008CE090E00E94040A6DE071E080E190E081
:102460000E94040A60E371E084E190E00E94D109D7
:1024700064E371E088E190E00E94D10968E371E0D3
:102480008CE190E00E94D10964E071E080E290E08C
:102490000E94D10964E171E084E290E00E94D109D8
:1024A00064E271E088E290E00E94D10968E271E0A4
:1024B0008CE290E00E94D1096CE271E080E390E050
:1024C0000E94D10968E071E084E390E00E94040A70
:1024D00061ED73E088E390E00E94B90963E171E087
:1024E0008CE390E00E94B9096AE071E080E490E03A
:1024F0000E94B90968E171E084E490E00E94040A56
:102500006CEC73E088E490E00E94B9096FE171E03F
:102510008CE490E00C94D1099B01AC0160E070E088
:1025200080E894E40E94072F20E030E040E85FE379
:102530000E949A2E9B01AC0160E070EE82E995E466
:102540000E94072F20E030E543EC57E40E94072F5C
:102550000E94B52F20911F0130912001409121014F
:10256000509122010E94072F2FE03FEC4BE55BE3E7
:102570000E949B2E9B01AC0160E070E080E89FE32D
:102580000E94072F23E333E948E853E40E949A2E80
:102590000895CF92DF92EF92FF920F931F93CF9304
:1025A000DF9300D0CDB7DEB760E082E10E94DF0CA0
:1025B00060E085E10E94DF0C61E08AE00E94DF0CB0
:1025C00061E08BE00E94DF0C61E080E10E94DF0CA3
:1025D00061E08FE00E94DF0C61E081E10E94DF0C8E
:1025E00061E087E00E94DF0C61E08CE00E94DF0C7C
:1025F00062E083E10E94DF0C61E08DE00E94DF0C6D
:1026000060E080E10E94B00C60E087E00E94B00CC6
:1026100061E087E00E94B00C61E08DE00E94B00CA8
:102620006BE875E080E090E00E94A50980918B0541
:1026300090918C050196C1F400E010E01A82198295
:10264000BE016F5F7F4FC8010E94040A0F5F1F4FDA
:102650000F3F81E0180791F781E090E090938C059F
:1026600080938B050E941A126BE875E080E090E081
:102670000E94A50960E071E088E090E00E947F0977
:102680006BE071E08CE090E00E94A5096DE071E0E4
:1026900080E190E00E94A50960E371E084E190E0B0
:1026A0000E947F0964E371E088E190E00E947F0965
:1026B00068E371E08CE190E00E947F0964E071E0E2
:1026C00080E290E00E947F0964E171E084E290E0A2
:1026D0000E947F0964E271E088E290E00E947F0935
:1026E00068E271E08CE290E00E947F096CE271E0A8
:1026F00080E390E00E947F0968E071E084E390E06D
:102700000E94A50961ED73E088E390E00E947509DD
:1027100063E171E08CE390E00E9475096AE071E08A
:1027200080E490E00E94750968E171E084E490E043
:102730000E94A5096CEC73E088E490E00E947509A2
:102740006FE171E08CE490E00E947F0980918B053D
:1027500090918C05019690938C0580938B0582E077
:102760000E941B0D809108019091090101978E3FF5
:10277000910530F08AE090E0909309018093080180
:1027800060E084E00E943F0C69EA73E083E795E033
:102790000E94240661E082E00E943F0C61EB73E03E
:1027A00083E795E00E942406609108017091090179
:1027B00089E00E94BC0D68EE73E080E090E00E942A
:1027C000320E0E94240CE0915604F091570482E0EE
:1027D0008083E0915204F09153041082E0915404FC
:1027E000F091550480E1808310925E04E0915A04D8
:1027F000F0915B0486E08083E0915804F0915904E5
:10280000808180618083E0915804F0915904808137
:1028100088608083E0915804F09159048081806839
:102820008083E0915804F091590480818F7D8083EA
:10283000809118019091190184569109893C910564
:1028400030F084E690E09093190180931801809114
:10285000CC03823010F01092CC03C0901F01D090B6
:102860002001E0902101F090220120E030E44CE9C9
:1028700055E4C701B6010E94A82F181654F020E0B5
:1028800030E445E355E4C701B6010E94052D87FFFA
:102890000CC080E090EEA6E7B5E480931F01909312
:1028A0002001A0932101B09322010E946C0E60933D
:1028B000BE037093BF038093C0039093C10340E0B5
:1028C00050E06AE774E487E395E00E94AF0B8091E3
:1028D0007105811104C087E395E00E94040781E03F
:1028E00080937105C0903801D0903901E0903A0191
:1028F000F0903B0100913401109135012091360197
:102900003091370140913001509131016091320195
:102910007091330187E395E00E944A070E946C0E94
:102920006093C2037093C3038093C4039093C50361
:1029300060913C0170913D01072E000C880B990BB2
:102940000E940C2DAB01BC018FEE94E00E94AF0BF6
:1029500080912905811104C08FEE94E00E94040744
:1029600081E080932905C0902C01D0902D01E0904A
:102970002E01F0902F010091280110912901209142
:102980002A0130912B014091240150912501609141
:102990002601709127018FEE94E00E944A078091F2
:1029A0008000807E81608093800080918100807EA5
:1029B0008A608093810099E288E10FB6F894A89527
:1029C000809360000FBE909360000F900F90DF9196
:1029D000CF911F910F91FF90EF90DF90CF900895CE
:1029E000FF920F931F93CF93DF93EC01F62E088194
:1029F0001981C8010E94292EF81621F06F2DC801F7
:102A00000E94312ECE01DF91CF911F910F91FF9047
:102A100008951F920F920FB60F9211242F933F9398
:102A20008F939F93AF93BF9380913E0490913F0407
:102A3000A0914004B091410430918E0523E0230F12
:102A40002D3720F40196A11DB11D05C026E8230FE6
:102A50000296A11DB11D20938E0580933E04909394
:102A60003F04A0934004B0934104809142049091AC
:102A70004304A0914404B09145040196A11DB11DE9
:102A80008093420490934304A0934404B09345047C
:102A9000BF91AF919F918F913F912F910F900FBE5A
:102AA0000F901F901895CF93DF93CDB7DEB7C0542A
:102AB000D1090FB6F894DEBF0FBECDBF789484B5B0
:102AC000826084BD84B5816084BD85B5826085BD2A
:102AD00085B5816085BD80916E00816080936E00B8
:102AE00010928100809181008260809381008091AA
:102AF000810081608093810080918000816080935B
:102B000080008091B10084608093B1008091B0001A
:102B100081608093B00080917A00846080937A0015
:102B200080917A00826080937A0080917A0081603F
:102B300080937A0080917A00806880937A00109266
:102B4000C1000E94C91265E0862E912C82E10E948C
:102B50001B0E8C01C090E103D090E203E090E303F0
:102B6000F090E40320E030E040E05CE3C701B60110
:102B70000E946B2D9B01AC01C701B6010E949A2EE9
:102B80006B017C01B801110F880B990B0E940C2D71
:102B90009B01AC01C701B6010E949B2E6093E1032B
:102BA0007093E2038093E3039093E40320E030E02A
:102BB00040E05CE30E946B2D60931A0470931B0449
:102BC00080931C0490931D0485E10E941B0E8C01D0
:102BD000C090DD03D090DE03E090DF03F090E003CF
:102BE00020E030E040E05CE3C701B6010E946B2DBD
:102BF0009B01AC01C701B6010E949A2E6B017C01BA
:102C0000B801110F880B990B0E940C2D9B01AC0190
:102C1000C701B6010E949B2E6093DD037093DE0313
:102C20008093DF039093E00320E030E040E05CE33A
:102C30000E946B2D60931604709317048093180400
:102C4000909319048091D203813009F0FDC0C090A7
:102C5000C803D090C903E090CA03F090CB0320E0F2
:102C600030E040E05FE3C701B6010E94052D181671
:102C700084F08091040190910501A0910601B0912A
:102C800007018093020490930304A0930404B0937B
:102C9000050420E030E040E05FE3C701B6010E9498
:102CA000A82F181684F48091000190910101A09141
:102CB0000201B09103018093020490930304A09356
:102CC0000404B093050460910204709103048091A0
:102CD00004049091050460932B0570932C05809358
:102CE0002D0590932E0520E030E040E251E40E9453
:102CF0009A2E21966CAF7DAF8EAF9FAF21974090FB
:102D0000D9035090DA036090DB037090DC03A301D9
:102D100092010E94A82F181674F561E08AE00E94C3
:102D2000B00CA0903401B0903501C0903601D09025
:102D30003701E0903001F0903101009132011091A3
:102D4000330180913B018F9380913A018F93809161
:102D500039018F93809138018F932BE235E04FE258
:102D600055E063E375E0CE0101960E94780E0F9066
:102D70000F900F900F90A301920121966CAD7DAD45
:102D80008EAD9FAD21970E94052D87FF4EC180918A
:102D90007105811104C087E395E00E94040781E07A
:102DA0008093710540923305509234056092350549
:102DB0007092360587E395E00E940E080E946C0E23
:102DC0000091BE031091BF032091C0033091C10355
:102DD000AB01BC01401B510B620B730B493E5340CE
:102DE0006105710570F0D901C80188519C4FAF4F42
:102DF000BF4F8093BE039093BF03A093C003B093D3
:102E0000C1030E946C0E0091BE031091BF0320917C
:102E1000C0033091C103601B710B820B930B0E94A6
:102E20000A2D20912F0530913005409131055091A8
:102E300032050E94A82F181614F460E001C061E06A
:102E40008AE00E94B00CF1C0811107C01092710598
:102E500060E08AE00E94B00C61C08A3009F05EC078
:102E600080917105811104C087E395E00E940407F9
:102E700081E0809371058091000190910101A09102
:102E80000201B091030180932B0590932C05A09330
:102E90002D05B0932E058091D9039091DA03A0916E
:102EA000DB03B091DC038093330590933405A0934A
:102EB0003505B093360580E090E0A0E8BFE380934D
:102EC000300190933101A0933201B09333011092FD
:102ED0003401109235011092360110923701109290
:102EE00038011092390110923A0110923B01C12C25
:102EF000D12C760197018601AC01BD0187E395E0F5
:102F00000E944A078CE08093D20380912204909122
:102F100023044E969093E8038093E7038091D203B5
:102F20008C3009F082C00E94EE0A8091E7039091F4
:102F3000E803A0E0B0E040912204509123046091A6
:102F400024047091250484179507A607B70708F095
:102F500023C14090D9035090DA036090DB03709056
:102F6000DC0320E030E040E251E460910001709128
:102F7000010180910201909103010E949A2EA30108
:102F800092010E94A82F181664F520E030E040E876
:102F90005FE3609130017091310180913201909135
:102FA00033010E949B2EAB01BC0140933001509332
:102FB00031016093320170933301C0903801D09099
:102FC0003901E0903A01F0903B01009134011091F9
:102FD0003501209136013091370187E395E00E9459
:102FE0004A0720E030E040E251E460910001709136
:102FF000010180910201909103010E949A2E9B0190
:10300000AC01C301B2010E94A82F18162CF48EE067
:103010008093D2030E941A1280912204909123047B
:103020004E969093E8038093E7038091D2038E300D
:1030300009F0B2C00E94EE0A8091E7039091E80384
:10304000A0E0B0E040912204509123046091240458
:103050007091250484179507A607B70708F09CC050
:103060004090D9035090DA036090DB037090DC034A
:103070002091000130910101409102015091030122
:10308000C301B2010E94052D87FF2CC02DEC3CEC42
:103090004CEC5DE360913401709135018091360113
:1030A000909137010E949B2E8B019C01609334010B
:1030B000709335018093360190933701C0903801A9
:1030C000D0903901E0903A01F0903B0140913001FD
:1030D00050913101609132017091330187E395E0A5
:1030E0000E944A07209100013091010140910201A4
:1030F00050910301C301B2010E94A82F87FD43C074
:103100001092710560E08AE00E94B00C20E030E08F
:1031100048EC52E4209338013093390140933A014E
:1031200050933B0120E030E040EC5FE360913001E0
:103130007091310180913201909133010E946B2D89
:103140006093300170933101809332019093330189
:1031500020E030E040EC5FE3609134017091350194
:1031600080913601909137010E946B2D609334015C
:1031700070933501809336019093370180E18093FD
:10318000D2030E941A1280912204909123044E9639
:103190009093E8038093E7038091D003882309F498
:1031A0003DC0813009F03EC0C090D503D090D60319
:1031B000E090D703F090D80320E030E040E251E403
:1031C0006091140170911501809116019091170181
:1031D0000E949A2EA70196010E94A82F181624F487
:1031E00061E08BE00E94B00C20E030E040E251E46E
:1031F0006091140170911501809116019091170151
:103200000E949A2E9B01AC01C701B6010E94A82F13
:1032100018160CF0E2C084E18093D00360E08BE0EC
:103220000E94B00C8091D003843109F075C0809168
:103230002905811104C08FEE94E00E94040781E00B
:10324000809329058091140190911501A091160198
:10325000B09117018093E3049093E404A093E504F4
:10326000B093E6048091D5039091D603A091D70343
:10327000B091D8038093EB049093EC04A093ED04F9
:10328000B093EE048FEE94E00E940E080E946C0E44
:103290000091C2031091C3032091C4033091C50370
:1032A000AB01BC01401B510B620B730B493E5340F9
:1032B0006105710570F0D901C80188519C4FAF4F6D
:1032C000BF4F8093C2039093C303A093C403B093F2
:1032D000C5030E946C0E0091C2031091C30320919C
:1032E000C4033091C503601B710B820B930B0E94CA
:1032F0000A2D2091E7043091E8044091E9045091AF
:10330000EA040E94A82F181614F460E001C061E0DE
:103310008BE00E94B00CE8C08A3009F05EC080915A
:103320002905811104C08FEE94E00E94040781E01A
:10333000809329058091140190911501A0911601A7
:10334000B09117018093E3049093E404A093E50403
:10335000B093E6048091D5039091D603A091D70352
:10336000B091D8038093EB049093EC04A093ED0408
:10337000B093EE0480E090E0A0E8BFE380932401E6
:1033800090932501A0932601B09327011092280164
:103390001092290110922A0110922B0110922C01F7
:1033A00010922D0110922E0110922F01C12CD12CC0
:1033B000760197018601AC01BD018FEE94E00E9479
:1033C0004A078CE08093D0038091220490912304DB
:1033D0004E969093E6038093E5038091D0038C3062
:1033E00009F082C00E94710A8091E5039091E60382
:1033F000A0E0B0E0409122045091230460912404A5
:103400007091250484179507A607B70708F023C114
:103410004090D5035090D6036090D7037090D803A6
:1034200020E030E040E251E4609114017091150118
:1034300080911601909117010E949A2EA30192018A
:103440000E94A82F181664F520E030E040E85FE302
:1034500060912401709125018091260190912701AE
:103460000E949B2EAB01BC01409324015093250187
:103470006093260170932701C0902C01D0902D01FC
:10348000E0902E01F0902F01009128011091290168
:1034900020912A0130912B018FEE94E00E944A077F
:1034A00020E030E040E251E4609114017091150198
:1034B00080911601909117010E949A2E9B01AC01F8
:1034C000C301B2010E94A82F18162CF48EE080933D
:1034D000D0030E941A1280912204909123044E96E8
:1034E0009093E6038093E5038091D0038E3009F03A
:1034F000B2C00E94710A8091E5039091E603A0E0BA
:10350000B0E0409122045091230460912404709112
:10351000250484179507A607B70708F09CC04090BC
:10352000D5035090D6036090D7037090D8032091B4
:103530001401309115014091160150911701C301FA
:10354000B2010E94052D87FF2CC02DEC3CEC4CEC09
:103550005DE3609128017091290180912A01909189
:103560002B010E949B2E8B019C016093280170937C
:10357000290180932A0190932B01C0902C01D090B7
:103580002D01E0902E01F0902F01409124015091E7
:10359000250160912601709127018FEE94E00E9431
:1035A0004A07209114013091150140911601509164
:1035B0001701C301B2010E94A82F87FD43C01092DA
:1035C000290560E08BE00E94B00C80E18093D0037D
:1035D00020E030E048EC52E420932C0130932D01A0
:1035E00040932E0150932F0120E030E040EC5FE348
:1035F000609124017091250180912601909127010D
:103600000E946B2D60932401709325018093260105
:103610009093270120E030E040EC5FE360912801C7
:103620007091290180912A0190912B010E946B2DAC
:10363000609328017093290180932A0190932B01B4
:103640000E941A1280912204909123044E96909326
:10365000E6038093E5030E946C0E28EE33E040E021
:1036600050E00E94692E2AE030E040E050E00E94E5
:10367000692E8091290490912A04A0912B04B09185
:103680002C04281739074A075B0709F4B7C02093B1
:10369000290430932A0440932B0450932C048091E6
:1036A00028048F5F809328048EE00E941B0E909365
:1036B000F1038093F0032091EB03211139C085368B
:1036C00091050CF484C02091EE033091EF03AC011E
:1036D0004E5F5F4F421753071CF1445051092417A6
:1036E0003507F4F02091EC033091ED032F5F3F4F4D
:1036F0003093ED032093EC039093EF038093EE035C
:10370000253031050CF463C01092ED031092EC03E8
:1037100021E02093EB031092EF031092EE0308C018
:103720001092ED031092EC039093EF038093EE035D
:103730002091EB03213009F04AC09C012B5D3240FF
:103740002B33310530F421E030E03093C703209370
:10375000C6039C012B5332402133310530F442E043
:1037600050E05093C7034093C6039C01255A314053
:103770002232310530F4A3E0B0E0B093C703A09348
:10378000C6039C01255031402534310530F424E036
:1037900030E03093C7032093C6039C012D583109B4
:1037A0002D31310520F49092C7038092C603909387
:1037B0001F0480931E0482E08093EB038091C60374
:1037C0009091C7030197059730F01092EB03809119
:1037D000EB03823099F48091E9039091EA0301961A
:1037E000853191052CF49093EA038093E90306C098
:1037F0001092EA031092E9031092EB0380912804DF
:103800008A3010F40C943A281092280480912704EE
:103810008F5F809327048091CD039091CE038233F4
:10382000910511F40C944A240CF0A4C08A3091053F
:1038300009F42AC40CF087C08530910509F498C3B7
:1038400044F4892B11F00C9425260E942A100C9424
:1038500021268630910509F4E1C3089711F00C94F4
:10386000252660E080E00E943F0C6091F00370919B
:10387000F10383E795E00E94510C67E172E083E772
:1038800095E00E9424066091EE037091EF0383E7B8
:1038900095E00E94510C67E172E083E795E00E9499
:1038A00024066091EC037091ED0383E795E00E949C
:1038B000510C67E172E083E795E00E94240660E026
:1038C00070E083E795E00E94510C67E172E083E7C6
:1038D00095E00E94240660E070E083E795E00E9496
:1038E000510C61E080E00E943F0C6091C603709132
:1038F000C70383E795E00E94510C6CE272E083E716
:1039000095E00E9424068EE00E941B0EBC0183E716
:1039100095E00E94510C6CE272E083E795E00E9412
:1039200024064091EB0350E060E070E02AE083E77A
:1039300095E00E94FF0469E172E083E795E00E9450
:1039400024060C9425268E31910509F4E4C54CF427
:103950008F30910509F454C4449709F40FC50C94B1
:1039600025268332910509F47FC6889709F404C798
:103970000C94252681349105A1F1D4F48E33910560
:1039800011F40C946A2534F4CC9711F40C94D024DF
:103990000C9425268F33910511F40C946D258034F9
:1039A000910511F00C9425260E9454110C942126A7
:1039B0008F35910509F4C6C154F48634910509F494
:1039C000A4C08035910509F427C10C9425268436BE
:1039D000910509F435C28F3F910509F4C4C20C94D6
:1039E000252660E080E00E943F0C6CE571E083E7F3
:1039F00095E00E94240661E080E00E943F0C62E8AE
:103A000072E083E795E00E94240640912C015091DA
:103A10002D0160912E0170912F0122E030E083E7AB
:103A200095E00E94480567E972E083E795E00E940F
:103A300024068091C6039091C7038130910509F453
:103A4000FEC28530910519F486E490E064C68230A8
:103A5000910549F520E030E040E251E460912C010D
:103A600070912D0180912E0190912F010E949A2E2C
:103A70006B017C0120E030E0A9010E94052D87FD4B
:103A800009C0C0922C01D0922D01E0922E01F0923B
:103A90002F0119C110922C0110922D0110922E01AC
:103AA00010922F0110C1049711F00C94212620E0F0
:103AB00030E040E251E460912C0170912D01809141
:103AC0002E0190912F010E949B2E6B017C0160932F
:103AD0002C0170932D0180932E0190932F01009162
:103AE00028011091290120912A0130912B01409148
:103AF00024015091250160912601709127018FEEDC
:103B000094E00E944A070C94212660E080E00E9425
:103B10003F0C66E671E083E795E00E94240661E0D1
:103B200080E00E943F0C62E872E083E795E00E942B
:103B30002406409128015091290160912A01709139
:103B40002B0122E030E083E795E00E94480567E919
:103B500072E083E795E00E9424068091C60390916D
:103B6000C7038130910519F481E490E0D4C5853014
:103B7000910509F430C18230910549F52DEC3CECFA
:103B80004CEC5DE3609128017091290180912A013C
:103B900090912B010E949A2E6B017C0120E030E075
:103BA000A9010E94052D87FD09C0C0922801D0926D
:103BB0002901E0922A01F0922B0185C01092280180
:103BC0001092290110922A0110922B017CC00497B7
:103BD00011F00C9421262DEC3CEC4CEC5DE3609153
:103BE00028017091290180912A0190912B010E9456
:103BF0009B2E8B019C016093280170932901809377
:103C00002A0190932B01C0902C01D0902D01E090BF
:103C10002E01F0902F016BCF60E080E00E943F0CFE
:103C200060E771E083E795E00E94240661E080E0B0
:103C30000E943F0C62E872E083E795E00E94240650
:103C40004091240150912501609126017091270136
:103C500022E030E083E795E00E94480567E972E0E2
:103C600083E795E00E9424068091C6039091C703E4
:103C70008230910589F520E030E040E85FE3609113
:103C800024017091250180912601909127010E94C5
:103C90009A2E6B017C0120E030E0A9010E94052DE5
:103CA00087FD09C0C0922401D0922501E09226012F
:103CB000F092270108C01092240110922501109261
:103CC000260110922701C0902C01D0902D01E09088
:103CD0002E01F0902F0103CF8430910549F520E0AB
:103CE00030E040E85FE3609124017091250180910C
:103CF0002601909127010E949B2EAB01BC014093AD
:103D00002401509325016093260170932701C090F0
:103D10002C01D0902D01E0902E01F0902F01009108
:103D200028011091290120912A0130912B01E7CE21
:103D30008130910509F488CE059709F082C78FE597
:103D400090E0E9C460E080E00E943F0C6AE771E027
:103D500083E795E00E94240661E080E00E943F0C2A
:103D600062E872E083E795E00E9424064091140126
:103D700050911501609116017091170120E030E01B
:103D800083E795E00E94480567E972E083E795E0E4
:103D90000E9424066BE871E083E795E00E94240608
:103DA0004091D5035091D6036091D7037091D80309
:103DB00020E030E083E795E00E9448056DE871E07F
:103DC00083E795E00E9424068091C6039091C70383
:103DD0008130910519F480E590E09DC48230910511
:103DE00079F420E030E040E85FE3609114017091E5
:103DF000150180911601909117010E949A2E11C011
:103E000084309105B9F420E030E040E85FE3609150
:103E100014017091150180911601909117010E9473
:103E20009B2E60931401709315018093160190935B
:103E3000170107C7059709F004C784E690E06BC433
:103E400060E080E00E943F0C6FE871E083E795E05E
:103E50000E9424064091D5035091D6036091D70368
:103E60007091D80320E030E083E795E00E94480598
:103E700067E972E083E795E00E9424068091D00311
:103E80008823A1F040911401509115016091160111
:103E90007091170120E030E083E795E00E9448052B
:103EA00067E272E083E795E00E9424068091D003E8
:103EB000811106C063E971E083E795E00E94240662
:103EC00060E08FE00E943F0C8BE00E94870C01971E
:103ED00031F468E971E083E795E00E9424068BE005
:103EE0000E94870C892B31F46CE272E083E795E045
:103EF0000E9424066CE272E083E795E00E942406AB
:103F000061E080E00E943F0C6AE971E083E795E0A0
:103F10000E9424068091C6039091C70382309105C8
:103F200011F460E004C08430910549F461E08CE054
:103F30000E94B00C109207041092060482C68330CF
:103F4000910551F48091D0038F5F823010F40C946E
:103F5000842B1092D00375C68130910509F4EFCE01
:103F6000059709F06EC61092CE031092CD0369C674
:103F700060E080E00E943F0C62EA71E083E795E038
:103F80000E9424064091CF0350E060E070E02AE0F8
:103F900083E795E00E94FF0461E080E00E943F0C0F
:103FA0008091CF03813031F469EA71E083E795E0D5
:103FB0000E9424068091CF03823031F467EB71E0D8
:103FC00083E795E00E9424068091CF03833031F48B
:103FD00065EC71E083E795E00E9424068091CF03B1
:103FE000843031F463ED71E083E795E00E942406AC
:103FF0008091CF03853031F461EE71E083E795E085
:104000000E9424068091CF03863009F01AC66CEE18
:1040100071E083E795E00E94240613C660E080E02B
:104020000E943F0C67EF71E083E795E00E94240651
:104030008091C6039091C7038530910519F480E4FF
:1040400090E069C3039709F0FCC5E12CF12C6FEFF8
:10405000C7010E94312E3FEFE31AF30A4FEFE41637
:1040600041E0F406A1F761E080E00E943F0C6AE0C5
:1040700072E083E795E00E94240668E273E280E044
:1040800090E00E94320EDDC560E080E00E943F0CAF
:1040900064E372E083E795E00E94240661E080E03B
:1040A0000E943F0C62E872E083E795E00E942406DC
:1040B0004091000150910101609102017091030152
:1040C00020E030E083E795E00E94480567E972E070
:1040D00083E795E00E9424066BE871E083E795E0B2
:1040E0000E9424064091D9035091DA036091DB03CA
:1040F0007091DC0320E030E083E795E00E94480502
:104100006DE871E083E795E00E942406E090C60325
:10411000F090C70351E0E516F10429F41092CE03A4
:104120001092CD032DC082E0E816F10479F420E06E
:1041300030E040E85FE360910001709101018091FF
:104140000201909103010E949A2E12C094E0E91698
:10415000F104B1F420E030E040E85FE36091000159
:104160007091010180910201909103010E949B2EA8
:104170006093000170930101809302019093030109
:1041800020E030E040E85FE36091000170910101C0
:1041900080910201909103010E94052D87FF0CC0C0
:1041A00080E090E0A0E8BFE38093000190930101DC
:1041B000A0930201B093030120E030E040EA53E411
:1041C00060910001709101018091020190910301C1
:1041D0000E94A82F181664F480E090E0A0EAB3E4EF
:1041E0008093000190930101A0930201B093030119
:1041F000A5E0EA16F10409F024C58FE090E08BC237
:1042000060E080E00E943F0C6EE272E083E795E0A0
:104210000E94240661E080E00E943F0C62E872E0A8
:1042200083E795E00E942406409104015091050126
:10423000609106017091070120E030E083E795E08E
:104240000E94480567E972E083E795E00E94240632
:104250006BE871E083E795E00E9424064091D90362
:104260005091DA036091DB037091DC0320E030E0D1
:1042700083E795E00E9448056DE871E083E795E0EB
:104280000E942406E090C603F090C703B1E0EB164D
:10429000F10439F48AE090E09093CE038093CD034B
:1042A0002DC022E0E216F10479F420E030E040E88D
:1042B0005FE3609104017091050180910601909186
:1042C00007010E949A2E12C034E0E316F104B1F403
:1042D00020E030E040E85FE3609104017091050167
:1042E00080910601909107010E949B2E609304012A
:1042F00070930501809306019093070120E030E060
:1043000040E85FE36091040170910501809106012E
:10431000909107010E94052D87FF0CC080E090E07E
:10432000A0E8BFE38093040190930501A0930601E8
:10433000B093070120E030E040EA53E460910401CB
:104340007091050180910601909107010E94A82FAC
:10435000181664F480E090E0A0EAB3E480930401CE
:1043600090930501A0930601B093070145E0E41680
:10437000F10409F066C484E190E0CDC160E080E022
:104380000E943F0C6FE372E083E795E00E942406F1
:1043900060E089E00E943F0C80910A01813031F495
:1043A00068E472E083E795E00E94240680910A01A8
:1043B000811106C06FE472E083E795E00E94240655
:1043C00061E080E00E943F0C62E872E083E795E0E4
:1043D0000E94240660910D0170910E0183E795E023
:1043E0000E94510C66E572E083E795E00E94240686
:1043F0008091D3039091D403892B71F44091F803F9
:104400005091F9036091FA037091FB0322E030E0D0
:1044100083E795E00E9448056091D3037091D4032F
:10442000CB0101970397C0F4072E000C880B990B62
:104430000E940C2D2091F8033091F9034091FA036A
:104440005091FB030E946B2DAB01BC0122E030E0D8
:1044500083E795E00E94480569E572E083E795E00F
:104460000E9424068091C6039091C7038130910574
:1044700019F48FE090E035C082309105A1F480916D
:1044800013015AE0859FC001112454E0959587954A
:104490005A95E1F720910D0130910E01D901A81B29
:1044A000B90BCD0114C084309105B1F48091130192
:1044B000BAE08B9FC001112444E0959587954A95F9
:1044C000E1F720910D0130910E01820F931F90931F
:1044D0000E0180930D0116C08530910539F48EE1EF
:1044E00090E09093CE038093CD030CC0039751F4DA
:1044F00080910A01811104C081E080930A0102C009
:1045000010920A0180910A01823008F49AC381E076
:1045100080930A0196C360E080E00E943F0C6FE543
:1045200072E083E795E00E94240660E089E00E9443
:104530003F0C80911301803131F467E672E083E72C
:1045400095E00E94240680911301803231F46FE6D9
:1045500072E083E795E00E94240661E080E00E941B
:104560003F0C62E872E083E795E00E9424066091C8
:104570000B0170910C0183E795E00E94510C66E5F8
:1045800072E083E795E00E94240660910B01709130
:104590000C01072E000C880B990B0E940C2D20910A
:1045A0000F013091100140911101509112010E94B0
:1045B000072F20E030E040E051E40E946B2DAB017A
:1045C000BC014093F8035093F9036093FA0370938E
:1045D000FB0322E030E083E795E00E94480569E5AF
:1045E00072E083E795E00E9424068091C6039091D3
:1045F000C7038130910519F484E190E005C085304E
:10460000910539F483E290E09093CE038093CD033B
:1046100021C08230910531F480910B0190910C0101
:104620000A9708C08430910551F480910B01909154
:104630000C010A9690930C0180930B010BC0039719
:1046400049F480911301803211F480E101C080E2CD
:10465000809313018091130181508E3F08F4F1C2C1
:1046600080E180931301EDC260E080E00E943F0C86
:1046700067E772E083E795E00E94240660E872E055
:1046800083E795E00E9424068091D103811106C042
:1046900064E872E083E795E00E9424068091D103EC
:1046A000813031F468E872E083E795E00E942406E7
:1046B00067E972E083E795E00E94240661E080E00C
:1046C0000E943F0C6CE872E083E795E00E942406AC
:1046D00066E972E083E795E00E9424066091180184
:1046E0007091190183E795E00E94510C62E872E035
:1046F00083E795E00E9424068091C6039091C7034A
:104700008130910519F48EE190E005C08530910566
:1047100039F488E290E09093CE038093CD0391C268
:104720008230910519F41092D1038BC28430910527
:1047300021F481E08093D10384C2039709F081C200
:104740008091180190911901883C910559F08C32A3
:1047500021E0920751F08436910509F072C288EC8D
:1047600090E005C08CE291E002C084E690E0909376
:1047700019018093180165C260E080E00E943F0C3F
:1047800069E972E083E795E00E94240661E080E039
:104790000E943F0C62E872E083E795E00E942406E5
:1047A000409130015091310160913201709133019B
:1047B00022E030E083E795E00E94480567E972E077
:1047C00083E795E00E9424068091C6039091C70379
:1047D0008130910519F483E290E09DCF85309105F9
:1047E00009F40DC18230910549F520E030E040E840
:1047F0005FE36091300170913101809132019091BD
:1048000033010E949A2E6B017C0120E030E0A90167
:104810000E94052D87FD09C0C0923001D092310160
:10482000E0923201F092330118C1109230011092DF
:10483000310110923201109233010FC1049709F037
:1048400000C220E030E040E85FE360913001709109
:10485000310180913201909133010E949B2EAB0176
:10486000BC01409330015093310160933201709349
:104870003301C0903801D0903901E0903A01F090B6
:104880003B010091340110913501209136013091A6
:10489000370117C160E080E00E943F0C62EA72E0DD
:1048A00083E795E00E94240661E080E00E943F0CCF
:1048B00062E872E083E795E00E94240640913401AB
:1048C00050913501609136017091370122E030E05E
:1048D00083E795E00E94480567E972E083E795E089
:1048E0000E9424068091C6039091C70381309105F0
:1048F00009F40FCF8530910519F48CE390E00BCFCC
:104900008230910549F52DEC3CEC4CEC5DE3609177
:1049100034017091350180913601909137010E94E8
:104920009A2E6B017C0120E030E0A9010E94052D48
:1049300087FD09C0C0923401D0923501E092360162
:10494000F09237018AC01092340110923501109212
:1049500036011092370181C0049709F072C12DEC25
:104960003CEC4CEC5DE36091340170913501809139
:104970003601909137010E949B2E8B019C01609320
:104980003401709335018093360190933701C090C4
:104990003801D0903901E0903A01F0903B0189C094
:1049A00060E080E00E943F0C6BEA72E083E795E0F4
:1049B0000E94240661E080E00E943F0C62E872E001
:1049C00083E795E00E942406409138015091390117
:1049D00060913A0170913B0122E030E083E795E07D
:1049E0000E94480567E972E083E795E00E9424068B
:1049F0008091C6039091C7038130910519F482E339
:104A000090E089CE8230910589F520E030E040E2E7
:104A100051E4609138017091390180913A0190918F
:104A20003B010E949A2E6B017C0120E030E0A9013D
:104A30000E94052D87FD09C0C0923801D09239012E
:104A4000E0923A01F0923B0108C0109238011092B6
:104A5000390110923A0110923B01C0903801D09078
:104A60003901E0903A01F0903B011BC08430910580
:104A700059F520E030E040E251E460913801709156
:104A8000390180913A0190913B010E949B2E6B016C
:104A90007C01609338017093390180933A019093BF
:104AA0003B01009134011091350120913601309184
:104AB0003701409130015091310160913201709184
:104AC000330187E395E01DC8059709F0BAC08EE36E
:104AD00090E021CE0E94660FB4C060E080E00E94AA
:104AE0003F0C64EB72E083E795E00E94240620917E
:104AF000080130910901A7EEBFEF0E9437302FEF78
:104B000030E040E050E00E943F2E69017A0189E1E7
:104B1000C80ED11CE11CF11CF7FE0EC06DE283E74C
:104B200095E00E94E30444275527BA014C195D091A
:104B30006E097F092AE003C02AE0B701A60183E7D6
:104B400095E00E94FF0466E572E083E795E00E942D
:104B5000240661E080E00E943F0C6EEB72E083E788
:104B600095E00E9424068091CC03811106C065EC7B
:104B700072E083E795E00E9424068091CC038130A7
:104B800031F46DEC72E083E795E00E94240665ED58
:104B900072E083E795E00E9424068091C60390911D
:104BA000C703039771F41092C7031092C603809154
:104BB000CC03811104C081E08093CC0302C0109229
:104BC000CC032091C6033091C7032130310539F45D
:104BD0008EE390E09093CE038093CD0311C080913B
:104BE0000801909109012230310511F40A9604C0A0
:104BF0002430310529F40A97909309018093080124
:104C000080910801909109011816190634F081E08D
:104C100090E09093090180930801809108019091A0
:104C200009018F3F910534F08EEF90E090930901D8
:104C300080930801609108017091090189E00E9448
:104C4000BC0D1092C7031092C6032091F20330915D
:104C5000F3038091CD039091CE032817390781F09B
:104C60001092C7031092C6030E94240C0E941A12CD
:104C70008091CD039091CE039093F3038093F20340
:104C80006090D3037090D4036114710451F480E1F7
:104C90000E94E20184EF91E09093F7038093F60382
:104CA00021C09CEF69169FEF790631F460E081E145
:104CB0000E94B00C61E009C0A4E06A16710491F48E
:104CC00060E081E10E94B00C60E08FE00E94B00CD7
:104CD00060910B0170910C0120E030E0A90180E1AE
:104CE0000E94690280910A0181113EC0C3010197AF
:104CF0000397D0F461E081E10E94B00C60E070E0C5
:104D00008FE00E94BC0D80910D0190910E01689E74
:104D1000B001699E700D789E700D112420E030E086
:104D2000A90180E10E946902C30103960397E0F4A0
:104D300061E081E10E94B00C61E08FE00E94B00C64
:104D400080910D0190910E01689EB001699E700DD9
:104D5000789E700D112471956195710920E030E005
:104D6000A90180E10E94690280910A01813009F065
:104D7000BAC0C3010197039708F055C061E081E113
:104D80000E94B00C60E08FE00E94B00C8091F603AE
:104D90009091F70340910D0150910E01649E900196
:104DA000659E300D749E300D1124AC01421B530BD7
:104DB0004536510534F0845691099093F70380935A
:104DC000F6038091F6039091F703A901481B590B54
:104DD0004536510534F08C599F4F9093F7038093DB
:104DE000F6038091F6039091F703821793072CF452
:104DF0000A969093F7038093F6038091F6039091BF
:104E0000F703281739072CF40A979093F703809338
:104E1000F6036091F6037091F70320E030E0A901FA
:104E200080E10E946902C3010396039708F05BC00A
:104E300061E081E10E94B00C61E08FE00E94B00C63
:104E400020910D0130910E01629EC001639E900D74
:104E5000729E900D11242091F6033091F703AC015E
:104E6000420F531F4536510534F024563109309313
:104E7000F7032093F6039195819591092091F6030C
:104E80003091F703AC01421B530B4536510534F00A
:104E90002C593F4F3093F7032093F6032091F603EC
:104EA0003091F7032817390734F4265F3F4F3093CA
:104EB000F7032093F6032091F6033091F70382174E
:104EC000930734F42A5031093093F7032093F60303
:104ED0006091F6037091F70320E030E0A90180E1D2
:104EE0000E94690203C06114710431F01092F5034D
:104EF0001092F40360E00CC08091F4039091F503EC
:104F00008037974140F01092F5031092F40361E06E
:104F100087E00E94B00C8091F4039091F503019614
:104F20009093F5038093F4038091CC03813079F45E
:104F300026E6C22EDC2C28E1E22E22E4F22E212CE1
:104F400038E3332E3BE0432E33E4532E0DC0C12C07
:104F5000D12C88E1E82E82E4F82E212C90E8392E1D
:104F600097EF492E91E4592E60911301B8EC6B9F95
:104F7000B0011124072E000C880B990B0E940C2DF8
:104F8000A20191010E946B2D1B012C01A70196012A
:104F9000C701B6010E949B2E23EC35EF48E450E494
:104FA0000E946B2D9B01AC01C201B1010E94072F31
:104FB0006B017C0160930F017093100180931101CC
:104FC0009093120160910D0170910E01072E000C5B
:104FD000880B990B0E940C2DA70196010E94072FA8
:104FE0006093F8037093F9038093FA039093FB03A3
:104FF0002091D2032130A9F59301215031092330AA
:10500000310578F520E030E040E251E40E94072FBE
:1050100020E030E04AE754E40E94072F6B017C0156
:10502000B301072C000C880B990B0E940C2D9B01DF
:10503000AC01C701B6010E946B2D9B01AC016091D0
:10504000C8037091C9038091CA039091CB030E9459
:105050009B2E6093C8037093C9038093CA039093F7
:10506000CB0383E10E94870C892B19F4672809F090
:105070004EC3A895809127048A3008F404C3809118
:1050800026048F5F80932604109227044091220407
:105090005091230460912404709125044F5F5F4F69
:1050A0006F4F7F4F40932204509323046093240456
:1050B000709325048C3310F0109226044091D9038C
:1050C0005091DA036091DB037091DC0325E030E05E
:1050D00086E494E00E94480568ED72E086E494E07E
:1050E0000E9424064091D5035091D6036091D703C6
:1050F0007091D80325E030E086E494E00E944805F2
:1051000068ED72E086E494E00E942406409130014C
:1051100050913101609132017091330122E030E011
:1051200086E494E00E94480568ED72E086E494E02D
:105130000E9424064091340150913501609136015E
:105140007091370122E030E086E494E00E94480547
:1051500068ED72E086E494E00E94240640913801F4
:105160005091390160913A0170913B0122E030E0A9
:1051700086E494E00E94480568ED72E086E494E0DD
:105180000E94240660911E0470911F0486E494E03E
:105190000E94510C6AED72E086E494E00E94EA04F9
:1051A00060911A0470911B0480911C0490911D045D
:1051B0000E948C126B017C016093D9037093DA0317
:1051C0008093DB039093DC036091160470911704C5
:1051D00080911804909119040E948C122B013C01BB
:1051E0006093D5037093D6038093D7039093D8032D
:1051F0008091200490912104019690932104809342
:105200002004059704F12091120430911304409179
:10521000140450911504C301B2010E949A2E6093A8
:105220000E0470930F048093100490931104409225
:105230001204509213046092140470921504109298
:1052400021041092200480911E01813091F520915B
:105250000E0430910F0440911004509111042196D6
:105260002CAF3DAF4EAF5FAF219720E030E0A901FA
:1052700021966CAD7DAD8EAD9FAD21970E94A82F7C
:10528000181644F440921A0150921B0160921C01BE
:1052900070921D0120E030E0A90121966CAD7DAD3A
:1052A0008EAD9FAD21970E94052D87FF35C01092CE
:1052B0001E0180911E0181112FC080910E049091DA
:1052C0000F04A0911004B091110421968CAF9DAFF2
:1052D000AEAFBFAF219720E030E0A901BC01CD0106
:1052E0000E94052D87FF08C040920A0450920B04CB
:1052F00060920C0470920D0420E030E0A901219628
:105300006CAD7DAD8EAD9FAD21970E94A82F181674
:105310001CF481E080931E018091D3039091D4030B
:10532000892B29F0109209041092080411C0809171
:10533000D203813069F480910804909109040196A8
:105340009093090480930804813B944008F049C27B
:105350008091D003813011F0843191F48091060462
:10536000909107040196909307048093060481317D
:105370009E4030F01092D003109207041092060461
:1053800020E030E045EA53E4C701B6010E94A82FAF
:1053900018164CF481E08093CF039092CE03809254
:1053A000CD030E942B0A20E030E045EA53E46091EF
:1053B000D5037091D6038091D7039091D8030E94B2
:1053C000A82F18164CF482E08093CF039092CE035E
:1053D0008092CD030E942B0A20E030E040EA51EC9D
:1053E0006091D9037091DA038091DB039091DC0323
:1053F0000E94052D87FF0DC08091D203882349F0BC
:1054000083E08093CF039092CE038092CD030E94DD
:105410002B0A20E030E040EA51EC6091D503709116
:10542000D6038091D7039091D8030E94052D87FF62
:105430000DC08091D003882349F084E08093CF038E
:105440009092CE038092CD030E942B0A8091D203CA
:10545000813009F059C0C090D903D090DA03E090B0
:10546000DB03F090DC0320E030E040EA51E460919F
:1054700002047091030480910404909105040E9439
:105480009A2EA70196010E94A82F18160CF040C072
:105490002091FE033091FF034091000450910104DC
:1054A000C701B6010E94A82F181654F4C092FE033B
:1054B000D092FF03E0920004F09201041092FD03E9
:1054C0002091FE033091FF034091000450910104AC
:1054D000C701B6010E94052D1816D4F08091FD0376
:1054E0008F5F8093FD0390E02091180130911901A6
:1054F000281739076CF40E942B0A85E08093CF03AC
:105500009092CE038092CD038091D2038823D1F074
:1055100020E030E040EA51E460910204709103041D
:1055200080910404909105040E949A2E2091D90341
:105530003091DA034091DB035091DC030E94052D8A
:1055400087FF12C08091D9039091DA03A091DB0309
:10555000B091DC038093FE039093FF03A0930004BB
:10556000B09301041092FD038091D003813019F0B3
:10557000843109F058C0C090D503D090D603E09094
:10558000D703F090D80320E030E040EA51E4609186
:1055900014017091150180911601909117010E94DC
:1055A0009A2EA70196010E94A82F1816E4F52091C3
:1055B0001204309113044091140450911504C70152
:1055C000B6010E94A82F181654F4C0921204D0926B
:1055D0001304E0921404F09215041092FC0320913D
:1055E0001204309113044091140450911504C70122
:1055F000B6010E94052D1816B4F08091FC038F5F50
:105600008093FC0390E02091180130911901281734
:1056100039074CF40E942B0A86E08093CF039092C6
:10562000CE038092CD038091D0038823D1F020E077
:1056300030E040EA51E460910204709103048091EB
:105640000404909105040E949A2E2091D503309174
:10565000D6034091D7035091D8030E94052D87FFB0
:1056600012C08091D5039091D603A091D703B09139
:10567000D8038093120490931304A0931404B0935E
:1056800015041092FC0386E494E00E941501892B16
:10569000B9F186E494E00E94F300182F0E94320FC3
:1056A000FC0197FDFBC08D32910541F0C0970A9730
:1056B00028F086E494E00E94F300F0CFC12CD12CB6
:1056C000760100E0E130F10509F09BC086E494E04A
:1056D0000E94F3000E94320FFC01C0970A9790F3DA
:1056E000E130F10579F3002341F0F094E094D09497
:1056F000C094C11CD11CE11CF11C123409F4A3C0DC
:105700000E94BC010C94A6158093D0039ACA1092F3
:10571000D4031092D30380E10E94E20160E087E0AD
:105720000E94B00C60E081E10E94B00C26E930E0FC
:1057300040E050E066E275E087E00E94690266E9B9
:1057400070E080E090E00E94320E2CE231E040E018
:1057500050E066E275E087E00E9469026CE271E069
:1057600080E090E00E94320E26E930E040E050E018
:1057700066E275E087E00E9469026CE271E080E019
:1057800090E00E94320E26E930E040E050E066E111
:1057900074E087E00E94690266E970E080E090E0D2
:1057A0000E94320E2CE231E040E050E066E275E00B
:1057B00087E00E9469026CE271E080E090E00E9464
:1057C000320E28E532E040E050E060E276E087E02B
:1057D0000E94690268E572E080E090E00E94320E6B
:1057E00048CC1092D20310920904109208048091C0
:1057F000D103813009F0ACCD60E08DE00E94B00CA7
:10580000A7CDED32F105E9F0CF01C0970A9708F076
:105810005DCFAAE0B0E0A70196010E945E2E6F0165
:10582000FF0FEE08FF08DC01CB018C0D9D1DAE1DA6
:10583000BF1D6C017D0120E3C21AD108E108F10807
:1058400045CF01E043CFC60185559B408333984047
:1058500040F5B60180E090E00E940A2D60931F01A0
:105860007093200180932101909322016DED72E0ED
:1058700086E494E00E942406B701A60166277727F4
:105880002AE086E494E00E94FF046AED72E086E478
:1058900094E00E94EA040E941A1232CF123409F0F6
:1058A0002FCF80EE92E00E942C0C2ACFAF92BF92B5
:1058B000CF92DF92EF92FF920F931F93E6E4F4E012
:1058C0001382128288EE93E0A0E0B0E08483958397
:1058D000A683B78382E491E09183808385EC90E096
:1058E0009587848784EC90E09787868780EC90E0AA
:1058F000918B808B81EC90E0938B828B82EC90E09B
:10590000958B848B86EC90E0978B868B118E128E14
:10591000138E148EE3E7F5E01382128284E591E0A2
:105920009183808388E084838FEF858386E08683FC
:1059300082E0878383E0808784E0818785E08287B7
:105940001386148615861686178681E00E941B0D25
:10595000A0903401B0903501C0903601D09037014D
:10596000E0903001F090310100913201109133014B
:1059700080913B018F9380913A018F9380913901FF
:105980008F93809138018F932BE235E04FE255E001
:1059900063E375E087E395E00E94780EA09028010C
:1059A000B0902901C0902A01D0902B01E0902401F1
:1059B000F0902501009126011091270180912F017F
:1059C0008F9380912E018F9380912D018F938091E1
:1059D0002C018F9323EE34E047EE54E06BEE74E03D
:1059E0008FEE94E00E94780E8DB79EB708960FB6A2
:1059F000F8949EBF0FBE8DBF1F910F91FF90EF9047
:105A0000DF90CF90BF90AF9008950E94472D08F48B
:105A100081E00895E89409C097FB3EF49095809545
:105A2000709561957F4F8F4F9F4F9923A9F0F92F64
:105A300096E9BB279395F695879577956795B795E2
:105A4000F111F8CFFAF4BB0F11F460FF1BC06F5FC8
:105A50007F4F8F4F9F4F16C0882311F096E911C0DA
:105A6000772321F09EE8872F762F05C0662371F0FB
:105A700096E8862F70E060E02AF09A95660F771F0F
:105A8000881FDAF7880F9695879597F90895990FEB
:105A90000008550FAA0BE0E8FEEF16161706E807F8
:105AA000F907C0F012161306E407F50798F0621B19
:105AB000730B840B950B39F40A2661F0232B242BEE
:105AC000252B21F408950A2609F4A140A6958FEF0D
:105AD000811D811D08950E947E2D0C94EF2D0E9442
