:100000000C9490000C94B8000C94B8000C94B800B8
:100010000C94B8000C94B8000C94B8000C940D0229
:100020000C94B8000C94B8000C94B8000C94B80070
:100030000C94B8000C94B8000C94B8000C94B80060
:100040000C94F5140C94B8000C944C060C942606F1
:100050000C94B8000C94B8000C94B8000C94B80040
:100060000C94B8000C94B80008000000BE9224491B
:10007000123EABAAAA2ABECDCCCC4C3E00000080DA
:10008000BEABAAAAAA3E00000000BF000000803F4D
:100090000000000000084178D3BB4387D1133D190D
:1000A0000E3CC3BD4282AD2B3E68EC8276BED98F3A
:1000B000E1A93E4C80EFFFBE01C4FF7F3F0000007E
:1000C00000000200000000240027002A00000000B9
:1000D00000250028002B0000000000230026002936
:1000E00000040404040404040402020202020203E1
:1000F00003030303030102040810204080010204EB
:10010000081020010204081020000000080002016D
:100110000000030407000000000000000000042CA1
:1001200011241FBECFEFD8E0DEBFCDBF25E0A4EB8A
:10013000B3E001C01D92A238B207E1F713E0A0E0DE
:10014000B1E0E4EEFFE502C005900D92A43BB107DB
:10015000D9F710E0C0E9D0E004C02197FE010E9469
:10016000E52FCF38D107C9F70E943F150C94F02F27
:100170000C940000CF92DF92EF92FF920F931F93A7
:10018000CF93DF936C017A018B01C0E0D0E0CE15F4
:10019000DF0581F0D8016D918D01D601ED91FC91C3
:1001A0000190F081E02DC6010995892B11F021966F
:1001B000EECF7E01C701DF91CF911F910F91FF908C
:1001C000EF90DF90CF900895FC01538D448D252F43
:1001D00030E0842F90E0821B930B541710F0CF96E1
:1001E000089501970895FC01918D828D981761F013
:1001F000828DDF01A80FB11D5D968C91928D9F5F5E
:100200009F73928F90E008958FEF9FEF0895FC0108
:10021000918D828D981731F0828DE80FF11D858DBB
:1002200090E008958FEF9FEF0895FC01918D228D4E
:10023000892F90E0805C9F4F821B91098F739927D3
:1002400008958AE394E00E94150121E0892B09F4C6
:1002500020E0822F0895FC01848DDF01A80FB11DDD
:10026000A35ABF4F2C91848D90E001968F739927EC
:10027000848FA689B7892C93A089B1898C918370CA
:1002800080648C93938D848D981306C00288F389C3
:10029000E02D80818F7D80830895EF92FF920F93F0
:1002A0001F93CF93DF93EC0181E0888F9B8D8C8D22
:1002B000981305C0E889F989808185FD26C0F62E4E
:1002C0000B8D10E00F5F1F4F0F731127E02E8C8DE9
:1002D000E8120CC00FB607FCFACFE889F9898081D3
:1002E00085FFF5CFCE010E942B01F1CF8B8DFE0152
:1002F000E80FF11DE35AFF4FF0829FB7F8940B8F80
:10030000EA89FB89808180620AC09FB7F894EE89F0
:10031000FF896083E889F9898081837080648083A4
:100320009FBF81E090E0DF91CF911F910F91FF90EF
:10033000EF900895CF93DF93EC01888D8823C9F067
:10034000EA89FB89808185FD05C0A889B9898C91DE
:1003500086FD0FC00FB607FCF5CF808185FFF2CF79
:10036000A889B9898C9185FFEDCFCE010E942B0120
:10037000E7CFDF91CF91089580E090E0892B29F0BD
:100380000E94210181110C9400000895089580E0DD
:1003900090E008950E94EB2FCF93DF93EC0160E093
:1003A0008E810E94B00C61E08E810E94B00C60E0F2
:1003B0008E810E94B00C8BE891E00197F1F7DF91FC
:1003C000CF91089590912201891324C0E2ECF0E0CE
:1003D000E4919FEF90932201E130B9F098F0E23080
:1003E000C9F4909170009D7F9093700091E090937C
:1003F000B0009091B100987F94609093B1001092FA
:10040000B30008C010926E0005C090916F009D7FF0
:1004100090936F0060E00C94B00C1F920F920FB697
:100420000F9211242F933F934F935F936F937F937A
:100430008F939F93AF93BF93EF93FF9380912E047D
:1004400090912F04A0913004B0913104892B8A2B14
:100450008B2B51F190912D04E0912B04F0912C0401
:1004600080818927808380912E0490912F04A09110
:100470003004B0913104181619061A061B06C4F48C
:1004800080912E0490912F04A0913004B0913104FA
:100490000197A109B10980932E0490932F04A09392
:1004A0003004B093310404C0809122010E94E20123
:1004B000FF91EF91BF91AF919F918F917F916F913C
:1004C0005F914F913F912F910F900FBE0F901F9012
:1004D00018954F925F926F927F928F929F92AF92F8
:1004E000BF92CF92DF92EF92FF920F931F93CF9321
:1004F000DF9300D000D01F92CDB7DEB78B0129016A
:100500003A0190912201891721F09F3F09F045C2DD
:1005100005C0E2ECF0E024912D837CC080932201A1
:10052000E2ECF0E094919D839F3F09F436C2913054
:1005300009F449C058F1923009F06CC01092B00033
:100540001092B1009091B00092609093B0009091A1
:10055000B10091609093B100282F30E0F901EF5184
:10056000FF4FE491F0E0EE0FFF1FE353FF4F459183
:10057000549150932C0440932B04F901EB50FF4FFE
:10058000E491E0932D0492E09D8303C214BC15BC5A
:1005900094B5926094BD95B5916095BD282F30E0DB
:1005A000F901EF51FF4FE491F0E0EE0FFF1FE3532D
:1005B000FF4F45915491F901EB50FF4FE491E093C7
:1005C00022041D82E6C11092800010928100909159
:1005D0008100986090938100909181009160909348
:1005E0008100282F30E0F901EF51FF4FE491F0E056
:1005F000EE0FFF1FE353FF4F45915491F901EB506C
:10060000FF4FE491E093210461E00E94DF0C21E0C0
:100610002D8389C02D8127FDC0C161E00E94DF0CC0
:100620008D818D7F09F07FC04801A12CB12C60E045
:1006300072E18AE790E0A50194010E94C62F298308
:100640003A834B835C8369017A0181E0C81AD1083F
:10065000E108F1089FEFC916D104E104F10409F0A3
:1006600008F44EC060E472E48FE090E0A5019401CC
:100670000E94C62F69017A0181E0C81AD108E108F9
:10068000F1089D81923009F52FEFC216D104E104E3
:10069000F10409F008F444C160E970ED83E090E0F2
:1006A000A50194010E94C62F69017A0181E0C81A50
:1006B000D108E108F1089FEFC916D104E104F10463
:1006C00011F008F0BAC083E027C02FEFC216D104A2
:1006D000E104F104B9F0B0F068E478EE81E090E074
:1006E000A50194010E94C62F69017A0181E0C81A10
:1006F000D108E108F1089D81992309F413C1DCC0F8
:1007000081E001C082E09D81911106C095B5987F7E
:10071000892B85BD44C085E09091B100987F892BDD
:100720008093B1003CC04801A12CB12C60E072E183
:100730008AE790E0A50194010E94C62F69017A0121
:1007400081E0C81AD108E108F108C114D10491E090
:10075000E906F10488F068E478EE81E090E0A50114
:1007600094010E94C62F69017A0181E0C81AD1085C
:10077000E108F10883E001C081E09D81913079F4C6
:1007800090918100987F892B8093810041145104BE
:100790006104710449F42FEF3FEFA9012CC041140B
:1007A00051046104710471F0D801AA0FBB1FA301A9
:1007B00092010E94ED2D28EE33E040E050E00E94CF
:1007C000A42F03C02FEF3FEFA9018D81813099F055
:1007D000823019F18111E1C0C7BC20932704309306
:1007E00028044093290450932A0480916E0082606B
:1007F00080936E00D2C0D0928900C092880020936E
:1008000023043093240440932504509326048091BC
:100810006F00826080936F00C0C0C092B3002093CD
:100820002E0430932F044093300450933104809170
:100830007000826080937000B0C068E478EE81E060
:1008400090E0A50194010E94C62F69017A0191E010
:10085000C91AD108E108F1082FEFC216D104E1044A
:10086000F10441F138F164E274EF80E090E0A50119
:1008700094010E94C62F69017A0181E0C81AD1084B
:10088000E108F1089FEFC916D104E104F10409F071
:1008900008F441CF62E17AE780E090E0A50194019D
:1008A0000E94C62F69017A0181E0C81AD108E108C7
:1008B000F10819C084E030CF2FEFC216D104E10453
:1008C000F10409F008F463C062E17AE780E090E0A7
:1008D000A50194010E94C62F69017A0191E0C91A0D
:1008E000D108E108F1088FEFC816D104E104F10442
:1008F000A9F0A0F089819A81AB81BC812AE0B595ED
:10090000A795979587952A95D1F76C017D0121E0F0
:10091000C21AD108E108F10887E0FECE86E0FCCEDD
:1009200082E0FACE8FEFC816D104E104F10469F138
:1009300060F162E17AE780E090E0A50194010E9415
:10094000C62F69017A0191E0C91AD108E108F108BE
:100950002FEFC216D104E104F104A9F0A0F08981BF
:100960009A81AB81BC813AE0B595A795979587951B
:100970003A95D1F76C017D0121E0C21AD108E10856
:10098000F10885E0C3CE84E0C1CE83E0BFCE84E031
:10099000BACE61E00E94DF0C47CE0F900F900F900F
:1009A0000F900F90DF91CF911F910F91FF90EF90DB
:1009B000DF90CF90BF90AF909F908F907F906F907F
:1009C0005F904F900895DC01ED91FC910190F081D2
:1009D000E02D09946115710579F0FB01019000206B
:1009E000E9F73197AF01461B570BDC01ED91FC9104
:1009F0000280F381E02D099480E090E008958F92C9
:100A00009F92AF92BF92EF92FF920F931F93CF935B
:100A1000DF93CDB7DEB7A1970FB6F894DEBF0FBE58
:100A2000CDBF7C01FA01CB0119A2223008F42AE0E3
:100A30008E010F5D1F4F822E912CA12CB12CBF0176
:100A4000A50194010E94A42FF901CA0101501109C6
:100A50006A3014F4605D01C0695CD8016C93232B8B
:100A6000242B252B61F7B801C7010E94EA04A19647
:100A70000FB6F894DEBF0FBECDBFDF91CF911F91AF
:100A80000F91FF90EF90BF90AF909F908F9008953F
:100A90007F928F929F92AF92BF92CF92DF92EF920E
:100AA000FF920F931F93CF93DF938C016A017B0119
:100AB000722E9A01AB01C701B6010E946A2F8823EA
:100AC00019F063EE72E027C046015701E894B7F8C9
:100AD0002FEF3FEF4FE75FE7C501B4010E946A2F98
:100AE00081110DC02FEF3FEF4FE75FE7C501B40164
:100AF0000E94B32C18161CF467EE72E00CC02FEFA6
:100B00003FEF4FE75FE4C701B6010E94152F1816AB
:100B100094F46BEE72E0C801DF91CF911F910F91B9
:100B2000FF90EF90DF90CF90BF90AF909F908F900D
:100B30007F900C94EA042FEF3FEF4FE75FECC70183
:100B4000B6010E94B32C87FDE4CF20E030E0A9017C
:100B5000C701B6010E94B32C87FF0AC06DE2C8012D
:100B60000E94E304EC01F7FAF094F7F8F09402C065
:100B7000C0E0D0E0B12C60E070E080E09FE3B7140B
:100B800040F420E030E040E251E40E94742EB3943F
:100B9000F6CFA70196010E94082E6B017C010E94EE
:100BA000E62E4B015C012AE0AB01BC01C8010E94AA
:100BB000FF04C80FD91F7720C1F1C501B4010E94FD
:100BC000B82C9B01AC01C701B6010E94072E6B0136
:100BD0007C016EE2C8010E94E304C80FD91F20E027
:100BE00030E040E251E4C701B6010E94192D4B01EB
:100BF0005C010E94E62E6B01E12CF12C2AE0B7018A
:100C0000A601C8010E94FF04C80FD91FC701B60181
:100C10000E94B82C9B01AC01C501B4010E94072EB3
:100C20006B017C017A947110DACFCE01DF91CF9104
:100C30001F910F91FF90EF90DF90CF90BF90AF90FA
:100C40009F908F907F9008950C94EA041F920F92CA
:100C50000FB60F9211242F933F934F935F936F938F
:100C60007F938F939F93AF93BF93EF93FF938AE309
:100C700094E00E942B01FF91EF91BF91AF919F9162
:100C80008F917F916F915F914F913F912F910F9035
:100C90000FBE0F901F9018951F920F920FB60F92D4
:100CA00011242F938F939F93EF93FF93E0914A0426
:100CB000F0914B048081E0915004F091510482FD49
:100CC00012C09081809153048F5F8F7320915404E0
:100CD000821751F0E0915304F0E0E65CFB4F958FF2
:100CE0008093530401C08081FF91EF919F918F9178
:100CF0002F910F900FBE0F901F901895CF92DF92FB
:100D0000EF92FF920F931F93CF93DF936C017C01BF
:100D100087E0E80EF11CC0E0D0E0062F10E0B8013B
:100D20000C2E02C0759567950A94E2F76170F70181
:100D300081917F010E94B00C2196C430D10579F7D2
:100D4000C601DF91CF911F910F91FF90EF90DF903F
:100D5000CF900C94CC01CF92DF92EF92FF920F9341
:100D60001F93CF93DF93EC01F62E642F8C810E94AA
:100D7000B00C8D818F3F19F060E00E94B00C8F8520
:100D80000F2D10E084FF25C06E0187E0C80ED11C36
:100D9000E12CF12CB8010E2C02C0759567950A94D0
:100DA000E2F76170F60181916F010E94B00CFFEFD4
:100DB000EF1AFF0A88E0E816F10461F7CE01DF912F
:100DC000CF911F910F91FF90EF90DF90CF900C94F7
:100DD000CC01B80184E0759567958A95E1F7CE015D
:100DE0000E947E066F2DCE01DF91CF911F910F9152
:100DF000FF90EF90DF90CF900C947E0641E00E9430
:100E0000AB0681E090E008958F929F92AF92BF92DF
:100E1000CF92DF92EF92FF92CF93DF93EC01EE8DB2
:100E2000FF8DC080D180E280F380CEA2DFA2E8A651
:100E3000F9A6EC8DFD8D80819181A281B3818AA775
:100E40009BA7ACA7BDA78EA89FA8A8ACB9ACA501CD
:100E50009401C701B6010E94152F181664F08AA8E4
:100E60009BA8ACA8BDA8A5019401C701B6010E942A
:100E7000B32C87FF04C08EA29FA2A8A6B9A6DF91BB
:100E8000CF91FF90EF90DF90CF90BF90AF909F9069
:100E90008F9008954F925F926F927F928F929F9260
:100EA000AF92BF92CF92DF92EF92FF920F931F9378
:100EB000CF93DF9300D000D000D0CDB7DEB79E83B4
:100EC0008D832A013B014801590120E030E0A9014E
:100ED000C301B2010E94B32C87FD89C020E030E03D
:100EE000A901C501B4010E94B32C87FD80C020E098
:100EF00030E0A901C701B6010E94B32C87FD77C07D
:100F000081E0ED81FE81228D338D2130310509F0A4
:100F100080E0ED81FE8183AF4082518262827382E4
:100F200084829582A682B782C086D186E286F386C5
:100F300066A577A580A991A90E94B82C20E030E091
:100F40004AE754E40E94742E69837A838B839C83DE
:100F5000ED81FE8144865586668677869B01AC01CD
:100F6000C501B4010E94192D4B015C01ED81FE8188
:100F7000608B718B828B938B29813A814B815C8151
:100F8000C701B6010E94742E6B017C01ED81FE81C8
:100F9000648B758B868B978B808D918D019739F53E
:100FA000A301920160E070E0CB010E94072EED8169
:100FB000FE816487758786879787A501940160E025
:100FC00070E0CB010E94072EED81FE81608B718B5A
:100FD000828B938BA701960160E070E0CB010E94A9
:100FE000072EED81FE81648B758B868B978B269601
:100FF0000FB6F894DEBF0FBECDBFDF91CF911F912A
:101000000F91FF90EF90DF90CF90BF90AF909F90A7
:101010008F907F906F905F904F9008952F923F92A6
:101020004F925F926F927F928F929F92AF92BF92F8
:10103000CF92DF92EF92FF920F931F93CF93DF93A4
:10104000CDB7DEB760970FB6F894DEBF0FBECDBF49
:10105000DC01DA96BC91B983B11102C019822BC1AF
:10106000988B8F870E946C0E6E837F838887998709
:10107000EF85F88982A193A1A4A1B5A14E815F81DA
:1010800068857985481B590B6A0B7B0B86A597A54C
:10109000A0A9B1A9481759076A077B07F8F2048C81
:1010A000F58DE02D80819181A281B3818A839B831C
:1010B000AC83BD83AF85B8899096ED91FC919197F3
:1010C0002A813B814C815D81608171818281938124
:1010D0000E94072E4B015C01EF85F88922A533A5FC
:1010E00044A555A56A817B818C819D810E94072E34
:1010F0006B017C01AF85B88950962D913D914D9142
:101100005C915397C501B4010E94192DEF85F889B0
:1011100026A137A140A551A50E94082E2B013C0114
:10112000AF85B88996966D937D938D939C9399978F
:10113000DB96BC91BA87B11118C0EF85F889248578
:10114000358546855785C701B6010E94192D9B013B
:10115000AC01C301B2010E94072EAF85B8899696F3
:101160006D937D938D939C939997EF85F88946A015
:1011700057A060A471A416A907A930AC21AC212FF7
:10118000302F432D522DC301B2010E94152F181686
:101190002CF4812F902FA32DB22D18C0AF85B889C4
:1011A000D2968D919D910D90BC91A02D8B879C879F
:1011B000AD87BE879C01AD01C301B2010E94B32C73
:1011C00087FF0AC08B859C85AD85BE85EF85F88934
:1011D00086A397A3A0A7B1A7FA85FF2379F0AF85CF
:1011E000B8891C962D913D914D915C911F97C50139
:1011F000B4010E94192D4B015C0103C0812C912C7C
:101200005401EF85F8892489358946895789C701B2
:10121000B6010E94192D9B01AC01AF85B889969645
:101220006D917D918D919C9199970E94072EA501BA
:1012300094010E94082E6B017C019B01AC01612F7F
:10124000702F832D922D0E94B32C87FD14C0EF8543
:10125000F88912A903A934A825A8212F302F432DDE
:10126000522DB601C7010E94B32C87FD04C01C2D6E
:101270000D2D3E2C2F2CAF85B8895E96ED91FC91FB
:101280005F97812F902FA32DB22D80839183A2830E
:10129000B3838A819B81AC81BD81EF85F88982A768
:1012A00093A7A4A7B5A78E819F81A885B98582A39E
:1012B00093A3A4A3B5A3898160960FB6F894DEBF6B
:1012C0000FBECDBFDF91CF911F910F91FF90EF9097
:1012D000DF90CF90BF90AF909F908F907F906F9056
:1012E0005F904F903F902F900895CF93DF93EB0145
:1012F0000E94D72D8883CE01DF91CF910895CF92A0
:10130000DF92EF92FF920F931F93CF93DF93EB0146
:101310007B0124E0E20EF11C8B016C01C61AD70A96
:10132000C601800F911F0E94D72DF80181938F0174
:10133000EE15FF05A9F7CE01DF91CF911F910F9117
:10134000FF90EF90DF90CF9008950F931F93CF936E
:10135000DF938C01EB010E94D72D8883C801019691
:101360000E94D72D8983CE01DF91CF911F910F91DC
:1013700008950F931F93CF93DF9300D0CDB7DEB7BF
:101380008B01FB0160819A838983CE0101960E94C3
:10139000DC14C8010F900F90DF91CF911F910F9136
:1013A0000895AF92BF92CF92DF92EF92FF920F9388
:1013B0001F93CF93DF9300D0CDB7DEB78B016B01C6
:1013C00024E0C20ED11C7B015C01A61AB70AC5013C
:1013D0008E0D9F1DF70161917F019A838983CE0154
:1013E00001960E94DC14EC14FD0489F7C8010F90EB
:1013F0000F90DF91CF911F910F91FF90EF90DF90B1
:10140000CF90BF90AF900895EF92FF920F931F93EC
:10141000CF93DF9300D0CDB7DEB78C017B01FB010A
:1014200060819A838983CE0101960E94DC14F701C2
:1014300061810F5F1F4F1A830983CE0101960E94BD
:10144000DC14C7010F900F90DF91CF911F910F9186
:10145000FF90EF9008951092C8031092C603109267
:10146000CA031092C90360E08CE00E94B00C61EAEC
:1014700071E08AE394E00E9424068091C5038130E4
:1014800021F488EA91E00E942C0C8091C5038230FF
:1014900021F486EB91E00E942C0C8091C5038330EF
:1014A00021F484EC91E00E942C0C8091C5038430DF
:1014B00021F482ED91E00E942C0C8091C5038530CF
:1014C00021F480EE91E00E942C0C8091C5038630BF
:1014D00021F48BEE91E00E942C0C60E08DE00C94E6
:1014E000B00CCF92DF92EF92FF920F931F938091F7
:1014F000130190911401A0911501B09116018093F0
:10150000D7049093D804A093D904B093DA048091BF
:10151000CB039091CC03A091CD03B091CE038093E7
:10152000DF049093E004A093E104B093E20483EE1F
:1015300094E00E940E080E946C0EC090B803D090F8
:10154000B903E090BA03F090BB0320913B013091C6
:101550003C018901330F220B330BAB01BC014C1949
:101560005D096E097F09041715072607370770F410
:10157000D701C601800F911FA21FB31F8093B8032C
:101580009093B903A093BA03B093BB030E946C0E6F
:10159000C090B803D090B903E090BA03F090BB03B9
:1015A0006C197D098E099F090E94B82C2091DB04DB
:1015B0003091DC044091DD045091DE040E94152F2F
:1015C000181614F460E001C061E08BE01F910F91E8
:1015D000FF90EF90DF90CF900C94B00C0F931F937F
:1015E0008091000190910101A0910201B09103014D
:1015F00080931F0590932005A0932105B0932205A9
:101600008091CF039091D003A091D103B091D203E8
:101610008093270590932805A0932905B0932A0568
:101620008BE295E00E940E080E946C0E0091B403BC
:101630001091B5032091B6033091B703AB01BC0103
:10164000401B510B620B730B493E53406105710502
:1016500070F0D901C80188519C4FAF4FBF4F8093A4
:10166000B4039093B503A093B603B093B7030E945D
:101670006C0E0091B4031091B5032091B603309124
:10168000B703601B710B820B930B0E94B82C209147
:1016900023053091240540912505509126050E948F
:1016A000152F181614F460E001C061E08AE01F9164
:1016B0000F910C94B00C833081F028F4813099F0B4
:1016C0008230A1F008958730A9F08830B9F08430D5
:1016D000D1F4809180008F7D03C0809180008F774E
:1016E00080938000089584B58F7702C084B58F7D84
:1016F00084BD08958091B0008F7703C08091B000C1
:101700008F7D8093B00008953FB7F89480913604A0
:1017100090913704A0913804B091390426B5A89B64
:1017200005C02F3F19F00196A11DB11D3FBFBA2F73
:10173000A92F982F8827820F911DA11DB11DBC01D3
:10174000CD0142E0660F771F881F991F4A95D1F798
:10175000089540E0682F87E695E00C94AB068F92E1
:101760009F92AF92BF92CF92DF92EF92FF920F9330
:101770001F93CF93DF93EC016A017B0120E030E0FF
:10178000A901C701B6010E94B32C18160CF04FC076
:101790001AAA1BAA1CAA1DAACEAADFAAE8AEF9AEF5
:1017A0008AAD882309F443C00E8D1F8DF801808017
:1017B0009180A280B380A5019401C701B6010E9467
:1017C000B32C87FF06C0F801C082D182E282F38287
:1017D0000EC020E030E0A901C501B4010E94B32C85
:1017E00087FF05C0F80110821182128213828EA039
:1017F0009FA0A8A4B9A4CEA8DFA8E8ACF9ACA70123
:101800009601C501B4010E94152F181664F0CAA8EC
:10181000DBA8ECA8FDA8A7019601C501B4010E94B0
:10182000B32C87FF04C0CEA2DFA2E8A6F9A6DF9101
:10183000CF911F910F91FF90EF90DF90CF90BF90CD
:10184000AF909F908F90089581E00E94A90B8BE349
:101850009FE10197F1F70895CF93DF93BC018AE3ED
:1018600094E00E94EA04EC0169ED72E08AE394E0FE
:101870000E94EA048C0F9D1FDF91CF910895643080
:1018800008F063E090917A05691710F06FEF690F27
:10189000E62FF0E0E959FA4F9489890F80680C949B
:1018A000A90BCF92DF92EF92FF920F931F93CF93EA
:1018B000DF936B01770FEE08FF08F7FE1BC0EC010A
:1018C0006DE20E94E3048C0144275527BA014C19AC
:1018D0005D096E097F092AE0CE010E94FF04800F96
:1018E000911FDF91CF911F910F91FF90EF90DF90AB
:1018F000CF9008952AE0B701A601DF91CF911F9103
:101900000F91FF90EF90DF90CF900C94FF04CF9356
:10191000DF93282F30E0F901E75FFE4F8491F90152
:10192000EB50FF4FD491F901EF51FF4FC491CC23FD
:1019300091F081110E945B0BEC2FF0E0EE0FFF1F86
:10194000E952FF4FA591B491EC91ED2381E090E035
:1019500021F480E002C080E090E0DF91CF91089513
:101960001F93CF93DF93282F30E0F901E75FFE4FFD
:101970008491F901EB50FF4FD491F901EF51FF4FE2
:10198000C491CC23C1F0162F81110E945B0BEC2F68
:10199000F0E0EE0FFF1FE353FF4FA591B4919FB707
:1019A000F894111104C08C91D095D82302C0EC9109
:1019B000DE2BDC939FBFDF91CF911F910895CF93D2
:1019C000DF9390E0FC01EB50FF4F2491FC01EF51BD
:1019D000FF4F8491882361F190E0880F991FFC01EB
:1019E000ED53FF4FC591D491FC01E353FF4FA591F7
:1019F000B491611109C09FB7F89488812095822322
:101A00008883EC912E230BC0623061F49FB7F89469
:101A10008881322F309583238883EC912E2B2C9351
:101A20009FBF06C08FB7F894E8812E2B28838FBF05
:101A3000DF91CF910895CF93DF93823028F090917A
:101A4000760598609093760580937A0510927B05D1
:101A500080E480937C0580E180937D0580E5809320
:101A60007E0561E080916B050E94DF0C80916C0522
:101A70008F3F19F061E00E94DF0C61E080916D05FD
:101A80000E94DF0CC7E6D5E09E01275635408091C5
:101A9000760584FD03C084E090E002C088E090E019
:101AA0002196281739072CF461E08E810E94DF0C03
:101AB000EBCF8BE39DE00197F1F760E080916B0540
:101AC0000E94B00C60E080916D050E94B00C809186
:101AD0006C058F3F19F060E00E94B00C8091760594
:101AE00084FD20C063E087E695E00E947E06CBE49B
:101AF000D6E4CE010197F1F763E087E695E00E9416
:101B00007E062197F1F763E087E695E00E947E0666
:101B100083E592E00197F1F762E087E695E00E94A5
:101B20007E0615C080620E94A90B8BE496E40197A3
:101B3000F1F78091760580620E94A90B83E592E01F
:101B40000197F1F78091760580620E94A90B809140
:101B5000760580620E94A90B84E0809377058CE073
:101B60000E94A90B0E94240C82E08093780586E0F5
:101B7000DF91CF910C94A90B1F93CF93DF93182F74
:101B8000EB0161E00E94DF0C209711F460E004C0DB
:101B9000CF3FD10539F461E0812FDF91CF911F91C3
:101BA0000C94B00CE12FF0E0E75FFE4FE491E330DE
:101BB000F9F048F4E130B9F0E230A1F584B5806283
:101BC00084BDC8BD34C0E730E9F0E83019F1E43035
:101BD00049F580918000806280938000D0938B00D3
:101BE000C0938A0024C084B5806884BDC7BD1FC06F
:101BF00080918000806880938000D0938900C0939A
:101C0000880015C08091B00080688093B000C093B8
:101C1000B3000DC08091B00080628093B000C0938B
:101C2000B40005C0C038D1050CF0B5CFAFCFDF91FF
:101C3000CF911F9108958E3008F08E508770806488
:101C400080937C0080917A00806480937A008091F8
:101C50007A0086FDFCCF809178002091790090E099
:101C6000922B08958F929F92AF92BF92CF92DF9264
:101C7000EF92FF926B017C010E94840B4B015C018F
:101C8000C114D104E104F104F1F00E94840BDC01E1
:101C9000CB0188199909AA09BB09883E9340A1057F
:101CA000B10570F321E0C21AD108E108F10888EE0D
:101CB000880E83E0981EA11CB11CC114D104E1045C
:101CC000F10419F7DDCFFF90EF90DF90CF90BF9038
:101CD000AF909F908F9008952FB7F8946091320441
:101CE0007091330480913404909135042FBF08958E
:101CF0004F925F926F927F928F929F92AF92BF921C
:101D0000CF92DF92EF92FF920F931F93CF93DF93C7
:101D1000CDB7DEB74C01DC015F965C934E935E97C6
:101D20005D967C936E935C9791963C932E939097DF
:101D3000DA961C92FC0112AA13AA14AA15AA80E032
:101D400090E0AFE7B3E486AB97ABA0AFB1AF84E66A
:101D500090E0A0E0B0E086A797A7A0ABB1AB118E52
:101D6000108E20E030E0A901C801B7010E94B32C19
:101D700087FD56C020E030E0A901C601B5010E94F0
:101D8000B32C87FD4DC020E030E0A9016B897C8930
:101D90008D899E890E94B32C87FD42C081E090E02E
:101DA000D4015B969C938E935A97DB968C93DB972A
:101DB000F401E082F182028313831496AD92BD9206
:101DC000CD92DC9217978B899C89AD89BE898087DB
:101DD0009187A287B387D4011C96ED92FD920D9353
:101DE0001C931F972DEC3CEC4CEC5DE3C601B50158
:101DF0000E94192DF401608B718B828B938B2DECDB
:101E00003CEC4CEC5DE36B897C898D899E890E945A
:101E1000742ED40154966D937D938D939C93579714
:101E20000E946C0EF401C6A4D7A4E0A8F1A8DC01BE
:101E3000CB018C199D09AE09BF0982A393A3A4A36A
:101E4000B5A3DF91CF911F910F91FF90EF90DF909D
:101E5000CF90BF90AF909F908F907F906F905F904A
:101E60004F9008950F931F930E946C0E609342044D
:101E70007093430480934404909345048AE394E070
:101E80000E94070197FF1FC00E946C0E0091420440
:101E9000109143042091440430914504DC01CB01AE
:101EA000801B910BA20BB30B00913E0410913F04D9
:101EB000209140043091410480179107A207B30795
:101EC000E8F28FEF9FEF1F910F91089560E080E09F
:101ED0000E943F0C8091C803823030F46FEE72E0B4
:101EE00087E695E00E9424068091C8038C3031F487
:101EF0006EEF72E087E695E00E9424068091C803A9
:101F00008E3031F46FE073E087E695E00E9424069E
:101F10008091C803803131F462E273E087E695E096
:101F20000E94240660E08FE00E943F0C8AE00E943D
:101F3000870C019731F467E971E087E695E00E942C
:101F400024068AE00E94870C892B31F46BE272E050
:101F500087E695E00E94240661E080E00E943F0C45
:101F60008091C8038E3001F562E373E087E695E067
:101F70000E94240660912F017091300180913101FF
:101F8000909132019B01AC010E94082EAB01BC0173
:101F900020E030E087E695E00E9448056BE272E0C1
:101FA00087E695E00E9424068091C8038031A1F560
:101FB00062E373E087E695E00E94240640912F01DA
:101FC00050913001609131017091320120E030E098
:101FD00087E695E00E9448056BE272E087E695E0AF
:101FE0000E94240666E373E087E695E00E942406DB
:101FF0004091330150913401609135017091360167
:1020000022E030E087E695E00E9448056BE272E04E
:1020100087E695E00E9424068091BC039091BD0361
:102020008130910519F48CE390E005C0853091056D
:1020300039F48FE390E09093C4038093C303089531
:10204000039739F41092BD031092BC038AE0809389
:10205000C803089560E080E00E943F0C6AE373E0EB
:1020600087E695E00E9424064091CF035091D0036B
:102070006091D1037091D20320E030E087E695E0D3
:102080000E94480566E972E087E695E00E94240612
:102090008091C8038130C1F520E030E040E05FE38B
:1020A0006091BE037091BF038091C0039091C10302
:1020B0000E94B32C87FF14C0409104015091050188
:1020C000609106017091070120E030E087E695E01D
:1020D0000E94480566E972E087E695E00E942406C2
:1020E0004091000150910101609102017091030142
:1020F00020E030E087E695E00E9448056DE373E05C
:1021000087E695E00E9424068091C803811106C0ED
:1021100064E473E087E695E00E94240660E08FE0C7
:102120000E943F0C8AE00E94870C019731F467E916
:1021300071E087E695E00E9424068AE00E94870C01
:10214000892B31F46BE272E087E695E00E94240669
:1021500061E080E00E943F0C65E573E087E695E072
:102160000E9424068091C9039091CA0397FD06C07E
:102170006BE272E087E695E00E9424066091C90355
:102180007091CA0387E695E00E94510C8091BC03D0
:102190009091BD038130910519F484E690E005C06B
:1021A0008530910539F48AE090E09093C4038093E0
:1021B000C30330C08430910551F42091C90330919C
:1021C000CA032F5F3F4F25303105E4F10EC0823046
:1021D000910581F48091C9039091CA0301978C3FC6
:1021E0002FEF920714F48CEF9FEF9093CA03809324
:1021F000C90310C0039771F41092BD031092BC0381
:102200008091C8038F5F823018F48093C80302C0A6
:102210001092C80361E08AE00E943F0C4091BE0327
:102220005091BF036091C0037091C10322E030E080
:1022300087E695E00E9448056CE573E087E695E047
:102240000C9424063093CA032093C903E3CF60E0C3
:1022500080E00E943F0C8091C603823010F08431F0
:1022600031F46FE573E087E695E00E9424068091E3
:10227000C6038C3031F46FE673E087E695E00E9488
:1022800024068091C6038E3031F461E873E087E65E
:1022900095E00E9424068091C603803131F462E209
:1022A00073E087E695E00E94240660E08FE00E94DC
:1022B0003F0C8BE00E94870C019731F467E971E0D5
:1022C00087E695E00E9424068BE00E94870C892B0C
:1022D00031F46BE272E087E695E00E94240661E04B
:1022E00080E00E943F0C8091C6038E3001F565E9C5
:1022F00073E087E695E00E942406609123017091C7
:10230000240180912501909126019B01AC010E943E
:10231000082EAB01BC0120E030E087E695E00E948A
:1023200048056BE272E087E695E00E942406809102
:10233000C6038031A1F565E973E087E695E00E9468
:102340002406409123015091240160912501709150
:10235000260120E030E087E695E00E9448056BE228
:1023600072E087E695E00E9424066AE973E087E65A
:1023700095E00E9424064091270150912801609128
:10238000290170912A0122E030E087E695E00E9461
:1023900048056BE272E087E695E00E942406809192
:1023A000BC039091BD038130910519F486E090E063
:1023B00005C08530910539F481E490E09093C40321
:1023C0008093C3030895039739F41092BD031092CC
:1023D000BC038AE08093C60308956FE775E080E050
:1023E00090E00E94040A60E071E088E090E00E94C2
:1023F000D1096AE071E08CE090E00E94040A6CE090
:1024000071E080E190E00E94040A6FE271E084E1F3
:1024100090E00E94D10963E371E088E190E00E94BE
:10242000D10967E371E08CE190E00E94D10964E09A
:1024300071E080E290E00E94D10963E171E084E202
:1024400090E00E94D10963E271E088E290E00E948E
:10245000D10967E271E08CE290E00E94D1096BE261
:1024600071E080E390E00E94D10968E071E084E3CC
:1024700090E00E94B90967EC73E088E390E00E9465
:10248000B90962E171E08CE390E00E94B90969E06A
:1024900071E080E490E00E94B90967E171E084E4B2
:1024A00090E00E94040A62EC73E088E490E00E94ED
:1024B000B9096EE171E08CE490E00C94D1099B01C4
:1024C000AC0160E070E080E894E40E94742E20E0AB
:1024D00030E040E85FE30E94072E9B01AC0160E022
:1024E00070EE82E995E40E94742E20E030E543EC22
:1024F00057E40E94742E0E94222F20911E013091D9
:102500001F0140912001509121010E94742E2FE063
:102510003FEC4BE55BE30E94082E9B01AC0160E0C1
:1025200070E080E89FE30E94742E23E333E948E8DB
:1025300053E40E94072E0895CF92DF92EF92FF920C
:102540000F931F93CF93DF9300D0CDB7DEB760E03A
:1025500082E10E94DF0C60E085E10E94DF0C61E017
:102560008AE00E94DF0C61E08BE00E94DF0C61E0FA
:1025700080E10E94DF0C61E08FE00E94DF0C61E0EF
:1025800081E10E94DF0C61E087E00E94DF0C61E0E6
:102590008CE00E94DF0C62E083E10E94DF0C61E0CE
:1025A0008DE00E94DF0C60E080E10E94B00C60E0F2
:1025B00087E00E94B00C61E087E00E94B00C61E00F
:1025C0008DE00E94B00C6FE775E080E090E00E9423
:1025D000A50980917F05909180050196C1F400E0E6
:1025E00010E01A821982BE016F5F7F4FC8010E94FE
:1025F000040A0F5F1F4F0F3F81E0180791F781E03A
:1026000090E09093800580937F050E94ED116FE725
:1026100075E080E090E00E94A50960E071E088E04C
:1026200090E00E947F096AE071E08CE090E00E94F7
:10263000A5096CE071E080E190E00E94A5096FE2DD
:1026400071E084E190E00E947F0963E371E088E13A
:1026500090E00E947F0967E371E08CE190E00E94C6
:102660007F0964E071E080E290E00E947F0963E10D
:1026700071E084E290E00E947F0963E271E088E209
:1026800090E00E947F0967E271E08CE290E00E9496
:102690007F096BE271E080E390E00E947F0968E0CF
:1026A00071E084E390E00E94750967EC73E088E3D1
:1026B00090E00E94750962E171E08CE390E00E9475
:1026C000750969E071E080E490E00E94750967E1B6
:1026D00071E084E490E00E94A50962EC73E088E474
:1026E00090E00E9475096EE171E08CE490E00E9438
:1026F0007F0980917F0590918005019690938005D8
:1027000080937F0582E00E941B0D68E071E084E306
:1027100090E00E9475098091080181508E3F18F069
:1027200082E88093080160E084E00E943F0C6FE93A
:1027300073E087E695E00E94240661E082E00E9453
:102740003F0C67EA73E087E695E00E9424066FEF8E
:1027500070E089E00E94BC0D08EC10E08091080157
:1027600090E0801791076CF4B80189E00E94BC0DDD
:102770006AE070E080E090E00E94320E01501109A2
:10278000EDCF68EE73E080E090E00E94320E609141
:10279000080170E089E00E94BC0D0E94240CE091C9
:1027A0004A04F0914B0482E08083E0914604F0916A
:1027B00047041082E0914804F091490480E180834D
:1027C00010925204E0914E04F0914F0486E0808311
:1027D000E0914C04F0914D04808180618083E09110
:1027E0004C04F0914D04808188608083E0914C041A
:1027F000F0914D04808180688083E0914C04F091D9
:102800004D0480818F7D8083809117019091180104
:1028100084569109893C910530F084E690E09093CC
:102820001801809317018091C203823010F010923A
:10283000C203C0901E01D0901F01E0902001F090D3
:10284000210120E030E44CE955E4C701B6010E94C3
:10285000152F181654F020E030E445E355E4C70185
:10286000B6010E94B32C87FF0CC080E090EEA6E773
:10287000B5E480931E0190931F01A0932001B093B3
:1028800021010E946C0E6093B4037093B503809392
:10289000B6039093B70340E050E06AE774E48BE23C
:1028A00095E00E94AF0B80916505811104C08BE219
:1028B00095E00E94040781E080936505C090370190
:1028C000D0903801E0903901F0903A010091330145
:1028D00010913401209135013091360140912F0142
:1028E0005091300160913101709132018BE295E09D
:1028F0000E944A070E946C0E6093B8037093B9035C
:102900008093BA039093BB0360913B0170913C01AB
:10291000072E000C880B990B0E94BA2CAB01BC014E
:1029200083EE94E00E94AF0B80911D05811104C0DD
:1029300083EE94E00E94040781E080931D05C0901F
:102940002B01D0902C01E0902D01F0902E010091F0
:102950002701109128012091290130912A014091ED
:10296000230150912401609125017091260183EE8D
:1029700094E00E944A0780918000807E816080936D
:10298000800080918100807E8A608093810099E23E
:1029900088E10FB6F894A895809360000FBE9093DD
:1029A00060000F900F90DF91CF911F910F91FF90DA
:1029B000EF90DF90CF900895FF920F931F93CF93E6
:1029C000DF93EC01F62E08811981C8010E94D72DF2
:1029D000F81621F06F2DC8010E94DF2DCE01DF9186
:1029E000CF911F910F91FF9008951F920F920FB6F4
:1029F0000F9211242F933F938F939F93AF93BF9385
:102A00008091320490913304A0913404B091350444
:102A10003091810523E0230F2D3720F40196A11D6D
:102A2000B11D05C026E8230F0296A11DB11D2093FC
:102A300081058093320490933304A0933404B093BF
:102A400035048091360490913704A0913804B091F8
:102A500039040196A11DB11D80933604909337046B
:102A6000A0933804B0933904BF91AF919F918F9197
:102A70003F912F910F900FBE0F901F901895CF93FD
:102A8000DF93CDB7DEB7C054D1090FB6F894DEBFDF
:102A90000FBECDBF789484B5826084BD84B581605B
:102AA00084BD85B5826085BD85B5816085BD809119
:102AB0006E00816080936E00109281008091810091
:102AC0008260809381008091810081608093810089
:102AD000809180008160809380008091B10084604B
:102AE0008093B1008091B00081608093B0008091AC
:102AF0007A00846080937A0080917A00826080936B
:102B00007A0080917A00816080937A0080917A00C7
:102B1000806880937A001092C1000E949C1265E048
:102B2000862E912C82E10E941B0E8C01C090D7034F
:102B3000D090D803E090D903F090DA0320E030E0A1
:102B400040E05CE3C701B6010E94192D9B01AC0176
:102B5000C701B6010E94072E6B017C01B801110F5D
:102B6000880B990B0E94BA2C9B01AC01C701B601DE
:102B70000E94082E6093D7037093D8038093D903E3
:102B80009093DA0320E030E040E05CE30E94192DEE
:102B900060931004709311048093120490931304B3
:102BA00085E10E941B0E8C01C090D303D090D4030A
:102BB000E090D503F090D60320E030E040E05CE305
:102BC000C701B6010E94192D9B01AC01C701B601D6
:102BD0000E94072E6B017C01B801110F880B990B25
:102BE0000E94BA2C9B01AC01C701B6010E94082EBD
:102BF0006093D3037093D4038093D5039093D6034B
:102C000020E030E040E05CE30E94192D60930C046A
:102C100070930D0480930E0490930F048091C80369
:102C2000813009F0FDC0C090BE03D090BF03E0909A
:102C3000C003F090C10320E030E040E05FE3C70153
:102C4000B6010E94B32C181684F080910401909173
:102C50000501A0910601B09107018093F8039093BC
:102C6000F903A093FA03B093FB0320E030E040E0C7
:102C70005FE3C701B6010E94152F181684F48091F6
:102C8000000190910101A0910201B0910301809394
:102C9000F8039093F903A093FA03B093FB036091B8
:102CA000F8037091F9038091FA039091FB0360930C
:102CB0001F0570932005809321059093220520E045
:102CC00030E040E251E40E94072E21966CAF7DAFC8
:102CD0008EAF9FAF21974090CF035090D00360906C
:102CE000D1037090D203A30192010E94152F1816F0
:102CF00074F561E08AE00E94B00CA0903301B090BE
:102D00003401C0903501D0903601E0902F01F09051
:102D10003001009131011091320180913A018F937D
:102D2000809139018F93809138018F938091370181
:102D30008F932FE135E043E255E067E275E0CE0185
:102D400001960E94780E0F900F900F900F90A301A4
:102D5000920121966CAD7DAD8EAD9FAD21970E9405
:102D6000B32C87FF4EC180916505811104C08BE2B1
:102D700095E00E94040781E0809365054092270555
:102D8000509228056092290570922A058BE295E001
:102D90000E940E080E946C0E0091B4031091B503BE
:102DA0002091B6033091B703AB01BC01401B510B1E
:102DB000620B730B493E53406105710570F0D901F8
:102DC000C80188519C4FAF4FBF4F8093B40390937D
:102DD000B503A093B603B093B7030E946C0E0091A5
:102DE000B4031091B5032091B6033091B703601B73
:102DF000710B820B930B0E94B82C2091230530910C
:102E0000240540912505509126050E94152F18167E
:102E100014F460E001C061E08AE00E94B00CF1C0EF
:102E2000811107C01092650560E08AE00E94B00C35
:102E300061C08A3009F05EC080916505811104C0CF
:102E40008BE295E00E94040781E080936505809104
:102E5000000190910101A0910201B09103018093C2
:102E60001F0590932005A0932105B0932205809122
:102E7000CF039091D003A091D103B091D20380935E
:102E8000270590932805A0932905B0932A0580E093
:102E900090E0A0E8BFE380932F0190933001A093CE
:102EA0003101B0933201109233011092340110922B
:102EB00035011092360110923701109238011092AC
:102EC000390110923A01C12CD12C7601970186016B
:102ED000AC01BD018BE295E00E944A078CE0809333
:102EE000C80380911604909117044E969093DE03C8
:102EF0008093DD038091C8038C3009F082C00E946A
:102F0000EE0A8091DD039091DE03A0E0B0E04091F5
:102F100016045091170460911804709119048417D5
:102F20009507A607B70708F023C14090CF0350903C
:102F3000D0036090D1037090D20320E030E040E2F3
:102F400051E4609100017091010180910201909122
:102F500003010E94072EA30192010E94152F18164B
:102F600064F520E030E040E85FE360912F0170916C
:102F7000300180913101909132010E94082EAB0105
:102F8000BC0140932F015093300160933101709345
:102F90003201C0903701D0903801E0903901F090B3
:102FA0003A010091330110913401209135013091A3
:102FB00036018BE295E00E944A0720E030E040E2D3
:102FC00051E46091000170910101809102019091A2
:102FD00003010E94072E9B01AC01C301B2010E94B4
:102FE000152F18162CF48EE08093C8030E94ED1163
:102FF00080911604909117044E969093DE0380936F
:10300000DD038091C8038E3009F0B2C00E94EE0A41
:103010008091DD039091DE03A0E0B0E040911604C2
:103020005091170460911804709119048417950742
:10303000A607B70708F09CC04090CF035090D0037C
:103040006090D1037090D203209100013091010172
:103050004091020150910301C301B2010E94B32CBF
:1030600087FF2CC02DEC3CEC4CEC5DE36091330110
:103070007091340180913501909136010E94082EA3
:103080008B019C016093330170933401809335016F
:1030900090933601C0903701D0903801E09039010B
:1030A000F0903A0140912F0150913001609131012F
:1030B000709132018BE295E00E944A072091000155
:1030C000309101014091020150910301C301B2010D
:1030D0000E94152F87FD43C01092650560E08AE0CD
:1030E0000E94B00C20E030E048EC52E4209337011D
:1030F000309338014093390150933A0120E030E099
:1031000040EC5FE360912F017091300180913101BB
:10311000909132010E94192D60932F01709330011C
:10312000809331019093320120E030E040EC5FE386
:103130006091330170913401809135019091360195
:103140000E94192D609333017093340180933501EF
:103150009093360180E18093C8030E94ED11809125
:103160001604909117044E969093DE038093DD032E
:103170008091C603882309F43DC0813009F03EC028
:10318000C090CB03D090CC03E090CD03F090CE0361
:1031900020E030E040E251E46091130170911401AD
:1031A00080911501909116010E94072EA7019601AA
:1031B0000E94152F181624F461E08BE00E94B00CD9
:1031C00020E030E040E251E460911301709114017D
:1031D00080911501909116010E94072E9B01AC0170
:1031E000C701B6010E94152F18160CF0E2C084E149
:1031F0008093C60360E08BE00E94B00C8091C60310
:10320000843109F075C080911D05811104C083EEE1
:1032100094E00E94040781E080931D0580911301D2
:1032200090911401A0911501B09116018093D704DB
:103230009093D804A093D904B093DA048091CB037F
:103240009091CC03A091CD03B091CE038093DF0485
:103250009093E004A093E104B093E20483EE94E041
:103260000E940E080E946C0E0091B8031091B903E1
:103270002091BA033091BB03AB01BC01401B510B41
:10328000620B730B493E53406105710570F0D90123
:10329000C80188519C4FAF4FBF4F8093B8039093A4
:1032A000B903A093BA03B093BB030E946C0E0091C4
:1032B000B8031091B9032091BA033091BB03601B8E
:1032C000710B820B930B0E94B82C2091DB04309180
:1032D000DC044091DD045091DE040E94152F181685
:1032E00014F460E001C061E08BE00E94B00CE8C023
:1032F0008A3009F05EC080911D05811104C083EE03
:1033000094E00E94040781E080931D0580911301E1
:1033100090911401A0911501B09116018093D704EA
:103320009093D804A093D904B093DA048091CB038E
:103330009091CC03A091CD03B091CE038093DF0494
:103340009093E004A093E104B093E20480E090E065
:10335000A0E8BFE38093230190932401A09325016B
:10336000B093260110922701109228011092290192
:1033700010922A0110922B0110922C0110922D0113
:1033800010922E01C12CD12C760197018601AC013F
:10339000BD0183EE94E00E944A078CE08093C6034F
:1033A00080911604909117044E969093DC038093BD
:1033B000DB038091C6038C3009F082C00E94710A41
:1033C0008091DB039091DC03A0E0B0E04091160413
:1033D000509117046091180470911904841795078F
:1033E000A607B70708F023C14090CB035090CC0349
:1033F0006090CD037090CE0320E030E040E251E4D5
:103400006091130170911401809115019091160142
:103410000E94072EA30192010E94152F181664F531
:1034200020E030E040E85FE36091230170912401E7
:1034300080912501909126010E94082EAB01BC01CC
:10344000409323015093240160932501709326013A
:10345000C0902B01D0902C01E0902D01F0902E0116
:1034600000912701109128012091290130912A0112
:1034700083EE94E00E944A0720E030E040E251E40D
:1034800060911301709114018091150190911601C2
:103490000E94072E9B01AC01C301B2010E94152FAF
:1034A00018162CF48EE08093C6030E94ED118091D3
:1034B0001604909117044E969093DC038093DB03DF
:1034C0008091C6038E3009F0B2C00E94710A8091CB
:1034D000DB039091DC03A0E0B0E040911604509132
:1034E0001704609118047091190484179507A607B2
:1034F000B70708F09CC04090CB035090CC0360907D
:10350000CD037090CE0320911301309114014091AE
:10351000150150911601C301B2010E94B32C87FF1F
:103520002CC02DEC3CEC4CEC5DE3609127017091DC
:1035300028018091290190912A010E94082E8B0177
:103540009C01609327017093280180932901909337
:103550002A01C0902B01D0902C01E0902D01F09019
:103560002E01409123015091240160912501709119
:10357000260183EE94E00E944A07209113013091C6
:1035800014014091150150911601C301B2010E942E
:10359000152F87FD43C010921D0560E08BE00E944F
:1035A000B00C80E18093C60320E030E048EC52E4A8
:1035B00020932B0130932C0140932D0150932E0129
:1035C00020E030E040EC5FE3609123017091240142
:1035D00080912501909126010E94192D609323016D
:1035E00070932401809325019093260120E030E020
:1035F00040EC5FE3609127017091280180912901DF
:1036000090912A010E94192D60932701709328013F
:103610008093290190932A010E94ED118091160454
:10362000909117044E969093DC038093DB030E94E5
:103630006C0E28EE33E040E050E00E94A42F2AE018
:1036400030E040E050E00E94A42F80911D04909152
:103650001E04A0911F04B0912004281739074A07BF
:103660005B0709F4A7C020931D0430931E04409308
:103670001F045093200480911C048F5F80931C04CE
:103680008EE00E941B0E9093E7038093E603209147
:10369000E103211139C0853691050CF474C02091E5
:1036A000E4033091E503AC014E5F5F4F42175307CF
:1036B0001CF14450510924173507F4F02091E2031E
:1036C0003091E3032F5F3F4F3093E3032093E203F6
:1036D0009093E5038093E403253031050CF453C047
:1036E0001092E3031092E20321E02093E103109291
:1036F000E5031092E40308C01092E3031092E20382
:103700009093E5038093E4032091E1032130D9F500
:103710009C012B5D32402B33310530F441E050E009
:103720005093BD034093BC039C012B533240213383
:10373000310530F4A2E0B0E0B093BD03A093BC0328
:103740009C01255A31402232310530F423E030E02B
:103750003093BD032093BC039C0125503140253498
:10376000310530F444E050E05093BD034093BC0376
:103770008D5891094D9720F49092BD038092BC031F
:1037800082E08093E1038091E103823099F480919B
:10379000DF039091E0030196853191052CF490931D
:1037A000E0038093DF0306C01092E0031092DF0372
:1037B0001092E10380911C048A3010F40C94EA27E3
:1037C00010921C0480911B048F5F80931B048091D6
:1037D000C3039091C4038233910511F40C94222405
:1037E0000CF0A4C08A30910509F426C40CF087C0FF
:1037F0008530910509F494C344F4892B11F00C949D
:10380000CA250E942A100C94C6258630910509F419
:10381000DDC3089711F00C94CA2560E080E00E9497
:103820003F0C6091E6037091E70387E695E00E9404
:10383000510C66E172E087E695E00E9424066091F3
:10384000E4037091E50387E695E00E94510C66E180
:1038500072E087E695E00E9424066091E203709191
:10386000E30387E695E00E94510C66E172E087E68B
:1038700095E00E94240660E070E087E695E00E94F3
:10388000510C66E172E087E695E00E94240660E054
:1038900070E087E695E00E94510C61E080E00E94B4
:1038A0003F0C6091BC037091BD0387E695E00E94D8
:1038B000510C6BE272E087E695E00E9424068EE0F0
:1038C0000E941B0EBC0187E695E00E94510C6BE242
:1038D00072E087E695E00E9424064091E10350E003
:1038E00060E070E02AE087E695E00E94FF0468E16E
:1038F00072E087E695E00E9424060C94CA258E317A
:10390000910509F4E0C54CF48F30910509F450C4D9
:10391000449709F40BC50C94CA258332910509F428
:103920007BC6889709F400C70C94CA258134910599
:10393000A1F1D4F48E33910511F40C94422534F4A2
:10394000CC9711F40C94A8240C94CA258F339105BC
:1039500011F40C9445258034910511F00C94CA257E
:103960000E9427110C94C6258F35910509F4C6C114
:1039700054F48634910509F4A4C08035910509F406
:1039800027C10C94CA258436910509F435C28F3FAE
:10399000910509F4C0C20C94CA2560E080E00E9441
:1039A0003F0C6BE571E087E695E00E94240661E03C
:1039B00080E00E943F0C61E872E087E695E00E949B
:1039C000240640912B0150912C0160912D017091A2
:1039D0002E0122E030E087E695E00E94480566E986
:1039E00072E087E695E00E9424068091BC039091E6
:1039F000BD038130910509F4FAC28530910519F4AF
:103A000086E490E060C68230910549F520E030E020
:103A100040E251E460912B0170912C0180912D01C5
:103A200090912E010E94072E6B017C0120E030E076
:103A3000A9010E94B32C87FD09C0C0922B01D0922E
:103A40002C01E0922D01F0922E0119C110922B0150
:103A500010922C0110922D0110922E0110C104978A
:103A600011F00C94C62520E030E040E251E4609172
:103A70002B0170912C0180912D0190912E010E94BB
:103A8000082E6B017C0160932B0170932C018093B5
:103A90002D0190932E010091270110912801209172
:103AA000290130912A014091230150912401609114
:103AB00025017091260183EE94E00E944A070C9440
:103AC000C62560E080E00E943F0C65E671E087E675
:103AD00095E00E94240661E080E00E943F0C61E8CE
:103AE00072E087E695E00E942406409127015091FC
:103AF00028016091290170912A0122E030E087E6D7
:103B000095E00E94480566E972E087E695E00E942C
:103B100024068091BC039091BD038130910519F476
:103B200081E490E0D0C58530910509F430C1823040
:103B3000910549F52DEC3CEC4CEC5DE360912701DF
:103B4000709128018091290190912A010E94072EED
:103B50006B017C0120E030E0A9010E94B32C87FDBD
:103B600009C0C0922701D0922801E0922901F09269
:103B70002A0185C010922701109228011092290174
:103B800010922A017CC0049711F00C94C6252DECEC
:103B90003CEC4CEC5DE36091270170912801809131
:103BA000290190912A010E94082E8B019C016093AB
:103BB0002701709328018093290190932A01C090D6
:103BC0002B01D0902C01E0902D01F0902E016BCFB5
:103BD00060E080E00E943F0C6FE671E087E695E0D0
:103BE0000E94240661E080E00E943F0C61E872E0E0
:103BF00087E695E00E94240640912301509124011C
:103C0000609125017091260122E030E087E695E081
:103C10000E94480566E972E087E695E00E94240666
:103C20008091BC039091BD038230910589F520E01D
:103C300030E040E85FE360912301709124018091BE
:103C40002501909126010E94072E6B017C0120E046
:103C500030E0A9010E94B32C87FD09C0C092230166
:103C6000D0922401E0922501F092260108C0109222
:103C70002301109224011092250110922601C09078
:103C80002B01D0902C01E0902D01F0902E0103CF5C
:103C90008430910549F520E030E040E85FE3609131
:103CA00023017091240180912501909126010E94A9
:103CB000082EAB01BC014093230150932401609373
:103CC000250170932601C0902B01D0902C01E0902B
:103CD0002D01F0902E0100912701109128012091D3
:103CE000290130912A01E7CE8130910509F488CE6F
:103CF000059709F04BC78FE590E0E5C460E080E0F0
:103D00000E943F0C69E771E087E695E00E94240677
:103D100061E080E00E943F0C61E872E087E695E098
:103D20000E942406409113015091140160911501E5
:103D30007091160120E030E087E695E00E9448058A
:103D400066E972E087E695E00E9424066AE871E081
:103D500087E695E00E9424064091CB035091CC0366
:103D60006091CD037091CE0320E030E087E695E0CE
:103D70000E9448056CE871E087E695E00E94240601
:103D80008091BC039091BD038130910519F480E5C9
:103D900090E099C48230910579F420E030E040E869
:103DA0005FE360911301709114018091150190916E
:103DB00016010E94072E11C084309105B9F420E04D
:103DC00030E040E85FE3609113017091140180914D
:103DD0001501909116010E94082E609313017093B3
:103DE00014018093150190931601D0C6059709F030
:103DF000CDC684E690E067C460E080E00E943F0C9E
:103E00006EE871E087E695E00E9424064091CB03BE
:103E10005091CC036091CD037091CE0320E030E04F
:103E200087E695E00E94480566E972E087E695E03E
:103E30000E9424068091C6038823A1F040911301BB
:103E400050911401609115017091160120E030E04D
:103E500087E695E00E94480566E272E087E695E015
:103E60000E9424068091C603811106C062E971E0B8
:103E700087E695E00E94240660E08FE00E943F0CF8
:103E80008BE00E94870C019731F467E971E087E6C7
:103E900095E00E9424068BE00E94870C892B31F468
:103EA0006BE272E087E695E00E9424066BE272E026
:103EB00087E695E00E94240661E080E00E943F0CC6
:103EC00069E971E087E695E00E9424068091BC03D1
:103ED0009091BD038230910511F460E004C08430FC
:103EE000910529F461E08CE00E94B00C4FC683304C
:103EF000910551F48091C6038F5F823010F40C94C9
:103F0000322B1092C60342C68130910509F4F3CEDC
:103F1000059709F03BC61092C4031092C30336C63E
:103F200060E080E00E943F0C61EA71E087E695E086
:103F30000E9424064091C50350E060E070E02AE052
:103F400087E695E00E94FF0461E080E00E943F0C5C
:103F50008091C503813031F468EA71E087E695E02D
:103F60000E9424068091C503823031F466EB71E033
:103F700087E695E00E9424068091C503833031F4E2
:103F800064EC71E087E695E00E9424068091C50309
:103F9000843031F462ED71E087E695E00E942406FA
:103FA0008091C503853031F460EE71E087E695E0DD
:103FB0000E9424068091C503863009F0E7C56BEEA8
:103FC00071E087E695E00E942406E0C560E080E0AD
:103FD0000E943F0C66EF71E087E695E00E942406A0
:103FE0008091BC039091BD038530910519F480E464
:103FF00090E069C3039709F0C9C5E12CF12C6FEF7C
:10400000C7010E94DF2D5FEFE51AF50A8FEFE81672
:1040100081E0F806A1F761E080E00E943F0C69E0D2
:1040200072E087E695E00E94240668E273E280E091
:1040300090E00E94320EAAC560E080E00E943F0C32
:1040400063E372E087E695E00E94240661E080E089
:104050000E943F0C61E872E087E695E00E9424062A
:1040600040910001509101016091020170910301A2
:1040700020E030E087E695E00E94480566E972E0BE
:1040800087E695E00E9424066AE871E087E695E0FD
:104090000E9424064091CF035091D0036091D10338
:1040A0007091D20320E030E087E695E00E94480559
:1040B0006CE871E087E695E00E942406E090BC037E
:1040C000F090BD0391E0E916F10429F41092C403C5
:1040D0001092C3032DC0A2E0EA16F10479F420E0A7
:1040E00030E040E85FE36091000170910101809150
:1040F0000201909103010E94072E12C0B4E0EB165A
:10410000F104B1F420E030E040E85FE360910001A9
:104110007091010180910201909103010E94082E8B
:104120006093000170930101809302019093030159
:1041300020E030E040E85FE3609100017091010110
:1041400080910201909103010E94B32C87FF0CC063
:1041500080E090E0A0E8BFE380930001909301012C
:10416000A0930201B093030120E030E040EA53E461
:104170006091000170910101809102019091030111
:104180000E94152F181664F480E090E0A0EAB3E4D2
:104190008093000190930101A0930201B093030169
:1041A00025E0E216F10409F0F1C48FE090E08BC243
:1041B00060E080E00E943F0C6DE272E087E695E0EF
:1041C0000E94240661E080E00E943F0C61E872E0FA
:1041D00087E695E00E942406409104015091050174
:1041E000609106017091070120E030E087E695E0DC
:1041F0000E94480566E972E087E695E00E94240681
:104200006AE871E087E695E00E9424064091CF03BA
:104210005091D0036091D1037091D20320E030E03F
:1042200087E695E00E9448056CE871E087E695E036
:104230000E942406E090BC03F090BD0331E0E31639
:10424000F10439F48AE090E09093C4038093C303AF
:104250002DC042E0E416F10479F420E030E040E8BB
:104260005FE36091040170910501809106019091D6
:1042700007010E94072E12C054E0E516F104B1F4C4
:1042800020E030E040E85FE36091040170910501B7
:1042900080910601909107010E94082E609304010D
:1042A00070930501809306019093070120E030E0B0
:1042B00040E85FE36091040170910501809106017F
:1042C000909107010E94B32C87FF0CC080E090E022
:1042D000A0E8BFE38093040190930501A093060139
:1042E000B093070120E030E040EA53E4609104011C
:1042F0007091050180910601909107010E94152F90
:10430000181664F480E090E0A0EAB3E4809304011E
:1043100090930501A0930601B093070185E0E8168C
:10432000F10409F033C484E190E0CDC160E080E0A5
:104330000E943F0C6EE372E087E695E00E9424063F
:1043400060E089E00E943F0C80910901813031F4E6
:1043500067E472E087E695E00E94240680910901F7
:10436000811106C06EE472E087E695E00E942406A3
:1043700061E080E00E943F0C61E872E087E695E032
:104380000E94240660910C0170910D0187E695E072
:104390000E94510C65E572E087E695E00E942406D4
:1043A0008091C9039091CA03892B71F44091EE0367
:1043B0005091EF036091F0037091F10322E030E03F
:1043C00087E695E00E9448056091C9037091CA0391
:1043D000CB0101970397C0F4072E000C880B990BB3
:1043E0000E94BA2C2091EE033091EF034091F0032C
:1043F0005091F1030E94192DAB01BC0122E030E085
:1044000087E695E00E94480568E572E087E695E05A
:104410000E9424068091BC039091BD0381309105D8
:1044200019F48FE090E035C082309105A1F48091BD
:104430001201AAE08A9FC001112454E09595879546
:104440005A95E1F720910C0130910D01A901481B0B
:10445000590BCA0114C084309105B1F48091120146
:104460005AE0859FC001112444E0959587954A95AF
:10447000E1F720910C0130910D01820F931F909371
:104480000D0180930C0116C08530910539F48EE141
:1044900090E09093C4038093C3030CC0039751F43E
:1044A00080910901811104C081E08093090102C05B
:1044B0001092090180910901823008F467C381E0FC
:1044C0008093090163C360E080E00E943F0C6EE5C9
:1044D00072E087E695E00E94240660E089E00E9491
:1044E0003F0C80911201803131F466E672E087E67C
:1044F00095E00E94240680911201803231F46EE62C
:1045000072E087E695E00E94240661E080E00E9468
:104510003F0C61E872E087E695E00E942406609116
:104520000A0170910B0187E695E00E94510C65E548
:1045300072E087E695E00E94240660910A0170917E
:104540000B01072E000C880B990B0E94BA2C2091AE
:104550000E0130910F0140911001509111010E9404
:10456000742E20E030E040E051E40E94192DAB01B0
:10457000BC014093EE035093EF036093F0037093FC
:10458000F10322E030E087E695E00E94480568E507
:1045900072E087E695E00E9424068091BC0390912A
:1045A000BD038130910519F484E190E005C08530A8
:1045B000910539F483E290E09093C4038093C303A0
:1045C00021C08230910531F480910A0190910B0154
:1045D0000A9708C08430910551F480910A019091A6
:1045E0000B010A9690930B0180930A010BC003976D
:1045F00049F480911201803211F480E101C080E21F
:10460000809312018091120181508E3F08F4BEC246
:1046100080E180931201BAC260E080E00E943F0C0A
:1046200066E772E087E695E00E9424066FE772E095
:1046300087E695E00E9424068091C703811106C099
:1046400063E872E087E695E00E9424068091C70344
:10465000813031F467E872E087E695E00E94240635
:1046600066E972E087E695E00E94240661E080E05A
:104670000E943F0C6BE872E087E695E00E942406FA
:1046800065E972E087E695E00E94240660911701D3
:104690007091180187E695E00E94510C61E872E084
:1046A00087E695E00E9424068091BC039091BD03AB
:1046B0008130910519F48EE190E005C085309105B7
:1046C00039F488E290E09093C4038093C3035EC200
:1046D0008230910519F41092C70358C284309105B5
:1046E00021F481E08093C70351C2039709F04EC2C1
:1046F0008091170190911801883C910559F08C32F6
:10470000A1E09A0751F08436910509F03FC288EC88
:1047100090E005C08CE291E002C084E690E09093C6
:1047200018018093170132C260E080E00E943F0CC4
:1047300068E972E087E695E00E94240661E080E087
:104740000E943F0C61E872E087E695E00E94240633
:1047500040912F01509130016091310170913201EF
:1047600022E030E087E695E00E94480566E972E0C5
:1047700087E695E00E9424068091BC039091BD03DA
:104780008130910519F483E290E09DCF8530910549
:1047900009F40DC18230910549F520E030E040E890
:1047A0005FE360912F017091300180913101909110
:1047B00032010E94072E6B017C0120E030E0A9014C
:1047C0000E94B32C87FD09C0C0922F01D092300106
:1047D000E0923101F092320118C110922F01109233
:1047E000300110923101109232010FC1049709F08B
:1047F000CDC120E030E040E85FE360912F0170918F
:10480000300180913101909132010E94082EAB015C
:10481000BC0140932F01509330016093310170939C
:104820003201C0903701D0903801E0903901F0900A
:104830003A010091330110913401209135013091FA
:10484000360117C160E080E00E943F0C61EA72E02F
:1048500087E695E00E94240661E080E00E943F0C1C
:1048600061E872E087E695E00E94240640913301FA
:1048700050913401609135017091360122E030E0B1
:1048800087E695E00E94480566E972E087E695E0D4
:104890000E9424068091BC039091BD038130910554
:1048A00009F40FCF8530910519F48CE390E00BCF1C
:1048B0008230910549F52DEC3CEC4CEC5DE36091C8
:1048C00033017091340180913501909136010E943D
:1048D000072E6B017C0120E030E0A9010E94B32C7F
:1048E00087FD09C0C0923301D0923401E0923501B6
:1048F000F09236018AC01092330110923401109266
:1049000035011092360181C0049709F03FC12DECAA
:104910003CEC4CEC5DE3609133017091340180918B
:104920003501909136010E94082E8B019C01609305
:104930003301709334018093350190933601C09018
:104940003701D0903801E0903901F0903A0189C0E8
:1049500060E080E00E943F0C6AEA72E087E695E042
:104960000E94240661E080E00E943F0C61E872E052
:1049700087E695E00E942406409137015091380166
:104980006091390170913A0122E030E087E695E0CC
:104990000E94480566E972E087E695E00E942406D9
:1049A0008091BC039091BD038130910519F482E39D
:1049B00090E089CE8230910589F520E030E040E238
:1049C00051E46091370170913801809139019091E3
:1049D0003A010E94072E6B017C0120E030E0A90122
:1049E0000E94B32C87FD09C0C0923701D0923801D4
:1049F000E0923901F0923A0108C01092370110920A
:104A000038011092390110923A01C0903701D090CC
:104A10003801E0903901F0903A011BC084309105D3
:104A200059F520E030E040E251E4609137017091A7
:104A300038018091390190913A010E94082E6B0152
:104A40007C01609337017093380180933901909312
:104A50003A010091330110913401209135013091D8
:104A6000360140912F0150913001609131017091D8
:104A700032018BE295E021C8059709F087C08EE3EB
:104A800090E021CE0E94660F81C060E080E00E942D
:104A90003F0C63EB72E087E695E00E9424064091AC
:104AA000080150E060E070E02AE087E695E00E94AF
:104AB000FF0465E572E087E695E00E94240661E068
:104AC00080E00E943F0C6DEB72E087E695E00E946B
:104AD00024068091C203811106C064EC72E087E66F
:104AE00095E00E9424068091C203813031F46CEC81
:104AF00072E087E695E00E94240664ED72E087E6A6
:104B000095E00E9424068091BC039091BD03039719
:104B100071F41092BD031092BC038091C203811105
:104B200004C081E08093C20302C01092C2032091AE
:104B3000BC033091BD032130310539F48EE390E0A0
:104B40009093C4038093C3030DC080910801223069
:104B5000310511F4815004C02430310519F48F5F00
:104B60008093080180910801811103C081E0809346
:104B70000801809108018F3F19F48EEF809308019E
:104B80006091080170E089E00E94BC0D1092BD03A5
:104B90001092BC032091E8033091E9038091C30394
:104BA0009091C4032817390781F01092BD03109229
:104BB000BC030E94240C0E94ED118091C3039091CC
:104BC000C4039093E9038093E8036090C903709055
:104BD000CA036114710451F480E10E94E20184EF80
:104BE00091E09093ED038093EC0321C0BCEF6B1632
:104BF000BFEF7B0631F460E081E10E94B00C61E020
:104C000009C024E06216710491F460E081E10E9421
:104C1000B00C60E08FE00E94B00C60910A017091CE
:104C20000B0120E030E0A90180E10E94690280913F
:104C3000090181113EC0C30101970397D0F461E0DF
:104C400081E10E94B00C60E070E08FE00E94BC0D3A
:104C500080910C0190910D01689EB001699E700DCC
:104C6000789E700D112420E030E0A90180E10E94BF
:104C70006902C30103960397E0F461E081E10E94B9
:104C8000B00C61E08FE00E94B00C80910C0190911B
:104C90000D01689EB001699E700D789E700D112403
:104CA00071956195710920E030E0A90180E10E94D1
:104CB000690280910901813009F0BAC0C3010197EE
:104CC000039708F055C061E081E10E94B00C60E0FC
:104CD0008FE00E94B00C8091EC039091ED03409125
:104CE0000C0150910D01649E9001659E300D749EE3
:104CF000300D1124AC01421B530B4536510534F0E5
:104D0000845691099093ED038093EC038091EC031A
:104D10009091ED03A901481B590B4536510534F01C
:104D20008C599F4F9093ED038093EC038091EC039B
:104D30009091ED03821793072CF40A969093ED035C
:104D40008093EC038091EC039091ED0328173907D1
:104D50002CF40A979093ED038093EC036091EC039D
:104D60007091ED0320E030E0A90180E10E9469022A
:104D7000C3010396039708F05BC061E081E10E94E4
:104D8000B00C61E08FE00E94B00C20910C013091DA
:104D90000D01629EC001639E900D729E900D1124C4
:104DA0002091EC033091ED03AC01420F531F4536C7
:104DB000510534F0245631093093ED032093EC0370
:104DC0009195819591092091EC033091ED03AC010F
:104DD000421B530B4536510534F02C593F4F30934D
:104DE000ED032093EC032091EC033091ED032817A1
:104DF000390734F4265F3F4F3093ED032093EC03E3
:104E00002091EC033091ED038217930734F42A507C
:104E100031093093ED032093EC036091EC03709122
:104E2000ED0320E030E0A90180E10E94690203C0A7
:104E30006114710431F01092EB031092EA0360E008
:104E40000CC08091EA039091EB038037974140F0CA
:104E50001092EB031092EA0361E087E00E94B00C2D
:104E60008091EA039091EB0301969093EB0380937A
:104E7000EA038091C203813079F426E6C22EDC2C4D
:104E800028E1E22E22E4F22E212C38E3332E3BE0FF
:104E9000432E33E4532E0DC0C12CD12C88E1E82ED3
:104EA00082E4F82E212C90E8392E97EF492E91E4D8
:104EB000592E6091120138EC639FB0011124072E26
:104EC000000C880B990B0E94BA2CA20191010E9440
:104ED000192D1B012C01A7019601C701B6010E94E3
:104EE000082E23EC35EF48E450E40E94192D9B0175
:104EF000AC01C201B1010E94742E6B017C01609370
:104F00000E0170930F018093100190931101609135
:104F10000C0170910D01072E000C880B990B0E945B
:104F2000BA2CA70196010E94742E6093EE03709331
:104F3000EF038093F0039093F1032091C803213095
:104F4000B1F593012150310923303105D0F520E02E
:104F500030E040E251E40E94742E20E030E04AE765
:104F600054E40E94742E6B017C01B301072C000CE9
:104F7000880B990B0E94BA2C9B01AC01C701B601AA
:104F80000E94192D9B01AC016091BE037091BF037B
:104F90008091C0039091C1030E94082E6093BE03CC
:104FA0007093BF038093C0039093C1030AC0211183
:104FB00008C01092BE031092BF031092C00310925B
:104FC000C10383E10E94870C892B19F4672809F03B
:104FD0004CC3A89580911B048A3008F402C38091C9
:104FE0001A048F5F80931A0410921B0440911604D8
:104FF0005091170460911804709119044F5F5F4F2E
:105000006F4F7F4F4093160450931704609318041A
:10501000709319048C3310F010921A044091CF034E
:105020005091D0036091D1037091D20325E030E01C
:105030008AE394E00E94480567ED72E08AE394E019
:105040000E9424064091CB035091CC036091CD0384
:105050007091CE0325E030E08AE394E00E94480599
:1050600067ED72E08AE394E00E94240640912F01EC
:1050700050913001609131017091320122E030E0B5
:105080008AE394E00E94480567ED72E08AE394E0C9
:105090000E94240640913301509134016091350102
:1050A0007091360122E030E08AE394E00E944805E6
:1050B00067ED72E08AE394E00E9424064091370194
:1050C000509138016091390170913A0122E030E04D
:1050D0008AE394E00E94480567ED72E08AE394E079
:1050E0000E94240666E070E08AE394E00E94510C7E
:1050F00069ED72E08AE394E00E94EA046091100492
:105100007091110480911204909113040E945F1217
:105110006B017C016093CF037093D0038093D10324
:105120009093D20360910C0470910D0480910E0451
:1051300090910F040E945F122B013C016093CB03FE
:105140007093CC038093CD039093CE03809114048D
:10515000909115040196909315048093140405977B
:1051600004F1209108043091090440910A045091FF
:105170000B04C301B2010E94072E609304047093D4
:10518000050480930604909307044092080450920B
:10519000090460920A0470920B0410921504109294
:1051A000140480911D01813071F580910404909167
:1051B0000504A0910604B091070421968CAF9DAF21
:1051C000AEAFBFAF219720E030E0A901BC01CD0117
:1051D0000E94152F181644F44092190150921A019A
:1051E00060921B0170921C0120E030E0A901219621
:1051F0006CAD7DAD8EAD9FAD21970E94B32C87FF26
:1052000039C010921D0180911D01811133C0209180
:10521000040430910504409106045091070421963E
:105220002CAF3DAF4EAF5FAF219720E030E0A9013A
:1052300021966CAD7DAD8EAD9FAD21970E94B32CB4
:1052400087FF08C04092000450920104609202045B
:105250007092030420E030E0A90121966CAD7DAD91
:105260008EAD9FAD21970E94152F18161CF481E07A
:1052700080931D018091C9039091CA03892B29F065
:105280001092FF031092FE0311C08091C803813079
:1052900069F48091FE039091FF0301969093FF03C0
:1052A0008093FE03813B944008F049C28091C6037D
:1052B000813011F0843191F48091FC039091FD03D1
:1052C00001969093FD038093FC0381319E4030F062
:1052D0001092C6031092FD031092FC0320E030E010
:1052E00045EA53E4C701B6010E94152F18164CF485
:1052F00081E08093C5039092C4038092C3030E940F
:105300002B0A20E030E045EA53E46091CB03709132
:10531000CC038091CD039091CE030E94152F1816D7
:105320004CF482E08093C5039092C4038092C3033F
:105330000E942B0A20E030E040EA51EC6091CF035C
:105340007091D0038091D1039091D2030E94B32C2D
:1053500087FF0DC08091C803882349F083E08093C4
:10536000C5039092C4038092C3030E942B0A20E0DD
:1053700030E040EA51EC6091CB037091CC03809116
:10538000CD039091CE030E94B32C87FF0DC0809176
:10539000C603882349F084E08093C5039092C40338
:1053A0008092C3030E942B0A8091C803813009F0C8
:1053B00059C0C090CF03D090D003E090D103F090BB
:1053C000D20320E030E040EA51E46091F8037091AC
:1053D000F9038091FA039091FB030E94072EA70125
:1053E00096010E94152F18160CF040C02091F4036E
:1053F0003091F5034091F6035091F703C701B601D0
:105400000E94152F181654F4C092F403D092F5039D
:10541000E092F603F092F7031092F3032091F40365
:105420003091F5034091F6035091F703C701B6019F
:105430000E94B32C1816D4F08091F3038F5F8093F1
:10544000F30390E0209117013091180128173907D4
:105450006CF40E942B0A85E08093C5039092C403EC
:105460008092C3038091C8038823D1F020E030E00C
:1054700040EA51E46091F8037091F9038091FA03D6
:105480009091FB030E94072E2091CF033091D0030F
:105490004091D1035091D2030E94B32C87FF12C0D8
:1054A0008091CF039091D003A091D103B091D2030A
:1054B0008093F4039093F503A093F603B093F7035E
:1054C0001092F3038091C603813019F0843109F002
:1054D00058C0C090CB03D090CC03E090CD03F090A7
:1054E000CE0320E030E040EA51E460911301709176
:1054F000140180911501909116010E94072EA701B9
:1055000096010E94152F1816E4F520910804309199
:10551000090440910A0450910B04C701B6010E948E
:10552000152F181654F4C0920804D0920904E09282
:105530000A04F0920B041092F203209108043091B7
:10554000090440910A0450910B04C701B6010E945E
:10555000B32C1816B4F08091F2038F5F8093F2039E
:1055600090E02091170130911801281739074CF469
:105570000E942B0A86E08093C5039092C403809218
:10558000C3038091C6038823D1F020E030E040EAD5
:1055900051E46091F8037091F9038091FA039091BE
:1055A000FB030E94072E2091CB033091CC03409146
:1055B000CD035091CE030E94B32C87FF12C080917F
:1055C000CB039091CC03A091CD03B091CE038093F7
:1055D000080490930904A0930A04B0930B0410925A
:1055E000F2038AE394E00E941501892BB9F18AE362
:1055F00094E00E94F300182F0E94320FFC0197FDE7
:10560000FBC08D32910541F0C0970A9728F08AE3DC
:1056100094E00E94F300F0CFC12CD12C760100E081
:10562000E130F10509F09BC08AE394E00E94F300A9
:105630000E94320FFC01C0970A9790F3E130F10508
:1056400079F3002341F0F094E094D094C094C11C0D
:10565000D11CE11CF11C123409F4A3C00E94BC014E
:105660000C9492158093C60391CA1092CA031092AB
:10567000C90380E10E94E20160E087E00E94B00C73
:1056800060E081E10E94B00C26E930E040E050E0AB
:1056900066E275E087E00E94690266E970E080E0FA
:1056A00090E00E94320E2CE231E040E050E066E2F1
:1056B00075E087E00E9469026CE271E080E090E0B2
:1056C0000E94320E26E930E040E050E066E275E0EC
:1056D00087E00E9469026CE271E080E090E00E9445
:1056E000320E26E930E040E050E066E174E087E009
:1056F0000E94690266E970E080E090E00E94320E4C
:105700002CE231E040E050E066E275E087E00E9484
:1057100069026CE271E080E090E00E94320E28E5C0
:1057200032E040E050E060E276E087E00E9469020B
:1057300068E572E080E090E00E94320E4ACC109260
:10574000C8031092FF031092FE038091C7038130BB
:1057500009F0ACCD60E08DE00E94B00CA7CDED3239
:10576000F105E9F0CF01C0970A9708F05DCFAAE0F4
:10577000B0E0A70196010E94ED2D6F01FF0FEE082A
:10578000FF08DC01CB018C0D9D1DAE1DBF1D6C0102
:105790007D0150E3C51AD108E108F10845CF01E0C9
:1057A00043CFC60185559B408333984040F5B601F1
:1057B00080E090E00E94B82C60931E0170931F015E
:1057C00080932001909321016CED72E08AE394E0D4
:1057D0000E942406B701A601662777272AE08AE3FC
:1057E00094E00E94FF0469ED72E08AE394E00E9475
:1057F000EA040E94ED1132CF123409F02FCF8FED61
:1058000092E00E942C0C2ACFAF92BF92CF92DF92EF
:10581000EF92FF920F931F93EAE3F4E01382128258
:1058200088EE93E0A0E0B0E084839583A683B783FD
:1058300081E491E09183808385EC90E09587848773
:1058400084EC90E09787868780EC90E0918B808B4A
:1058500081EC90E0938B828B82EC90E0958B848B33
:1058600086EC90E0978B868B118E128E138E148EA1
:10587000E7E6F5E01382128283E591E0918380836D
:1058800088E084838FEF858386E0868382E0878348
:1058900083E0808784E0818785E082871386148691
:1058A00015861686178681E00E941B0DA090330195
:1058B000B0903401C0903501D0903601E0902F01B6
:1058C000F0903001009131011091320180913A0144
:1058D0008F93809139018F93809138018F938091BC
:1058E00037018F932FE135E043E255E067E275E041
:1058F0008BE295E00E94780EA0902701B0902801DD
:10590000C0902901D0902A01E0902301F090240159
:10591000009125011091260180912E018F93809195
:105920002D018F9380912C018F9380912B018F9368
:1059300027ED34E04BED54E06FED74E083EE94E03E
:105940000E94780E8DB79EB708960FB6F8949EBF4A
:105950000FBE8DBF1F910F91FF90EF90DF90CF9002
:10596000BF90AF9008950E94F52C08F481E008954F
:10597000E89409C097FB3EF49095809570956195E9
:105980007F4F8F4F9F4F9923A9F0F92F96E9BB279F
:105990009395F695879577956795B795F111F8CF1B
:1059A000FAF4BB0F11F460FF1BC06F5F7F4F8F4F86
:1059B0009F4F16C0882311F096E911C0772321F07C
:1059C0009EE8872F762F05C0662371F096E8862F14
:1059D00070E060E02AF09A95660F771F881FDAF76B
:1059E000880F9695879597F90895990F0008550F98
:1059F000AA0BE0E8FEEF16161706E807F907C0F055
:105A000012161306E407F50798F0621B730B840B5C
:105A1000950B39F40A2661F0232B242B252B21F436
:105A200008950A2609F4A140A6958FEF811D811DD6
:105A300008950E942C2D0C949D2D0E948F2D38F0DE
:105A40000E94962D20F0952311F00C94862D0C9435
:105A50008C2D11240C94D12D0E94AE2D70F3959FA6
:105A6000C1F3950F50E0551F629FF001729FBB2755
:105A7000F00DB11D639FAA27F00DB11DAA1F649FF1
:105A80006627B00DA11D661F829F2227B00DA11DA4
:105A9000621F739FB00DA11D621F839FA00D611D2A
:105AA000221F749F3327A00D611D231F849F600D4B
:105AB000211D822F762F6A2F11249F5750409AF074
:105AC000F1F088234AF0EE0FFF1FBB1F661F771F00
:105AD000881F91505040A9F79E3F510580F00C94CB
