:100000000C9490000C94B8000C94B8000C94B800B8
:100010000C94B8000C94B8000C94B8000C94DC025A
:100020000C94B8000C94B8000C94B8000C94B80070
:100030000C94B8000C94B8000C94B8000C94B80060
:100040000C9413120C94B8000C94A1040C947B042F
:100050000C94B8000C94B8000C94B8000C94B80040
:100060000C94B8000C94B80008000000BE9224491B
:10007000123EABAAAA2ABECDCCCC4C3E00000080DA
:10008000BEABAAAAAA3E00000000BF000000803F4D
:100090000000000000084178D3BB4387D1133D190D
:1000A0000E3CC3BD4282AD2B3E68EC8276BED98F3A
:1000B000E1A93E4C80EFFFBE01C4FF7F3F0000007E
:1000C000000000000000240027002A0000000000BB
:1000D00023002600290000000008000201000003A0
:1000E00004070000000000000000010204081020C6
:1000F00040800102040810200102040810200000C2
:100100000000250028002B00040404040404040457
:100110000202020202020303030303030200872810
:1001200011241FBECFEFD8E0DEBFCDBF13E0A0E0AB
:10013000B1E0E4E1F9E502C005900D92A237B10704
:10014000D9F725E0A2E7B3E001C01D92A834B207B9
:10015000E1F710E0C0E9D0E004C02197FE010E9461
:100160007D2CCF38D107C9F70E945D120C94882CE2
:100170000C940000CF92DF92EF92FF920F931F93A7
:10018000CF93DF936C017A018B01C0E0D0E0CE15F4
:10019000DF0581F0D8016D918D01D601ED91FC91C3
:1001A0000190F081E02DC6010995892B11F021966F
:1001B000EECF7E01C701DF91CF911F910F91FF908C
:1001C000EF90DF90CF900895FC01538D448D252F43
:1001D00030E0842F90E0821B930B541710F0CF96E1
:1001E000089501970895FC01918D828D981761F013
:1001F000828DDF01A80FB11D5D968C91928D9F5F5E
:100200009F73928F90E008958FEF9FEF0895FC0108
:10021000918D828D981731F0828DE80FF11D858DBB
:1002200090E008958FEF9FEF0895FC01918D228D4E
:10023000892F90E0805C9F4F821B91098F739927D3
:10024000089588EF93E00E94150121E0892B09F4BD
:1002500020E0822F0895FC01848DDF01A80FB11DDD
:10026000A35ABF4F2C91848D90E001968F739927EC
:10027000848FA689B7892C93A089B1898C918370CA
:1002800080648C93938D848D981306C00288F389C3
:10029000E02D80818F7D80830895EF92FF920F93F0
:1002A0001F93CF93DF93EC0181E0888F9B8D8C8D22
:1002B000981305C0E889F989808185FD26C0F62E4E
:1002C0000B8D10E00F5F1F4F0F731127E02E8C8DE9
:1002D000E8120CC00FB607FCFACFE889F9898081D3
:1002E00085FFF5CFCE010E942B01F1CF8B8DFE0152
:1002F000E80FF11DE35AFF4FF0829FB7F8940B8F80
:10030000EA89FB89808180620AC09FB7F894EE89F0
:10031000FF896083E889F9898081837080648083A4
:100320009FBF81E090E0DF91CF911F910F91FF90EF
:10033000EF900895CF93DF93EC01888D8823C9F067
:10034000EA89FB89808185FD05C0A889B9898C91DE
:1003500086FD0FC00FB607FCF5CF808185FFF2CF79
:10036000A889B9898C9185FFEDCFCE010E942B0120
:10037000E7CFDF91CF91089580E090E0892B29F0BD
:100380000E94210181110C9400000895089580E0DD
:1003900090E008950E94832CCF93DF93EC0160E0FE
:1003A0008E810E94810D61E08E810E94810D60E04E
:1003B0008E810E94810D8BE891E00197F1F7DF912A
:1003C000CF910895CF93DF93EB010E943629888364
:1003D000CE01DF91CF910895CF92DF92EF92FF92FD
:1003E0000F931F93CF93DF93EB017B0124E0E20E89
:1003F000F11C8B016C01C61AD70AC601800F911F30
:100400000E943629F80181938F01EE15FF05A9F7A7
:10041000CE01DF91CF911F910F91FF90EF90DF9070
:10042000CF9008950F931F93CF93DF938C01EB012F
:100430000E9436298883C80101960E943629898343
:10044000CE01DF91CF911F910F910895FF920F93ED
:100450001F93CF93DF93EC01F62E08811981C80119
:100460000E943629F81621F06F2DC8010E943E29FE
:10047000CE01DF91CF911F910F91FF9008950F93BF
:100480001F93CF93DF9300D0CDB7DEB78B01FB0175
:1004900060819A838983CE0101960E942602C80159
:1004A0000F900F90DF91CF911F910F910895AF9210
:1004B000BF92CF92DF92EF92FF920F931F93CF9351
:1004C000DF9300D0CDB7DEB78B016B0124E0C20E05
:1004D000D11C7B015C01A61AB70AC5018E0D9F1DB8
:1004E000F70161917F019A838983CE0101960E9471
:1004F0002602EC14FD0489F7C8010F900F90DF91DC
:10050000CF911F910F91FF90EF90DF90CF90BF9010
:10051000AF900895EF92FF920F931F93CF93DF93C5
:1005200000D0CDB7DEB78C017B01FB0160819A83DF
:100530008983CE0101960E942602F70161810F5F37
:100540001F4F1A830983CE0101960E942602C7011C
:100550000F900F90DF91CF911F910F91FF90EF902F
:10056000089590911C01891324C0ECE1F1E0E4911D
:100570009FEF90931C01E130B9F098F0E230C9F49C
:10058000909170009D7F9093700091E09093B000E7
:100590009091B100987F94609093B1001092B30055
:1005A00008C010926E0005C090916F009D7F9093DF
:1005B0006F0060E00C94810D1F920F920FB60F92A6
:1005C00011242F933F934F935F936F937F938F9358
:1005D0009F93AF93BF93EF93FF938091F403909118
:1005E000F503A091F603B091F703892B8A2B8B2B8F
:1005F00051F19091F103E091F203F091F3038081C6
:10060000892780838091F4039091F503A091F603EC
:10061000B091F703181619061A061B06C4F4809148
:10062000F4039091F503A091F603B091F7030197BD
:10063000A109B1098093F4039093F503A093F60305
:10064000B093F70304C080911C010E94B102FF9196
:10065000EF91BF91AF919F918F917F916F915F913A
:100660004F913F912F910F900FBE0F901F901895B3
:10067000DC01ED91FC910190F081E02D0994611570
:10068000710579F0FB0101900020E9F73197AF0186
:10069000461B570BDC01ED91FC910280F381E02DAC
:1006A000099480E090E008958F929F92AF92BF925C
:1006B000EF92FF920F931F93CF93DF93CDB7DEB7E7
:1006C000A1970FB6F894DEBF0FBECDBF7C01FA0133
:1006D000CB0119A2223008F42AE08E010F5D1F4FD2
:1006E000822E912CA12CB12CBF01A50194010E9456
:1006F000282CF901CA01015011096A3014F4605D17
:1007000001C0695CD8016C93232B242B252B61F746
:10071000B801C7010E943F03A1960FB6F894DEBF4F
:100720000FBECDBFDF91CF911F910F91FF90EF9042
:10073000BF90AF909F908F9008957F928F929F92DD
:10074000AF92BF92CF92DF92EF92FF920F931F93DF
:10075000CF93DF938C016A017B01722E9A01AB016A
:10076000C701B6010E94DA2B882319F064E373E015
:1007700027C046015701E894B7F82FEF3FEF4FE746
:100780005FE7C501B4010E94DA2B81110DC02FEF84
:100790003FEF4FE75FE7C501B4010E94B929181682
:1007A0001CF468E373E00CC02FEF3FEF4FE75FE40A
:1007B000C701B6010E94182B181694F46CE373E07D
:1007C000C801DF91CF911F910F91FF90EF90DF90C3
:1007D000CF90BF90AF909F908F907F900C943F03ED
:1007E0002FEF3FEF4FE75FECC701B6010E94B92939
:1007F00087FDE4CF20E030E0A901C701B6010E94E7
:10080000B92987FF0AC06DE2C8010E943803EC01D4
:10081000F7FAF094F7F8F09402C0C0E0D0E0B12C01
:1008200060E070E080E09FE3B71440F420E030E047
:1008300040E251E40E94BE29B394F6CFA70196018D
:100840000E944D296B017C010E94372A4B015C01FB
:100850002AE0AB01BC01C8010E945403C80FD91F94
:100860007720C1F1C501B4010E94662A9B01AC0149
:10087000C701B6010E944C296B017C016EE2C801E0
:100880000E943803C80FD91F20E030E040E251E455
:10089000C701B6010E946D2B4B015C010E94372AF3
:1008A0006B01E12CF12C2AE0B701A601C8010E94DE
:1008B0005403C80FD91FC701B6010E94662A9B01C5
:1008C000AC01C501B4010E944C296B017C017A94F2
:1008D0007110DACFCE01DF91CF911F910F91FF9070
:1008E000EF90DF90CF90BF90AF909F908F907F90D0
:1008F00008950C943F031F920F920FB60F9211248C
:100900002F933F934F935F936F937F938F939F9317
:10091000AF93BF93EF93FF9388EF93E00E942B0177
:10092000FF91EF91BF91AF919F918F917F916F91C7
:100930005F914F913F912F910F900FBE0F901F909D
:1009400018951F920F920FB60F9211242F938F9329
:100950009F93EF93FF93E0910804F0910904808145
:10096000E0910E04F0910F0482FD12C090818091FD
:1009700011048F5F8F7320911204821751F0E09160
:100980001104F0E0E850FC4F958F8093110401C0F2
:100990008081FF91EF919F918F912F910F900FBECA
:1009A0000F901F901895CF92DF92EF92FF920F93C6
:1009B0001F93CF93DF936C017C0187E0E80EF11C5D
:1009C000C0E0D0E0062F10E0B8010C2E02C07595F3
:1009D00067950A94E2F76170F70181917F010E94A7
:1009E000810D2196C430D10579F7C601DF91CF91F1
:1009F0001F910F91FF90EF90DF90CF900C94CC015E
:100A0000CF92DF92EF92FF920F931F93CF93DF93DA
:100A1000EC01F62E642F8C810E94810D8D818F3F19
:100A200019F060E00E94810D8F850F2D10E084FF8A
:100A300025C06E0187E0C80ED11CE12CF12CB80155
:100A40000E2C02C0759567950A94E2F76170F60165
:100A500081916F010E94810DFFEFEF1AFF0A88E07C
:100A6000E816F10461F7CE01DF91CF911F910F914C
:100A7000FF90EF90DF90CF900C94CC01B80184E010
:100A8000759567958A95E1F7CE010E94D3046F2D85
:100A9000CE01DF91CF911F910F91FF90EF90DF90EA
:100AA000CF900C94D30441E00E94000581E090E0D7
:100AB00008958F929F92AF92BF92CF92DF92EF9262
:100AC000FF92CF93DF93EC01EE8DFF8DC080D1803C
:100AD000E280F380CEA2DFA2E8A6F9A6EC8DFD8D20
:100AE00080819181A281B3818AA79BA7ACA7BDA772
:100AF0008EA89FA8A8ACB9ACA5019401C701B60106
:100B00000E94182B181664F08AA89BA8ACA8BDA850
:100B1000A5019401C701B6010E94B92987FF04C04D
:100B20008EA29FA2A8A6B9A6DF91CF91FF90EF90C9
:100B3000DF90CF90BF90AF909F908F9008954F928D
:100B40005F926F927F928F929F92AF92BF92CF925D
:100B5000DF92EF92FF920F931F93CF93DF9300D01A
:100B600000D000D0CDB7DEB79E838D832A013B0134
:100B70004801590120E030E0A901C301B2010E94FF
:100B8000B92987FD89C020E030E0A901C501B40181
:100B90000E94B92987FD80C020E030E0A901C7018B
:100BA000B6010E94B92987FD77C081E0ED81FE8101
:100BB000228D338D2130310509F080E0ED81FE81F9
:100BC00083AF408251826282738284829582A68240
:100BD000B782C086D186E286F38666A577A580A90E
:100BE00091A90E94662A20E030E04AE754E40E947E
:100BF000BE2969837A838B839C83ED81FE81448641
:100C00005586668677869B01AC01C501B4010E94BA
:100C10006D2B4B015C01ED81FE81608B718B828BB2
:100C2000938B29813A814B815C81C701B6010E9477
:100C3000BE296B017C01ED81FE81648B758B868BF7
:100C4000978B808D918D019739F5A301920160E01A
:100C500070E0CB010E944C29ED81FE81648775878D
:100C600086879787A501940160E070E0CB010E9420
:100C70004C29ED81FE81608B718B828B938BA70158
:100C8000960160E070E0CB010E944C29ED81FE816D
:100C9000648B758B868B978B26960FB6F894DEBF88
:100CA0000FBECDBFDF91CF911F910F91FF90EF90BD
:100CB000DF90CF90BF90AF909F908F907F906F907C
:100CC0005F904F9008952F923F924F925F926F9254
:100CD0007F928F929F92AF92BF92CF92DF92EF92CC
:100CE000FF920F931F93CF93DF93CDB7DEB760973B
:100CF0000FB6F894DEBF0FBECDBFDC01DA96BC9113
:100D0000B983B11102C019822BC1988B8F870E94C1
:100D10004D116E837F8388879987EF85F88982A13B
:100D200093A1A4A1B5A14E815F8168857985481BF7
:100D3000590B6A0B7B0B86A597A5A0A9B1A94817EB
:100D400059076A077B07F8F2048CF58DE02D808146
:100D50009181A281B3818A839B83AC83BD83AF855C
:100D6000B8899096ED91FC9191972A813B814C81B5
:100D70005D8160817181828193810E944C294B0148
:100D80005C01EF85F88922A533A544A555A56A81A4
:100D90007B818C819D810E944C296B017C01AF85F8
:100DA000B88950962D913D914D915C915397C50115
:100DB000B4010E946D2BEF85F88926A137A140A5CB
:100DC00051A50E944D292B013C01AF85B88996960B
:100DD0006D937D938D939C939997DB96BC91BA8785
:100DE000B11118C0EF85F88924853585468557856A
:100DF000C701B6010E946D2B9B01AC01C301B2017A
:100E00000E944C29AF85B88996966D937D938D93FA
:100E10009C939997EF85F88946A057A060A471A488
:100E200016A907A930AC21AC212F302F432D522D0C
:100E3000C301B2010E94182B18162CF4812F902F99
:100E4000A32DB22D18C0AF85B889D2968D919D91F2
:100E50000D90BC91A02D8B879C87AD87BE879C0190
:100E6000AD01C301B2010E94B92987FF0AC08B8579
:100E70009C85AD85BE85EF85F88986A397A3A0A73D
:100E8000B1A7FA85FF2379F0AF85B8891C962D911B
:100E90003D914D915C911F97C501B4010E946D2B4E
:100EA0004B015C0103C0812C912C5401EF85F88922
:100EB0002489358946895789C701B6010E946D2B5F
:100EC0009B01AC01AF85B88996966D917D918D910E
:100ED0009C9199970E944C29A50194010E944D294B
:100EE0006B017C019B01AC01612F702F832D922D32
:100EF0000E94B92987FD14C0EF85F88912A903A9BA
:100F000034A825A8212F302F432D522DB601C7011B
:100F10000E94B92987FD04C01C2D0D2D3E2C2F2CBD
:100F2000AF85B8895E96ED91FC915F97812F902FE8
:100F3000A32DB22D80839183A283B3838A819B8169
:100F4000AC81BD81EF85F88982A793A7A4A7B5A737
:100F50008E819F81A885B98582A393A3A4A3B5A3FD
:100F6000898160960FB6F894DEBF0FBECDBFDF91CA
:100F7000CF911F910F91FF90EF90DF90CF90BF9096
:100F8000AF909F908F907F906F905F904F903F9029
:100F90002F90089510928F0310928A031092790374
:100FA0001092780360E08CE00E94810D60EF71E0A8
:100FB00088EF93E00E94790480917603813021F4D8
:100FC00087EF91E00E94450D80917603823021F4F5
:100FD00085E092E00E94450D80917603833021F4F4
:100FE00083E192E00E94450D80917603843021F4E4
:100FF00081E292E00E94450D80917603853021F4D4
:101000008FE292E00E94450D80917603863021F4B4
:101010008AE392E00E94450D60E08DE00C94810D22
:10102000CF92DF92EF92FF920F931F938091140162
:1010300090911501A0911601B0911701809395042C
:1010400090939604A0939704B0939804809186039C
:1010500090918703A0918803B091890380939D04A8
:1010600090939E04A0939F04B093A00481EA94E01F
:101070000E9463060E944D11C0908203D0908303AA
:10108000E0908403F0908503209135013091360182
:101090008901330F220B330BAB01BC014C195D09E5
:1010A0006E097F09041715072607370770F4D70163
:1010B000C601800F911FA21FB31F809382039093DC
:1010C0008303A0938403B09385030E944D11C090C5
:1010D0008203D0908303E0908403F09085036C1921
:1010E0007D098E099F090E94662A209199043091FA
:1010F0009A0440919B0450919C040E94182B18164E
:1011000014F460E001C061E08BE01F910F91FF904B
:10111000EF90DF90CF900C94810D0F931F938091EF
:10112000180190911901A0911A01B0911B018093AF
:10113000DD049093DE04A093DF04B093E00480917B
:101140008B0390918C03A0918D03B0918E038093BB
:10115000E5049093E604A093E704B093E80489EED5
:1011600094E00E9463060E944D1100917A03109151
:101170007B0320917C0330917D03AB01BC01401BBC
:10118000510B620B730B493E53406105710570F0C2
:10119000D901C80188519C4FAF4FBF4F80937A034C
:1011A00090937B03A0937C03B0937D030E944D1129
:1011B00000917A0310917B0320917C0330917D0391
:1011C000601B710B820B930B0E94662A2091E10435
:1011D0003091E2044091E3045091E4040E94182B02
:1011E000181614F460E001C061E08AE01F910F91CD
:1011F0000C94810D60E080E00E94FD0C60E473E0DF
:1012000085E295E00E94790440918B0350918C0314
:1012100060918D0370918E0320E030E085E295E0CF
:101220000E949D0363EB71E085E295E00E947904E2
:1012300080918F038130C1F520E030E040E85EE32B
:1012400060917E0370917F03809180039091810370
:101250000E94B92987FF14C04091100150911101DB
:10126000609112017091130120E030E085E295E079
:101270000E949D0363EB71E085E295E00E94790492
:10128000409118015091190160911A0170911B0150
:1012900020E030E085E295E00E949D0363E473E086
:1012A00085E295E00E94790480918F03811106C048
:1012B0006AE473E085E295E00E94790460E08FE0E3
:1012C0000E94FD0C8AE00E94580D019731F46BE9F1
:1012D00071E085E295E00E9479048AE00E94580D51
:1012E000892B31F46AE772E085E295E00E94790487
:1012F00061E080E00E94FD0C63E573E085E295E02B
:101300000E947904809178039091790397FD06C03B
:101310006AE772E085E295E00E94790460917803C3
:101320007091790385E295E00E940F0D8091720320
:10133000909173038130910519F484E690E005C023
:101340008530910539F48AE090E09093750380939D
:10135000740330C08430910551F4209178033091AA
:1013600079032F5F3F4F25303105E4F10EC0823005
:10137000910581F4809178039091790301978C3FD6
:101380002FEF920714F48CEF9FEF909379038093E3
:10139000780310C0039771F41092730310927203D4
:1013A00080918F038F5F823018F480938F0302C087
:1013B00010928F0361E089E00E94FD0C40917E0352
:1013C00050917F03609180037091810322E030E0AF
:1013D00085E295E00E949D036AE573E085E295E071
:1013E0000C9479043093790320937803E3CF67EE6C
:1013F00073E080E090E00E948A0268E171E088E09A
:1014000090E00E94570262E071E08CE090E00E9460
:101410008A0264E071E080E190E00E948A0269E261
:1014200071E084E190E00E9457026DE271E088E192
:1014300090E00E94570261E371E08CE190E00E942D
:10144000570260E171E080E290E00E94570264E19F
:1014500071E084E290E00E9457026DE171E088E261
:1014600090E00E94570261E271E08CE290E00E94FD
:10147000570265E271E080E390E00E94570261E06C
:1014800071E084E390E00E943F0267E773E088E345
:1014900090E00E943F026AE071E08CE390E00C94DF
:1014A0003F02CF92DF92EF92FF920F931F93CF9361
:1014B000DF9300D0CDB7DEB780918000807E816061
:1014C0008093800080918100807E8A60809381007B
:1014D00098E288E10FB6F894A895809360000FBE5B
:1014E0009093600060E082E10E94B00D60E085E1D1
:1014F0000E94B00D61E08AE00E94B00D61E08BE0D7
:101500000E94B00D61E080E10E94B00D61E08FE0CB
:101510000E94B00D61E081E10E94B00D61E08CE0BD
:101520000E94B00D62E083E10E94B00D61E08DE0A9
:101530000E94B00D61E08DE00E94810D67EE73E0C6
:1015400080E090E00E9412028091E7039091E8030E
:101550000196C1F400E010E01A821982BE016F5FAB
:101560007F4FC8010E948A020F5F1F4F0F3F81E02B
:10157000180791F781E090E09093E8038093E703E8
:101580000E94F70967EE73E080E090E00E9412028B
:1015900068E171E088E090E00E94EC0162E071E0B7
:1015A0008CE090E00E94120264E071E080E190E043
:1015B0000E94120269E271E084E190E00E94EC0175
:1015C0006DE271E088E190E00E94EC0161E371E07E
:1015D0008CE190E00E94EC0160E171E080E290E03B
:1015E0000E94EC0164E171E084E290E00E94EC0171
:1015F0006DE171E088E290E00E94EC0161E271E04F
:101600008CE290E00E94EC0165E271E080E390E002
:101610000E94EC0161E071E084E390E00E94E2014D
:1016200067E773E088E390E00E94E2016AE071E01E
:101630008CE390E00E94E2018091E7039091E8033F
:1016400001969093E8038093E70382E00E94EC0DFB
:1016500061E071E084E390E00E94E2018091010189
:1016600081508E3F18F082E88093010160E084E0B1
:101670000E94FD0C6CE573E085E295E00E94790420
:1016800061E082E00E94FD0C64E673E085E295E093
:101690000E9479046FEF70E089E00E949D1008ECD1
:1016A00010E08091010190E0801791076CF4B8017F
:1016B00089E00E949D106AE070E080E090E00E9466
:1016C000131101501109EDCF68EE73E080E090E056
:1016D0000E9413116091010170E089E00E949D1049
:1016E0000E94F50CE0910804F091090482E08083E7
:1016F000E0910404F09105041082E0910604F09159
:10170000070480E1808310921004E0910C04F091B2
:101710000D0486E08083E0910A04F0910B0480813F
:1017200080618083E0910A04F0910B0480818860DD
:101730008083E0910A04F0910B04808180688083AB
:10174000E0910A04F0910B0480818F7D80830E94D8
:101750004D1160937A0370937B0380937C03909385
:101760007D0340E050E06AE774E489EE94E00E9473
:10177000800C80912305811104C089EE94E00E94C1
:10178000590581E080932305C0903101D09032014A
:10179000E0903301F090340100912D0110912E0161
:1017A00020912F01309130014091290150912A015F
:1017B00060912B0170912C0189EE94E00E949F05AD
:1017C0000E944D116093820370938303809384037E
:1017D000909385036091350170913601072E000CBE
:1017E000880B990B0E94682AAB01BC0181EA94E046
:1017F0000E94800C8091DB04811104C081EA94E096
:101800000E94590581E08093DB04C0902501D090AF
:101810002601E0902701F09028010091210110910C
:101820002201209123013091240140911D0150910A
:101830001E0160911F017091200181EA94E00E94D5
:101840009F050F900F90DF91CF911F910F91FF9007
:10185000EF90DF90CF900895833081F028F48130AD
:1018600099F08230A1F008958730A9F08830B9F05E
:101870008430D1F4809180008F7D03C080918000FE
:101880008F7780938000089584B58F7702C084B5E8
:101890008F7D84BD08958091B0008F7703C08091C3
:1018A000B0008F7D8093B00008953FB7F894809189
:1018B000ED039091EE03A091EF03B091F00326B5F4
:1018C000A89B05C02F3F19F00196A11DB11D3FBF78
:1018D000BA2FA92F982F8827820F911DA11DB11D06
:1018E000BC01CD0142E0660F771F881F991F4A9502
:1018F000D1F7089540E0682F85E295E00C9400054B
:101900008F929F92AF92BF92CF92DF92EF92FF920F
:101910000F931F93CF93DF93EC016A017B0120E0CB
:1019200030E0A901C701B6010E94B92918160CF0D0
:101930004FC01AAA1BAA1CAA1DAACEAADFAAE8AEEB
:10194000F9AE8AAD882309F443C00E8D1F8DF801CE
:1019500080809180A280B380A5019401C701B60167
:101960000E94B92987FF06C0F801C082D182E282B5
:10197000F3820EC020E030E0A901C501B4010E944D
:10198000B92987FF05C0F8011082118212821382E3
:101990008EA09FA0A8A4B9A4CEA8DFA8E8ACF9ACFB
:1019A000A7019601C501B4010E94182B181664F016
:1019B000CAA8DBA8ECA8FDA8A7019601C501B4013F
:1019C0000E94B92987FF04C0CEA2DFA2E8A6F9A62B
:1019D000DF91CF911F910F91FF90EF90DF90CF900B
:1019E000BF90AF909F908F90089581E00E947A0CF5
:1019F0008BE39FE10197F1F70895643008F063E00D
:101A000090913805691710F06FEF690FE62FF0E03D
:101A1000EB5DFA4F9489890F80680C947A0CCF9211
:101A2000DF92EF92FF920F931F93CF93DF936B019F
:101A3000770FEE08FF08F7FE1BC0EC016DE20E9475
:101A400038038C0144275527BA014C195D096E09EA
:101A50007F092AE0CE010E945403800F911FDF917D
:101A6000CF911F910F91FF90EF90DF90CF9008954D
:101A70002AE0B701A601DF91CF911F910F91FF904E
:101A8000EF90DF90CF900C945403CF93DF93BC0181
:101A900088EF93E00E943F03EC0161E373E088EF7D
:101AA00093E00E943F038C0F9D1FDF91CF9108951B
:101AB000CF93DF93282F30E0F901EA52FF4F849152
:101AC000F901E651FF4FD491F901E85FFE4FC4914F
:101AD000CC2391F081110E942C0CEC2FF0E0EE0F42
:101AE000FF1FE453FF4FA591B491EC91ED2381E0EA
:101AF00090E021F480E002C080E090E0DF91CF919F
:101B000008951F93CF93DF93282F30E0F901EA5215
:101B1000FF4F8491F901E651FF4FD491F901E85F3D
:101B2000FE4FC491CC23C1F0162F81110E942C0CC2
:101B3000EC2FF0E0EE0FFF1FE250FF4FA591B491A4
:101B40009FB7F894111104C08C91D095D82302C08E
:101B5000EC91DE2BDC939FBFDF91CF911F91089515
:101B6000CF93DF9390E0FC01E651FF4F2491FC01FD
:101B7000E85FFE4F8491882361F190E0880F991F00
:101B8000FC01EE53FF4FC591D491FC01E250FF4F91
:101B9000A591B491611109C09FB7F89488812095EF
:101BA00082238883EC912E230BC0623061F49FB7AF
:101BB000F8948881322F309583238883EC912E2BE3
:101BC0002C939FBF06C08FB7F894E8812E2B2883F3
:101BD0008FBFDF91CF910895CF93DF93823028F0AC
:101BE0009091340598609093340580933805109255
:101BF000390580E480933A0580E180933B0580E5D8
:101C000080933C0561E0809129050E94B00D809190
:101C10002A058F3F19F061E00E94B00D61E08091CC
:101C20002B050E94B00DC5E2D5E09E01255235403E
:101C30008091340584FD03C084E090E002C088E018
:101C400090E02196281739072CF461E08E810E94DC
:101C5000B00DEBCF8BE39DE00197F1F760E0809151
:101C600029050E94810D60E080912B050E94810D65
:101C700080912A058F3F19F060E00E94810D8091CC
:101C8000340584FD20C063E085E295E00E94D30422
:101C9000CBE4D6E4CE010197F1F763E085E295E06D
:101CA0000E94D3042197F1F763E085E295E00E945A
:101CB000D30483E592E00197F1F762E085E295E0D5
:101CC0000E94D30415C080620E947A0C8BE496E4D3
:101CD0000197F1F78091340580620E947A0C83E5C8
:101CE00092E00197F1F78091340580620E947A0CAE
:101CF0008091340580620E947A0C84E080933505DF
:101D00008CE00E947A0C0E94F50C82E080933605EC
:101D100086E0DF91CF910C947A0C8F929F92AF92D4
:101D2000BF92CF92DF92EF92FF921F93CF93DF93F8
:101D3000EC0180911C01803121F08F3F09F0F1C14D
:101D400004C0ECE1F1E014916FC080E180931C01CC
:101D5000ECE1F1E014911F3F09F4E3C1113009F403
:101D600040C030F1123009F05FC01092B000109204
:101D7000B1008091B00082608093B0008091B1008A
:101D800081608093B100E8E1F1E0E491F0E0EE0FD2
:101D9000FF1FE250FF4F859194919093F30380933E
:101DA000F203EAEFF0E0E491E093F10312E0B4C152
:101DB00014BC15BC84B5826084BD85B5816085BDC9
:101DC000E8E1F1E0E491F0E0EE0FFF1FE250FF4F99
:101DD00085919491EAEFF0E0E491E0933E0510E004
:101DE0009BC11092800010928100809181008860D8
:101DF0008093810080918100816080938100E8E17F
:101E0000F1E0E491F0E0EE0FFF1FE250FF4F85910B
:101E10009491EAEFF0E0E491E0933D0561E080E128
:101E20000E94B00D11E0A5C017FD7BC161E080E10B
:101E30000E94B00D812F8D7F09F09BC06E01E12CB7
:101E4000F12C60E072E18AE790E0A70196010E9420
:101E50004A2C49015A01BA01A901415051096109AD
:101E600071094F3F51056105710509F008F445C03E
:101E700060E472E48FE090E0A70196010E944A2C92
:101E8000BA01A90141505109610971091230E9F4FF
:101E90004F3F51056105710509F008F4DDC060E9A7
:101EA00070ED83E090E0A70196010E944A2CBA01F0
:101EB000A90141505109610971094F3F510561055F
:101EC000710509F020F583E04DC04F3F51056105D4
:101ED0007105A9F0A0F068E478EE81E090E0A70138
:101EE00096010E944A2CBA01A90141505109610989
:101EF0007109112309F4E1C0D8C081E001C082E07A
:101F0000111130C095B5987F892B85BD69C068E4F3
:101F100078EE81E090E0A70196010E944A2CBA0178
:101F2000A90141505109610971094F3F51056105EE
:101F3000710509F008F48EC064E274EF80E090E06F
:101F4000A70196010E944A2CBA01A90141505109EA
:101F5000610971094F3F51056105710511F008F0E4
:101F60007DC085E09091B100987F892B8093B1006E
:101F700031C06E01E12CF12C60E072E18AE790E063
:101F8000A70196010E944A2CBA01A90141505109AA
:101F9000610971094115510581E06807710580F0FB
:101FA00068E478EE81E090E0A70196010E944A2C57
:101FB000BA01A901415051096109710983E001C0C9
:101FC00081E0113039F490918100987F892B8093C2
:101FD000810018C01130B1F0123049F11111A1C0C7
:101FE00047BD8FEF9FEFDC0180934305909344053D
:101FF000A0934505B093460580916E008260809362
:102000006E008FC050938900409388008FEF9FEF40
:10201000DC0180933F0590934005A0934105B09368
:10202000420580916F00826080936F007AC0409378
:10203000B3008FEF9FEFDC018093F4039093F503DF
:10204000A093F603B093F7038091700082608093B1
:10205000700067C084E086CF82E084CF62E17AE7D7
:1020600080E090E0A70196010E944A2CBA01A901E4
:1020700041505109610971094F3F510561057105D1
:1020800091F088F0D501C4012AE0B595A795979500
:1020900087952A95D1F7AC01BD01415051096109DD
:1020A000710987E05FCF86E05DCF4F3F5105610545
:1020B000710509F098F684E023CF4F3F5105610583
:1020C000710541F138F162E17AE780E090E0A70123
:1020D00096010E944A2CBA01A90141505109610997
:1020E00071094F3F51056105710591F088F0D501E7
:1020F000C4013AE0B595A795979587953A95D1F79C
:10210000AC01BD01415051096109710985E0FACE68
:1021100084E0F8CE83E0F6CE61E080E10E94B00D6D
:102120008DCEDF91CF911F91FF90EF90DF90CF90F8
:10213000BF90AF909F908F9008951F93CF93DF93A0
:10214000182FEB0161E00E94B00D209711F460E0C0
:1021500004C0CF3FD10539F461E0812FDF91CF91E9
:102160001F910C94810DE12FF0E0EA52FF4FE491B2
:10217000E330F9F048F4E130B9F0E230A1F584B58C
:10218000806284BDC8BD34C0E730E9F0E83019F1A1
:10219000E43049F580918000806280938000D09384
:1021A0008B00C0938A0024C084B5806884BDC7BDFD
:1021B0001FC080918000806880938000D093890048
:1021C000C093880015C08091B00080688093B000F3
:1021D000C093B3000DC08091B00080628093B000C6
:1021E000C093B40005C0C038D1050CF0B5CFAFCF57
:1021F000DF91CF911F9108958E3008F08E50877037
:10220000806480937C0080917A00806480937A005F
:1022100080917A0086FDFCCF809178002091790032
:1022200090E0922B08958F929F92AF92BF92CF929F
:10223000DF92EF92FF926B017C010E94550C4B01E3
:102240005C01C114D104E104F104F1F00E94550CC9
:10225000DC01CB0188199909AA09BB09883E934082
:10226000A105B10570F321E0C21AD108E108F10817
:1022700088EE880E83E0981EA11CB11CC114D10405
:10228000E104F10419F7DDCFFF90EF90DF90CF90DC
:10229000BF90AF909F908F9008952FB7F894609162
:1022A000E9037091EA038091EB039091EC032FBF57
:1022B00008954F925F926F927F928F929F92AF920A
:1022C000BF92CF92DF92EF92FF920F931F93CF9323
:1022D000DF93CDB7DEB74C01DC015F965C934E9384
:1022E0005E975D967C936E935C9791963C932E934C
:1022F0009097DA961C92FC0112AA13AA14AA15AAA6
:1023000080E090E0AFE7B3E486AB97ABA0AFB1AFAE
:1023100084E690E0A0E0B0E086A797A7A0ABB1ABC1
:10232000118E108E20E030E0A901C801B7010E9493
:10233000B92987FD56C020E030E0A901C601B501EA
:102340000E94B92987FD4DC020E030E0A9016B89CA
:102350007C898D899E890E94B92987FD42C081E0D0
:1023600090E0D4015B969C938E935A97DB968C9366
:10237000DB97F401E082F182028313831496AD921D
:10238000BD92CD92DC9217978B899C89AD89BE89CD
:1023900080879187A287B387D4011C96ED92FD9226
:1023A0000D931C931F972DEC3CEC4CEC5DE3C601A8
:1023B000B5010E946D2BF401608B718B828B938B26
:1023C0002DEC3CEC4CEC5DE36B897C898D899E891E
:1023D0000E94BE29D40154966D937D938D939C9356
:1023E00057970E944D11F401C6A4D7A4E0A8F1A804
:1023F000DC01CB018C199D09AE09BF0982A393A30F
:10240000A4A3B5A3DF91CF911F910F91FF90EF90FF
:10241000DF90CF90BF90AF909F908F907F906F9004
:102420005F904F9008951F920F920FB60F92112454
:102430002F933F938F939F93AF93BF938091E90323
:102440009091EA03A091EB03B091EC033091470522
:1024500023E0230F2D3720F40196A11DB11D05C0E7
:1024600026E8230F0296A11DB11D209347058093F6
:10247000E9039093EA03A093EB03B093EC038091FC
:10248000ED039091EE03A091EF03B091F00301965C
:10249000A11DB11D8093ED039093EE03A093EF0374
:1024A000B093F003BF91AF919F918F913F912F9186
:1024B0000F900FBE0F901F901895CF93DF93CDB75D
:1024C000DEB7C054D1090FB6F894DEBF0FBECDBF42
:1024D000789484B5826084BD84B5816084BD85B5FF
:1024E000826085BD85B5816085BD80916E0081600B
:1024F00080936E00109281008091810082608093B1
:1025000081008091810081608093810080918000B2
:102510008160809380008091B10084608093B100DD
:102520008091B00081608093B00080917A008460D7
:1025300080937A0080917A00826080937A00809103
:102540007A00816080937A0080917A00806880931D
:102550007A001092C1000E94510AB1E42B2E312C56
:102560000E944D1128EE33E040E050E00E94282CFC
:102570002AE030E040E050E00E94282C8091C70320
:102580009091C803A091C903B091CA0328173907D5
:102590004A075B0709F402C12093C7033093C803BD
:1025A0004093C9035093CA038091C6038F5F809301
:1025B000C6038EE00E94FC1020919103222341F07B
:1025C00020919103213009F08BC004E110E029C073
:1025D00089329105ACF32091000123502F3008F48B
:1025E0002FE02093000121E02093910310929003AB
:1025F00010929303109292031092950310929403F9
:1026000010929703109296031092990310929803D8
:1026100010929B0310929A0310929D0310929C03B8
:10262000CFCF8EE00E94FC108436910514F41092F6
:1026300091039C012B5D32402B33310550F42091E6
:102640009403309195032F5F3F4F30939503209370
:1026500094039C012B5332402133310550F42091D7
:102660009603309197032F5F3F4F3093970320934A
:1026700096039C01255A31402232310550F42091B5
:102680009803309199032F5F3F4F30939903209324
:1026900098039C01255031402534310550F4209198
:1026A0009A0330919B032F5F3F4F30939B032093FE
:1026B0009A039C012D5831092D31310550F4209198
:1026C0009C0330919D032F5F3F4F30939D032093D8
:1026D0009C030150110909F0A4CF24E02093910339
:1026E00020919103243031F020919103263009F09C
:1026F00050C044C02091720330917303E2E9F3E0CB
:1027000040E050E0A191B1914F5F5F4F60817181D6
:10271000A617B70724F045305105A1F702C09A016A
:10272000FACF309373032093720346E040939103F2
:10273000220F331FF901EE56FC4F208131812431E5
:10274000310591F221E020939103109293031092AE
:102750009203109295031092940310929703109293
:102760009603109299031092980310929B03109273
:102770009A0310929D0310929C03B6CF2091900370
:102780002F5F2093900330910001231710F01092D7
:10279000910388971CF488E2809300018091C6031E
:1027A0008A3010F40C947A1F1092C6038091C503EE
:1027B0008F5F8093C503809174039091750382337A
:1027C000910511F40C94FB1B0CF0A8C08A30910504
:1027D00009F4EBC40CF08BC08530910509F458C4A2
:1027E00044F4892B11F00C943C1E0E94FA080C94BE
:1027F000381E8630910509F4A1C4089711F00C9495
:102800003C1E60E080E00E94FD0C6091940370919A
:10281000950385E295E00E940F0D65E672E085E282
:1028200095E00E947904609196037091970385E288
:1028300095E00E940F0D65E672E085E295E00E944A
:102840007904609198037091990385E295E00E9464
:102850000F0D65E672E085E295E00E9479046091D3
:102860009A0370919B0385E295E00E940F0D65E647
:1028700072E085E295E00E94790460919C0370917A
:102880009D0385E295E00E940F0D61E080E00E94CB
:10289000FD0C609172037091730385E295E00E94D4
:1028A0000F0D6AE772E085E295E00E9479048EE000
:1028B0000E94FC10BC0185E295E00E940F0D6AE7C2
:1028C00072E085E295E00E9479044091910350E026
:1028D00060E070E02AE085E295E00E94540367E63C
:1028E00072E085E295E00E9479040C943C1E8E31E2
:1028F000910509F42CC64CF48F30910509F4D5C428
:10290000449709F452C50C943C1E8332910509F496
:1029100094C6889709F4E1C60C943C1E8134910555
:1029200009F4EFC0ACF48E33910511F40C94261D1C
:102930002CF4CC9709F4F0C70C943C1E8F3391050E
:1029400011F40C94E51D80349105D9F00C943C1ED3
:102950008F35910509F48BC254F48634910509F43E
:1029600050C18035910509F4D7C10C943C1E8436C2
:10297000910509F4FEC28F3F910509F45FC40C94E0
:102980003C1E60E080E00E94FD0C80918A03823052
:1029900010F0843131F465E571E085E295E00E9444
:1029A000790480918A038C3031F465E671E085E228
:1029B00095E00E94790480918A038E3031F467E7B4
:1029C00071E085E295E00E94790480918A0380316C
:1029D00031F46BE871E085E295E00E94790460E0F3
:1029E0008FE00E94FD0C8BE00E94580D019731F49E
:1029F0006BE971E085E295E00E9479048BE00E942A
:102A0000580D892B31F46AE772E085E295E00E9467
:102A1000790461E080E00E94FD0C80918A038E3091
:102A200001F56DE971E085E295E00E94790460911D
:102A30001D0170911E0180911F01909120019B0149
:102A4000AC010E944D29AB01BC0120E030E085E2E1
:102A500095E00E949D036AE772E085E295E00E949E
:102A6000790480918A038031A1F56DE971E085E2F6
:102A700095E00E94790440911D0150911E016091E2
:102A80001F017091200120E030E085E295E00E9476
:102A90009D036AE772E085E295E00E94790462EAAC
:102AA00071E085E295E00E94790440912101509106
:102AB0002201609123017091240122E030E085E23F
:102AC00095E00E949D036AE772E085E295E00E942E
:102AD000790480917203909173038130910521F400
:102AE00086E090E00C94D91D8530910509F4B8C0BA
:102AF000039711F00C94381E8AE080938A030C949B
:102B0000381E60E080E00E94FD0C67EA71E085E21B
:102B100095E00E94790461E080E00E94FD0C61EB89
:102B200071E085E295E00E94790440912501509181
:102B30002601609127017091280122E030E085E2B2
:102B400095E00E949D0363EB71E085E295E00E94B1
:102B5000790480917203909173038130910509F497
:102B6000FEC28530910521F4F6E46F2E712C75C6F6
:102B70008230910549F520E030E040E251E4609177
:102B800025017091260180912701909128010E94D2
:102B90004C296B017C0120E030E0A9010E94B92999
:102BA00087FD09C0C0922501D0922601E09227013D
:102BB000F092280109C1109225011092260110926D
:102BC00027011092280100C1049711F00C94381EBF
:102BD00020E030E040E251E460912501709126014F
:102BE00080912701909128010E944D296B017C0161
:102BF000609325017093260180932701909328010B
:102C0000EBC060E080E00E94FD0C65EB71E085E2C6
:102C100095E00E94790461E080E00E94FD0C61EB88
:102C200071E085E295E00E94790440912101509184
:102C30002201609123017091240122E030E085E2BD
:102C400095E00E949D0363EB71E085E295E00E94B0
:102C5000790480917203909173038130910531F46E
:102C600030927503209274030C94381E85309105C0
:102C700019F420E530E0FBC58230910549F52DECD3
:102C80003CEC4CEC5DE3609121017091220180915C
:102C90002301909124010E944C296B017C0120E0CA
:102CA00030E0A9010E94B92987FD09C0C092210125
:102CB000D0922201E0922301F092240185C010926B
:102CC00021011092220110922301109224017CC054
:102CD000049709F0CDC72DEC3CEC4CEC5DE3609122
:102CE00021017091220180912301909124010E9481
:102CF0004D298B019C0160932101709322018093E7
:102D0000230190932401C0902501D0902601E090EA
:102D10002701F090280168C060E080E00E94FD0C6F
:102D20006FEB71E085E295E00E94790461E080E05C
:102D30000E94FD0C61EB71E085E295E00E94790450
:102D400040911D0150911E0160911F017091200161
:102D500022E030E085E295E00E949D0363EB71E0A4
:102D600085E295E00E94790480917203909173034B
:102D70008230910509F041C020E030E040E85FE397
:102D800060911D0170911E0180911F0190912001A1
:102D90000E944C296B017C0120E030E0A9010E94D7
:102DA000B92987FD09C0C0921D01D0921E01E09291
:102DB0001F01F092200108C010921D0110921E0107
:102DC00010921F0110922001C0902501D090260181
:102DD000E0902701F090280100912101109122013B
:102DE000209123013091240140911D0150911E0139
:102DF00060911F01709120012BC08430910569F50D
:102E000020E030E040E85FE360911D0170911E0119
:102E100080911F01909120010E944D29AB01BC01BE
:102E200040931D0150931E0160931F017093200178
:102E3000C0902501D0902601E0902701F090280154
:102E40000091210110912201209123013091240150
:102E500081EA94E00E949F050BC78130910509F437
:102E600083CE059709F004C74FE550E069C260E0E2
:102E700080E00E94FD0C69EC71E085E295E00E9423
:102E8000790461E080E00E94FD0C61EB71E085E275
:102E900095E00E94790440911401509115016091D0
:102EA00016017091170120E030E085E295E00E9464
:102EB0009D0363EB71E085E295E00E9479046BED80
:102EC00071E085E295E00E9479044091860350917B
:102ED0008703609188037091890320E030E085E2E8
:102EE00095E00E949D036DED71E085E295E00E9402
:102EF000790480917203909173038130910519F4E4
:102F000080E590E056C68230910579F420E030E00B
:102F100040E85FE360911401709115018091160102
:102F2000909117010E944C2911C084309105B9F489
:102F300020E030E040E85FE36091140170911501FA
:102F400080911601909117010E944D296093140100
:102F500070931501809316019093170189C6059708
:102F600009F086C6A4E6B0E0B0937503A09374039D
:102F70007FC660E080E00E94FD0C6FED71E085E2AD
:102F800095E00E94790440918603509187036091F7
:102F900088037091890320E030E085E295E00E948B
:102FA0009D0363EB71E085E295E00E9479048091D6
:102FB0008A038823A1F0409114015091150160917A
:102FC00016017091170120E030E085E295E00E9443
:102FD0009D0365E772E085E295E00E9479048091A7
:102FE0008A03811106C063EE71E085E295E00E94DC
:102FF000790460E08FE00E94FD0C8BE00E94580D88
:10300000019731F46BE971E085E295E00E94790463
:103010008BE00E94580D892B31F46AE772E085E25B
:1030200095E00E9479046AE772E085E295E00E94EB
:10303000790461E080E00E94FD0C68EE71E085E2B9
:1030400095E00E947904809172039091730382301D
:10305000910511F460E004C08430910529F461E029
:103060008CE00E94810D04C68330910549F4809163
:103070008A038F5F823008F440CD10928A03F8C52E
:103080008130910509F4F0CE059709F4D7C0F0C559
:1030900060E080E00E94FD0C60EF71E085E295E069
:1030A0000E9479044091760350E060E070E02AE0ED
:1030B00085E295E00E94540361E080E00E94FD0CEF
:1030C00080917603813031F467EF71E085E295E01D
:1030D0000E94790480917603823031F465E072E0D9
:1030E00085E295E00E94790480917603833031F483
:1030F00063E172E085E295E00E94790480917603B5
:10310000843031F461E272E085E295E00E94790456
:1031100080917603853031F46FE272E085E295E0CC
:103120000E94790480917603863009F0A1C56AE394
:1031300072E085E295E00E9479049AC560E080E043
:103140000E94FD0C65E472E085E295E00E9479043E
:1031500080917203909173038530910521F4E0E42E
:103160004E2E512CA8C2039709F082C5E12CF12CF8
:103170006FEFC7010E943E292FEFE21AF20A3FEFDC
:10318000E31631E0F306A1F761E080E00E94FD0C58
:1031900068E572E085E295E00E94790468E873E1F1
:1031A00080E090E00E94131163C560E080E00E941F
:1031B000FD0C62E872E085E295E00E94790461E02E
:1031C00080E00E94FD0C61EB71E085E295E00E94D9
:1031D0007904409118015091190160911A01709180
:1031E0001B0120E030E085E295E00E949D0363EB47
:1031F00071E085E295E00E9479046BED71E085E273
:1032000095E00E94790440918B0350918C0360916A
:103210008D0370918E0320E030E085E295E00E94FE
:103220009D036DED71E085E295E00E947904809147
:103230007203909173038130910529F41092750304
:103240001092740315C58230910579F420E030E0C6
:1032500040E85FE3609118017091190180911A01B3
:1032600090911B010E944C2911C084309105B9F442
:1032700020E030E040E85FE36091180170911901AF
:1032800080911A0190911B010E944D2960931801B1
:103290007093190180931A0190931B01E9C405975B
:1032A00009F0E6C48FE090E084C460E080E00E9412
:1032B000FD0C6CE772E085E295E00E94790461E024
:1032C00080E00E94FD0C61EB71E085E295E00E94D8
:1032D0007904409110015091110160911201709197
:1032E000130120E030E085E295E00E949D0363EB4E
:1032F00071E085E295E00E9479046BED71E085E272
:1033000095E00E94790440918B0350918C03609169
:103310008D0370918E0320E030E085E295E00E94FD
:103320009D036DED71E085E295E00E947904809146
:103330007203909173038130910539F44AE050E0B3
:10334000509375034093740393C48230910579F4CC
:1033500020E030E040E85FE36091100170911101DE
:1033600080911201909113010E944C2911C0843068
:103370009105B9F420E030E040E85FE3609110018E
:103380007091110180911201909113010E944D29B9
:1033900060931001709311018093120190931301B7
:1033A00067C4059709F42CC163C460E080E00E9403
:1033B000FD0C6DE872E085E295E00E94790460E022
:1033C00089E00E94FD0C80910A01803131F466E9A8
:1033D00072E085E295E00E94790480910A018032D2
:1033E00031F46CE972E085E295E00E94790461E0D5
:1033F00080E00E94FD0C61EB71E085E295E00E94A7
:103400007904609104017091050185E295E00E94C4
:103410000F0D62EA72E085E295E00E947904609106
:10342000040170910501072E000C880B990B0E9476
:10343000682A2091060130910701409108015091BE
:1034400009010E94BE296093A2037093A303809395
:10345000A4039093A50320910A01203271F420E087
:1034600030E040E05FE30E946D2B6093A203709315
:10347000A3038093A4039093A5034091A2035091CA
:10348000A3036091A4037091A50322E030E085E2DC
:1034900095E00E949D0365EA72E085E295E00E9456
:1034A000790420917203309173032130310519F4AE
:1034B0008FE090E033C080910A012230310591F411
:1034C0005AE0859FC001112474E0959587957A95FF
:1034D000E1F72091040130910501D901A81BB90B36
:1034E000CD0112C024303105A1F4BAE08B9FC00198
:1034F000112464E0959587956A95E1F72091040180
:1035000030910501820F931F909305018093040170
:1035100014C02530310539F48EE190E090937503A5
:10352000809374030AC02330310539F4803211F4DA
:1035300080E101C080E280930A0180910A018150FC
:103540008E3F08F495C380E180930A0191C360E047
:1035500080E00E94FD0C6BEA72E085E295E00E943B
:10356000790461E080E00E94FD0C61EB71E085E28E
:1035700095E00E947904609102017091030185E257
:1035800095E00E940F0D62EA72E085E295E00E94EC
:1035900079046091020170910301072E000C880BE1
:1035A000990B0E94682A20910601309107014091F1
:1035B0000801509109010E94BE2920E030E040E05E
:1035C00051E40E946D2BAB01BC014093A2035093C8
:1035D000A3036093A4037093A50322E030E085E287
:1035E00095E00E949D0365EA72E085E295E00E9405
:1035F000790480917203909173038130910519F4DD
:1036000084E190E0D6C28530910509F495C08230FE
:10361000910531F480910201909103010A9708C04D
:10362000049709F025C380910201909103010A9645
:1036300090930301809302011BC360E080E00E942D
:10364000FD0C63EB72E085E295E00E94790461E095
:1036500080E00E94FD0C61EB71E085E295E00E9444
:10366000790480917703811106C062EC72E085E2F3
:1036700095E00E94790480917703813031F466EC03
:1036800072E085E295E00E94790463EB71E085E2E7
:1036900095E00E94790480917203909173038130C8
:1036A000910519F48EE190E084C28530910541F4D2
:1036B00058E2452E512C5092750340927403D8C2A3
:1036C0008230910519F410927703D2C2049709F061
:1036D000CFC281E080937703CBC260E080E00E949C
:1036E000FD0C6AEC72E085E295E00E94790461E0ED
:1036F00080E00E94FD0C61EB71E085E295E00E94A4
:1037000079044091290150912A0160912B01709117
:103710002C0122E030E085E295E00E949D0363EBFE
:1037200071E085E295E00E947904809172039091A6
:1037300073038130910519F483E290E03AC2853039
:10374000910509F418C18230910549F520E030E077
:1037500040E85FE36091290170912A0180912B017B
:1037600090912C010E944C296B017C0120E030E0FB
:10377000A9010E94B92987FD09C0C0922901D092F0
:103780002A01E0922B01F0922C0123C11092290111
:1037900010922A0110922B0110922C011AC1049749
:1037A00009F066C220E030E040E85FE36091290163
:1037B00070912A0180912B0190912C010E944D293A
:1037C000AB01BC014093290150932A0160932B0166
:1037D00070932C01C0903101D0903201E090330100
:1037E000F090340100912D0110912E0120912F01B4
:1037F0003091300122C160E080E00E94FD0C63ED59
:1038000072E085E295E00E94790461E080E00E9428
:10381000FD0C61EB71E085E295E00E947904409136
:103820002D0150912E0160912F017091300122E005
:1038300030E085E295E00E949D0363EB71E085E254
:1038400095E00E9479048091720390917303813016
:10385000910541F448E2642E712C709275036092D8
:10386000740306C28530910539F42CE330E03093BF
:10387000750320937403FCC18230910549F52DEC4A
:103880003CEC4CEC5DE360912D0170912E01809138
:103890002F01909130010E944C296B017C0120E0A6
:1038A00030E0A9010E94B92987FD09C0C0922D010D
:1038B000D0922E01E0922F01F09230018AC0109236
:1038C0002D0110922E0110922F011092300181C013
:1038D000049709F0CDC12DEC3CEC4CEC5DE360911C
:1038E0002D0170912E0180912F01909130010E9445
:1038F0004D298B019C0160932D0170932E018093C3
:103900002F0190933001C0903101D0903201E090AE
:103910003301F090340189C060E080E00E94FD0C2A
:103920006CED72E085E295E00E94790461E080E050
:103930000E94FD0C61EB71E085E295E00E94790444
:103940004091310150913201609133017091340105
:1039500022E030E085E295E00E949D0363EB71E098
:1039600085E295E00E94790480917203909173033F
:103970008130910519F482E390E01BC182309105FA
:1039800089F520E030E040E251E46091310170912E
:10399000320180913301909134010E944C296B01D6
:1039A0007C0120E030E0A9010E94B92987FD09C00F
:1039B000C0923101D0923201E0923301F092340191
:1039C00008C010923101109232011092330110920E
:1039D0003401C0903101D0903201E0903301F09079
:1039E00034011BC08430910559F520E030E040E2FD
:1039F00051E46091310170913201809133019091D5
:103A000034010E944D296B017C0160933101709358
:103A10003201809333019093340100912D01109174
:103A20002E0120912F0130913001409129015091B8
:103A30002A0160912B0170912C0189EE94E00ACA51
:103A4000059709F015C18EE390E0B3C060E080E017
:103A50000E94FD0C80918F03823030F465EE72E09D
:103A600085E295E00E94790480918F038C3031F4D7
:103A700064EF72E085E295E00E94790480918F0303
:103A80008E3031F465E073E085E295E00E947904C0
:103A900080918F03803131F46BE871E085E295E02D
:103AA0000E94790460E08FE00E94FD0C8AE00E9491
:103AB000580D019731F46BE971E085E295E00E94C1
:103AC00079048AE00E94580D892B31F46AE772E08C
:103AD00085E295E00E94790461E080E00E94FD0C9F
:103AE00080918F038E3001F568E173E085E295E007
:103AF0000E9479046091290170912A0180912B0123
:103B000090912C019B01AC010E944D29AB01BC019D
:103B100020E030E085E295E00E949D036AE772E0D4
:103B200085E295E00E94790480918F038031A1F5B0
:103B300068E173E085E295E00E94790440912901F3
:103B400050912A0160912B0170912C0120E030E00E
:103B500085E295E00E949D036AE772E085E295E0C8
:103B60000E9479046CE173E085E295E00E9479049B
:103B700040912D0150912E0160912F0170913001E3
:103B800022E030E085E295E00E949D036AE772E062
:103B900085E295E00E94790480917203909173030D
:103BA0008130910509F461CE8530910539F48FE3B8
:103BB00090E090937503809374035AC0039709F0C3
:103BC00057C08AE080938F0353C060E080E00E947A
:103BD000FD0C60E273E085E295E00E94790461E00B
:103BE00080E00E94FD0C61EB71E085E295E00E94AF
:103BF00079044091010150E060E070E02AE085E244
:103C000095E00E94540362EA72E085E295E00E942A
:103C1000790420917203309173032130310539F416
:103C20008EE390E090937503809374030DC08091B0
:103C300001012230310511F4815004C024303105D6
:103C400019F48F5F8093010180910101811103C0FC
:103C500081E080930101809101018F3F19F48EEF83
:103C6000809301016091010170E089E00E949D1044
:103C700010927303109272032091A6033091A70350
:103C800080917403909175032817390781F0109281
:103C90007303109272030E94F50C0E94F709809141
:103CA0007403909175039093A7038093A603E0900B
:103CB0007803F0907903E114F10421F480E10E948B
:103CC000B10215C03CEFE3163FEFF30681F460E06C
:103CD00070E081E10E949D1060E070E08FE00E9442
:103CE0009D1080910201909103010E948D0EC701E9
:103CF00003960397A0F56FEF70E081E10E949D109D
:103D000060E070E08FE00E949D1080910A01803198
:103D100081F42091040130910501E29EC001E39EEF
:103D2000900DF29E900D11249195819591090E941C
:103D30008D0E80910A01803291F42091040130911E
:103D40000501E29EC001E39E900DF29E900D1124AC
:103D5000919581959109880F991F0E948D0E670199
:103D600041E0C41AD10853E0C516D10470F56FEFD5
:103D700070E081E10E949D106FEF70E08FE00E9483
:103D80009D1080910A01803171F48091040190911D
:103D90000501DC01EA9EC001EB9E900DFA9E900D9C
:103DA00011240E948D0E80910A01803211F520911C
:103DB000040130910501E29EC001E39E900DF29E48
:103DC000900D1124880F991F12C0B4E0EB16F10476
:103DD00081F460E070E081E10E949D106FEF70E07F
:103DE0008FE00E949D1080910201909103010E943A
:103DF0008D0E10910A0128EC129FB0011124072E9C
:103E0000000C880B990B0E94682A20E030E040EFFC
:103E100051E40E946D2B28ED33EA4EE653E40E94F4
:103E2000BE294B015C0160930601709307018093EA
:103E300008019093090180918F03813009F046C0F9
:103E400033E0C316D10408F04BC080910401909177
:103E500005016AE070E00E94142CAB01770F660B3D
:103E6000770B8091A8039091A903A091AA03B09128
:103E7000AB032A013B01480E591E6A1E7B1EC3017B
:103E8000B2014092A8035092A9036092AA037092D3
:103E9000AB030E94662AA50194010E94BE2920E07E
:103EA00030E04AE754E40E94BE29103231F420E0A9
:103EB00030E040E05FE30E946D2B60937E037093DF
:103EC0007F0380938003909381030AC0811108C00F
:103ED0001092A8031092A9031092AA031092AB03A8
:103EE00083E10E94580D892B21F4EF2811F00C94E6
:103EF0007128A8958091C5038A3008F465C3809124
:103F0000C4038F5F8093C4031092C5034091E30301
:103F10005091E4036091E5037091E6034F5F5F4FBA
:103F20006F4F7F4F4093E3035093E4036093E503A7
:103F30007093E6038C3310F01092C40340918B030E
:103F400050918C0360918D0370918E0322E030E0DC
:103F500088EF93E00E949D036FE273E088EF93E0A7
:103F60000E947904409186035091870360918803F1
:103F70007091890322E030E088EF93E00E949D0376
:103F80006FE273E088EF93E00E9479044091290189
:103F900050912A0160912B0170912C0122E030E0B8
:103FA00088EF93E00E949D036FE273E088EF93E057
:103FB0000E94790440912D0150912E0160912F01B2
:103FC0007091300122E030E088EF93E00E949D0381
:103FD0006FE273E088EF93E00E9479044091310131
:103FE00050913201609133017091340122E030E050
:103FF00088EF93E00E949D036FE273E088EF93E007
:104000000E94790466E070E088EF93E00E940F0D53
:1040100061E373E088EF93E00E943F036091D30374
:104020007091D4038091D5039091D6030E94302AD9
:10403000072E000C880B990B0E94682A9B01AC018B
:1040400060E070EC8FE794E40E94BE2920E030E04D
:1040500040E85FE30E944C299B01AC0160E070E006
:1040600081E995E40E94BE2920E030E543EC57E465
:104070000E94BE290E94252B20E030EE46E755E441
:104080000E94BE292FE03FEC4BE55BE30E944D29E7
:104090009B01AC0160E070E080E89FE30E94BE29D4
:1040A00023E333E948E853E40E944C292B013C0107
:1040B00060938B0370938C0380938D0390938E0396
:1040C0006091CB037091CC038091CD039091CE038E
:1040D0000E94302A072E000C880B990B0E94682A38
:1040E0009B01AC0160E070EC8FE794E40E94BE2974
:1040F00020E030E040E85FE30E944C299B01AC01E6
:1041000060E070E081E995E40E94BE2920E030E59E
:1041100043EC57E40E94BE290E94252B20E030EE9C
:1041200046E755E40E94BE292FE03FEC4BE55BE3F8
:104130000E944D299B01AC0160E070E080E89FE3A4
:104140000E94BE2923E333E948E853E40E944C2946
:104150006B017C01609386037093870380938803CF
:10416000909389038091C2039091C3030196909329
:10417000C3038093C203059704F12091BE033091DD
:10418000BF034091C0035091C103C701B6010E9413
:104190004C296093BA037093BB038093BC03909344
:1041A000BD03C092BE03D092BF03E092C003F09261
:1041B000C1031092C3031092C20380910F0181309A
:1041C00021F58090BA039090BB03A090BC03B090FF
:1041D000BD0320E030E0A901C501B4010E94182B05
:1041E000181644F4C0920B01D0920C01E0920D011C
:1041F000F0920E0120E030E0A901C501B4010E9457
:10420000B92987FF2BC010920F0180910F018111F6
:1042100025C08090BA039090BB03A090BC03B090DF
:10422000BD0320E030E0A901C501B4010E94B92915
:1042300087FF08C0C092B603D092B703E092B803DC
:10424000F092B90320E030E0A901C501B4010E9459
:10425000182B18161CF481E080930F0180917803CD
:1042600090917903892B29F01092B5031092B40331
:1042700011C080918F03813069F48091B4039091D3
:10428000B50301969093B5038093B403813B9440AA
:1042900008F02DC780918A03813011F0843191F4A8
:1042A0008091B2039091B30301969093B3038093EE
:1042B000B20381319E4030F010928A031092B30312
:1042C0001092B20320E030E045EA53E4C301B201AA
:1042D0000E94182B18165CF481E08093760385E029
:1042E00090E090937503809374030E94CA0720E0C6
:1042F00030E045EA53E46091860370918703809132
:104300008803909189030E94182B18165CF482E0B0
:104310008093760385E090E0909375038093740317
:104320000E94CA0720E030E040EA51EC60918B0324
:1043300070918C0380918D0390918E030E94B92916
:1043400087FF0FC080918F03882359F083E080930B
:10435000760385E090E090937503809374030E9448
:10436000CA0720E030E040EA51EC6091860370918A
:10437000870380918803909189030E94B92987FF60
:104380000FC080918A03882359F084E080937603DC
:1043900085E090E090937503809374030E94CA07B0
:1043A00080918F03813009F054C0C0908B03D0906E
:1043B0008C03E0908D03F0908E0320E030E040EA23
:1043C00051E46091DB037091DC038091DD039091F7
:1043D000DE030E944C29A70196010E94182B181693
:1043E000E4F52091AE033091AF034091B0035091BA
:1043F000B103C701B6010E94182B181654F4C092DD
:10440000AE03D092AF03E092B003F092B1031092EA
:10441000AD032091AE033091AF034091B0035091B2
:10442000B103C701B6010E94B9291816B4F08091F2
:10443000AD038F5F8093AD03893278F00E94CA0785
:1044400085E08093760385E090E0909375038093F8
:10445000740380918F038823D1F020E030E040EA9C
:1044600051E46091DB037091DC038091DD03909156
:10447000DE030E944C2920918B0330918C034091E4
:104480008D0350918E030E94B92987FF12C080913D
:104490008B0390918C03A0918D03B0918E03809338
:1044A000AE039093AF03A093B003B093B103109207
:1044B000AD0380918A03813019F0843109F054C032
:1044C000C0908603D0908703E0908803F090890322
:1044D00020E030E040EA51E4609114017091150150
:1044E00080911601909117010E944C29A701960115
:1044F0000E94182B1816C4F52091BE033091BF03FB
:104500004091C0035091C103C701B6010E94182B0E
:10451000181654F4C092BE03D092BF03E092C003B9
:10452000F092C1031092AC032091BE033091BF03FF
:104530004091C0035091C103C701B6010E94B9293F
:10454000181694F08091AC038F5F8093AC0389328E
:1045500058F00E94CA0786E08093760385E090E0D9
:10456000909375038093740380918A038823D1F01C
:1045700020E030E040EA51E46091DB037091DC031D
:104580008091DD039091DE030E944C2920918603E7
:104590003091870340918803509189030E94B92983
:1045A00087FF12C08091860390918703A0918803B2
:1045B000B09189038093BE039093BF03A093C0037F
:1045C000B093C1031092AC0382E10E94FC107C0105
:1045D0008090D7039090D803A090D903B090DA03CD
:1045E00020E030E040E05EE3C501B4010E946D2BA5
:1045F0009B01AC01C501B4010E944C294B015C0137
:10460000B701FF0C880B990B0E94682A9B01AC0133
:10461000C501B4010E944D296093D7037093D8035C
:104620008093D9039093DA0320E030E040E05EE32A
:104630000E946D2B6093D3037093D4038093D503B2
:104640009093D60385E10E94FC107C018090CF03FB
:104650009090D003A090D103B090D20320E030E03E
:1046600040E05EE3C501B4010E946D2B9B01AC01EB
:10467000C501B4010E944C294B015C01B701FF0C3C
:10468000880B990B0E94682A9B01AC01C501B401FB
:104690000E944D296093CF037093D0038093D10380
:1046A0009093D20320E030E040E05EE30E946D2B67
:1046B0006093CB037093CC038093CD039093CE0390
:1046C00080918F03813009F0FDC0C0907E03D090AF
:1046D0007F03E0908003F090810320E030E040E829
:1046E0005EE3C701B6010E94B929181684F08091D3
:1046F000100190911101A0911201B09113018093CA
:10470000DB039093DC03A093DD03B093DE0320E092
:1047100030E040E85EE3C701B6010E94182B18168E
:1047200084F48091180190911901A0911A01B0911F
:104730001B018093DB039093DC03A093DD03B09314
:10474000DE036091DB037091DC038091DD039091C7
:10475000DE036093DD047093DE048093DF049093A6
:10476000E00420E030E040E251E40E944C29219630
:104770006CAF7DAF8EAF9FAF219740908B03509071
:104780008C0360908D0370908E03A30192010E94B0
:10479000182B181674F561E08AE00E94810DA09034
:1047A0002D01B0902E01C0902F01D0903001E090EB
:1047B0002901F0902A0100912B0110912C01809188
:1047C00034018F93809133018F93809132018F93C5
:1047D000809131018F932DED34E041EE54E065EE90
:1047E00074E0CE0101960E9459110F900F900F9026
:1047F0000F90A301920121966CAD7DAD8EAD9FAD62
:1048000021970E94B92987FF4EC18091230581110C
:1048100004C089EE94E00E94590581E0809323054D
:104820004092E5045092E6046092E7047092E80436
:1048300089EE94E00E9463060E944D1100917A0374
:1048400010917B0320917C0330917D03AB01BC016F
:10485000401B510B620B730B493E534061057105C0
:1048600070F0D901C80188519C4FAF4FBF4F809362
:104870007A0390937B03A0937C03B0937D030E9403
:104880004D1100917A0310917B0320917C033091AC
:104890007D03601B710B820B930B0E94662A209193
:1048A000E1043091E2044091E3045091E4040E9459
:1048B000182B181614F460E001C061E08AE00E9431
:1048C000810DF1C0811107C01092230560E08AE0DC
:1048D0000E94810D61C08A3009F05EC0809123057D
:1048E000811104C089EE94E00E94590581E0809313
:1048F00023058091180190911901A0911A01B0919E
:104900001B018093DD049093DE04A093DF04B09339
:10491000E00480918B0390918C03A0918D03B09162
:104920008E038093E5049093E604A093E704B0938C
:10493000E80480E090E0A0E8BFE380932901909331
:104940002A01A0932B01B0932C0110922D011092FB
:104950002E0110922F01109230011092310110920D
:1049600032011092330110923401C12CD12C760106
:1049700097018601AC01BD0189EE94E00E949F057C
:104980008CE080938F038091E3039091E4034E9633
:104990009093E2038093E10380918F038C3009F0C0
:1049A00082C00E948D088091E1039091E203A0E013
:1049B000B0E04091E3035091E4036091E50370910E
:1049C000E60384179507A607B70708F025C180906E
:1049D0008B0390908C03A0908D03B0908E0320E009
:1049E00030E040E251E4609118017091190180912A
:1049F0001A0190911B010E944C29A50194010E946B
:104A0000182B181664F520E030E040E85FE3609171
:104A1000290170912A0180912B0190912C010E9413
:104A20004D29AB01BC014093290150932A016093A9
:104A30002B0170932C01C0903101D0903201E09095
:104A40003301F090340100912D0110912E0120913D
:104A50002F013091300189EE94E00E949F0520E003
:104A600030E040E251E460911801709119018091A9
:104A70001A0190911B010E944C299B01AC01C501B8
:104A8000B4010E94182B18162CF48EE080938F032B
:104A90000E94F7098091E3039091E4034E9690936E
:104AA000E2038093E10380918F038E3009F0B4C05C
:104AB0000E948D088091E1039091E203A0E0B0E0B4
:104AC0004091E3035091E4036091E5037091E603A4
:104AD00084179507A607B70708F09EC080908B0340
:104AE00090908C03A0908D03B0908E0320911801BC
:104AF0003091190140911A0150911B01C501B40177
:104B00000E94B92987FF2CC02DEC3CEC4CEC5DE3F6
:104B100060912D0170912E0180912F0190913001B3
:104B20000E944D298B019C0160932D0170932E01F1
:104B300080932F0190933001C0903101D0903201C9
:104B4000E0903301F09034014091290150912A0105
:104B500060912B0170912C0189EE94E00E949F05D9
:104B6000209118013091190140911A0150911B01B7
:104B7000C501B4010E94182B87FD45C01092230582
:104B800060E08AE00E94810D412C512C98EC692E46
:104B900092E4792E409231015092320160923301B9
:104BA0007092340120E030E040EC5FE36091290135
:104BB00070912A0180912B0190912C010E946D2B04
:104BC0006093290170932A0180932B0190932C010B
:104BD00020E030E040EC5FE360912D0170912E0108
:104BE00080912F01909130010E946D2B60932D01D7
:104BF00070932E0180932F019093300180E1809378
:104C00008F030E94F7098091E3039091E4034E968D
:104C10009093E2038093E10380918A03882309F44F
:104C20003DC0813009F03EC0C0908603D09087031C
:104C3000E0908803F090890320E030E040E251E406
:104C400060911401709115018091160190911701E6
:104C50000E944C29A70196010E94182B181624F4D3
:104C600061E08BE00E94810D20E030E040E251E401
:104C700060911401709115018091160190911701B6
:104C80000E944C299B01AC01C701B6010E94182B60
:104C900018160CF0E2C084E180938A0360E08BE098
:104CA0000E94810D80918A03843109F075C0809142
:104CB000DB04811104C081EA94E00E94590581E07F
:104CC0008093DB048091140190911501A09116014D
:104CD000B09117018093950490939604A093970444
:104CE000B09398048091860390918703A0918803E4
:104CF000B091890380939D0490939E04A0939F0498
:104D0000B093A00481EA94E00E9463060E944D11D2
:104D100000918203109183032091840330918503D5
:104D2000AB01BC01401B510B620B730B493E53405E
:104D30006105710570F0D901C80188519C4FAF4FD2
:104D4000BF4F8093820390938303A0938403B09317
:104D500085030E944D1100918203109183032091DD
:104D6000840330918503601B710B820B930B0E94AF
:104D7000662A2091990430919A0440919B045091A5
:104D80009C040E94182B181614F460E001C061E026
:104D90008BE00E94810DE8C08A3009F05EC08091EE
:104DA000DB04811104C081EA94E00E94590581E08E
:104DB0008093DB048091140190911501A09116015C
:104DC000B09117018093950490939604A093970453
:104DD000B09398048091860390918703A0918803F3
:104DE000B091890380939D0490939E04A0939F04A7
:104DF000B093A00480E090E0A0E8BFE380931D01A1
:104E000090931E01A0931F01B093200110922101E5
:104E10001092220110922301109224011092250178
:104E2000109226011092270110922801C12CD12C3A
:104E3000760197018601AC01BD0181EA94E00E94F0
:104E40009F058CE080938A038091E3039091E403B3
:104E50004E969093E0038093DF0380918A038C3019
:104E600009F082C00E9410088091DF039091E00356
:104E7000A0E0B0E04091E3035091E4036091E503CA
:104E80007091E60384179507A607B70708F025C1B8
:104E90008090860390908703A0908803B090890348
:104EA00020E030E040E251E460911401709115017E
:104EB00080911601909117010E944C29A50194013F
:104EC0000E94182B181664F520E030E040E85FE3FC
:104ED00060911D0170911E0180911F019091200130
:104EE0000E944D29AB01BC0140931D0150931E014E
:104EF00060931F0170932001C0902501D09026017E
:104F0000E0902701F09028010091210110912201E9
:104F1000209123013091240181EA94E00E949F05B1
:104F200020E030E040E251E46091140170911501FD
:104F300080911601909117010E944C299B01AC01B0
:104F4000C501B4010E94182B18162CF48EE0809332
:104F50008A030E94F7098091E3039091E4034E963F
:104F60009093E0038093DF0380918A038E3009F0F1
:104F7000B4C00E9410088091DF039091E003A0E08C
:104F8000B0E04091E3035091E4036091E503709138
:104F9000E60384179507A607B70708F09EC0809020
:104FA000860390908703A0908803B0908903209196
:104FB0001401309115014091160150911701C5015E
:104FC000B4010E94B92987FF2CC02DEC3CEC4CECBD
:104FD0005DE3609121017091220180912301909104
:104FE00024010E944D298B019C0160932101709343
:104FF00022018093230190932401C0902501D09039
:105000002601E0902701F090280140911D01509168
:105010001E0160911F017091200181EA94E00E94BD
:105020009F05209114013091150140911601509176
:105030001701C501B4010E94182B87FD45C01092CD
:10504000DB0460E08BE00E94810D80E180938A03A5
:10505000412C512C88EC682E82E4782E4092250158
:1050600050922601609227017092280120E030E0E2
:1050700040EC5FE360911D0170911E0180911F0162
:10508000909120010E946D2B60931D0170931E0171
:1050900080931F019093200120E030E040EC5FE31B
:1050A000609121017091220180912301909124014E
:1050B0000E946D2B60932101709322018093230144
:1050C000909324010E94F7098091E3039091E403F7
:1050D0004E969093E0038093DF030E94BC010C94F2
:1050E000B01210927903109278030C94791F1092E9
:1050F0008F031092B5031092B4038091770381302F
:1051000009F0C8C860E08DE00E94810DC3C8AF926D
:10511000BF92CF92DF92EF92FF920F931F93E8EF2F
:10512000F3E01382128288EE93E0A0E0B0E0848383
:105130009583A683B7838BE391E09183808385EC8D
:1051400090E09587848784EC90E09787868780EC51
:1051500090E0918B808B81EC90E0938B828B82EC42
:1051600090E0958B848B86EC90E0978B868B118EEC
:10517000128E138E148EE5E2F5E0138212828DE416
:1051800091E09183808388E084838FEF858386E03C
:10519000868382E0878383E0808784E0818785E05F
:1051A00082871386148615861686178681E00E94EC
:1051B000EC0DA0902D01B0902E01C0902F01D09049
:1051C0003001E0902901F0902A0100912B0110910B
:1051D0002C01809134018F93809133018F938091C2
:1051E00032018F93809131018F932DED34E041EEA8
:1051F00054E065EE74E089EE94E00E945911A090AD
:105200002101B0902201C0902301D0902401E090B0
:105210001D01F0901E0100911F011091200180914D
:1052200028018F93809127018F93809126018F937E
:10523000809125018F9325E934E049E954E06DE937
:1052400074E081EA94E00E9459118DB79EB70896E8
:105250000FB6F8949EBF0FBE8DBF1F910F91FF90A8
:10526000EF90DF90CF90BF90AF900895F999FECF67
:1052700092BD81BDF89A992780B50895262FF99996
:10528000FECF1FBA92BD81BD20BD0FB6F894FA9A29
:10529000F99A0FBE019608955058BB27AA270E947D
:1052A00064290C94DE2A0E94D02A38F00E94D72A62
:1052B00020F039F49F3F19F426F40C94CD2A0EF413
:1052C000E095E7FB0C94C72AE92F0E94EF2A58F3D8
:1052D000BA17620773078407950720F079F4A6F5DB
:1052E0000C94112B0EF4E0950B2EBA2FA02D0B0170
:1052F000B90190010C01CA01A0011124FF27591B1B
:1053000099F0593F50F4503E68F11A16F040A22F20
:10531000232F342F4427585FF3CF46953795279591
:10532000A795F0405395C9F77EF41F16BA0B620B90
:10533000730B840BBAF09150A1F0FF0FBB1F661FD7
:10534000771F881FC2F70EC0BA0F621F731F841F1A
:1053500048F4879577956795B795F7959E3F08F040
:10536000B0CF9395880F08F09927EE0F9795879502
:1053700008950E94A32A08F481E008950E94D2298A
:105380000C94DE2A0E94D72A58F00E94D02A40F0BE
:1053900029F45F3F29F00C94C72A51110C94122B69
:1053A0000C94CD2A0E94EF2A68F39923B1F3552378
:1053B00091F3951B550BBB27AA2762177307840728
:1053C00038F09F5F5F4F220F331F441FAA1FA9F3BE
:1053D00035D00E2E3AF0E0E832D091505040E695AC
:1053E000001CCAF72BD0FE2F29D0660F771F881F0D
:1053F000BB1F261737074807AB07B0E809F0BB0B00
:10540000802DBF01FF2793585F4F3AF09E3F510513
:1054100078F00C94C72A0C94122B5F3FE4F3983E6B
:10542000D4F3869577956795B795F7959F5FC9F7FC
:10543000880F911D9695879597F90895E1E0660F7D
:10544000771F881FBB1F621773078407BA0720F0F6
:10545000621B730B840BBA0BEE1F88F7E09508955F
:105460000E94372A6894B1110C94122B08950E945F
:10547000F72A88F09F5798F0B92F9927B751B0F0C5
:10548000E1F0660F771F881F991F1AF0BA95C9F7C8
:1054900014C0B13091F00E94112BB1E008950C942A
:1054A000112B672F782F8827B85F39F0B93FCCF3DD
:1054B000869577956795B395D9F73EF49095809545
:1054C000709561957F4F8F4F9F4F0895E89409C065
:1054D00097FB3EF490958095709561957F4F8F4F27
:1054E0009F4F9923A9F0F92F96E9BB279395F6953D
:1054F000879577956795B795F111F8CFFAF4BB0FBB
:1055000011F460FF1BC06F5F7F4F8F4F9F4F16C01E
:10551000882311F096E911C0772321F09EE8872FA8
:10552000762F05C0662371F096E8862F70E060E064
:105530002AF09A95660F771F881FDAF7880F9695DD
:10554000879597F90895990F0008550FAA0BE0E881
:10555000FEEF16161706E807F907C0F01216130635
:10556000E407F50798F0621B730B840B950B39F475
:105570000A2661F0232B242B252B21F408950A26DB
:1055800009F4A140A6958FEF811D811D089597F91B
:105590009F6780E870E060E008959FEF80EC0895D9
:1055A00000240A9416161706180609060895002402
:1055B0000A9412161306140605060895092E03947C
:1055C000000C11F4882352F0BB0F40F4BF2B11F4F0
:1055D00060FF04C06F5F7F4F8F4F9F4F089557FD4F
:1055E0009058440F551F59F05F3F71F04795880F51
:1055F00097FB991F61F09F3F79F0879508951216E8
:1056000013061406551FF2CF4695F1DF08C0161693
:1056100017061806991FF1CF869571056105089444
:105620000895E894BB2766277727CB0197F908955B
:105630000E94A32A08F48FEF089516F00C94DF2B34
:105640000C94CD2A68940C94C72A0E94F72AA8F3D8
:105650009923C1F3AEF3DF93CF931F930F93FF9280
:10566000C92FDD2788232AF02197660F771F881F0F
:10567000DAF720E030E040E85FEB9FE3883920F084
:10568000803E38F021968F770E944D29E8E6F0E0C1
:1056900004C00E944D29E5E9F0E00E94ED2B8B014A
:1056A000BE01EC01FB2E6F5771097595771F880BB2
:1056B000990B0E94682A28E132E741E35FE30E94E8
:1056C000802BAF2D9801AE01FF900F911F91CF91CC
:1056D000DF910E9464290C94DE2A0E94802B0C9496
:1056E000DE2A0E94D02A38F00E94D72A20F0952383
:1056F00011F00C94C72A0C94CD2A11240C94122B6F
:105700000E94EF2A70F3959FC1F3950F50E0551F4B
:10571000629FF001729FBB27F00DB11D639FAA2706
:10572000F00DB11DAA1F649F6627B00DA11D661F55
:10573000829F2227B00DA11D621F739FB00DA11D76
:10574000621F839FA00D611D221F749F3327A00D30
:10575000611D231F849F600D211D822F762F6A2FCC
:1057600011249F5750409AF0F1F088234AF0EE0F31
:10577000FF1FBB1F661F771F881F91505040A9F75E
:105780009E3F510580F00C94C72A0C94122B5F3F6A
:10579000E4F3983ED4F3869577956795B795F7959A
:1057A000E7959F5FC1F7FE2B880F911D9695879512
:1057B00097F908950E94A32A880B990B08959F3F9B
:1057C00031F0915020F4879577956795B795880FBC
:1057D000911D9695879597F90895DF93CF931F9321
:1057E0000F93FF92EF92DF927B018C01689406C0C9
:1057F000DA2EEF010E94802BFE01E894A5912591FD
:10580000359145915591A6F3EF010E946429FE015F
:105810009701A801DA9469F7DF90EF90FF900F915C
:105820001F91CF91DF91089597FB072E16F40094F6
:1058300007D077FD09D00E94692C07FC05D03EF403
:10584000909581959F4F0895709561957F4F08952C
:10585000A1E21A2EAA1BBB1BFD010DC0AA1FBB1F74
:10586000EE1FFF1FA217B307E407F50720F0A21BE6
:10587000B30BE40BF50B661F771F881F991F1A9453
:1058800069F760957095809590959B01AC01BD017D
:10589000CF010895052E97FB1EF400940E94612C01
:1058A00057FD07D00E94282C07FC03D04EF40C941F
:1058B000612C50954095309521953F4F4F4F5F4F4C
:1058C000089590958095709561957F4F8F4F9F4F6C
:1058D0000895AA1BBB1B51E107C0AA1FBB1FA61737
:1058E000B70710F0A61BB70B881F991F5A95A9F789
:1058F00080959095BC01CD010895EE0FFF1F059096
:10590000F491E02D099481E090E0F8940C94882CB7
:04591000F894FFCF39
:105914002882C409E8030080CF431000002041011D
:1059240000005C430000874300002043FF000000A8
:1059340041CDCC4C3E0000C84200000041CDCC4CCF
:105944003E0000C842E803000000004D01BA00E434
:10595400009A011501F3000701000000005305BA85
:1059640000C701C60154756E696E67205049443200
:105974003F21212100536561726368204B70322EF0
:105984002E2E2020202000536561726368204B690D
:10599400322E2E2E20202020202000446F6E6521E0
:1059A40020202020202020202020002A004B70329C
:1059B4003D004B69323D004B643220736574757051
:1059C400003C003E004B6932207365747570004BD7
:1059D40070322073657475700057656C64696E6706
:1059E40054656D7020736574757000280029005427
:1059F400323D004F4646200057656C64696E67006F
:105A04004572726F723A0045585431204F564552D0
:105A1400484541540045585432204F564552484554
:105A24004154005431204E6F74436F6E6E6563743D
:105A3400005432204E6F74436F6E6E65637400546D
:105A4400312046656C6C4F66660054322046656CA6
:105A54006C4F666600526573657420454550524F1D
:105A64004D3F3F3F212121004F4B2C5265626F6F08
:105A740074696E67002C0020202020202020202024
:105A84002020202020202020202020005374617218
:105A9400742054656D70207365747570004C6F7755
:105AA40073706565640041343839390044383832DC
:105AB40035003E20006D6D2F7320004849737065DA
:105AC40065640053687574646F776E4174456E64E1
:105AD4003F004E6F2000596573004B70207365744E
