:100000000C9490000C94B8000C94B8000C94B800B8
:100010000C94B8000C94B8000C94B8000C94DC025A
:100020000C94B8000C94B8000C94B8000C94B80070
:100030000C94B8000C94B8000C94B8000C94B80060
:100040000C94FE100C94B8000C94A1040C947B0446
:100050000C94B8000C94B8000C94B8000C94B80040
:100060000C94B8000C94B80008000000BE9224491B
:10007000123EABAAAA2ABECDCCCC4C3E00000080DA
:10008000BEABAAAAAA3E00000000BF000000803F4D
:100090000000000000084178D3BB4387D1133D190D
:1000A0000E3CC3BD4282AD2B3E68EC8276BED98F3A
:1000B000E1A93E4C80EFFFBE01C4FF7F3F0000007E
:1000C000000000000000240027002A0000000000BB
:1000D00023002600290000000008000201000003A0
:1000E00004070000000000000000010204081020C6
:1000F00040800102040810200102040810200000C2
:100100000000250028002B00040404040404040457
:1001100002020202020203030303030302009F26FA
:1001200011241FBECFEFD8E0DEBFCDBF13E0A0E0AB
:10013000B1E0E4E4F5E502C005900D92A435B10705
:10014000D9F725E0A4E5B3E001C01D92A831B207BC
:10015000E1F710E0C0E9D0E004C02197FE010E9461
:10016000952ACF38D107C9F70E9448110C94A02ACC
:100170000C940000CF92DF92EF92FF920F931F93A7
:10018000CF93DF936C017A018B01C0E0D0E0CE15F4
:10019000DF0581F0D8016D918D01D601ED91FC91C3
:1001A0000190F081E02DC6010995892B11F021966F
:1001B000EECF7E01C701DF91CF911F910F91FF908C
:1001C000EF90DF90CF900895FC01538D448D252F43
:1001D00030E0842F90E0821B930B541710F0CF96E1
:1001E000089501970895FC01918D828D981761F013
:1001F000828DDF01A80FB11D5D968C91928D9F5F5E
:100200009F73928F90E008958FEF9FEF0895FC0108
:10021000918D828D981731F0828DE80FF11D858DBB
:1002200090E008958FEF9FEF0895FC01918D228D4E
:10023000892F90E0805C9F4F821B91098F739927D3
:10024000089588EC93E00E94150121E0892B09F4C0
:1002500020E0822F0895FC01848DDF01A80FB11DDD
:10026000A35ABF4F2C91848D90E001968F739927EC
:10027000848FA689B7892C93A089B1898C918370CA
:1002800080648C93938D848D981306C00288F389C3
:10029000E02D80818F7D80830895EF92FF920F93F0
:1002A0001F93CF93DF93EC0181E0888F9B8D8C8D22
:1002B000981305C0E889F989808185FD26C0F62E4E
:1002C0000B8D10E00F5F1F4F0F731127E02E8C8DE9
:1002D000E8120CC00FB607FCFACFE889F9898081D3
:1002E00085FFF5CFCE010E942B01F1CF8B8DFE0152
:1002F000E80FF11DE35AFF4FF0829FB7F8940B8F80
:10030000EA89FB89808180620AC09FB7F894EE89F0
:10031000FF896083E889F9898081837080648083A4
:100320009FBF81E090E0DF91CF911F910F91FF90EF
:10033000EF900895CF93DF93EC01888D8823C9F067
:10034000EA89FB89808185FD05C0A889B9898C91DE
:1003500086FD0FC00FB607FCF5CF808185FFF2CF79
:10036000A889B9898C9185FFEDCFCE010E942B0120
:10037000E7CFDF91CF91089580E090E0892B29F0BD
:100380000E94210181110C9400000895089580E0DD
:1003900090E008950E949B2ACF93DF93EC0160E0E8
:1003A0008E810E946C0C61E08E810E946C0C60E07A
:1003B0008E810E946C0C8BE891E00197F1F7DF9140
:1003C000CF910895CF93DF93EB010E944E2788834E
:1003D000CE01DF91CF910895CF92DF92EF92FF92FD
:1003E0000F931F93CF93DF93EB017B0124E0E20E89
:1003F000F11C8B016C01C61AD70AC601800F911F30
:100400000E944E27F80181938F01EE15FF05A9F791
:10041000CE01DF91CF911F910F91FF90EF90DF9070
:10042000CF9008950F931F93CF93DF938C01EB012F
:100430000E944E278883C80101960E944E27898317
:10044000CE01DF91CF911F910F910895FF920F93ED
:100450001F93CF93DF93EC01F62E08811981C80119
:100460000E944E27F81621F06F2DC8010E945627D2
:10047000CE01DF91CF911F910F91FF9008950F93BF
:100480001F93CF93DF9300D0CDB7DEB78B01FB0175
:1004900060819A838983CE0101960E942602C80159
:1004A0000F900F90DF91CF911F910F910895AF9210
:1004B000BF92CF92DF92EF92FF920F931F93CF9351
:1004C000DF9300D0CDB7DEB78B016B0124E0C20E05
:1004D000D11C7B015C01A61AB70AC5018E0D9F1DB8
:1004E000F70161917F019A838983CE0101960E9471
:1004F0002602EC14FD0489F7C8010F900F90DF91DC
:10050000CF911F910F91FF90EF90DF90CF90BF9010
:10051000AF900895EF92FF920F931F93CF93DF93C5
:1005200000D0CDB7DEB78C017B01FB0160819A83DF
:100530008983CE0101960E942602F70161810F5F37
:100540001F4F1A830983CE0101960E942602C7011C
:100550000F900F90DF91CF911F910F91FF90EF902F
:10056000089590911601891324C0ECE1F1E0E49123
:100570009FEF90931601E130B9F098F0E230C9F4A2
:10058000909170009D7F9093700091E09093B000E7
:100590009091B100987F94609093B1001092B30055
:1005A00008C010926E0005C090916F009D7F9093DF
:1005B0006F0060E00C946C0C1F920F920FB60F92BC
:1005C00011242F933F934F935F936F937F938F9358
:1005D0009F93AF93BF93EF93FF938091C403909148
:1005E000C503A091C603B091C703892B8A2B8B2B1F
:1005F00051F19091C103E091C203F091C303808156
:10060000892780838091C4039091C503A091C6037C
:10061000B091C703181619061A061B06C4F4809178
:10062000C4039091C503A091C603B091C70301977D
:10063000A109B1098093C4039093C503A093C60395
:10064000B093C70304C0809116010E94B102FF91CC
:10065000EF91BF91AF919F918F917F916F915F913A
:100660004F913F912F910F900FBE0F901F901895B3
:10067000DC01ED91FC910190F081E02D0994611570
:10068000710579F0FB0101900020E9F73197AF0186
:10069000461B570BDC01ED91FC910280F381E02DAC
:1006A000099480E090E008958F929F92AF92BF925C
:1006B000EF92FF920F931F93CF93DF93CDB7DEB7E7
:1006C000A1970FB6F894DEBF0FBECDBF7C01FA0133
:1006D000CB0119A2223008F42AE08E010F5D1F4FD2
:1006E000822E912CA12CB12CBF01A50194010E9456
:1006F000402AF901CA01015011096A3014F4605D01
:1007000001C0695CD8016C93232B242B252B61F746
:10071000B801C7010E943F03A1960FB6F894DEBF4F
:100720000FBECDBFDF91CF911F910F91FF90EF9042
:10073000BF90AF909F908F9008957F928F929F92DD
:10074000AF92BF92CF92DF92EF92FF920F931F93DF
:10075000CF93DF938C016A017B01722E9A01AB016A
:10076000C701B6010E94F229882319F063E373E000
:1007700027C046015701E894B7F82FEF3FEF4FE746
:100780005FE7C501B4010E94F22981110DC02FEF6E
:100790003FEF4FE75FE7C501B4010E94D12718166C
:1007A0001CF467E373E00CC02FEF3FEF4FE75FE40B
:1007B000C701B6010E943029181694F46BE373E068
:1007C000C801DF91CF911F910F91FF90EF90DF90C3
:1007D000CF90BF90AF909F908F907F900C943F03ED
:1007E0002FEF3FEF4FE75FECC701B6010E94D12723
:1007F00087FDE4CF20E030E0A901C701B6010E94E7
:10080000D12787FF0AC06DE2C8010E943803EC01BE
:10081000F7FAF094F7F8F09402C0C0E0D0E0B12C01
:1008200060E070E080E09FE3B71440F420E030E047
:1008300040E251E40E94D627B394F6CFA701960177
:100840000E9465276B017C010E944F284B015C01CF
:100850002AE0AB01BC01C8010E945403C80FD91F94
:100860007720C1F1C501B4010E947E289B01AC0133
:10087000C701B6010E9464276B017C016EE2C801CA
:100880000E943803C80FD91F20E030E040E251E455
:10089000C701B6010E9485294B015C010E944F28C7
:1008A0006B01E12CF12C2AE0B701A601C8010E94DE
:1008B0005403C80FD91FC701B6010E947E289B01AF
:1008C000AC01C501B4010E9464276B017C017A94DC
:1008D0007110DACFCE01DF91CF911F910F91FF9070
:1008E000EF90DF90CF90BF90AF909F908F907F90D0
:1008F00008950C943F031F920F920FB60F9211248C
:100900002F933F934F935F936F937F938F939F9317
:10091000AF93BF93EF93FF9388EC93E00E942B017A
:10092000FF91EF91BF91AF919F918F917F916F91C7
:100930005F914F913F912F910F900FBE0F901F909D
:1009400018951F920F920FB60F9211242F938F9329
:100950009F93EF93FF93E091D803F091D9038081A7
:10096000E091DE03F091DF0382FD12C0908180915F
:10097000E1038F5F8F732091E203821751F0E091C2
:10098000E103F0E0E853FC4F958F8093E10301C051
:100990008081FF91EF919F918F912F910F900FBECA
:1009A0000F901F901895CF92DF92EF92FF920F93C6
:1009B0001F93CF93DF936C017C0187E0E80EF11C5D
:1009C000C0E0D0E0062F10E0B8010C2E02C07595F3
:1009D00067950A94E2F76170F70181917F010E94A7
:1009E0006C0C2196C430D10579F7C601DF91CF9107
:1009F0001F910F91FF90EF90DF90CF900C94CC015E
:100A0000CF92DF92EF92FF920F931F93CF93DF93DA
:100A1000EC01F62E642F8C810E946C0C8D818F3F2F
:100A200019F060E00E946C0C8F850F2D10E084FFA0
:100A300025C06E0187E0C80ED11CE12CF12CB80155
:100A40000E2C02C0759567950A94E2F76170F60165
:100A500081916F010E946C0CFFEFEF1AFF0A88E092
:100A6000E816F10461F7CE01DF91CF911F910F914C
:100A7000FF90EF90DF90CF900C94CC01B80184E010
:100A8000759567958A95E1F7CE010E94D3046F2D85
:100A9000CE01DF91CF911F910F91FF90EF90DF90EA
:100AA000CF900C94D30441E00E94000581E090E0D7
:100AB00008958F929F92AF92BF92CF92DF92EF9262
:100AC000FF92CF93DF93EC01EE8DFF8DC080D1803C
:100AD000E280F380CEA2DFA2E8A6F9A6EC8DFD8D20
:100AE00080819181A281B3818AA79BA7ACA7BDA772
:100AF0008EA89FA8A8ACB9ACA5019401C701B60106
:100B00000E943029181664F08AA89BA8ACA8BDA83A
:100B1000A5019401C701B6010E94D12787FF04C037
:100B20008EA29FA2A8A6B9A6DF91CF91FF90EF90C9
:100B3000DF90CF90BF90AF909F908F9008954F928D
:100B40005F926F927F928F929F92AF92BF92CF925D
:100B5000DF92EF92FF920F931F93CF93DF9300D01A
:100B600000D000D0CDB7DEB79E838D832A013B0134
:100B70004801590120E030E0A901C301B2010E94FF
:100B8000D12787FD89C020E030E0A901C501B4016B
:100B90000E94D12787FD80C020E030E0A901C70175
:100BA000B6010E94D12787FD77C081E0ED81FE81EB
:100BB000228D338D2130310509F080E0ED81FE81F9
:100BC00083AF408251826282738284829582A68240
:100BD000B782C086D186E286F38666A577A580A90E
:100BE00091A90E947E2820E030E04AE754E40E9468
:100BF000D62769837A838B839C83ED81FE8144862B
:100C00005586668677869B01AC01C501B4010E94BA
:100C100085294B015C01ED81FE81608B718B828B9C
:100C2000938B29813A814B815C81C701B6010E9477
:100C3000D6276B017C01ED81FE81648B758B868BE1
:100C4000978B808D918D019739F5A301920160E01A
:100C500070E0CB010E946427ED81FE816487758777
:100C600086879787A501940160E070E0CB010E9420
:100C70006427ED81FE81608B718B828B938BA70142
:100C8000960160E070E0CB010E946427ED81FE8157
:100C9000648B758B868B978B26960FB6F894DEBF88
:100CA0000FBECDBFDF91CF911F910F91FF90EF90BD
:100CB000DF90CF90BF90AF909F908F907F906F907C
:100CC0005F904F9008952F923F924F925F926F9254
:100CD0007F928F929F92AF92BF92CF92DF92EF92CC
:100CE000FF920F931F93CF93DF93CDB7DEB760973B
:100CF0000FB6F894DEBF0FBECDBFDC01DA96BC9113
:100D0000B983B11102C019822BC1988B8F870E94C1
:100D100038106E837F8388879987EF85F88982A151
:100D200093A1A4A1B5A14E815F8168857985481BF7
:100D3000590B6A0B7B0B86A597A5A0A9B1A94817EB
:100D400059076A077B07F8F2048CF58DE02D808146
:100D50009181A281B3818A839B83AC83BD83AF855C
:100D6000B8899096ED91FC9191972A813B814C81B5
:100D70005D8160817181828193810E9464274B0132
:100D80005C01EF85F88922A533A544A555A56A81A4
:100D90007B818C819D810E9464276B017C01AF85E2
:100DA000B88950962D913D914D915C915397C50115
:100DB000B4010E948529EF85F88926A137A140A5B5
:100DC00051A50E9465272B013C01AF85B8899696F5
:100DD0006D937D938D939C939997DB96BC91BA8785
:100DE000B11118C0EF85F88924853585468557856A
:100DF000C701B6010E9485299B01AC01C301B20164
:100E00000E946427AF85B88996966D937D938D93E4
:100E10009C939997EF85F88946A057A060A471A488
:100E200016A907A930AC21AC212F302F432D522D0C
:100E3000C301B2010E94302918162CF4812F902F83
:100E4000A32DB22D18C0AF85B889D2968D919D91F2
:100E50000D90BC91A02D8B879C87AD87BE879C0190
:100E6000AD01C301B2010E94D12787FF0AC08B8563
:100E70009C85AD85BE85EF85F88986A397A3A0A73D
:100E8000B1A7FA85FF2379F0AF85B8891C962D911B
:100E90003D914D915C911F97C501B4010E94852938
:100EA0004B015C0103C0812C912C5401EF85F88922
:100EB0002489358946895789C701B6010E94852949
:100EC0009B01AC01AF85B88996966D917D918D910E
:100ED0009C9199970E946427A50194010E9465271F
:100EE0006B017C019B01AC01612F702F832D922D32
:100EF0000E94D12787FD14C0EF85F88912A903A9A4
:100F000034A825A8212F302F432D522DB601C7011B
:100F10000E94D12787FD04C01C2D0D2D3E2C2F2CA7
:100F2000AF85B8895E96ED91FC915F97812F902FE8
:100F3000A32DB22D80839183A283B3838A819B8169
:100F4000AC81BD81EF85F88982A793A7A4A7B5A737
:100F50008E819F81A885B98582A393A3A4A3B5A3FD
:100F6000898160960FB6F894DEBF0FBECDBFDF91CA
:100F7000CF911F910F91FF90EF90DF90CF90BF9096
:100F8000AF909F908F907F906F905F904F903F9029
:100F90002F900895109269031092640310925703E2
:100FA0001092560360E08CE00E946C0C66E072E0E8
:100FB00088EC93E00E94790480915403813021F4FD
:100FC0008DE092E00E94300C80915403823021F435
:100FD0008BE192E00E94300C80915403833021F425
:100FE00089E292E00E94300C80915403843021F415
:100FF00087E392E00E94300C80915403853021F405
:1010000085E492E00E94300C80915403863021F4F4
:1010100080E592E00E94300C60E08DE00C946C0C56
:10102000CF92DF92EF92FF920F931F9380910E0168
:1010300090910F01A0911001B0911101809365046E
:1010400090936604A0936704B09368048091600352
:1010500090916103A0916203B091630380936D044A
:1010600090936E04A0936F04B093700481E794E0B2
:101070000E9463060E943810C0905C03D0905D030C
:10108000E0905E03F0905F0320912F0130913001DA
:101090008901330F220B330BAB01BC014C195D09E5
:1010A0006E097F09041715072607370770F4D70163
:1010B000C601800F911FA21FB31F80935C03909302
:1010C0005D03A0935E03B0935F030E943810C0904D
:1010D0005C03D0905D03E0905E03F0905F036C19B9
:1010E0007D098E099F090E947E2820916904309114
:1010F0006A0440916B0450916C040E9430291816C8
:1011000014F460E001C061E08BE01F910F91FF904B
:10111000EF90DF90CF900C946C0C0F931F93809105
:10112000120190911301A0911401B09115018093C7
:10113000AD049093AE04A093AF04B093B00480913B
:10114000650390916603A0916703B0916803809353
:10115000B5049093B604A093B704B093B80489EB98
:1011600094E00E9463060E94381000915803109189
:10117000590320915A0330915B03AB01BC01401B22
:10118000510B620B730B493E53406105710570F0C2
:10119000D901C80188519C4FAF4FBF4F809358036E
:1011A00090935903A0935A03B0935B030E943810A5
:1011B000009158031091590320915A0330915B0319
:1011C000601B710B820B930B0E947E282091B1044F
:1011D0003091B2044091B3045091B4040E9430297C
:1011E000181614F460E001C061E08AE01F910F91CD
:1011F0000C946C0C67EB73E080E090E00E948A0234
:1012000062E171E088E090E00E94570261E071E0E5
:101210008CE090E00E948A0263E071E080E190E05F
:101220000E948A0263E271E084E190E00E9457022A
:1012300067E271E088E190E00E9457026BE271E0A2
:101240008CE190E00E9457026AE071E080E290E059
:101250000E9457026EE071E084E290E00E94570223
:1012600067E171E088E290E00E9457026BE171E073
:101270008CE290E00E9457026FE171E080E390E021
:101280000E94570260E071E084E390E00E943F0218
:1012900065E573E088E390E00C943F02CF92DF9223
:1012A000EF92FF920F931F93CF93DF9300D0CDB7B0
:1012B000DEB798E288E10FB6F894A89580936000B5
:1012C0000FBE9093600060E082E10E949B0C60E0A2
:1012D00083E10E949B0C61E08AE00E949B0C61E02C
:1012E0008BE00E949B0C61E080E10E949B0C61E01E
:1012F0008FE00E949B0C61E081E10E949B0C61E009
:101300008CE00E949B0C62E089E00E949B0C61E0F3
:101310008DE00E949B0C61E08DE00E946C0C67EBFD
:1013200073E080E090E00E9412028091B7039091F8
:10133000B8030196C1F400E010E01A821982BE01E0
:101340006F5F7F4FC8010E948A020F5F1F4F0F3FE0
:1013500081E0180791F781E090E09093B8038093C3
:10136000B7030E94FA0867EB73E080E090E00E9408
:10137000120262E171E088E090E00E94EC0161E01D
:1013800071E08CE090E00E94120263E071E080E185
:1013900090E00E94120263E271E084E190E00E941A
:1013A000EC0167E271E088E190E00E94EC016BE201
:1013B00071E08CE190E00E94EC016AE071E080E273
:1013C00090E00E94EC016EE071E084E290E00E9407
:1013D000EC0167E171E088E290E00E94EC016BE1D2
:1013E00071E08CE290E00E94EC016FE171E080E33B
:1013F00090E00E94EC0160E071E084E390E00E94E4
:10140000E20165E573E088E390E00E94E2018091EB
:10141000B7039091B80301969093B8038093B703F4
:1014200082E00E94D70C60E071E084E390E00E94CB
:10143000E2018091000181508E3F18F082E8809394
:10144000000160E084E00E94E80B6FE373E085EF49
:1014500094E00E94790461E082E00E94E80B67E476
:1014600073E085EF94E00E9479046FEF70E088E00C
:101470000E94880F08EC10E08091000190E0801736
:1014800091076CF4B80188E00E94880F6AE070E070
:1014900080E090E00E94FE0F01501109EDCF68EE50
:1014A00073E080E090E00E94FE0F6091000170E028
:1014B00088E00E94880F0E94E00BE091D803F09131
:1014C000D90382E08083E091D403F091D5031082A8
:1014D000E091D603F091D70380E180831092E0037E
:1014E000E091DC03F091DD0386E08083E091DA0394
:1014F000F091DB03808180618083E091DA03F091D9
:10150000DB03808188608083E091DA03F091DB0364
:10151000808180688083E091DA03F091DB03808131
:101520008F7D80830E943810609358037093590315
:1015300080935A0390935B0340E050E06AE774E4C1
:1015400089EB94E00E946B0B8091F304811104C03D
:1015500089EB94E00E94590581E08093F304C090E8
:101560002B01D0902C01E0902D01F0902E010091E4
:101570002701109128012091290130912A014091E1
:10158000230150912401609125017091260189EB7E
:1015900094E00E949F050E94381060935C03709352
:1015A0005D0380935E0390935F0360912F017091C0
:1015B0003001072E000C880B990B0E948028AB018C
:1015C000BC0181E794E00E946B0B8091AB04811118
:1015D00004C081E794E00E94590581E08093AB0448
:1015E000C0901F01D0902001E0902101F0902201D5
:1015F00000911B0110911C0120911D0130911E01D1
:1016000040911701509118016091190170911A01D0
:1016100081E794E00E949F050F900F90DF91CF919A
:101620001F910F91FF90EF90DF90CF90089583303E
:1016300081F028F4813099F08230A1F0089587304C
:10164000A9F08830B9F08430D1F4809180008F7D8A
:1016500003C0809180008F7780938000089584B5C7
:101660008F7702C084B58F7D84BD08958091B000CE
:101670008F7703C08091B0008F7D8093B000089574
:101680003FB7F8948091BD039091BE03A091BF0332
:10169000B091C00326B5A89B05C02F3F19F0019655
:1016A000A11DB11D3FBFBA2FA92F982F8827820FE8
:1016B000911DA11DB11DBC01CD0142E0660F771F38
:1016C000881F991F4A95D1F7089540E0682F85EF4C
:1016D00094E00C9400058F929F92AF92BF92CF92AC
:1016E000DF92EF92FF920F931F93CF93DF93EC0162
:1016F0006A017B0120E030E0A901C701B6010E9428
:10170000D12718160CF04FC01AAA1BAA1CAA1DAA92
:10171000CEAADFAAE8AEF9AE8AAD882309F443C0A9
:101720000E8D1F8DF80180809180A280B380A5016D
:101730009401C701B6010E94D12787FF06C0F801B6
:10174000C082D182E282F3820EC020E030E0A901A3
:10175000C501B4010E94D12787FF05C0F80110829E
:101760001182128213828EA09FA0A8A4B9A4CEA831
:10177000DFA8E8ACF9ACA7019601C501B4010E944D
:101780003029181664F0CAA8DBA8ECA8FDA8A701A8
:101790009601C501B4010E94D12787FF04C0CEA2E3
:1017A000DFA2E8A6F9A6DF91CF911F910F91FF90DC
:1017B000EF90DF90CF90BF90AF909F908F90089563
:1017C00081E00E94650B8BE39FE10197F1F708959B
:1017D000643008F063E090910805691710F06FEF2E
:1017E000690FE62FF0E0EB50FB4F9489890F80687A
:1017F0000C94650BCF92DF92EF92FF920F931F93A1
:10180000CF93DF936B01770FEE08FF08F7FE1BC045
:10181000EC016DE20E9438038C0144275527BA0180
:101820004C195D096E097F092AE0CE010E9454031C
:10183000800F911FDF91CF911F910F91FF90EF903B
:10184000DF90CF9008952AE0B701A601DF91CF91F4
:101850001F910F91FF90EF90DF90CF900C94540365
:10186000CF93DF93BC0188EC93E00E943F03EC012F
:1018700060E373E088EC93E00E943F038C0F9D1FB0
:10188000DF91CF910895CF93DF93282F30E0F901B6
:10189000EA52FF4F8491F901E651FF4FD491F901CB
:1018A000E85FFE4FC491CC2391F081110E94170B89
:1018B000EC2FF0E0EE0FFF1FE453FF4FA591B49122
:1018C000EC91ED2381E090E021F480E002C080E023
:1018D00090E0DF91CF9108951F93CF93DF93282F4E
:1018E00030E0F901EA52FF4F8491F901E651FF4FD0
:1018F000D491F901E85FFE4FC491CC23C1F0162FBB
:1019000081110E94170BEC2FF0E0EE0FFF1FE25049
:10191000FF4FA591B4919FB7F894111104C08C9119
:10192000D095D82302C0EC91DE2BDC939FBFDF91D2
:10193000CF911F910895CF93DF9390E0FC01E65182
:10194000FF4F2491FC01E85FFE4F8491882361F1F1
:1019500090E0880F991FFC01EE53FF4FC591D49181
:10196000FC01E250FF4FA591B491611109C09FB7EE
:10197000F8948881209582238883EC912E230BC0D4
:10198000623061F49FB7F8948881322F30958323B9
:101990008883EC912E2B2C939FBF06C08FB7F894B1
:1019A000E8812E2B28838FBFDF91CF910895CF93AD
:1019B000DF93823028F0909104059860909304059D
:1019C000809308051092090580E480930A0580E160
:1019D00080930B0580E580930C0561E08091F9040C
:1019E0000E949B0C8091FA048F3F19F061E00E94E5
:1019F0009B0C61E08091FB040E949B0CC5EFD4E03E
:101A00009E01255F34408091040584FD03C084E07D
:101A100090E002C088E090E02196281739072CF466
:101A200061E08E810E949B0CEBCF8BE39DE00197E0
:101A3000F1F760E08091F9040E946C0C60E0809105
:101A4000FB040E946C0C8091FA048F3F19F060E057
:101A50000E946C0C8091040584FD20C063E085EF3A
:101A600094E00E94D304CBE4D6E4CE010197F1F7D1
:101A700063E085EF94E00E94D3042197F1F763E0DF
:101A800085EF94E00E94D30483E592E00197F1F79B
:101A900062E085EF94E00E94D30415C080620E944A
:101AA000650B8BE496E40197F1F780910405806261
:101AB0000E94650B83E592E00197F1F780910405A0
:101AC00080620E94650B8091040580620E94650B14
:101AD00084E0809305058CE00E94650B0E94E00B7A
:101AE00082E08093060586E0DF91CF910C94650B30
:101AF0008F929F92AF92BF92CF92DF92EF92FF921E
:101B00001F93CF93DF93EC0180911601803121F078
:101B10008F3F09F0F1C104C0ECE1F1E014916FC016
:101B200080E180931601ECE1F1E014911F3F09F48C
:101B3000E3C1113009F440C030F1123009F05FC048
:101B40001092B0001092B1008091B000826080933A
:101B5000B0008091B10081608093B100E8E1F1E0D4
:101B6000E491F0E0EE0FFF1FE250FF4F859194915A
:101B70009093C3038093C203EAEFF0E0E491E09313
:101B8000C10312E0B4C114BC15BC84B5826084BD2D
:101B900085B5816085BDE8E1F1E0E491F0E0EE0F0C
:101BA000FF1FE250FF4F85919491EAEFF0E0E4913E
:101BB000E0930E0510E09BC110928000109281000E
:101BC0008091810088608093810080918100816094
:101BD00080938100E8E1F1E0E491F0E0EE0FFF1F77
:101BE000E250FF4F85919491EAEFF0E0E491E093A9
:101BF0000D0561E080E10E949B0C11E0A5C017FD7E
:101C00007BC161E080E10E949B0C812F8D7F09F0F8
:101C10009BC06E01E12CF12C60E072E18AE790E05C
:101C2000A70196010E94622A49015A01BA01A9013D
:101C300041505109610971094F3F51056105710515
:101C400009F008F445C060E472E48FE090E0A70179
:101C500096010E94622ABA01A90141505109610905
:101C600071091230E9F44F3F51056105710509F022
:101C700008F4DDC060E970ED83E090E0A701960113
:101C80000E94622ABA01A9014150510961097109F2
:101C90004F3F51056105710509F020F583E04DC006
:101CA0004F3F510561057105A9F0A0F068E478EE99
:101CB00081E090E0A70196010E94622ABA01A90181
:101CC0004150510961097109112309F4E1C0D8C0DB
:101CD00081E001C082E0111130C095B5987F892B59
:101CE00085BD69C068E478EE81E090E0A7019601C7
:101CF0000E94622ABA01A901415051096109710982
:101D00004F3F51056105710509F008F48EC064E28A
:101D100074EF80E090E0A70196010E94622ABA0168
:101D2000A90141505109610971094F3F51056105F0
:101D3000710511F008F07DC085E09091B100987FA9
:101D4000892B8093B10031C06E01E12CF12C60E051
:101D500072E18AE790E0A70196010E94622ABA0127
:101D6000A90141505109610971094115510581E0ED
:101D70006807710580F068E478EE81E090E0A701E3
:101D800096010E94622ABA01A901415051096109D4
:101D9000710983E001C081E0113039F49091810034
:101DA000987F892B8093810018C01130B1F01230D8
:101DB00049F11111A1C047BD8FEF9FEFDC01809366
:101DC000130590931405A0931505B0931605809103
:101DD0006E00826080936E008FC0509389004093A4
:101DE00088008FEF9FEFDC0180930F059093100523
:101DF000A0931105B093120580916F0082608093CB
:101E00006F007AC04093B3008FEF9FEFDC018093A7
:101E1000C4039093C503A093C603B093C7038091F6
:101E2000700082608093700067C084E086CF82E09B
:101E300084CF62E17AE780E090E0A70196010E94FA
:101E4000622ABA01A90141505109610971094F3F44
:101E500051056105710591F088F0D501C4012AE0B2
:101E6000B595A795979587952A95D1F7AC01BD01B2
:101E7000415051096109710987E05FCF86E05DCF6C
:101E80004F3F51056105710509F098F684E023CFB5
:101E90004F3F51056105710541F138F162E17AE783
:101EA00080E090E0A70196010E94622ABA01A90190
:101EB00041505109610971094F3F51056105710593
:101EC00091F088F0D501C4013AE0B595A7959795B2
:101ED00087953A95D1F7AC01BD014150510961098F
:101EE000710985E0FACE84E0F8CE83E0F6CE61E0B9
:101EF00080E10E949B0C8DCEDF91CF911F91FF90CE
:101F0000EF90DF90CF90BF90AF909F908F9008950B
:101F10001F93CF93DF93182FEB0161E00E949B0C7E
:101F2000209711F460E004C0CF3FD10539F461E09F
:101F3000812FDF91CF911F910C946C0CE12FF0E079
:101F4000EA52FF4FE491E330F9F048F4E130B9F0A0
:101F5000E230A1F584B5806284BDC8BD34C0E730ED
:101F6000E9F0E83019F1E43049F5809180008062B1
:101F700080938000D0938B00C0938A0024C084B5E6
:101F8000806884BDC7BD1FC0809180008068809339
:101F90008000D0938900C093880015C08091B00064
:101FA00080688093B000C093B3000DC08091B000F2
:101FB00080628093B000C093B40005C0C038D105E2
:101FC0000CF0B5CFAFCFDF91CF911F9108958E3038
:101FD00008F08E508770806480937C0080917A0036
:101FE000806480937A0080917A0086FDFCCF809196
:101FF00078002091790090E0922B08958F929F9223
:10200000AF92BF92CF92DF92EF92FF926B017C0171
:102010000E94400B4B015C01C114D104E104F104A6
:10202000F1F00E94400BDC01CB0188199909AA0943
:10203000BB09883E9340A105B10570F321E0C21AA7
:10204000D108E108F10888EE880E83E0981EA11CF3
:10205000B11CC114D104E104F10419F7DDCFFF90E4
:10206000EF90DF90CF90BF90AF909F908F900895AA
:102070002FB7F8946091B9037091BA038091BB03B4
:102080009091BC032FBF08954F925F926F927F9201
:102090008F929F92AF92BF92CF92DF92EF92FF9278
:1020A0000F931F93CF93DF93CDB7DEB74C01DC01C5
:1020B0005F965C934E935E975D967C936E935C9770
:1020C00091963C932E939097DA961C92FC0112AA5B
:1020D00013AA14AA15AA80E090E0AFE7B3E486AB98
:1020E00097ABA0AFB1AF84E690E0A0E0B0E086A7E8
:1020F00097A7A0ABB1AB118E108E20E030E0A90104
:10210000C801B7010E94D12787FD56C020E030E00A
:10211000A901C601B5010E94D12787FD4DC020E06D
:1021200030E0A9016B897C898D899E890E94D12725
:1021300087FD42C081E090E0D4015B969C938E9332
:102140005A97DB968C93DB97F401E082F18202834D
:1021500013831496AD92BD92CD92DC9217978B8922
:102160009C89AD89BE8980879187A287B387D40176
:102170001C96ED92FD920D931C931F972DEC3CEC59
:102180004CEC5DE3C601B5010E948529F401608B2A
:10219000718B828B938B2DEC3CEC4CEC5DE36B896B
:1021A0007C898D899E890E94D627D40154966D938F
:1021B0007D938D939C9357970E943810F401C6A489
:1021C000D7A4E0A8F1A8DC01CB018C199D09AE09C8
:1021D000BF0982A393A3A4A3B5A3DF91CF911F91BD
:1021E0000F91FF90EF90DF90CF90BF90AF909F90B6
:1021F0008F907F906F905F904F9008951F920F92F5
:102200000FB60F9211242F933F938F939F93AF9309
:10221000BF938091B9039091BA03A091BB03B09191
:10222000BC033091170523E0230F2D3720F40196CE
:10223000A11DB11D05C026E8230F0296A11DB11DE9
:10224000209317058093B9039093BA03A093BB031F
:10225000B093BC038091BD039091BE03A091BF03D6
:10226000B091C0030196A11DB11D8093BD03909351
:10227000BE03A093BF03B093C003BF91AF919F91E2
:102280008F913F912F910F900FBE0F901F90189537
:10229000CF93DF93CDB7DEB7C054D1090FB6F89412
:1022A000DEBF0FBECDBF789484B5826084BD84B597
:1022B000816084BD85B5826085BD85B5816085BD41
:1022C00080916E00816080936E00109281008091F9
:1022D0008100826080938100809181008160809381
:1022E0008100809180008160809380008091B100A6
:1022F00084608093B1008091B00081608093B000D1
:1023000080917A00846080937A0080917A00826064
:1023100080937A0080917A00816080937A00809126
:102320007A00806880937A001092C1000E944E0962
:102330008AE0282E312C95E0892E912C0E943810AD
:1023400028EE33E040E050E00E94402A2AE030E0EE
:1023500040E050E00E94402A8091930390919403C2
:10236000A0919503B0919603281739074A075B0798
:1023700069F0209393033093940340939503509313
:102380009603809192038F5F8093920380919203D2
:102390008A3010F40C94811D109292038091910365
:1023A0008F5F8093910380917C0390917D038233B2
:1023B000910511F40C94E4195CF58F30910509F442
:1023C000DEC59CF48530910509F4CFC42CF4892B2B
:1023D00009F4D2C30C94241C8630910509F41BC562
:1023E0000A9709F44EC50C94241C8E31910509F40A
:1023F000A8C62CF4449709F440C60C94241C8332DC
:10240000910509F408C7889709F450C70C94241C57
:102410008134910509F4F0C0B4F48E33910511F4C0
:102420000C940E1B34F4CC9711F40C94741A0C9485
:10243000241C8F33910511F40C94CD1B803491052D
:10244000D9F00C94241C8F35910509F488C254F4FA
:102450008634910509F450C18035910509F4D4C141
:102460000C94241C8436910509F4F7C28F3F910522
:1024700009F450C50C94241C60E080E00E94E80B35
:1024800080916403823010F0843131F46FE471E0A4
:1024900085EF94E00E947904809164038C3031F4DC
:1024A0006FE571E085EF94E00E9479048091640308
:1024B0008E3031F461E771E085EF94E00E94790499
:1024C00080916403803131F465E871E085EF94E038
:1024D0000E94790460E08FE00E94E80B8BE00E948C
:1024E000430C019731F465E971E085EF94E00E94B7
:1024F00079048BE00E94430C892B31F463E971E08D
:1025000085EF94E00E94790461E080E00E94E80B8E
:10251000809164038E3001F567E971E085EF94E006
:102520000E9479046091170170911801809119013E
:1025300090911A019B01AC010E946527AB01BC017F
:1025400020E030E085EF94E00E949D0363E971E0B4
:1025500085EF94E00E947904809164038031A1F5B5
:1025600067E971E085EF94E00E94790440911701DA
:10257000509118016091190170911A0120E030E02A
:1025800085EF94E00E949D0363E971E085EF94E09C
:102590000E9479046CE971E085EF94E00E9479046F
:1025A00040911B0150911C0160911D0170911E0111
:1025B00022E030E085EF94E00E949D0363E971E042
:1025C00085EF94E00E94790480916C0390916D03F3
:1025D0008130910521F486E090E00C94C11B853098
:1025E000910509F4B8C0039711F00C94201C8AE0FF
:1025F000809364030C94201C60E080E00E94E80B50
:1026000061EA71E085EF94E00E94790461E080E086
:102610000E94E80B6BEA71E085EF94E00E94790478
:1026200040911F0150912001609121017091220180
:1026300022E030E085EF94E00E949D036DEA71E0B6
:1026400085EF94E00E94790480916C0390916D0372
:102650008130910509F4F0C38530910521F486E4B9
:1026600090E00C94C11B8230910549F520E030E0E8
:1026700040E251E460911F0170912001809121019D
:10268000909122010E9464276B017C0120E030E0E0
:10269000A9010E94D12787FD09C0C0921F01D092D5
:1026A0002001E0922101F092220106C110921F0147
:1026B000109220011092210110922201FDC0049776
:1026C00011F00C94201C20E030E040E251E46091D5
:1026D0001F017091200180912101909122010E949F
:1026E00065276B017C0160931F017093200180932B
:1026F000210190932201E8C060E080E00E94E80B95
:102700006FEA71E085EF94E00E94790461E080E077
:102710000E94E80B6BEA71E085EF94E00E94790477
:1027200040911B0150911C0160911D0170911E018F
:1027300022E030E085EF94E00E949D036DEA71E0B5
:1027400085EF94E00E94790480916C0390916D0371
:102750008130910521F481E490E00C94C11B853017
:10276000910509F445C18230910549F52DEC3CEC09
:102770004CEC5DE360911B0170911C0180911D0187
:1027800090911E010E9464276B017C0120E030E0E3
:10279000A9010E94D12787FD09C0C0921B01D092D8
:1027A0001C01E0921D01F0921E0186C010921B01D7
:1027B00010921C0110921D0110921E017DC0049701
:1027C00011F00C94201C2DEC3CEC4CEC5DE3609182
:1027D0001B0170911C0180911D0190911E010E94AE
:1027E00065278B019C0160931B0170931C018093F2
:1027F0001D0190931E01C0901F01D0902001E09018
:102800002101F090220168C060E080E00E94E80BA6
:1028100069EB71E085EF94E00E94790461E080E06B
:102820000E94E80B6BEA71E085EF94E00E94790466
:1028300040911701509118016091190170911A018E
:1028400022E030E085EF94E00E949D036DEA71E0A4
:1028500085EF94E00E94790480916C0390916D0360
:102860008230910509F041C020E030E040E85FE3AC
:1028700060911701709118018091190190911A01CE
:102880000E9464276B017C0120E030E0A9010E94D6
:10289000D12787FD09C0C0921701D0921801E0929C
:1028A0001901F0921A0108C0109217011092180134
:1028B0001092190110921A01C0901F01D0902001AE
:1028C000E0902101F090220100911B0110911C0168
:1028D00020911D0130911E01409117015091180166
:1028E0006091190170911A012BC08430910569F52E
:1028F00020E030E040E85FE360911701709118013B
:102900008091190190911A010E946527AB01BC01C9
:1029100040931701509318016093190170931A01A5
:10292000C0901F01D0902001E0902101F090220181
:1029300000911B0110911C0120911D0130911E017D
:1029400081E794E00E949F057BC78130910509F4DF
:1029500086CE059709F074C78FE590E012C760E056
:1029600080E00E94E80B63EC71E085EF94E00E9448
:10297000790461E080E00E94E80B6BEA71E085EF8A
:1029800094E00E94790440910E0150910F016091F2
:1029900010017091110120E030E085EF94E00E9479
:1029A0009D036DEA71E085EF94E00E94790465ED86
:1029B00071E085EF94E00E947904409160035091AA
:1029C0006103609162037091630320E030E085EF62
:1029D00094E00E949D0367ED71E085EF94E00E9412
:1029E000790480916C0390916D038130910519F405
:1029F00080E590E0C6C68230910579F420E030E0B1
:102A000040E85FE360910E0170910F018091100129
:102A1000909111010E94642711C084309105B9F48E
:102A200020E030E040E85FE360910E0170910F011B
:102A300080911001909111010E94652760930E0111
:102A400070930F018093100190931101F9C60597BF
:102A500009F0F6C684E690E094C660E080E00E944B
:102A6000E80B69ED71E085EF94E00E9479044091F4
:102A7000600350916103609162037091630320E0F1
:102A800030E085EF94E00E949D036DEA71E085EFF0
:102A900094E00E947904809164038823A1F040911E
:102AA0000E0150910F01609110017091110120E011
:102AB00030E085EF94E00E949D036EE871E085EFC1
:102AC00094E00E94790480916403811106C06DED49
:102AD00071E085EF94E00E94790460E08FE00E944D
:102AE000E80B8BE00E94430C019731F465E971E03B
:102AF00085EF94E00E9479048BE00E94430C892BBF
:102B000031F463E971E085EF94E00E94790463E9B0
:102B100071E085EF94E00E94790461E080E00E941A
:102B2000E80B62EE71E085EF94E00E9479048091F9
:102B30006C0390916D038230910511F460E004C044
:102B40008430910529F461E08CE00E946C0C78C619
:102B50008330910549F4809164038F5F823008F4DB
:102B600047CD109264036CC68130910509F4F4CE10
:102B7000059709F4CFC164C660E080E00E94E80BCD
:102B80006AEE71E085EF94E00E947904409165035C
:102B900050916603609167037091680320E030E014
:102BA00085EF94E00E949D036DEA71E085EF94E06B
:102BB0000E947904809169038130C1F520E030E002
:102BC00040E85EE36091AB037091AC038091AD038C
:102BD0009091AE030E94D12787FF14C040910A0153
:102BE00050910B0160910C0170910D0120E030E0DB
:102BF00085EF94E00E949D036DEA71E085EF94E01B
:102C00000E947904409112015091130160911401C6
:102C10007091150120E030E085EF94E00E949D0363
:102C20006DEE71E085EF94E00E9479048091690374
:102C3000811106C064EF71E085EF94E00E94790491
:102C400060E08FE00E94E80B8AE00E94430C01974D
:102C500031F465E971E085EF94E00E9479048AE03F
:102C60000E94430C892B31F463E971E085EF94E015
:102C70000E94790461E080E00E94E80B6DEF71E052
:102C800085EF94E00E947904809156039091570358
:102C900097FD06C063E971E085EF94E00E94790436
:102CA000609156037091570385EF94E00E94FA0BF0
:102CB00080916C0390916D038130910539F484E625
:102CC00090E090937D0380937C033AC0853091051A
:102CD00029F430927D0320927C0332C08430910528
:102CE00061F420915603309157032F5F3F4F2530F9
:102CF000310514F40C9483260EC08230910581F4C2
:102D0000809156039091570301978C3F0FEF9007E6
:102D100014F48CEF9FEF909357038093560310C0E9
:102D2000039771F410926D0310926C038091690304
:102D30008F5F823018F48093690302C01092690398
:102D400061E089E00E94E80B4091AB035091AC0335
:102D50006091AD037091AE0322E030E085EF94E026
:102D60000E949D0364E072E051C060E080E00E9438
:102D7000E80B66E072E085EF94E00E9479044091F0
:102D8000540350E060E070E02AE085EF94E00E9498
:102D9000540361E080E00E94E80B8091540381308D
:102DA00031F46DE072E085EF94E00E947904809147
:102DB0005403823031F46BE172E085EF94E00E94BD
:102DC000790480915403833031F469E272E085EF35
:102DD00094E00E94790480915403843031F467E3D5
:102DE00072E085EF94E00E9479048091540385306D
:102DF00031F465E472E085EF94E00E9479048091FB
:102E00005403863009F01CC560E572E085EF94E05C
:102E10000E94790415C560E080E00E94E80B6BE534
:102E200072E085EF94E00E94790480916C039091A8
:102E30006D038530910519F480E490E0A2C40397F6
:102E400009F0FEC4E12CF12C6FEFC7010E94562758
:102E50001FEFE11AF10A2FEFE21621E0F206A1F7C7
:102E600061E080E00E94E80B6EE672E085EF94E09E
:102E70000E94790468E873E180E090E00E94FE0F10
:102E8000DFC460E080E00E94E80B61E872E085EF5B
:102E900094E00E94790461E080E00E94E80B6BEA14
:102EA00071E085EF94E00E94790440911201509105
:102EB0001301609114017091150120E030E085EF5D
:102EC00094E00E949D036DEA71E085EF94E00E941A
:102ED000790465ED71E085EF94E00E9479044091FA
:102EE000650350916603609167037091680320E069
:102EF00030E085EF94E00E949D0367ED71E085EF7F
:102F000094E00E94790480916C0390916D0381306C
:102F1000910529F410927D0310927C0391C48230B4
:102F2000910579F420E030E040E85FE36091120120
:102F30007091130180911401909115010E946427F2
:102F400011C084309105B9F420E030E040E85FE33F
:102F500060911201709113018091140190911501FB
:102F60000E946527609312017093130180931401EE
:102F70009093150165C4059709F4C6C061C460E06B
:102F800080E00E94E80B6BE772E085EF94E00E941E
:102F9000790461E080E00E94E80B6BEA71E085EF64
:102FA00094E00E94790440910A0150910B016091D4
:102FB0000C0170910D0120E030E085EF94E00E945B
:102FC0009D036DEA71E085EF94E00E94790465ED60
:102FD00071E085EF94E00E9479044091650350917F
:102FE0006603609167037091680320E030E085EF2D
:102FF00094E00E949D0367ED71E085EF94E00E94EC
:10300000790480916C0390916D038130910529F4CE
:1030100030927D0320927C0313C48230910579F4B1
:1030200020E030E040E85FE360910A0170910B011D
:1030300080910C0190910D010E94642711C0843091
:103040009105B9F420E030E040E85FE360910A01C7
:1030500070910B0180910C0190910D010E946527E8
:1030600060930A0170930B0180930C0190930D0102
:10307000E7C3059709F4B2C0E3C360E080E00E94B3
:10308000E80B6CE872E085EF94E00E94790461E05F
:1030900080E00E94E80B6BEA71E085EF94E00E940B
:1030A0007904609103017091040185EF94E00E941E
:1030B000FA0B6BE972E085EF94E00E94790460916D
:1030C000030170910401072E000C880B990B0E94DC
:1030D000802820E030E84FEC53E40E94D627AB0173
:1030E000BC0122E030E085EF94E00E949D036EE990
:1030F00072E085EF94E00E94790480916C039091D6
:103100006D038130910519F48FE090E03AC382306D
:10311000910531F480910301909104010A9708C050
:103120008430910551F480910301909104010A9635
:10313000909304018093030183C3059709F4A0C011
:103140007FC360E080E00E94E80B64EA72E085EFF4
:1031500094E00E94790461E080E00E94E80B6BEA51
:1031600071E085EF94E00E94790460910101709113
:10317000020185EF94E00E94FA0B6BE972E085EFA3
:1031800094E00E9479046091010170910201072E80
:10319000000C880B990B0E94802820E030E84FEC4F
:1031A00053E40E94D62720E030E040E051E40E9442
:1031B0008529AB01BC0122E030E085EF94E00E945C
:1031C0009D036EE972E085EF94E00E94790480919E
:1031D0006C0390916D038130910519F484E190E0C6
:1031E000D0C28530910509F490C08230910531F448
:1031F00080910101909102010A9708C0049709F09B
:103200001FC380910101909102010A9690930201DF
:103210008093010115C360E080E00E94E80B62EB3F
:1032200072E085EF94E00E94790461E080E00E9402
:10323000E80B6BEA71E085EF94E00E9479048091DD
:103240005503811106C061EC72E085EF94E00E94A5
:10325000790480915503813031F465EC72E085EF9B
:1032600094E00E9479046DEA71E085EF94E00E9499
:10327000790480916C0390916D038130910519F46C
:103280008EE190E07EC28530910519F488E290E0ED
:1032900078C28230910519F410925503D1C2049777
:1032A00009F0CEC281E080935503CAC260E080E09D
:1032B0000E94E80B69EC72E085EF94E00E947904CB
:1032C00061E080E00E94E80B6BEA71E085EF94E03A
:1032D0000E947904409123015091240160912501BD
:1032E0007091260122E030E085EF94E00E949D037A
:1032F0006DEA71E085EF94E00E94790480916C039F
:1033000090916D038130910519F483E290E039C208
:103310008530910509F417C18230910549F520E007
:1033200030E040E85FE360912301709124018091D7
:103330002501909126010E9464276B017C0120E009
:1033400030E0A9010E94D12787FD09C0C092230166
:10335000D0922401E0922501F092260122C1109220
:10336000230110922401109225011092260119C107
:10337000049709F065C220E030E040E85FE3609127
:1033800023017091240180912501909126010E94D2
:103390006527AB01BC014093230150932401609346
:1033A000250170932601C0902B01D0902C01E09054
:1033B0002D01F0902E0100912701109128012091FC
:1033C000290130912A0121C160E080E00E94E80BD0
:1033D00062ED72E085EF94E00E94790461E080E0A4
:1033E0000E94E80B6BEA71E085EF94E00E9479049B
:1033F00040912701509128016091290170912A0183
:1034000022E030E085EF94E00E949D036DEA71E0D8
:1034100085EF94E00E94790480916C0390916D0394
:103420008130910539F4A8E2B0E0B0937D03A09318
:103430007C0306C28530910539F40CE310E010934B
:103440007D0300937C03FCC18230910549F52DEC8E
:103450003CEC4CEC5DE36091270170912801809178
:10346000290190912A010E9464276B017C0120E0D0
:1034700030E0A9010E94D12787FD09C0C092270131
:10348000D0922801E0922901F0922A018AC010927C
:103490002701109228011092290110922A0181C05F
:1034A000049709F0CDC12DEC3CEC4CEC5DE3609150
:1034B0002701709128018091290190912A010E9491
:1034C00065278B019C0160932701709328018093ED
:1034D000290190932A01C0902B01D0902C01E090FB
:1034E0002D01F0902E0189C060E080E00E94E80B81
:1034F0006BED72E085EF94E00E94790461E080E07A
:103500000E94E80B6BEA71E085EF94E00E94790479
:1035100040912B0150912C0160912D0170912E0151
:1035200022E030E085EF94E00E949D036DEA71E0B7
:1035300085EF94E00E94790480916C0390916D0373
:103540008130910519F482E390E01BC1823091052E
:1035500089F520E030E040E251E460912B01709168
:103560002C0180912D0190912E010E9464276B0106
:103570007C0120E030E0A9010E94D12787FD09C02D
:10358000C0922B01D0922C01E0922D01F0922E01DD
:1035900008C010922B0110922C0110922D01109254
:1035A0002E01C0902B01D0902C01E0902D01F090C5
:1035B0002E011BC08430910559F520E030E040E237
:1035C00051E460912B0170912C0180912D0190911B
:1035D0002E010E9465276B017C0160932B01709383
:1035E0002C0180932D0190932E01009127011091C1
:1035F00028012091290130912A0140912301509105
:103600002401609125017091260189EB94E09AC90B
:10361000059709F015C18EE390E0B3C060E080E04B
:103620000E94E80B80916903823030F464EE72E00E
:1036300085EF94E00E947904809169038C3031F425
:1036400063EF72E085EF94E00E9479048091690352
:103650008E3031F464E073E085EF94E00E947904E9
:1036600080916903803131F465E871E085EF94E081
:103670000E94790460E08FE00E94E80B8AE00E94DB
:10368000430C019731F465E971E085EF94E00E9405
:1036900079048AE00E94430C892B31F463E971E0DC
:1036A00085EF94E00E94790461E080E00E94E80BDD
:1036B000809169038E3001F567E173E085EF94E056
:1036C0000E94790460912301709124018091250169
:1036D000909126019B01AC010E946527AB01BC01C2
:1036E00020E030E085EF94E00E949D0363E971E003
:1036F00085EF94E00E947904809169038031A1F5FF
:1037000067E173E085EF94E00E9479044091230122
:1037100050912401609125017091260120E030E054
:1037200085EF94E00E949D0363E971E085EF94E0EA
:103730000E9479046BE173E085EF94E00E947904C4
:1037400040912701509128016091290170912A012F
:1037500022E030E085EF94E00E949D0363E971E090
:1037600085EF94E00E94790480916C0390916D0341
:103770008130910509F461CE8530910539F48FE3EC
:1037800090E090937D0380937C035AC0039709F0E7
:1037900057C08AE08093690353C060E080E00E94D4
:1037A000E80B6FE173E085EF94E00E94790461E03B
:1037B00080E00E94E80B6BEA71E085EF94E00E94E4
:1037C00079044091000150E060E070E02AE085EF6C
:1037D00094E00E9454036BE972E085EF94E00E944C
:1037E000790420916C0330916D032130310539F457
:1037F0008EE390E090937D0380937C030DC08091D5
:1038000000012230310511F4815004C0243031050B
:1038100019F48F5F8093000180910001811103C032
:1038200081E080930001809100018F3F19F48EEFB9
:10383000809300016091000170E088E00E94880F91
:1038400010926D0310926C0320916A0330916B0308
:1038500080917C0390917D032817390781F01092A5
:103860006D0310926C030E94E00B0E94FA08809195
:103870007C0390917D0390936B0380936A038EE0A9
:103880000E94E70F0B976CF00E9438102091700394
:1038900030917103621B730B70936F0360936E031F
:1038A0000AC00E94381070937103609370031092E5
:1038B0006F0310926E0380916E0390916F030B97CC
:1038C0009CF08EE00E94E70F90936D0380936C0351
:1038D00010926F0310926E030E943810645D7E4F49
:1038E000709371036093700380916C0390916D03EA
:1038F0008B5D9240CB9730F421E030E030936D0344
:1039000020936C0380916C0390916D038B539240D4
:10391000C19730F482E090E090936D0380936C0344
:1039200080916C0390916D03855A9140829730F499
:10393000A3E0B0E0B0936D03A0936C0380916C039F
:1039400090916D03855091408534910530F404E0E9
:1039500010E010936D0300936C0380916C039091C1
:103960006D038D5891094D9720F490926D038092CC
:103970006C03E0905603F0905703E114F10421F436
:1039800080E10E94B10215C01CEFE1161FEFF106A5
:1039900081F460E070E081E10E94880F60E070E0F7
:1039A0008FE00E94880F80910101909102010E9496
:1039B000780DC70103960397D0F46FEF70E081E1B3
:1039C0000E94880F60E070E08FE00E94880F2091D5
:1039D000030130910401E29EC001E39E900DF29E2E
:1039E000900D11249195819591090E94780D870180
:1039F0000150110903301105B8F46FEF70E081E157
:103A00000E94880F6FEF70E08FE00E94880F809116
:103A10000301909104019C01E29EC001E39E900D80
:103A2000F29E900D112412C034E0E316F10481F4EB
:103A300060E070E081E10E94880F6FEF70E08FE03E
:103A40000E94880F80910101909102010E94780DDF
:103A500080916903813009F040C00330110508F0FE
:103A600046C08091030190910401B1010E942C2A6B
:103A7000AB01770F660B770B809172039091730304
:103A8000A0917403B09175038A019B01080F191F5F
:103A90002A1F3B1FC901B8010093720310937303DF
:103AA00020937403309375032FE931E040E050E038
:103AB0000E94402ACA01B9010E947E2820E030E01D
:103AC0004AE754E40E94D6276093AB037093AC039B
:103AD0008093AD039093AE030AC0811108C0109289
:103AE000720310927303109274031092750389E0AD
:103AF0000E94430C892B21F4EF2811F00C948926A5
:103B0000A895809191038A3008F474C38091900342
:103B10008F5F80939003109291034091B303509173
:103B2000B4036091B5037091B6034F5F5F4F6F4F61
:103B30007F4F4093B3035093B4036093B5037093E6
:103B4000B6038C3310F010929003409165035091AE
:103B50006603609167037091680322E030E088ECAF
:103B600093E00E949D036EE273E088EC93E00E9474
:103B700079044091600350916103609162037091F8
:103B8000630322E030E088EC93E00E949D036EE244
:103B900073E088EC93E00E947904409123015091F6
:103BA0002401609125017091260122E030E088EC2B
:103BB00093E00E949D036EE273E088EC93E00E9424
:103BC0007904409127015091280160912901709159
:103BD0002A0122E030E088EC93E00E949D036EE22F
:103BE00073E088EC93E00E94790440912B0150919E
:103BF0002C0160912D0170912E0122E030E088ECC3
:103C000093E00E949D036EE273E088EC93E00E94D3
:103C100079042AE046E050E060E070E088EC93E050
:103C20000E94540360E373E088EC93E00E943F033A
:103C300060919F037091A0038091A1039091A203D2
:103C40000E944828072E000C880B990B0E948028A0
:103C50009B01AC0160E070EC8FE794E40E94D627F2
:103C600020E030E040E85FE30E9464279B01AC0164
:103C700060E070E081E995E40E94D62720E030E51D
:103C800043EC57E40E94D6270E943D2920E030EE05
:103C900046E755E40E94D6272FE03FEC4BE55BE377
:103CA0000E9465279B01AC0160E070E080E89FE323
:103CB0000E94D62723E333E948E853E40E946427AF
:103CC0006B017C01609365037093660380936703C7
:103CD0009093680360919703709198038091990382
:103CE00090919A030E944828072E000C880B990B8C
:103CF0000E9480289B01AC0160E070EC8FE794E4A7
:103D00000E94D62720E030E040E85FE30E9464276D
:103D10009B01AC0160E070E081E995E40E94D62748
:103D200020E030E543EC57E40E94D6270E943D296D
:103D300020E030EE46E755E40E94D6272FE03FEC26
:103D40004BE55BE30E9465279B01AC0160E070E0FE
:103D500080E89FE30E94D62723E333E948E853E451
:103D60000E9464272B013C01609360037093610300
:103D7000809362039093630380918E0390918F03ED
:103D8000019690938F0380938E03059704F1209101
:103D90008A0330918B0340918C0350918D03C301B2
:103DA000B2010E9464276093860370938703809317
:103DB00088039093890340928A0350928B03609208
:103DC0008C0370928D0310928F0310928E0380915A
:103DD0000901813071F58091860390918703A0914C
:103DE0008803B091890321968CAF9DAFAEAFBFAF72
:103DF000219720E030E0A901BC01CD010E943029CB
:103E0000181644F440920501509206016092070191
:103E10007092080120E030E0A90121966CAD7DADE3
:103E20008EAD9FAD21970E94D12787FF39C0109298
:103E3000090180910901811133C00091860310911D
:103E40008703209188033091890321960CAF1DAF21
:103E50002EAF3FAF219720E030E0A90121966CAD55
:103E60007DAD8EAD9FAD21970E94D12787FF08C001
:103E70004092820350928303609284037092850380
:103E800020E030E0A90121966CAD7DAD8EAD9FADF7
:103E900021970E94302918161CF481E080930901B3
:103EA0008091560390915703892B29F0109281033A
:103EB0001092800311C080916903813069F4809170
:103EC00080039091810301969093810380938003F6
:103ED000813B944008F023C780916403813011F046
:103EE000843191F480917E0390917F0301969093A9
:103EF0007F0380937E0381319E4030F010926403F3
:103F000010927F0310927E0320E030E045EA53E4F4
:103F1000C701B6010E94302918164CF481E0809345
:103F2000540390927D0380927C030E94CA0720E094
:103F300030E045EA53E46091600370916103809141
:103F40006203909163030E94302918164CF482E0BA
:103F50008093540390927D0380927C030E94CA0751
:103F600020E030E040EA51EC609165037091660317
:103F700080916703909168030E94D12787FF0DC04D
:103F800080916903882349F083E0809354039092E1
:103F90007D0380927C030E94CA0720E030E040EA63
:103FA00051EC609160037091610380916203909184
:103FB00063030E94D12787FF0DC08091640388238B
:103FC00049F084E08093540390927D0380927C03B7
:103FD0000E94CA0780916903813009F052C0C090E5
:103FE0006503D0906603E0906703F090680320E0DB
:103FF00030E040EA51E46091A7037091A8038091FA
:10400000A9039091AA030E946427A70196010E9428
:1040100030291816D4F52091780330917903409116
:104020007A0350917B03C701B6010E94302918160C
:1040300054F4C0927803D0927903E0927A03F0921C
:104040007B0310927703209178033091790340919C
:104050007A0350917B03C701B6010E94D12718163D
:10406000A4F0809177038F5F80937703893268F0A3
:104070000E94CA0785E08093540390927D0380924A
:104080007C03809169038823D1F020E030E040EA8E
:1040900051E46091A7037091A8038091A9039091C6
:1040A000AA030E9464272091650330916603409122
:1040B0006703509168030E94D12787FF12C0809147
:1040C000650390916603A0916703B09168038093A4
:1040D000780390937903A0937A03B0937B031092B3
:1040E000770380916403813019F0843109F052C064
:1040F000C0906003D0906103E0906203F09063038E
:1041000020E030E040EA51E460910E0170910F012F
:1041100080911001909111010E946427A7019601DE
:104120000E9430291816B4F520918A0330918B0330
:1041300040918C0350918D03C701B6010E94302934
:10414000181654F4C0928A03D0928B03E0928C0329
:10415000F0928D031092760320918A0330918B03A5
:1041600040918C0350918D03C701B6010E94D12765
:10417000181684F0809176038F5F809376038932DE
:1041800048F00E94CA0786E08093540390927D0312
:1041900080927C03809164038823D1F020E030E09A
:1041A00040EA51E46091A7037091A8038091A903AC
:1041B0009091AA030E9464272091600330916103CB
:1041C00040916203509163030E94D12787FF12C080
:1041D0008091600390916103A0916203B0916303A9
:1041E00080938A0390938B03A0938C03B0938D03E9
:1041F0001092760382E10E94E70F7C014090A303B6
:104200005090A4036090A5037090A60320E030E0D6
:1042100040E05EE3C301B2010E9485299B01AC012D
:10422000C301B2010E9464272B013C01B701FF0CBE
:10423000880B990B0E9480289B01AC01C301B2013D
:104240000E9465276093A3037093A4038093A50342
:104250009093A60320E030E040E05EE30E948529D1
:1042600060939F037093A0038093A1039093A20394
:1042700083E10E94E70F7C0140909B0350909C03D8
:1042800060909D0370909E0320E030E040E05EE38C
:10429000C301B2010E9485299B01AC01C301B20197
:1042A0000E9464272B013C01B701FF0C880B990B7E
:1042B0000E9480289B01AC01C301B2010E946527C6
:1042C00060939B0370939C0380939D0390939E0344
:1042D00020E030E040E05EE30E9485296093970390
:1042E000709398038093990390939A038091690344
:1042F000813009F0FDC0C090AB03D090AC03E090DA
:10430000AD03F090AE0320E030E040E85EE3C7018B
:10431000B6010E94D127181684F080910A0190916D
:104320000B01A0910C01B0910D018093A703909314
:10433000A803A093A903B093AA0320E030E040E8CB
:104340005EE3C701B6010E943029181684F48091FB
:10435000120190911301A0911401B0911501809365
:10436000A7039093A803A093A903B093AA03609115
:10437000A7037091A8038091A9039091AA03609369
:10438000AD047093AE048093AF049093B00420E02A
:1043900030E040E251E40E94642721966CAF7DAF8B
:1043A0008EAF9FAF21974090650350906603609059
:1043B000670370906803A30192010E9430291816C8
:1043C00074F561E08AE00E946C0CA0902701B09027
:1043D0002801C0902901D0902A01E0902301F0909B
:1043E0002401009125011091260180912E018F93C7
:1043F00080912D018F9380912C018F9380912B01BF
:104400008F932DEA34E041EB54E065EB74E0CE018C
:1044100001960E9444100F900F900F900F90A301EF
:10442000920121966CAD7DAD8EAD9FAD21970E941E
:10443000D12787FF4EC18091F304811104C089EB1D
:1044400094E00E94590581E08093F3044092B50402
:104450005092B6046092B7047092B80489EB94E06D
:104460000E9463060E94381000915803109159036E
:1044700020915A0330915B03AB01BC01401B510BEF
:10448000620B730B493E53406105710570F0D90111
:10449000C80188519C4FAF4FBF4F809358039093F2
:1044A0005903A0935A03B0935B030E943810009104
:1044B00058031091590320915A0330915B03601BFC
:1044C000710B820B930B0E947E282091B1043091D6
:1044D000B2044091B3045091B4040E9430291816DC
:1044E00014F460E001C061E08AE00E946C0CF1C04D
:1044F000811107C01092F30460E08AE00E946C0C06
:1045000061C08A3009F05EC08091F304811104C05B
:1045100089EB94E00E94590581E08093F304809137
:10452000120190911301A0911401B0911501809393
:10453000AD049093AE04A093AF04B093B004809107
:10454000650390916603A0916703B091680380931F
:10455000B5049093B604A093B704B093B80480E078
:1045600090E0A0E8BFE38093230190932401A093FF
:104570002501B09326011092270110922801109274
:10458000290110922A0110922B0110922C011092F5
:104590002D0110922E01C12CD12C7601970186019C
:1045A000AC01BD0189EB94E00E949F058CE08093F3
:1045B00069038091B3039091B4034E969093B20334
:1045C0008093B103809169038C3009F082C00E940E
:1045D0008D088091B1039091B203A0E0B0E04091CA
:1045E000B3035091B4036091B5037091B60384177F
:1045F0009507A607B70708F023C1409065035090C0
:104600006603609067037090680320E030E040E24A
:1046100051E4609112017091130180911401909105
:1046200015010E946427A30192010E9430291816E7
:1046300064F520E030E040E85FE360912301709191
:10464000240180912501909126010E946527AB01EC
:10465000BC01409323015093240160932501709382
:104660002601C0902B01D0902C01E0902D01F090FC
:104670002E010091270110912801209129013091EC
:104680002A0189EB94E00E949F0520E030E040E29F
:1046900051E4609112017091130180911401909185
:1046A00015010E9464279B01AC01C301B2010E9465
:1046B000302918162CF48EE0809369030E94FA08C2
:1046C0008091B3039091B4034E969093B20380937C
:1046D000B103809169038E3009F0B2C00E948D0849
:1046E0008091B1039091B203A0E0B0E04091B30398
:1046F0005091B4036091B5037091B6038417950788
:10470000A607B70708F09CC0409065035090660369
:10471000609067037090680320911201309113013B
:104720004091140150911501C301B2010E94D1279B
:1047300087FF2CC02DEC3CEC4CEC5DE36091270135
:10474000709128018091290190912A010E9465278A
:104750008B019C01609327017093280180932901AC
:1047600090932A01C0902B01D0902C01E0902D0154
:10477000F0902E0140912301509124016091250178
:104780007091260189EB94E00E949F05209112010F
:10479000309113014091140150911501C301B201F0
:1047A0000E94302987FD43C01092F30460E08AE044
:1047B0000E946C0C00E010E028EC32E400932B0126
:1047C00010932C0120932D0130932E0120E030E036
:1047D00040EC5FE3609123017091240180912501F9
:1047E000909126010E9485296093230170932401F2
:1047F000809325019093260120E030E040EC5FE3B8
:1048000060912701709128018091290190912A01DE
:104810000E948529609327017093280180932901C4
:1048200090932A0180E1809369030E94FA088091A5
:10483000B3039091B4034E969093B2038093B10367
:1048400080916403882309F43DC0813009F03EC0A3
:10485000C0906003D0906103E0906203F090630326
:1048600020E030E040E251E460910E0170910F01D0
:1048700080911001909111010E946427A701960177
:104880000E943029181624F461E08BE00E946C0C21
:1048900020E030E040E251E460910E0170910F01A0
:1048A00080911001909111010E9464279B01AC013D
:1048B000C701B6010E94302918160CF0E2C084E14D
:1048C0008093640360E08BE00E946C0C8091640331
:1048D000843109F075C08091AB04811104C081E777
:1048E00094E00E94590581E08093AB0480910E0111
:1048F00090910F01A0911001B09111018093650476
:1049000090936604A0936704B09368048091600359
:1049100090916103A0916203B091630380936D0451
:1049200090936E04A0936F04B093700481E794E0B9
:104930000E9463060E94381000915C0310915D0391
:1049400020915E0330915F03AB01BC01401B510B12
:10495000620B730B493E53406105710570F0D9013C
:10496000C80188519C4FAF4FBF4F80935C03909319
:104970005D03A0935E03B0935F030E943810009123
:104980005C0310915D0320915E0330915F03601B17
:10499000710B820B930B0E947E2820916904309149
:1049A0006A0440916B0450916C040E9430291816DF
:1049B00014F460E001C061E08BE00E946C0CE8C080
:1049C0008A3009F05EC08091AB04811104C081E798
:1049D00094E00E94590581E08093AB0480910E0120
:1049E00090910F01A0911001B09111018093650485
:1049F00090936604A0936704B09368048091600369
:104A000090916103A0916203B091630380936D0460
:104A100090936E04A0936F04B093700480E090E0D4
:104A2000A0E8BFE38093170190931801A0931901A8
:104A3000B0931A0110921B0110921C0110921D01DB
:104A400010921E0110921F0110922001109221015C
:104A500010922201C12CD12C760197018601AC0164
:104A6000BD0181E794E00E949F058CE08093640380
:104A70008091B3039091B4034E969093B0038093CA
:104A8000AF03809164038C3009F082C00E9410084B
:104A90008091AF039091B003A0E0B0E04091B303E8
:104AA0005091B4036091B5037091B60384179507D4
:104AB000A607B70708F023C1409060035090610338
:104AC000609062037090630320E030E040E251E4C4
:104AD00060910E0170910F01809110019091110170
:104AE0000E946427A30192010E943029181664F5E0
:104AF00020E030E040E85FE3609117017091180119
:104B00008091190190911A010E946527AB01BC01A7
:104B100040931701509318016093190170931A0183
:104B2000C0901F01D0902001E0902101F09022015F
:104B300000911B0110911C0120911D0130911E015B
:104B400081E794E00E949F0520E030E040E251E4DC
:104B500060910E0170910F018091100190911101EF
:104B60000E9464279B01AC01C301B2010E9430295D
:104B700018162CF48EE0809364030E94FA0880914A
:104B8000B3039091B4034E969093B0038093AF0318
:104B9000809164038E3009F0B2C00E9410088091A9
:104BA000AF039091B003A0E0B0E04091B303509107
:104BB000B4036091B5037091B60384179507A607F7
:104BC000B70708F09CC0409060035090610360906C
:104BD00062037090630320910E0130910F014091A8
:104BE000100150911101C301B2010E94D12787FF2A
:104BF0002CC02DEC3CEC4CEC5DE360911B01709102
:104C00001C0180911D0190911E010E9465278B015E
:104C10009C0160931B0170931C0180931D01909374
:104C20001E01C0901F01D0902001E0902101F09062
:104C30002201409117015091180160911901709162
:104C40001A0181E794E00E949F0520910E013091A6
:104C50000F014091100150911101C301B2010E9456
:104C6000302987FD43C01092AB0460E08BE00E94C6
:104C70006C0C80E18093640300E010E028EC32E4E7
:104C800000931F01109320012093210130932201F2
:104C900020E030E040EC5FE3609117017091180173
:104CA0008091190190911A010E9485296093170142
:104CB000709318018093190190931A0120E030E05D
:104CC00040EC5FE360911B0170911C0180911D011C
:104CD00090911E010E94852960931B0170931C0115
:104CE00080931D0190931E010E94FA088091B303E6
:104CF0009091B4034E969093B0038093AF030E94BB
:104D0000BC010C949E1130935703209356030C94CE
:104D1000A01610925703109256030C94801D109207
:104D200069031092810310928003809155038130B2
:104D300009F0D2C860E08DE00E946C0CCDC8AF9243
:104D4000BF92CF92DF92EF92FF920F931F93E8EC06
:104D5000F3E01382128288EE93E0A0E0B0E0848357
:104D60009583A683B78385E391E09183808385EC67
:104D700090E09587848784EC90E09787868780EC25
:104D800090E0918B808B81EC90E0938B828B82EC16
:104D900090E0958B848B86EC90E0978B868B118EC0
:104DA000128E138E148EE5EFF4E01382128287E4E4
:104DB00091E09183808387E084838FEF858386E011
:104DC000868385E0878384E0808783E0818782E033
:104DD00082871386148615861686178681E00E94C0
:104DE000D70CA0902701B0902801C0902901D09045
:104DF0002A01E0902301F0902401009125011091F7
:104E0000260180912E018F9380912D018F938091A7
:104E10002C018F9380912B018F932DEA34E041EB8D
:104E200054E065EB74E089EB94E00E944410A0909C
:104E30001B01B0901C01C0901D01D0901E01E0909C
:104E40001701F09018010091190110911A01809139
:104E500022018F93809121018F93809120018F9364
:104E600080911F018F9325E634E049E654E06DE61A
:104E700074E081E794E00E9444108DB79EB70896D5
:104E80000FB6F8949EBF0FBE8DBF1F910F91FF907C
:104E9000EF90DF90CF90BF90AF900895F999FECF3B
:104EA00092BD81BDF89A992780B50895262FF9996A
:104EB000FECF1FBA92BD81BD20BD0FB6F894FA9AFD
:104EC000F99A0FBE019608955058BB27AA270E9451
:104ED0007C270C94F6280E94E82838F00E94EF28DE
:104EE00020F039F49F3F19F426F40C94E5280EF4D1
:104EF000E095E7FB0C94DF28E92F0E94072958F37F
:104F0000BA17620773078407950720F079F4A6F5AE
:104F10000C9429290EF4E0950B2EBA2FA02D0B012D
:104F2000B90190010C01CA01A0011124FF27591BEE
:104F300099F0593F50F4503E68F11A16F040A22FF4
:104F4000232F342F4427585FF3CF46953795279565
:104F5000A795F0405395C9F77EF41F16BA0B620B64
:104F6000730B840BBAF09150A1F0FF0FBB1F661FAB
:104F7000771F881FC2F70EC0BA0F621F731F841FEE
:104F800048F4879577956795B795F7959E3F08F014
:104F9000B0CF9395880F08F09927EE0F97958795D6
:104FA00008950E94BB2808F481E008950E94EA2732
:104FB0000C94F6280E94EF2858F00E94E82840F050
:104FC00029F45F3F29F00C94DF2851110C942A2911
:104FD0000C94E5280E94072968F39923B1F355231F
:104FE00091F3951B550BBB27AA27621773078407FC
:104FF00038F09F5F5F4F220F331F441FAA1FA9F392
:1050000035D00E2E3AF0E0E832D091505040E6957F
:10501000001CCAF72BD0FE2F29D0660F771F881FE0
:10502000BB1F261737074807AB07B0E809F0BB0BD3
:10503000802DBF01FF2793585F4F3AF09E3F5105E7
:1050400078F00C94DF280C942A295F3FE4F3983E13
:10505000D4F3869577956795B795F7959F5FC9F7D0
:10506000880F911D9695879597F90895E1E0660F51
:10507000771F881FBB1F621773078407BA0720F0CA
:10508000621B730B840BBA0BEE1F88F7E095089533
:105090000E944F286894B1110C942A2908950E9407
:1050A0000F2988F09F5798F0B92F9927B751B0F082
:1050B000E1F0660F771F881F991F1AF0BA95C9F79C
:1050C00014C0B13091F00E942929B1E008950C94E8
:1050D0002929672F782F8827B85F39F0B93FCCF39B
:1050E000869577956795B395D9F73EF49095809519
:1050F000709561957F4F8F4F9F4F0895E89409C039
:1051000097FB3EF490958095709561957F4F8F4FFA
:105110009F4F9923A9F0F92F96E9BB279395F69510
:10512000879577956795B795F111F8CFFAF4BB0F8E
:1051300011F460FF1BC06F5F7F4F8F4F9F4F16C0F2
:10514000882311F096E911C0772321F09EE8872F7C
:10515000762F05C0662371F096E8862F70E060E038
:105160002AF09A95660F771F881FDAF7880F9695B1
:10517000879597F90895990F0008550FAA0BE0E855
:10518000FEEF16161706E807F907C0F01216130609
:10519000E407F50798F0621B730B840B950B39F449
:1051A0000A2661F0232B242B252B21F408950A26AF
:1051B00009F4A140A6958FEF811D811D089597F9EF
:1051C0009F6780E870E060E008959FEF80EC0895AD
:1051D00000240A94161617061806090608950024D6
:1051E0000A9412161306140605060895092E039450
:1051F000000C11F4882352F0BB0F40F4BF2B11F4C4
:1052000060FF04C06F5F7F4F8F4F9F4F089557FD22
:105210009058440F551F59F05F3F71F04795880F24
:1052200097FB991F61F09F3F79F0879508951216BB
:1052300013061406551FF2CF4695F1DF08C0161667
:1052400017061806991FF1CF869571056105089418
:105250000895E894BB2766277727CB0197F908952F
:105260000E94BB2808F48FEF089516F00C94F729DC
:105270000C94E52868940C94DF280E940F29A8F369
:105280009923C1F3AEF3DF93CF931F930F93FF9254
:10529000C92FDD2788232AF02197660F771F881FE3
:1052A000DAF720E030E040E85FEB9FE3883920F058
:1052B000803E38F021968F770E946527E8E6F0E07F
:1052C00004C00E946527E5E9F0E00E94052A8B01F1
:1052D000BE01EC01FB2E6F5771097595771F880B86
:1052E000990B0E94802828E132E741E35FE30E94A6
:1052F0009829AF2D9801AE01FF900F911F91CF918A
:10530000DF910E947C270C94F6280E9498290C9427
:10531000F6280E94E82838F00E94EF2820F0952314
:1053200011F00C94DF280C94E52811240C942A2900
:105330000E94072970F3959FC1F3950F50E0551F08
:10534000629FF001729FBB27F00DB11D639FAA27DA
:10535000F00DB11DAA1F649F6627B00DA11D661F29
:10536000829F2227B00DA11D621F739FB00DA11D4A
:10537000621F839FA00D611D221F749F3327A00D04
:10538000611D231F849F600D211D822F762F6A2FA0
:1053900011249F5750409AF0F1F088234AF0EE0F05
:1053A000FF1FBB1F661F771F881F91505040A9F732
:1053B0009E3F510580F00C94DF280C942A295F3F12
:1053C000E4F3983ED4F3869577956795B795F7956E
:1053D000E7959F5FC1F7FE2B880F911D96958795E6
:1053E00097F908950E94BB28880B990B08959F3F59
:1053F00031F0915020F4879577956795B795880F90
:10540000911D9695879597F90895DF93CF931F93F4
:105410000F93FF92EF92DF927B018C01689406C09C
:10542000DA2EEF010E949829FE01E894A5912591BA
:10543000359145915591A6F3EF010E947C27FE011D
:105440009701A801DA9469F7DF90EF90FF900F9130
:105450001F91CF91DF91089597FB072E16F40094CA
:1054600007D077FD09D00E94812A07FC05D03EF4C1
:10547000909581959F4F0895709561957F4F089500
:10548000A1E21A2EAA1BBB1BFD010DC0AA1FBB1F48
:10549000EE1FFF1FA217B307E407F50720F0A21BBA
:1054A000B30BE40BF50B661F771F881F991F1A9427
:1054B00069F760957095809590959B01AC01BD0151
:1054C000CF010895052E97FB1EF400940E94792ABF
:1054D00057FD07D00E94402A07FC03D04EF40C94DD
:1054E000792A50954095309521953F4F4F4F5F4F0A
:1054F000089590958095709561957F4F8F4F9F4F40
:105500000895AA1BBB1B51E107C0AA1FBB1FA6170A
:10551000B70710F0A61BB70B881F991F5A95A9F75C
:1055200080959095BC01CD010895EE0FFF1F059069
:10553000F491E02D099481E090E0F8940C94A02A75
:04554000F894FFCF0D
:1055440082C409E803000020410100005C4300001C
:10555400874300002043FF00000041CDCC4C3E00B7
:1055640000C84200000041CDCC4C3E0000C842E8D7
:1055740003000000004D01BA00E4009A011501F394
:10558400000701000000005305BA00C701C601541A
:10559400756E696E6720504944323F2121210053C2
:1055A4006561726368204B70322E2E2E20202020DD
:1055B40000536561726368204B69322E2E2E2020C1
:1055C4002020202000446F6E6521202020202020F0
:1055D40020202020002A004B70323D004B69323DD0
:1055E400004B6432207365747570003C003E004BC0
:1055F4006932207365747570004B70322073657462
:1056040075700057656C64696E6754656D702073BE
:1056140065747570002800290054323D004F4646D9
:10562400200057656C64696E6700543D0043202078
:10563400202020004F464620202020200053706563
:1056440065643D004D004572726F723A00455854CE
:1056540031204F5645524845415400455854322054
:105664004F56455248454154005431204E6F7443BF
:105674006F6E6E656374005432204E6F74436F6EA8
:105684006E6563740054312046656C6C4F66660029
:1056940054322046656C6C4F6666005265736574BF
:1056A40020454550524F4D3F3F3F212121004F4B54
:1056B4002C5265626F6F74696E6700537461727403
:1056C4002054656D70207365747570004C6F77732A
:1056D40070656564207365747570003E20006D6D9F
:1056E4002F73200048497370656564207365747571
:1056F400700053687574646F776E4174456E643FCF
:10570400004E6F2000596573004B702073657475EB
:1057140070004B69207365747570004B6420736569
:105724007475700054756E696E67205049443F214A
:10573400212100536561726368204B702E2E2E2048
:1057440020202000536561726368204B692E2E2E41
:10575400202020202020004B703D004B693D004359
:105764006F6E7472617374207365747570003B009E
:105774000D0A006E616E00696E66006F76660050F9
:10578400455450756C6C005A6E65697061732D5682
:04579400312E36007C
:00000001FF
